{
  "contractName": "ContractForDifferenceProxy",
  "abi": [
    {
      "constant": false,
      "inputs": [
        {
          "name": "_cfdf",
          "type": "address"
        },
        {
          "name": "_daiToken",
          "type": "address"
        },
        {
          "name": "_marketId",
          "type": "bytes32"
        },
        {
          "name": "_strikePrice",
          "type": "uint256"
        },
        {
          "name": "_notionalAmountDai",
          "type": "uint256"
        },
        {
          "name": "_isBuyer",
          "type": "bool"
        },
        {
          "name": "_value",
          "type": "uint256"
        }
      ],
      "name": "createContract",
      "outputs": [
        {
          "name": "cfd",
          "type": "address"
        }
      ],
      "payable": false,
      "stateMutability": "nonpayable",
      "type": "function"
    },
    {
      "constant": false,
      "inputs": [
        {
          "name": "_cfdf",
          "type": "address"
        },
        {
          "name": "_marketId",
          "type": "bytes32"
        },
        {
          "name": "_strikePrice",
          "type": "uint256"
        },
        {
          "name": "_notionalAmountDai",
          "type": "uint256"
        },
        {
          "name": "_isBuyer",
          "type": "bool"
        }
      ],
      "name": "createContractWithETH",
      "outputs": [
        {
          "name": "cfd",
          "type": "address"
        }
      ],
      "payable": true,
      "stateMutability": "payable",
      "type": "function"
    },
    {
      "constant": false,
      "inputs": [
        {
          "name": "_cfd",
          "type": "address"
        },
        {
          "name": "_daiToken",
          "type": "address"
        },
        {
          "name": "_value",
          "type": "uint256"
        }
      ],
      "name": "deposit",
      "outputs": [],
      "payable": false,
      "stateMutability": "nonpayable",
      "type": "function"
    },
    {
      "constant": false,
      "inputs": [
        {
          "name": "_cfd",
          "type": "address"
        },
        {
          "name": "_desiredStrikePrice",
          "type": "uint256"
        },
        {
          "name": "_timeLimit",
          "type": "uint256"
        }
      ],
      "name": "sellPrepare",
      "outputs": [],
      "payable": false,
      "stateMutability": "nonpayable",
      "type": "function"
    },
    {
      "constant": false,
      "inputs": [
        {
          "name": "_cfd",
          "type": "address"
        },
        {
          "name": "_newPrice",
          "type": "uint256"
        }
      ],
      "name": "sellUpdate",
      "outputs": [],
      "payable": false,
      "stateMutability": "nonpayable",
      "type": "function"
    },
    {
      "constant": false,
      "inputs": [
        {
          "name": "_cfd",
          "type": "address"
        }
      ],
      "name": "sellCancel",
      "outputs": [],
      "payable": false,
      "stateMutability": "nonpayable",
      "type": "function"
    },
    {
      "constant": false,
      "inputs": [
        {
          "name": "_cfd",
          "type": "address"
        },
        {
          "name": "_daiToken",
          "type": "address"
        },
        {
          "name": "_buyBuyerSide",
          "type": "bool"
        },
        {
          "name": "_value",
          "type": "uint256"
        }
      ],
      "name": "buy",
      "outputs": [],
      "payable": false,
      "stateMutability": "nonpayable",
      "type": "function"
    },
    {
      "constant": false,
      "inputs": [
        {
          "name": "_cfd",
          "type": "address"
        },
        {
          "name": "_daiToken",
          "type": "address"
        },
        {
          "name": "_value",
          "type": "uint256"
        }
      ],
      "name": "topup",
      "outputs": [],
      "payable": false,
      "stateMutability": "nonpayable",
      "type": "function"
    },
    {
      "constant": false,
      "inputs": [
        {
          "name": "_cfd",
          "type": "address"
        },
        {
          "name": "_value",
          "type": "uint256"
        }
      ],
      "name": "withdraw",
      "outputs": [],
      "payable": false,
      "stateMutability": "nonpayable",
      "type": "function"
    },
    {
      "constant": false,
      "inputs": [
        {
          "name": "_cfd",
          "type": "address"
        }
      ],
      "name": "upgrade",
      "outputs": [],
      "payable": false,
      "stateMutability": "nonpayable",
      "type": "function"
    },
    {
      "constant": false,
      "inputs": [
        {
          "name": "_cfd",
          "type": "address"
        },
        {
          "name": "_newAddress",
          "type": "address"
        }
      ],
      "name": "transferPosition",
      "outputs": [],
      "payable": false,
      "stateMutability": "nonpayable",
      "type": "function"
    },
    {
      "constant": false,
      "inputs": [
        {
          "name": "_cfd",
          "type": "address"
        }
      ],
      "name": "liquidateMutual",
      "outputs": [],
      "payable": false,
      "stateMutability": "nonpayable",
      "type": "function"
    },
    {
      "constant": false,
      "inputs": [
        {
          "name": "_cfd",
          "type": "address"
        }
      ],
      "name": "liquidateMutualCancel",
      "outputs": [],
      "payable": false,
      "stateMutability": "nonpayable",
      "type": "function"
    },
    {
      "constant": false,
      "inputs": [
        {
          "name": "_cfd",
          "type": "address"
        }
      ],
      "name": "forceTerminate",
      "outputs": [],
      "payable": false,
      "stateMutability": "nonpayable",
      "type": "function"
    },
    {
      "constant": false,
      "inputs": [
        {
          "name": "_cfd",
          "type": "address"
        }
      ],
      "name": "cancelNew",
      "outputs": [],
      "payable": false,
      "stateMutability": "nonpayable",
      "type": "function"
    },
    {
      "constant": false,
      "inputs": [
        {
          "name": "_cfd",
          "type": "address"
        },
        {
          "name": "_newPrice",
          "type": "uint256"
        }
      ],
      "name": "changeStrikePrice",
      "outputs": [],
      "payable": false,
      "stateMutability": "nonpayable",
      "type": "function"
    }
  ],
  "bytecode": "0x608060405234801561001057600080fd5b506112b0806100206000396000f3fe6080604052600436106100f35760003560e01c8063ae113bf41161008a578063df2b130311610059578063df2b1303146103fc578063f3de10da1461042f578063f3fef3a31461046f578063fdb10877146104a8576100f3565b8063ae113bf4146102e2578063c128d52f14610315578063d9aa0aab1461038e578063da055fb7146103c9576100f3565b80632cbaf35a116100c65780632cbaf35a146101e257806349f386a41461022157806382cdc16e1461026c5780638340f5491461029f576100f3565b8063011cae19146100f857806303257f74146101335780630900f0101461016c5780631e2a9d4c1461019f575b600080fd5b34801561010457600080fd5b506101316004803603604081101561011b57600080fd5b506001600160a01b0381351690602001356104db565b005b34801561013f57600080fd5b506101316004803603604081101561015657600080fd5b506001600160a01b03813516906020013561053d565b34801561017857600080fd5b506101316004803603602081101561018f57600080fd5b50356001600160a01b0316610583565b3480156101ab57600080fd5b50610131600480360360608110156101c257600080fd5b506001600160a01b038135811691602081013590911690604001356105d9565b3480156101ee57600080fd5b506101316004803603606081101561020557600080fd5b506001600160a01b03813516906020810135906040013561086e565b34801561022d57600080fd5b506101316004803603608081101561024457600080fd5b506001600160a01b0381358116916020810135909116906040810135151590606001356108bc565b34801561027857600080fd5b506101316004803603602081101561028f57600080fd5b50356001600160a01b0316610b22565b3480156102ab57600080fd5b50610131600480360360608110156102c257600080fd5b506001600160a01b03813581169160208101359091169060400135610b5d565b3480156102ee57600080fd5b506101316004803603602081101561030557600080fd5b50356001600160a01b0316610d98565b34801561032157600080fd5b50610372600480360360e081101561033857600080fd5b506001600160a01b03813581169160208101359091169060408101359060608101359060808101359060a081013515159060c00135610dd3565b604080516001600160a01b039092168252519081900360200190f35b34801561039a57600080fd5b50610131600480360360408110156103b157600080fd5b506001600160a01b038135811691602001351661106c565b3480156103d557600080fd5b50610131600480360360208110156103ec57600080fd5b50356001600160a01b03166110c4565b34801561040857600080fd5b506101316004803603602081101561041f57600080fd5b50356001600160a01b03166110ff565b610372600480360360a081101561044557600080fd5b506001600160a01b038135169060208101359060408101359060608101359060800135151561113a565b34801561047b57600080fd5b506101316004803603604081101561049257600080fd5b506001600160a01b0381351690602001356111d7565b3480156104b457600080fd5b50610131600480360360208110156104cb57600080fd5b50356001600160a01b031661121d565b816001600160a01b0316637028875e826040518263ffffffff1660e01b815260040180828152602001915050600060405180830381600087803b15801561052157600080fd5b505af1158015610535573d6000803e3d6000fd5b505050505050565b816001600160a01b0316631a9fddf2826040518263ffffffff1660e01b815260040180828152602001915050600060405180830381600087803b15801561052157600080fd5b806001600160a01b031663d55ec6976040518163ffffffff1660e01b8152600401600060405180830381600087803b1580156105be57600080fd5b505af11580156105d2573d6000803e3d6000fd5b5050505050565b60408051600160e01b6323b872dd0281523360048201523060248201526044810183905290516001600160a01b038416916323b872dd9160648083019260209291908290030181600087803b15801561063157600080fd5b505af1158015610645573d6000803e3d6000fd5b505050506040513d602081101561065b57600080fd5b50516040805160608101909152602c80825261125960208301399061070157604051600160e51b62461bcd0281526004018080602001828103825283818151815260200191508051906020019080838360005b838110156106c65781810151838201526020016106ae565b50505050905090810190601f1680156106f35780820380516001836020036101000a031916815260200191505b509250505060405180910390fd5b5060408051600160e11b636eb1769f0281523060048201526001600160a01b0385811660248301529151839285169163dd62ed3e916044808301926020929190829003018186803b15801561075557600080fd5b505afa158015610769573d6000803e3d6000fd5b505050506040513d602081101561077f57600080fd5b5051101561080b5760408051600160e01b63095ea7b30281526001600160a01b038581166004830152600019602483015291519184169163095ea7b3916044808201926020929091908290030181600087803b1580156107de57600080fd5b505af11580156107f2573d6000803e3d6000fd5b505050506040513d602081101561080857600080fd5b50505b826001600160a01b03166330db555f826040518263ffffffff1660e01b815260040180828152602001915050600060405180830381600087803b15801561085157600080fd5b505af1158015610865573d6000803e3d6000fd5b50505050505050565b826001600160a01b031663818197ea83836040518363ffffffff1660e01b81526004018083815260200182815260200192505050600060405180830381600087803b15801561085157600080fd5b60408051600160e01b6323b872dd0281523360048201523060248201526044810183905290516001600160a01b038516916323b872dd9160648083019260209291908290030181600087803b15801561091457600080fd5b505af1158015610928573d6000803e3d6000fd5b505050506040513d602081101561093e57600080fd5b50516040805160608101909152602c8082526112596020830139906109a757604051600160e51b62461bcd0281526020600482018181528351602484015283519092839260449091019190850190808383600083156106c65781810151838201526020016106ae565b5060408051600160e11b636eb1769f0281523060048201526001600160a01b0386811660248301529151839286169163dd62ed3e916044808301926020929190829003018186803b1580156109fb57600080fd5b505afa158015610a0f573d6000803e3d6000fd5b505050506040513d6020811015610a2557600080fd5b50511015610ab15760408051600160e01b63095ea7b30281526001600160a01b038681166004830152600019602483015291519185169163095ea7b3916044808201926020929091908290030181600087803b158015610a8457600080fd5b505af1158015610a98573d6000803e3d6000fd5b505050506040513d6020811015610aae57600080fd5b50505b60408051600160e01b63e24c469b02815283151560048201526024810183905290516001600160a01b0386169163e24c469b91604480830192600092919082900301818387803b158015610b0457600080fd5b505af1158015610b18573d6000803e3d6000fd5b5050505050505050565b806001600160a01b03166379bf47966040518163ffffffff1660e01b8152600401600060405180830381600087803b1580156105be57600080fd5b60408051600160e01b6323b872dd0281523360048201523060248201526044810183905290516001600160a01b038416916323b872dd9160648083019260209291908290030181600087803b158015610bb557600080fd5b505af1158015610bc9573d6000803e3d6000fd5b505050506040513d6020811015610bdf57600080fd5b50516040805160608101909152602c808252611259602083013990610c4857604051600160e51b62461bcd0281526020600482018181528351602484015283519092839260449091019190850190808383600083156106c65781810151838201526020016106ae565b5060408051600160e11b636eb1769f0281523060048201526001600160a01b0385811660248301529151839285169163dd62ed3e916044808301926020929190829003018186803b158015610c9c57600080fd5b505afa158015610cb0573d6000803e3d6000fd5b505050506040513d6020811015610cc657600080fd5b50511015610d525760408051600160e01b63095ea7b30281526001600160a01b038581166004830152600019602483015291519184169163095ea7b3916044808201926020929091908290030181600087803b158015610d2557600080fd5b505af1158015610d39573d6000803e3d6000fd5b505050506040513d6020811015610d4f57600080fd5b50505b826001600160a01b031663b6b55f25826040518263ffffffff1660e01b815260040180828152602001915050600060405180830381600087803b15801561085157600080fd5b806001600160a01b031663497b13d36040518163ffffffff1660e01b8152600401600060405180830381600087803b1580156105be57600080fd5b60408051600160e01b6323b872dd0281523360048201523060248201526044810183905290516000916001600160a01b038916916323b872dd9160648082019260209290919082900301818787803b158015610e2e57600080fd5b505af1158015610e42573d6000803e3d6000fd5b505050506040513d6020811015610e5857600080fd5b50516040805160608101909152602c808252611259602083013990610ec157604051600160e51b62461bcd0281526020600482018181528351602484015283519092839260449091019190850190808383600083156106c65781810151838201526020016106ae565b5060408051600160e11b636eb1769f0281523060048201526001600160a01b038a81166024830152915184928a169163dd62ed3e916044808301926020929190829003018186803b158015610f1557600080fd5b505afa158015610f29573d6000803e3d6000fd5b505050506040513d6020811015610f3f57600080fd5b50511015610fcb5760408051600160e01b63095ea7b30281526001600160a01b038a81166004830152600019602483015291519189169163095ea7b3916044808201926020929091908290030181600087803b158015610f9e57600080fd5b505af1158015610fb2573d6000803e3d6000fd5b505050506040513d6020811015610fc857600080fd5b50505b60408051600160e31b6308943cc302815260048101889052602481018790526044810186905284151560648201526084810184905290516001600160a01b038a16916344a1e6189160a48083019260209291908290030181600087803b15801561103457600080fd5b505af1158015611048573d6000803e3d6000fd5b505050506040513d602081101561105e57600080fd5b505198975050505050505050565b816001600160a01b0316635e24e35d826040518263ffffffff1660e01b815260040180826001600160a01b03166001600160a01b03168152602001915050600060405180830381600087803b15801561052157600080fd5b806001600160a01b031663ddac6d646040518163ffffffff1660e01b8152600401600060405180830381600087803b1580156105be57600080fd5b806001600160a01b03166393a965126040518163ffffffff1660e01b8152600401600060405180830381600087803b1580156105be57600080fd5b60408051600160e11b633dcf17e1028152600481018690526024810185905260448101849052821515606482015290516000916001600160a01b03881691637b9e2fc2913491608480830192602092919082900301818588803b1580156111a057600080fd5b505af11580156111b4573d6000803e3d6000fd5b50505050506040513d60208110156111cb57600080fd5b50519695505050505050565b816001600160a01b0316632e1a7d4d826040518263ffffffff1660e01b815260040180828152602001915050600060405180830381600087803b15801561052157600080fd5b806001600160a01b031663f797efda6040518163ffffffff1660e01b8152600401600060405180830381600087803b1580156105be57600080fdfe50726f7879206e6565647320746f206f627461696e20616d6f756e742066726f6d207468652073656e646572a165627a7a72305820abe656fd3e5cd0da155c925396a6d0ec3ca68ee72b883ccb2ff9ba457406c2460029",
  "source": "pragma solidity ^0.5.0;\r\n\r\nimport \"openzeppelin-solidity/contracts/token/ERC20/ERC20.sol\";\r\nimport \"./ContractForDifference.sol\";\r\nimport \"./ContractForDifferenceFactory.sol\";\r\n\r\n\r\ncontract ContractForDifferenceProxy {\r\n\r\n    string constant REASON_PROXY_NEEDS_FUNDS = \"Proxy needs to obtain amount from the sender\";\r\n\r\n    /**\r\n     * ContractForDifferenceFactory.createContract\r\n     */\r\n    function createContract(\r\n        ContractForDifferenceFactory _cfdf,\r\n        ERC20 _daiToken,\r\n        bytes32 _marketId,\r\n        uint _strikePrice,\r\n        uint _notionalAmountDai,\r\n        bool _isBuyer,\r\n        uint _value\r\n    )\r\n        external\r\n        returns (ContractForDifference cfd)\r\n    {\r\n        require(\r\n            _daiToken.transferFrom(msg.sender, address(this), _value),\r\n            REASON_PROXY_NEEDS_FUNDS\r\n        );\r\n        if (_daiToken.allowance(address(this), address(_cfdf)) < _value) {\r\n            _daiToken.approve(address(_cfdf), uint(-1));\r\n        }\r\n        cfd = _cfdf.createContract(\r\n            _marketId,\r\n            _strikePrice,\r\n            _notionalAmountDai,\r\n            _isBuyer,\r\n            _value\r\n        );\r\n    }\r\n\r\n    /**\r\n     * ContractForDifferenceFactory.createContractWithETH\r\n     */\r\n    function createContractWithETH(\r\n        ContractForDifferenceFactory _cfdf,\r\n        bytes32 _marketId,\r\n        uint _strikePrice,\r\n        uint _notionalAmountDai,\r\n        bool _isBuyer\r\n    )\r\n        external\r\n        payable\r\n        returns (ContractForDifference cfd)\r\n    {\r\n        cfd = _cfdf.createContractWithETH.value(msg.value)(\r\n            _marketId,\r\n            _strikePrice,\r\n            _notionalAmountDai,\r\n            _isBuyer\r\n        );\r\n    }\r\n\r\n    /**\r\n     * ContractForDifference.deposit\r\n     */\r\n    function deposit(\r\n        ContractForDifference _cfd,\r\n        ERC20 _daiToken,\r\n        uint _value\r\n    )\r\n        external\r\n    {\r\n        require(\r\n            _daiToken.transferFrom(msg.sender, address(this), _value),\r\n            REASON_PROXY_NEEDS_FUNDS\r\n        );\r\n        if (_daiToken.allowance(address(this), address(_cfd)) < _value) {\r\n            _daiToken.approve(address(_cfd), uint(-1));\r\n        }\r\n        _cfd.deposit(_value);\r\n    }\r\n\r\n    /**\r\n     * ContractForDifference.sellPrepare\r\n     */\r\n    function sellPrepare(\r\n        ContractForDifference _cfd,\r\n        uint _desiredStrikePrice,\r\n        uint _timeLimit\r\n    )\r\n        external\r\n    {\r\n        _cfd.sellPrepare(_desiredStrikePrice, _timeLimit);\r\n    }\r\n\r\n    /**\r\n     * ContractForDifference.sellUpdate\r\n     */\r\n    function sellUpdate(ContractForDifference _cfd, uint _newPrice) external {\r\n        _cfd.sellUpdate(_newPrice);\r\n    }\r\n\r\n    /**\r\n     * ContractForDifference.sellCancel\r\n     */\r\n    function sellCancel(ContractForDifference _cfd) external {\r\n        _cfd.sellCancel();\r\n    }\r\n\r\n    /**\r\n     * ContractForDifference.buy\r\n     */\r\n    function buy(\r\n        ContractForDifference _cfd,\r\n        ERC20 _daiToken,\r\n        bool _buyBuyerSide,\r\n        uint _value\r\n    )\r\n        external\r\n    {\r\n        require(\r\n            _daiToken.transferFrom(msg.sender, address(this), _value),\r\n            REASON_PROXY_NEEDS_FUNDS\r\n        );\r\n        if (_daiToken.allowance(address(this), address(_cfd)) < _value) {\r\n            _daiToken.approve(address(_cfd), uint(-1));\r\n        }\r\n        _cfd.buy(_buyBuyerSide, _value);\r\n    }\r\n\r\n    /**\r\n     * ContractForDifference.topup\r\n     */\r\n    function topup(\r\n        ContractForDifference _cfd,\r\n        ERC20 _daiToken,\r\n        uint _value\r\n    )\r\n        external\r\n    {\r\n        require(\r\n            _daiToken.transferFrom(msg.sender, address(this), _value),\r\n            REASON_PROXY_NEEDS_FUNDS\r\n        );\r\n        if (_daiToken.allowance(address(this), address(_cfd)) < _value) {\r\n            _daiToken.approve(address(_cfd), uint(-1));\r\n        }\r\n        _cfd.topup(_value);\r\n    }\r\n\r\n    /**\r\n     * ContractForDifference.withdraw\r\n     */\r\n    function withdraw(ContractForDifference _cfd, uint _value) external {\r\n        _cfd.withdraw(_value);\r\n    }\r\n\r\n    /**\r\n     * ContractForDifference.upgrade\r\n     */\r\n    function upgrade(ContractForDifference _cfd) external {\r\n        _cfd.upgrade();\r\n    }\r\n\r\n    /**\r\n     * ContractForDifference.transferPosition\r\n     */\r\n    function transferPosition(ContractForDifference _cfd, address _newAddress) external {\r\n        _cfd.transferPosition(_newAddress);\r\n    }\r\n\r\n    /**\r\n     * ContractForDifference.liquidateMutual\r\n     */\r\n    function liquidateMutual(ContractForDifference _cfd) external {\r\n        _cfd.liquidateMutual();\r\n    }\r\n\r\n    /**\r\n     * ContractForDifference.liquidateMutualCancel\r\n     */\r\n    function liquidateMutualCancel(ContractForDifference _cfd) external {\r\n        _cfd.liquidateMutualCancel();\r\n    }\r\n\r\n    /**\r\n     * ContractForDifference.forceTerminate\r\n     */\r\n    function forceTerminate(ContractForDifference _cfd) external {\r\n        _cfd.forceTerminate();\r\n    }\r\n\r\n    /**\r\n     * ContractForDifference.cancelNew\r\n     */\r\n    function cancelNew(ContractForDifference _cfd) external {\r\n        _cfd.cancelNew();\r\n    }\r\n\r\n\r\n    /**\r\n     * ContractForDifference.changeStrikePrice\r\n     */\r\n    function changeStrikePrice(ContractForDifference _cfd, uint _newPrice) external {\r\n        _cfd.changeStrikePrice(_newPrice);\r\n    }\r\n\r\n}\r\n",
  "sourcePath": "D:/Users/Julien/Desktop/Work/0xFutures/protocol/contracts/cfd/ContractForDifferenceProxy.sol",
  "compiler": {
    "name": "solc",
    "version": "0.5.6+commit.b259423e.Emscripten.clang"
  },
  "schemaVersion": "3.0.8",
  "updatedAt": "2019-12-29T13:29:19.619Z",
  "devdoc": {
    "methods": {}
  },
  "userdoc": {
    "methods": {
      "buy(address,address,bool,uint256)": {
        "notice": "ContractForDifference.buy\r"
      },
      "cancelNew(address)": {
        "notice": "ContractForDifference.cancelNew\r"
      },
      "changeStrikePrice(address,uint256)": {
        "notice": "ContractForDifference.changeStrikePrice\r"
      },
      "createContract(address,address,bytes32,uint256,uint256,bool,uint256)": {
        "notice": "ContractForDifferenceFactory.createContract\r"
      },
      "createContractWithETH(address,bytes32,uint256,uint256,bool)": {
        "notice": "ContractForDifferenceFactory.createContractWithETH\r"
      },
      "deposit(address,address,uint256)": {
        "notice": "ContractForDifference.deposit\r"
      },
      "forceTerminate(address)": {
        "notice": "ContractForDifference.forceTerminate\r"
      },
      "liquidateMutual(address)": {
        "notice": "ContractForDifference.liquidateMutual\r"
      },
      "liquidateMutualCancel(address)": {
        "notice": "ContractForDifference.liquidateMutualCancel\r"
      },
      "sellCancel(address)": {
        "notice": "ContractForDifference.sellCancel\r"
      },
      "sellPrepare(address,uint256,uint256)": {
        "notice": "ContractForDifference.sellPrepare\r"
      },
      "sellUpdate(address,uint256)": {
        "notice": "ContractForDifference.sellUpdate\r"
      },
      "topup(address,address,uint256)": {
        "notice": "ContractForDifference.topup\r"
      },
      "transferPosition(address,address)": {
        "notice": "ContractForDifference.transferPosition\r"
      },
      "upgrade(address)": {
        "notice": "ContractForDifference.upgrade\r"
      },
      "withdraw(address,uint256)": {
        "notice": "ContractForDifference.withdraw\r"
      }
    }
  }
}