{
  "contractName": "ContractForDifferenceProxy",
  "abi": [
    {
      "constant": false,
      "inputs": [
        {
          "name": "_cfdf",
          "type": "address"
        },
        {
          "name": "_daiToken",
          "type": "address"
        },
        {
          "name": "_marketId",
          "type": "bytes32"
        },
        {
          "name": "_strikePrice",
          "type": "uint256"
        },
        {
          "name": "_notionalAmountDai",
          "type": "uint256"
        },
        {
          "name": "_isBuyer",
          "type": "bool"
        },
        {
          "name": "_value",
          "type": "uint256"
        }
      ],
      "name": "createContract",
      "outputs": [
        {
          "name": "cfd",
          "type": "address"
        }
      ],
      "payable": false,
      "stateMutability": "nonpayable",
      "type": "function"
    },
    {
      "constant": false,
      "inputs": [
        {
          "name": "_cfd",
          "type": "address"
        },
        {
          "name": "_daiToken",
          "type": "address"
        },
        {
          "name": "_value",
          "type": "uint256"
        }
      ],
      "name": "deposit",
      "outputs": [],
      "payable": false,
      "stateMutability": "nonpayable",
      "type": "function"
    },
    {
      "constant": false,
      "inputs": [
        {
          "name": "_cfd",
          "type": "address"
        },
        {
          "name": "_desiredStrikePrice",
          "type": "uint256"
        },
        {
          "name": "_timeLimit",
          "type": "uint256"
        }
      ],
      "name": "sellPrepare",
      "outputs": [],
      "payable": false,
      "stateMutability": "nonpayable",
      "type": "function"
    },
    {
      "constant": false,
      "inputs": [
        {
          "name": "_cfd",
          "type": "address"
        },
        {
          "name": "_newPrice",
          "type": "uint256"
        }
      ],
      "name": "sellUpdate",
      "outputs": [],
      "payable": false,
      "stateMutability": "nonpayable",
      "type": "function"
    },
    {
      "constant": false,
      "inputs": [
        {
          "name": "_cfd",
          "type": "address"
        }
      ],
      "name": "sellCancel",
      "outputs": [],
      "payable": false,
      "stateMutability": "nonpayable",
      "type": "function"
    },
    {
      "constant": false,
      "inputs": [
        {
          "name": "_cfd",
          "type": "address"
        },
        {
          "name": "_daiToken",
          "type": "address"
        },
        {
          "name": "_buyBuyerSide",
          "type": "bool"
        },
        {
          "name": "_value",
          "type": "uint256"
        }
      ],
      "name": "buy",
      "outputs": [],
      "payable": false,
      "stateMutability": "nonpayable",
      "type": "function"
    },
    {
      "constant": false,
      "inputs": [
        {
          "name": "_cfd",
          "type": "address"
        },
        {
          "name": "_daiToken",
          "type": "address"
        },
        {
          "name": "_value",
          "type": "uint256"
        }
      ],
      "name": "topup",
      "outputs": [],
      "payable": false,
      "stateMutability": "nonpayable",
      "type": "function"
    },
    {
      "constant": false,
      "inputs": [
        {
          "name": "_cfd",
          "type": "address"
        },
        {
          "name": "_value",
          "type": "uint256"
        }
      ],
      "name": "withdraw",
      "outputs": [],
      "payable": false,
      "stateMutability": "nonpayable",
      "type": "function"
    },
    {
      "constant": false,
      "inputs": [
        {
          "name": "_cfd",
          "type": "address"
        }
      ],
      "name": "upgrade",
      "outputs": [],
      "payable": false,
      "stateMutability": "nonpayable",
      "type": "function"
    },
    {
      "constant": false,
      "inputs": [
        {
          "name": "_cfd",
          "type": "address"
        },
        {
          "name": "_newAddress",
          "type": "address"
        }
      ],
      "name": "transferPosition",
      "outputs": [],
      "payable": false,
      "stateMutability": "nonpayable",
      "type": "function"
    },
    {
      "constant": false,
      "inputs": [
        {
          "name": "_cfd",
          "type": "address"
        }
      ],
      "name": "liquidateMutual",
      "outputs": [],
      "payable": false,
      "stateMutability": "nonpayable",
      "type": "function"
    },
    {
      "constant": false,
      "inputs": [
        {
          "name": "_cfd",
          "type": "address"
        }
      ],
      "name": "liquidateMutualCancel",
      "outputs": [],
      "payable": false,
      "stateMutability": "nonpayable",
      "type": "function"
    },
    {
      "constant": false,
      "inputs": [
        {
          "name": "_cfd",
          "type": "address"
        }
      ],
      "name": "forceTerminate",
      "outputs": [],
      "payable": false,
      "stateMutability": "nonpayable",
      "type": "function"
    },
    {
      "constant": false,
      "inputs": [
        {
          "name": "_cfd",
          "type": "address"
        }
      ],
      "name": "cancelNew",
      "outputs": [],
      "payable": false,
      "stateMutability": "nonpayable",
      "type": "function"
    },
    {
      "constant": false,
      "inputs": [
        {
          "name": "_cfd",
          "type": "address"
        },
        {
          "name": "_newPrice",
          "type": "uint256"
        }
      ],
      "name": "changeStrikePrice",
      "outputs": [],
      "payable": false,
      "stateMutability": "nonpayable",
      "type": "function"
    }
  ],
  "bytecode": "0x608060405234801561001057600080fd5b50611112806100206000396000f3fe608060405234801561001057600080fd5b50600436106100f55760003560e01c80638340f54911610097578063da055fb711610066578063da055fb71461033c578063df2b130314610362578063f3fef3a314610388578063fdb10877146103b4576100f5565b80638340f54914610246578063ae113bf41461027c578063c128d52f146102a2578063d9aa0aab1461030e576100f5565b80631e2a9d4c116100d35780631e2a9d4c1461017a5780632cbaf35a146101b057806349f386a4146101e257806382cdc16e14610220576100f5565b8063011cae19146100fa57806303257f74146101285780630900f01014610154575b600080fd5b6101266004803603604081101561011057600080fd5b506001600160a01b0381351690602001356103da565b005b6101266004803603604081101561013e57600080fd5b506001600160a01b03813516906020013561043c565b6101266004803603602081101561016a57600080fd5b50356001600160a01b0316610482565b6101266004803603606081101561019057600080fd5b506001600160a01b038135811691602081013590911690604001356104d8565b610126600480360360608110156101c657600080fd5b506001600160a01b03813516906020810135906040013561076d565b610126600480360360808110156101f857600080fd5b506001600160a01b0381358116916020810135909116906040810135151590606001356107bb565b6101266004803603602081101561023657600080fd5b50356001600160a01b0316610a21565b6101266004803603606081101561025c57600080fd5b506001600160a01b03813581169160208101359091169060400135610a5c565b6101266004803603602081101561029257600080fd5b50356001600160a01b0316610c97565b6102f2600480360360e08110156102b857600080fd5b506001600160a01b03813581169160208101359091169060408101359060608101359060808101359060a081013515159060c00135610cd2565b604080516001600160a01b039092168252519081900360200190f35b6101266004803603604081101561032457600080fd5b506001600160a01b0381358116916020013516610f6b565b6101266004803603602081101561035257600080fd5b50356001600160a01b0316610fc3565b6101266004803603602081101561037857600080fd5b50356001600160a01b0316610ffe565b6101266004803603604081101561039e57600080fd5b506001600160a01b038135169060200135611039565b610126600480360360208110156103ca57600080fd5b50356001600160a01b031661107f565b816001600160a01b0316637028875e826040518263ffffffff1660e01b815260040180828152602001915050600060405180830381600087803b15801561042057600080fd5b505af1158015610434573d6000803e3d6000fd5b505050505050565b816001600160a01b0316631a9fddf2826040518263ffffffff1660e01b815260040180828152602001915050600060405180830381600087803b15801561042057600080fd5b806001600160a01b031663d55ec6976040518163ffffffff1660e01b8152600401600060405180830381600087803b1580156104bd57600080fd5b505af11580156104d1573d6000803e3d6000fd5b5050505050565b60408051600160e01b6323b872dd0281523360048201523060248201526044810183905290516001600160a01b038416916323b872dd9160648083019260209291908290030181600087803b15801561053057600080fd5b505af1158015610544573d6000803e3d6000fd5b505050506040513d602081101561055a57600080fd5b50516040805160608101909152602c8082526110bb60208301399061060057604051600160e51b62461bcd0281526004018080602001828103825283818151815260200191508051906020019080838360005b838110156105c55781810151838201526020016105ad565b50505050905090810190601f1680156105f25780820380516001836020036101000a031916815260200191505b509250505060405180910390fd5b5060408051600160e11b636eb1769f0281523060048201526001600160a01b0385811660248301529151839285169163dd62ed3e916044808301926020929190829003018186803b15801561065457600080fd5b505afa158015610668573d6000803e3d6000fd5b505050506040513d602081101561067e57600080fd5b5051101561070a5760408051600160e01b63095ea7b30281526001600160a01b038581166004830152600019602483015291519184169163095ea7b3916044808201926020929091908290030181600087803b1580156106dd57600080fd5b505af11580156106f1573d6000803e3d6000fd5b505050506040513d602081101561070757600080fd5b50505b826001600160a01b03166330db555f826040518263ffffffff1660e01b815260040180828152602001915050600060405180830381600087803b15801561075057600080fd5b505af1158015610764573d6000803e3d6000fd5b50505050505050565b826001600160a01b031663818197ea83836040518363ffffffff1660e01b81526004018083815260200182815260200192505050600060405180830381600087803b15801561075057600080fd5b60408051600160e01b6323b872dd0281523360048201523060248201526044810183905290516001600160a01b038516916323b872dd9160648083019260209291908290030181600087803b15801561081357600080fd5b505af1158015610827573d6000803e3d6000fd5b505050506040513d602081101561083d57600080fd5b50516040805160608101909152602c8082526110bb6020830139906108a657604051600160e51b62461bcd0281526020600482018181528351602484015283519092839260449091019190850190808383600083156105c55781810151838201526020016105ad565b5060408051600160e11b636eb1769f0281523060048201526001600160a01b0386811660248301529151839286169163dd62ed3e916044808301926020929190829003018186803b1580156108fa57600080fd5b505afa15801561090e573d6000803e3d6000fd5b505050506040513d602081101561092457600080fd5b505110156109b05760408051600160e01b63095ea7b30281526001600160a01b038681166004830152600019602483015291519185169163095ea7b3916044808201926020929091908290030181600087803b15801561098357600080fd5b505af1158015610997573d6000803e3d6000fd5b505050506040513d60208110156109ad57600080fd5b50505b60408051600160e01b63e24c469b02815283151560048201526024810183905290516001600160a01b0386169163e24c469b91604480830192600092919082900301818387803b158015610a0357600080fd5b505af1158015610a17573d6000803e3d6000fd5b5050505050505050565b806001600160a01b03166379bf47966040518163ffffffff1660e01b8152600401600060405180830381600087803b1580156104bd57600080fd5b60408051600160e01b6323b872dd0281523360048201523060248201526044810183905290516001600160a01b038416916323b872dd9160648083019260209291908290030181600087803b158015610ab457600080fd5b505af1158015610ac8573d6000803e3d6000fd5b505050506040513d6020811015610ade57600080fd5b50516040805160608101909152602c8082526110bb602083013990610b4757604051600160e51b62461bcd0281526020600482018181528351602484015283519092839260449091019190850190808383600083156105c55781810151838201526020016105ad565b5060408051600160e11b636eb1769f0281523060048201526001600160a01b0385811660248301529151839285169163dd62ed3e916044808301926020929190829003018186803b158015610b9b57600080fd5b505afa158015610baf573d6000803e3d6000fd5b505050506040513d6020811015610bc557600080fd5b50511015610c515760408051600160e01b63095ea7b30281526001600160a01b038581166004830152600019602483015291519184169163095ea7b3916044808201926020929091908290030181600087803b158015610c2457600080fd5b505af1158015610c38573d6000803e3d6000fd5b505050506040513d6020811015610c4e57600080fd5b50505b826001600160a01b031663b6b55f25826040518263ffffffff1660e01b815260040180828152602001915050600060405180830381600087803b15801561075057600080fd5b806001600160a01b031663497b13d36040518163ffffffff1660e01b8152600401600060405180830381600087803b1580156104bd57600080fd5b60408051600160e01b6323b872dd0281523360048201523060248201526044810183905290516000916001600160a01b038916916323b872dd9160648082019260209290919082900301818787803b158015610d2d57600080fd5b505af1158015610d41573d6000803e3d6000fd5b505050506040513d6020811015610d5757600080fd5b50516040805160608101909152602c8082526110bb602083013990610dc057604051600160e51b62461bcd0281526020600482018181528351602484015283519092839260449091019190850190808383600083156105c55781810151838201526020016105ad565b5060408051600160e11b636eb1769f0281523060048201526001600160a01b038a81166024830152915184928a169163dd62ed3e916044808301926020929190829003018186803b158015610e1457600080fd5b505afa158015610e28573d6000803e3d6000fd5b505050506040513d6020811015610e3e57600080fd5b50511015610eca5760408051600160e01b63095ea7b30281526001600160a01b038a81166004830152600019602483015291519189169163095ea7b3916044808201926020929091908290030181600087803b158015610e9d57600080fd5b505af1158015610eb1573d6000803e3d6000fd5b505050506040513d6020811015610ec757600080fd5b50505b60408051600160e31b6308943cc302815260048101889052602481018790526044810186905284151560648201526084810184905290516001600160a01b038a16916344a1e6189160a48083019260209291908290030181600087803b158015610f3357600080fd5b505af1158015610f47573d6000803e3d6000fd5b505050506040513d6020811015610f5d57600080fd5b505198975050505050505050565b816001600160a01b0316635e24e35d826040518263ffffffff1660e01b815260040180826001600160a01b03166001600160a01b03168152602001915050600060405180830381600087803b15801561042057600080fd5b806001600160a01b031663ddac6d646040518163ffffffff1660e01b8152600401600060405180830381600087803b1580156104bd57600080fd5b806001600160a01b03166393a965126040518163ffffffff1660e01b8152600401600060405180830381600087803b1580156104bd57600080fd5b816001600160a01b0316632e1a7d4d826040518263ffffffff1660e01b815260040180828152602001915050600060405180830381600087803b15801561042057600080fd5b806001600160a01b031663f797efda6040518163ffffffff1660e01b8152600401600060405180830381600087803b1580156104bd57600080fdfe50726f7879206e6565647320746f206f627461696e20616d6f756e742066726f6d207468652073656e646572a165627a7a723058205f906c985bdc318a2c9bb7eea44abf2b523d0052dbef2d94e0859dede28e8be70029",
  "source": "pragma solidity ^0.5.0;\n\nimport \"openzeppelin-solidity/contracts/token/ERC20/ERC20.sol\";\nimport \"./ContractForDifference.sol\";\nimport \"./ContractForDifferenceFactory.sol\";\n\n\ncontract ContractForDifferenceProxy {\n\n    string constant REASON_PROXY_NEEDS_FUNDS = \"Proxy needs to obtain amount from the sender\";\n\n    /**\n     * ContractForDifferenceFactory.createContract\n     */\n    function createContract(\n        ContractForDifferenceFactory _cfdf,\n        ERC20 _daiToken,\n        bytes32 _marketId,\n        uint _strikePrice,\n        uint _notionalAmountDai,\n        bool _isBuyer,\n        uint _value\n    )\n        external\n        returns (ContractForDifference cfd)\n    {\n        require(\n            _daiToken.transferFrom(msg.sender, address(this), _value),\n            REASON_PROXY_NEEDS_FUNDS\n        );\n        if (_daiToken.allowance(address(this), address(_cfdf)) < _value) {\n            _daiToken.approve(address(_cfdf), uint(-1));\n        }\n        cfd = _cfdf.createContract(\n            _marketId,\n            _strikePrice,\n            _notionalAmountDai,\n            _isBuyer,\n            _value\n        );\n    }\n\n    /**\n     * ContractForDifference.deposit\n     */\n    function deposit(\n        ContractForDifference _cfd,\n        ERC20 _daiToken,\n        uint _value\n    )\n        external\n    {\n        require(\n            _daiToken.transferFrom(msg.sender, address(this), _value),\n            REASON_PROXY_NEEDS_FUNDS\n        );\n        if (_daiToken.allowance(address(this), address(_cfd)) < _value) {\n            _daiToken.approve(address(_cfd), uint(-1));\n        }\n        _cfd.deposit(_value);\n    }\n\n    /**\n     * ContractForDifference.sellPrepare\n     */\n    function sellPrepare(\n        ContractForDifference _cfd,\n        uint _desiredStrikePrice,\n        uint _timeLimit\n    )\n        external\n    {\n        _cfd.sellPrepare(_desiredStrikePrice, _timeLimit);\n    }\n\n    /**\n     * ContractForDifference.sellUpdate\n     */\n    function sellUpdate(ContractForDifference _cfd, uint _newPrice) external {\n        _cfd.sellUpdate(_newPrice);\n    }\n\n    /**\n     * ContractForDifference.sellCancel\n     */\n    function sellCancel(ContractForDifference _cfd) external {\n        _cfd.sellCancel();\n    }\n\n    /**\n     * ContractForDifference.buy\n     */\n    function buy(\n        ContractForDifference _cfd,\n        ERC20 _daiToken,\n        bool _buyBuyerSide,\n        uint _value\n    )\n        external\n    {\n        require(\n            _daiToken.transferFrom(msg.sender, address(this), _value),\n            REASON_PROXY_NEEDS_FUNDS\n        );\n        if (_daiToken.allowance(address(this), address(_cfd)) < _value) {\n            _daiToken.approve(address(_cfd), uint(-1));\n        }\n        _cfd.buy(_buyBuyerSide, _value);\n    }\n\n    /**\n     * ContractForDifference.topup\n     */\n    function topup(\n        ContractForDifference _cfd,\n        ERC20 _daiToken,\n        uint _value\n    )\n        external\n    {\n        require(\n            _daiToken.transferFrom(msg.sender, address(this), _value),\n            REASON_PROXY_NEEDS_FUNDS\n        );\n        if (_daiToken.allowance(address(this), address(_cfd)) < _value) {\n            _daiToken.approve(address(_cfd), uint(-1));\n        }\n        _cfd.topup(_value);\n    }\n\n    /**\n     * ContractForDifference.withdraw\n     */\n    function withdraw(ContractForDifference _cfd, uint _value) external {\n        _cfd.withdraw(_value);\n    }\n\n    /**\n     * ContractForDifference.upgrade\n     */\n    function upgrade(ContractForDifference _cfd) external {\n        _cfd.upgrade();\n    }\n\n    /**\n     * ContractForDifference.transferPosition\n     */\n    function transferPosition(ContractForDifference _cfd, address _newAddress) external {\n        _cfd.transferPosition(_newAddress);\n    }\n\n    /**\n     * ContractForDifference.liquidateMutual\n     */\n    function liquidateMutual(ContractForDifference _cfd) external {\n        _cfd.liquidateMutual();\n    }\n\n    /**\n     * ContractForDifference.liquidateMutualCancel\n     */\n    function liquidateMutualCancel(ContractForDifference _cfd) external {\n        _cfd.liquidateMutualCancel();\n    }\n\n    /**\n     * ContractForDifference.forceTerminate\n     */\n    function forceTerminate(ContractForDifference _cfd) external {\n        _cfd.forceTerminate();\n    }\n\n    /**\n     * ContractForDifference.cancelNew\n     */\n    function cancelNew(ContractForDifference _cfd) external {\n        _cfd.cancelNew();\n    }\n\n\n    /**\n     * ContractForDifference.changeStrikePrice\n     */\n    function changeStrikePrice(ContractForDifference _cfd, uint _newPrice) external {\n        _cfd.changeStrikePrice(_newPrice);\n    }\n\n}\n",
  "sourcePath": "/home/julien/0xFutures/protocol/contracts/cfd/ContractForDifferenceProxy.sol",
  "compiler": {
    "name": "solc",
    "version": "0.5.6+commit.b259423e.Emscripten.clang"
  },
  "schemaVersion": "3.0.8",
  "updatedAt": "2019-07-03T21:06:50.889Z",
  "devdoc": {
    "methods": {}
  },
  "userdoc": {
    "methods": {
      "buy(address,address,bool,uint256)": {
        "notice": "ContractForDifference.buy"
      },
      "cancelNew(address)": {
        "notice": "ContractForDifference.cancelNew"
      },
      "changeStrikePrice(address,uint256)": {
        "notice": "ContractForDifference.changeStrikePrice"
      },
      "createContract(address,address,bytes32,uint256,uint256,bool,uint256)": {
        "notice": "ContractForDifferenceFactory.createContract"
      },
      "deposit(address,address,uint256)": {
        "notice": "ContractForDifference.deposit"
      },
      "forceTerminate(address)": {
        "notice": "ContractForDifference.forceTerminate"
      },
      "liquidateMutual(address)": {
        "notice": "ContractForDifference.liquidateMutual"
      },
      "liquidateMutualCancel(address)": {
        "notice": "ContractForDifference.liquidateMutualCancel"
      },
      "sellCancel(address)": {
        "notice": "ContractForDifference.sellCancel"
      },
      "sellPrepare(address,uint256,uint256)": {
        "notice": "ContractForDifference.sellPrepare"
      },
      "sellUpdate(address,uint256)": {
        "notice": "ContractForDifference.sellUpdate"
      },
      "topup(address,address,uint256)": {
        "notice": "ContractForDifference.topup"
      },
      "transferPosition(address,address)": {
        "notice": "ContractForDifference.transferPosition"
      },
      "upgrade(address)": {
        "notice": "ContractForDifference.upgrade"
      },
      "withdraw(address,uint256)": {
        "notice": "ContractForDifference.withdraw"
      }
    }
  }
}