{
  "contractName": "ContractForDifferenceFactory",
  "abi": [
    {
      "constant": true,
      "inputs": [],
      "name": "forwardFactory",
      "outputs": [
        {
          "name": "",
          "type": "address"
        }
      ],
      "payable": false,
      "stateMutability": "view",
      "type": "function"
    },
    {
      "constant": true,
      "inputs": [],
      "name": "cfdRegistry",
      "outputs": [
        {
          "name": "",
          "type": "address"
        }
      ],
      "payable": false,
      "stateMutability": "view",
      "type": "function"
    },
    {
      "constant": false,
      "inputs": [],
      "name": "renounceOwnership",
      "outputs": [],
      "payable": false,
      "stateMutability": "nonpayable",
      "type": "function"
    },
    {
      "constant": true,
      "inputs": [],
      "name": "cfdModel",
      "outputs": [
        {
          "name": "",
          "type": "address"
        }
      ],
      "payable": false,
      "stateMutability": "view",
      "type": "function"
    },
    {
      "constant": true,
      "inputs": [],
      "name": "registry",
      "outputs": [
        {
          "name": "",
          "type": "address"
        }
      ],
      "payable": false,
      "stateMutability": "view",
      "type": "function"
    },
    {
      "constant": true,
      "inputs": [],
      "name": "owner",
      "outputs": [
        {
          "name": "",
          "type": "address"
        }
      ],
      "payable": false,
      "stateMutability": "view",
      "type": "function"
    },
    {
      "constant": true,
      "inputs": [],
      "name": "isOwner",
      "outputs": [
        {
          "name": "",
          "type": "bool"
        }
      ],
      "payable": false,
      "stateMutability": "view",
      "type": "function"
    },
    {
      "constant": true,
      "inputs": [],
      "name": "feeds",
      "outputs": [
        {
          "name": "",
          "type": "address"
        }
      ],
      "payable": false,
      "stateMutability": "view",
      "type": "function"
    },
    {
      "constant": false,
      "inputs": [
        {
          "name": "newOwner",
          "type": "address"
        }
      ],
      "name": "transferOwnership",
      "outputs": [],
      "payable": false,
      "stateMutability": "nonpayable",
      "type": "function"
    },
    {
      "inputs": [
        {
          "name": "_registry",
          "type": "address"
        },
        {
          "name": "_cfdModel",
          "type": "address"
        },
        {
          "name": "_forwardFactory",
          "type": "address"
        },
        {
          "name": "_feeds",
          "type": "address"
        }
      ],
      "payable": false,
      "stateMutability": "nonpayable",
      "type": "constructor"
    },
    {
      "anonymous": false,
      "inputs": [
        {
          "indexed": true,
          "name": "marketId",
          "type": "bytes32"
        },
        {
          "indexed": true,
          "name": "creator",
          "type": "address"
        },
        {
          "indexed": false,
          "name": "newCFDAddr",
          "type": "address"
        }
      ],
      "name": "LogCFDFactoryNew",
      "type": "event"
    },
    {
      "anonymous": false,
      "inputs": [
        {
          "indexed": true,
          "name": "newCFDAddr",
          "type": "address"
        },
        {
          "indexed": false,
          "name": "oldCFDAddr",
          "type": "address"
        }
      ],
      "name": "LogCFDFactoryNewByUpgrade",
      "type": "event"
    },
    {
      "anonymous": false,
      "inputs": [
        {
          "indexed": true,
          "name": "previousOwner",
          "type": "address"
        },
        {
          "indexed": true,
          "name": "newOwner",
          "type": "address"
        }
      ],
      "name": "OwnershipTransferred",
      "type": "event"
    },
    {
      "constant": false,
      "inputs": [
        {
          "name": "_registry",
          "type": "address"
        }
      ],
      "name": "setRegistry",
      "outputs": [],
      "payable": false,
      "stateMutability": "nonpayable",
      "type": "function"
    },
    {
      "constant": false,
      "inputs": [
        {
          "name": "_cfdModel",
          "type": "address"
        }
      ],
      "name": "setCFDModel",
      "outputs": [],
      "payable": false,
      "stateMutability": "nonpayable",
      "type": "function"
    },
    {
      "constant": false,
      "inputs": [
        {
          "name": "_cfdRegistry",
          "type": "address"
        }
      ],
      "name": "setCFDRegistry",
      "outputs": [],
      "payable": false,
      "stateMutability": "nonpayable",
      "type": "function"
    },
    {
      "constant": false,
      "inputs": [
        {
          "name": "_forwardFactory",
          "type": "address"
        }
      ],
      "name": "setForwardFactory",
      "outputs": [],
      "payable": false,
      "stateMutability": "nonpayable",
      "type": "function"
    },
    {
      "constant": false,
      "inputs": [
        {
          "name": "_feeds",
          "type": "address"
        }
      ],
      "name": "setFeeds",
      "outputs": [],
      "payable": false,
      "stateMutability": "nonpayable",
      "type": "function"
    },
    {
      "constant": false,
      "inputs": [
        {
          "name": "_marketId",
          "type": "bytes32"
        },
        {
          "name": "_strikePrice",
          "type": "uint256"
        },
        {
          "name": "_notionalAmountDai",
          "type": "uint256"
        },
        {
          "name": "_isBuyer",
          "type": "bool"
        },
        {
          "name": "_value",
          "type": "uint256"
        }
      ],
      "name": "createContract",
      "outputs": [
        {
          "name": "cfd",
          "type": "address"
        }
      ],
      "payable": false,
      "stateMutability": "nonpayable",
      "type": "function"
    },
    {
      "constant": false,
      "inputs": [],
      "name": "createByUpgrade",
      "outputs": [
        {
          "name": "newCfd",
          "type": "address"
        }
      ],
      "payable": false,
      "stateMutability": "nonpayable",
      "type": "function"
    }
  ],
  "bytecode": "0x60806040523480156200001157600080fd5b506040516080806200161d833981018060405260808110156200003357600080fd5b508051602082015160408084015160609094015160008054600160a060020a03191633178082559251949593949192600160a060020a0316917f8be0079c531659141344cd1fd0a4f28419497f9722a3daafe3b4186f6b6457e0908290a3620000a584640100000000620000eb810204565b620000b9836401000000006200012c810204565b620000cd826401000000006200016d810204565b620000e181640100000000620001ae810204565b5050505062000200565b620000fe640100000000620001ef810204565b15156200010a57600080fd5b60018054600160a060020a031916600160a060020a0392909216919091179055565b6200013f640100000000620001ef810204565b15156200014b57600080fd5b60028054600160a060020a031916600160a060020a0392909216919091179055565b62000180640100000000620001ef810204565b15156200018c57600080fd5b60048054600160a060020a031916600160a060020a0392909216919091179055565b620001c1640100000000620001ef810204565b1515620001cd57600080fd5b60058054600160a060020a031916600160a060020a0392909216919091179055565b600054600160a060020a0316331490565b61140d80620002106000396000f3fe6080604052600436106100cc5763ffffffff60e060020a600035041663165ae0fc81146100d157806338874a1a1461010257806344a1e618146101175780635fd355eb1461015b578063715018a61461017057806377b727ac146101875780637b1039991461019c5780637dc532c5146101b15780638da5cb5b146101e45780638f32d59b146101f95780639255e0d614610222578063a91ee0dc14610255578063abcca75e14610288578063c03cced3146102bb578063d63605b8146102ee578063f2fde38b14610303575b600080fd5b3480156100dd57600080fd5b506100e6610336565b60408051600160a060020a039092168252519081900360200190f35b34801561010e57600080fd5b506100e6610b34565b34801561012357600080fd5b506100e6600480360360a081101561013a57600080fd5b50803590602081013590604081013590606081013515159060800135610b43565b34801561016757600080fd5b506100e6611190565b34801561017c57600080fd5b5061018561119f565b005b34801561019357600080fd5b506100e66111fc565b3480156101a857600080fd5b506100e661120b565b3480156101bd57600080fd5b50610185600480360360208110156101d457600080fd5b5035600160a060020a031661121a565b3480156101f057600080fd5b506100e661124f565b34801561020557600080fd5b5061020e61125e565b604080519115158252519081900360200190f35b34801561022e57600080fd5b506101856004803603602081101561024557600080fd5b5035600160a060020a031661126f565b34801561026157600080fd5b506101856004803603602081101561027857600080fd5b5035600160a060020a03166112a4565b34801561029457600080fd5b50610185600480360360208110156102ab57600080fd5b5035600160a060020a03166112d9565b3480156102c757600080fd5b50610185600480360360208110156102de57600080fd5b5035600160a060020a031661130e565b3480156102fa57600080fd5b506100e6611343565b34801561030f57600080fd5b506101856004803603602081101561032657600080fd5b5035600160a060020a0316611352565b600030600160a060020a0316600160009054906101000a9004600160a060020a0316600160a060020a03166323ec7f2a6040518163ffffffff1660e060020a02815260040160206040518083038186803b15801561039357600080fd5b505afa1580156103a7573d6000803e3d6000fd5b505050506040513d60208110156103bd57600080fd5b505160408051606081018252603081527f43616e206f6e6c792075706772616465206f6e206120666163746f727920746860208201527f617420697320746865206c6174657374000000000000000000000000000000009181019190915291600160a060020a03909116146104b35760405160e560020a62461bcd0281526004018080602001828103825283818151815260200191508051906020019080838360005b83811015610478578181015183820152602001610460565b50505050905090810190601f1680156104a55780820380516001836020036101000a031916815260200191505b509250505060405180910390fd5b50600154604080517f0c5a95f8000000000000000000000000000000000000000000000000000000008152336004820181905291519192600092600160a060020a0390911691630c5a95f8916024808301926020929190829003018186803b15801561051e57600080fd5b505afa158015610532573d6000803e3d6000fd5b505050506040513d602081101561054857600080fd5b50519050600160a060020a0381161580159061056d5750600160a060020a0381163014155b60408051808201909152601f81527f43616c6c6572206d75737420626520612072656769737465726564204346440060208201529015156105f35760405160e560020a62461bcd02815260040180806020018281038252838181518152602001915080519060200190808383600083811015610478578181015183820152602001610460565b50600082905080600160a060020a03166341c20c8e6040518163ffffffff1660e060020a02815260040160206040518083038186803b15801561063557600080fd5b505afa158015610649573d6000803e3d6000fd5b505050506040513d602081101561065f57600080fd5b505160408051606081018252602181527f7570677261646561626c65206973206e6f742073657420696e2074686520434660208201527f44000000000000000000000000000000000000000000000000000000000000009181019190915290151561070f5760405160e560020a62461bcd02815260040180806020018281038252838181518152602001915080519060200190808383600083811015610478578181015183820152602001610460565b5060048054600254604080517f9193ba0b000000000000000000000000000000000000000000000000000000008152600160a060020a039283169481019490945251911691639193ba0b9160248083019260209291908290030181600087803b15801561077b57600080fd5b505af115801561078f573d6000803e3d6000fd5b505050506040513d60208110156107a557600080fd5b5051600354604080517f7150d8ae0000000000000000000000000000000000000000000000000000000081529051929650600160a060020a0391821692630596030d92889290861691637150d8ae91600480820192602092909190829003018186803b15801561081457600080fd5b505afa158015610828573d6000803e3d6000fd5b505050506040513d602081101561083e57600080fd5b50516040805160e060020a63ffffffff8616028152600160a060020a03938416600482015292909116602483015251604480830192600092919082900301818387803b15801561088d57600080fd5b505af11580156108a1573d6000803e3d6000fd5b5050600154600354600554604080517f2802759b000000000000000000000000000000000000000000000000000000008152600160a060020a038a81166004830152948516602482015292841660448401529083166064830152519188169350632802759b925060848082019260009290919082900301818387803b15801561092957600080fd5b505af115801561093d573d6000803e3d6000fd5b5050600154604080517f76d00fd8000000000000000000000000000000000000000000000000000000008152600160a060020a03898116600483015291519190921693506376d00fd89250602480830192600092919082900301818387803b1580156109a857600080fd5b505af11580156109bc573d6000803e3d6000fd5b5050505083600160a060020a0316637150d8ae6040518163ffffffff1660e060020a02815260040160206040518083038186803b1580156109fc57600080fd5b505afa158015610a10573d6000803e3d6000fd5b505050506040513d6020811015610a2657600080fd5b5051604080517f80f556050000000000000000000000000000000000000000000000000000000081529051600160a060020a03928316928716916380f55605916004808301926020929190829003018186803b158015610a8557600080fd5b505afa158015610a99573d6000803e3d6000fd5b505050506040513d6020811015610aaf57600080fd5b505160408051600160a060020a038816815290517f2d0c41699a808fef3dcfaa411d95703031d69229e73f5f3299fd6045deb4f9629181900360200190a360408051600160a060020a0383811682529151918616917fe77178664194a5b1c28f6ee0f3fcb6d4404d796abfdf7edee18b68617768f48a9181900360200190a250505090565b600454600160a060020a031681565b600081600160009054906101000a9004600160a060020a0316600160a060020a0316638ef855686040518163ffffffff1660e060020a02815260040160206040518083038186803b158015610b9757600080fd5b505afa158015610bab573d6000803e3d6000fd5b505050506040513d6020811015610bc157600080fd5b5051604080517fdd62ed3e0000000000000000000000000000000000000000000000000000000081523360048201523060248201529051600160a060020a039092169163dd62ed3e91604480820192602092909190829003018186803b158015610c2a57600080fd5b505afa158015610c3e573d6000803e3d6000fd5b505050506040513d6020811015610c5457600080fd5b505160408051606081018252602581527f44414920616c6c6f77616e6365206973206c657373207468616e20746865205f60208201527f76616c756500000000000000000000000000000000000000000000000000000091810191909152911115908082610d075760405160e560020a62461bcd02815260040180806020018281038252838181518152602001915080519060200190808383600083811015610478578181015183820152602001610460565b5060048054600254604080517f9193ba0b000000000000000000000000000000000000000000000000000000008152600160a060020a03928316948101949094525133939190921691639193ba0b916024808201926020929091908290030181600087803b158015610d7857600080fd5b505af1158015610d8c573d6000803e3d6000fd5b505050506040513d6020811015610da257600080fd5b5051600154604080517f8ef855680000000000000000000000000000000000000000000000000000000081529051929650600160a060020a0390911691638ef8556891600480820192602092909190829003018186803b158015610e0557600080fd5b505afa158015610e19573d6000803e3d6000fd5b505050506040513d6020811015610e2f57600080fd5b5051604080517f23b872dd000000000000000000000000000000000000000000000000000000008152600160a060020a038481166004830152878116602483015260448201899052915191909216916323b872dd9160648083019260209291908290030181600087803b158015610ea557600080fd5b505af1158015610eb9573d6000803e3d6000fd5b505050506040513d6020811015610ecf57600080fd5b505160408051606081018252602b81527f4661696c757265207472616e73666572696e67206f776e657273686970206f6660208201527f2044414920746f6b656e7300000000000000000000000000000000000000000091810191909152901515610f7f5760405160e560020a62461bcd02815260040180806020018281038252838181518152602001915080519060200190808383600083811015610478578181015183820152602001610460565b50600154600354600554604080517f5df0d4cd000000000000000000000000000000000000000000000000000000008152600160a060020a039485166004820152928416602484015290831660448301528383166064830152608482018c905260a482018b905260c482018a905288151560e48301525191861691635df0d4cd916101048082019260009290919082900301818387803b15801561102257600080fd5b505af1158015611036573d6000803e3d6000fd5b5050600154604080517f76d00fd8000000000000000000000000000000000000000000000000000000008152600160a060020a03898116600483015291519190921693506376d00fd89250602480830192600092919082900301818387803b1580156110a157600080fd5b505af11580156110b5573d6000803e3d6000fd5b505060408051600160a060020a038881168252915191851693508c92507f2d0c41699a808fef3dcfaa411d95703031d69229e73f5f3299fd6045deb4f962919081900360200190a3600354604080517f0596030d000000000000000000000000000000000000000000000000000000008152600160a060020a038781166004830152848116602483015291519190921691630596030d91604480830192600092919082900301818387803b15801561116c57600080fd5b505af1158015611180573d6000803e3d6000fd5b5050505050505095945050505050565b600354600160a060020a031681565b6111a761125e565b15156111b257600080fd5b60008054604051600160a060020a03909116907f8be0079c531659141344cd1fd0a4f28419497f9722a3daafe3b4186f6b6457e0908390a360008054600160a060020a0319169055565b600254600160a060020a031681565b600154600160a060020a031681565b61122261125e565b151561122d57600080fd5b60058054600160a060020a031916600160a060020a0392909216919091179055565b600054600160a060020a031690565b600054600160a060020a0316331490565b61127761125e565b151561128257600080fd5b60038054600160a060020a031916600160a060020a0392909216919091179055565b6112ac61125e565b15156112b757600080fd5b60018054600160a060020a031916600160a060020a0392909216919091179055565b6112e161125e565b15156112ec57600080fd5b60028054600160a060020a031916600160a060020a0392909216919091179055565b61131661125e565b151561132157600080fd5b60048054600160a060020a031916600160a060020a0392909216919091179055565b600554600160a060020a031681565b61135a61125e565b151561136557600080fd5b61136e81611371565b50565b600160a060020a038116151561138657600080fd5b60008054604051600160a060020a03808516939216917f8be0079c531659141344cd1fd0a4f28419497f9722a3daafe3b4186f6b6457e091a360008054600160a060020a031916600160a060020a039290921691909117905556fea165627a7a7230582051563e20a340b124dab8cd46adc5645ca5db109e5c970dc55ac1ed485e20796a0029",
  "source": "pragma solidity ^0.5.0;\n\nimport \"openzeppelin-solidity/contracts/ownership/Ownable.sol\";\nimport \"../DBC.sol\";\nimport \"../Registry.sol\";\nimport \"../ForwardFactory.sol\";\nimport \"./ContractForDifference.sol\";\nimport \"./ContractForDifferenceRegistry.sol\";\n\ncontract ContractForDifferenceFactory is DBC, Ownable {\n    event LogCFDFactoryNew(\n        bytes32 indexed marketId,\n        address indexed creator,\n        address newCFDAddr\n    );\n    event LogCFDFactoryNewByUpgrade(\n        address indexed newCFDAddr,\n        address oldCFDAddr\n    );\n\n    string constant REASON_MUST_BE_LATEST = \"Can only upgrade on a factory that is the latest\";\n    string constant REASON_MUST_REGISTERED_CFD = \"Caller must be a registered CFD\";\n    string constant REASON_UPGRADEABLE_FLAG_NOT_SET = \"upgradeable is not set in the CFD\";\n    string constant REASON_DAI_TRANSFER_FAILED = \"Failure transfering ownership of DAI tokens\";\n    string constant REASON_DAI_ALLOWANCE_TOO_LOW = \"DAI allowance is less than the _value\";\n\n    Registry public registry;\n    address public cfdModel;\n    address public cfdRegistry;\n    address public forwardFactory;\n    address public feeds;\n\n    constructor(\n        address _registry,\n        address _cfdModel,\n        address _forwardFactory,\n        address _feeds\n    ) public {\n        setRegistry(_registry);\n        setCFDModel(_cfdModel);\n        setForwardFactory(_forwardFactory);\n        setFeeds(_feeds);\n    }\n\n    function setRegistry(address _registry) public onlyOwner {\n        registry = Registry(_registry);\n    }\n\n    function setCFDModel(address _cfdModel) public onlyOwner {\n        cfdModel = _cfdModel;\n    }\n\n    function setCFDRegistry(address _cfdRegistry) public onlyOwner {\n        cfdRegistry = _cfdRegistry;\n    }\n\n    function setForwardFactory(address _forwardFactory) public onlyOwner {\n        forwardFactory = _forwardFactory;\n    }\n\n    function setFeeds(address _feeds) public onlyOwner {\n        feeds = _feeds;\n    }\n\n    /**\n     * Create a new ContractForDifference instance\n     *\n     * @param _marketId Contract for this market (see Feeds.sol markets)\n     * @param _strikePrice Contact strike price\n     * @param _notionalAmountDai Contract notional amount\n     * @param _isBuyer If the caller is to be the buyer, else they will be the seller\n     * @param _value Amount of DAI to deposit\n     *\n     * @return address of new contract\n     */\n    function createContract(\n        bytes32 _marketId,\n        uint _strikePrice,\n        uint _notionalAmountDai,\n        bool _isBuyer,\n        uint _value\n    )\n        external\n        pre_cond(\n            registry.getDAI().allowance(msg.sender, address(this)) >= _value, \n            REASON_DAI_ALLOWANCE_TOO_LOW\n        )\n        returns (ContractForDifference cfd)\n    {\n        address creator = msg.sender;\n\n        cfd = ContractForDifference(\n            ForwardFactory(forwardFactory).createForwarder(cfdModel)\n        );\n        require(\n            registry.getDAI().transferFrom(creator, address(cfd), _value),\n            REASON_DAI_TRANSFER_FAILED\n        );\n        cfd.create(\n            address(registry),\n            cfdRegistry,\n            feeds,\n            creator,\n            _marketId,\n            _strikePrice,\n            _notionalAmountDai,\n            _isBuyer\n        );\n\n        registry.addCFD(address(cfd));\n        emit LogCFDFactoryNew(_marketId, creator, address(cfd));\n        ContractForDifferenceRegistry(cfdRegistry).registerNew(address(cfd), creator);\n    }\n\n    /**\n     * Upgrade a CFD at a different set of contracts to this set of contracts.\n     * The old CFD itself will invoke this function to do the upgrade.\n\n     * @return address of new contract\n     */\n    function createByUpgrade()\n        external\n        returns (ContractForDifference newCfd)\n    {\n        // can only upgrade this if factory is the latest version\n        require(registry.getCFDFactoryLatest() == address(this), REASON_MUST_BE_LATEST);\n\n        address cfdAddr = msg.sender;\n\n        // can only upgrade if cfd registered and not with this latest version\n        address registryEntry = registry.allCFDs(cfdAddr);\n        require(\n            registryEntry != address(0) && registryEntry != address(this), \n            REASON_MUST_REGISTERED_CFD\n        );\n\n        ContractForDifference existingCfd = ContractForDifference(cfdAddr);\n        require(existingCfd.upgradeable(), REASON_UPGRADEABLE_FLAG_NOT_SET);\n\n        newCfd = ContractForDifference(\n            ForwardFactory(forwardFactory).createForwarder(cfdModel)\n        );\n        ContractForDifferenceRegistry(cfdRegistry).registerNew(\n            address(newCfd),\n            existingCfd.buyer()\n        );\n\n        newCfd.createByUpgrade(\n            cfdAddr,\n            address(registry),\n            cfdRegistry,\n            feeds\n        );\n        registry.addCFD(address(newCfd));\n\n        // replicate logging for an ordinary create so queries will get this to\n        emit LogCFDFactoryNew(newCfd.market(), newCfd.buyer(), address(newCfd));\n        emit LogCFDFactoryNewByUpgrade(address(newCfd), address(existingCfd));\n    }\n\n}\n",
  "sourcePath": "/home/hatch/projects/0xfutures/protocol/contracts/cfd/ContractForDifferenceFactory.sol",
  "compiler": {
    "name": "solc",
    "version": "0.5.0+commit.1d4f565a.Emscripten.clang"
  },
  "schemaVersion": "3.0.2",
  "updatedAt": "2019-04-22T01:42:08.689Z",
  "devdoc": {
    "methods": {
      "createByUpgrade()": {
        "return": "address of new contract"
      },
      "createContract(bytes32,uint256,uint256,bool,uint256)": {
        "params": {
          "_isBuyer": "If the caller is to be the buyer, else they will be the seller",
          "_marketId": "Contract for this market (see Feeds.sol markets)",
          "_notionalAmountDai": "Contract notional amount",
          "_strikePrice": "Contact strike price",
          "_value": "Amount of DAI to deposit"
        },
        "return": "address of new contract"
      },
      "isOwner()": {
        "return": "true if `msg.sender` is the owner of the contract."
      },
      "owner()": {
        "return": "the address of the owner."
      },
      "renounceOwnership()": {
        "details": "Allows the current owner to relinquish control of the contract."
      },
      "transferOwnership(address)": {
        "details": "Allows the current owner to transfer control of the contract to a newOwner.",
        "params": {
          "newOwner": "The address to transfer ownership to."
        }
      }
    }
  },
  "userdoc": {
    "methods": {
      "createByUpgrade()": {
        "notice": "Upgrade a CFD at a different set of contracts to this set of contracts. The old CFD itself will invoke this function to do the upgrade."
      },
      "createContract(bytes32,uint256,uint256,bool,uint256)": {
        "notice": "Create a new ContractForDifference instance"
      },
      "renounceOwnership()": {
        "notice": "Renouncing to ownership will leave the contract without an owner. It will not be possible to call the functions with the `onlyOwner` modifier anymore."
      }
    }
  }
}