{
  "contractName": "ContractForDifference",
  "abi": [
    {
      "constant": true,
      "inputs": [],
      "name": "notionalAmountDai",
      "outputs": [
        {
          "name": "",
          "type": "uint256"
        }
      ],
      "payable": false,
      "stateMutability": "view",
      "type": "function"
    },
    {
      "constant": true,
      "inputs": [],
      "name": "seller",
      "outputs": [
        {
          "name": "",
          "type": "address"
        }
      ],
      "payable": false,
      "stateMutability": "view",
      "type": "function"
    },
    {
      "constant": true,
      "inputs": [],
      "name": "feedsAddr",
      "outputs": [
        {
          "name": "",
          "type": "address"
        }
      ],
      "payable": false,
      "stateMutability": "view",
      "type": "function"
    },
    {
      "constant": true,
      "inputs": [],
      "name": "terminated",
      "outputs": [
        {
          "name": "",
          "type": "bool"
        }
      ],
      "payable": false,
      "stateMutability": "view",
      "type": "function"
    },
    {
      "constant": true,
      "inputs": [],
      "name": "FORCE_TERMINATE_PENALTY_PERCENT",
      "outputs": [
        {
          "name": "",
          "type": "uint256"
        }
      ],
      "payable": false,
      "stateMutability": "view",
      "type": "function"
    },
    {
      "constant": true,
      "inputs": [],
      "name": "buyerSaleStrikePrice",
      "outputs": [
        {
          "name": "",
          "type": "uint256"
        }
      ],
      "payable": false,
      "stateMutability": "view",
      "type": "function"
    },
    {
      "constant": true,
      "inputs": [],
      "name": "sellerInitialNotional",
      "outputs": [
        {
          "name": "",
          "type": "uint256"
        }
      ],
      "payable": false,
      "stateMutability": "view",
      "type": "function"
    },
    {
      "constant": true,
      "inputs": [],
      "name": "sellerDepositBalance",
      "outputs": [
        {
          "name": "",
          "type": "uint256"
        }
      ],
      "payable": false,
      "stateMutability": "view",
      "type": "function"
    },
    {
      "constant": true,
      "inputs": [],
      "name": "upgradeCalledBy",
      "outputs": [
        {
          "name": "",
          "type": "address"
        }
      ],
      "payable": false,
      "stateMutability": "view",
      "type": "function"
    },
    {
      "constant": true,
      "inputs": [],
      "name": "upgradeable",
      "outputs": [
        {
          "name": "",
          "type": "bool"
        }
      ],
      "payable": false,
      "stateMutability": "view",
      "type": "function"
    },
    {
      "constant": true,
      "inputs": [],
      "name": "MINIMUM_NOTIONAL_AMOUNT_DAI",
      "outputs": [
        {
          "name": "",
          "type": "uint256"
        }
      ],
      "payable": false,
      "stateMutability": "view",
      "type": "function"
    },
    {
      "constant": true,
      "inputs": [],
      "name": "closed",
      "outputs": [
        {
          "name": "",
          "type": "bool"
        }
      ],
      "payable": false,
      "stateMutability": "view",
      "type": "function"
    },
    {
      "constant": true,
      "inputs": [],
      "name": "buyerSaleTimeLimit",
      "outputs": [
        {
          "name": "",
          "type": "uint256"
        }
      ],
      "payable": false,
      "stateMutability": "view",
      "type": "function"
    },
    {
      "constant": true,
      "inputs": [],
      "name": "sellerInitialStrikePrice",
      "outputs": [
        {
          "name": "",
          "type": "uint256"
        }
      ],
      "payable": false,
      "stateMutability": "view",
      "type": "function"
    },
    {
      "constant": true,
      "inputs": [],
      "name": "buyer",
      "outputs": [
        {
          "name": "",
          "type": "address"
        }
      ],
      "payable": false,
      "stateMutability": "view",
      "type": "function"
    },
    {
      "constant": true,
      "inputs": [],
      "name": "buyerInitialNotional",
      "outputs": [
        {
          "name": "",
          "type": "uint256"
        }
      ],
      "payable": false,
      "stateMutability": "view",
      "type": "function"
    },
    {
      "constant": true,
      "inputs": [],
      "name": "sellerSaleStrikePrice",
      "outputs": [
        {
          "name": "",
          "type": "uint256"
        }
      ],
      "payable": false,
      "stateMutability": "view",
      "type": "function"
    },
    {
      "constant": true,
      "inputs": [],
      "name": "registry",
      "outputs": [
        {
          "name": "",
          "type": "address"
        }
      ],
      "payable": false,
      "stateMutability": "view",
      "type": "function"
    },
    {
      "constant": true,
      "inputs": [],
      "name": "market",
      "outputs": [
        {
          "name": "",
          "type": "bytes32"
        }
      ],
      "payable": false,
      "stateMutability": "view",
      "type": "function"
    },
    {
      "constant": true,
      "inputs": [],
      "name": "cfdRegistryAddr",
      "outputs": [
        {
          "name": "",
          "type": "address"
        }
      ],
      "payable": false,
      "stateMutability": "view",
      "type": "function"
    },
    {
      "constant": true,
      "inputs": [],
      "name": "buyerDepositBalance",
      "outputs": [
        {
          "name": "",
          "type": "uint256"
        }
      ],
      "payable": false,
      "stateMutability": "view",
      "type": "function"
    },
    {
      "constant": true,
      "inputs": [],
      "name": "initiated",
      "outputs": [
        {
          "name": "",
          "type": "bool"
        }
      ],
      "payable": false,
      "stateMutability": "view",
      "type": "function"
    },
    {
      "constant": true,
      "inputs": [],
      "name": "buyerSelling",
      "outputs": [
        {
          "name": "",
          "type": "bool"
        }
      ],
      "payable": false,
      "stateMutability": "view",
      "type": "function"
    },
    {
      "constant": true,
      "inputs": [],
      "name": "strikePrice",
      "outputs": [
        {
          "name": "",
          "type": "uint256"
        }
      ],
      "payable": false,
      "stateMutability": "view",
      "type": "function"
    },
    {
      "constant": true,
      "inputs": [],
      "name": "buyerInitialStrikePrice",
      "outputs": [
        {
          "name": "",
          "type": "uint256"
        }
      ],
      "payable": false,
      "stateMutability": "view",
      "type": "function"
    },
    {
      "constant": true,
      "inputs": [],
      "name": "sellerSaleTimeLimit",
      "outputs": [
        {
          "name": "",
          "type": "uint256"
        }
      ],
      "payable": false,
      "stateMutability": "view",
      "type": "function"
    },
    {
      "constant": true,
      "inputs": [],
      "name": "sellerSelling",
      "outputs": [
        {
          "name": "",
          "type": "bool"
        }
      ],
      "payable": false,
      "stateMutability": "view",
      "type": "function"
    },
    {
      "inputs": [],
      "payable": false,
      "stateMutability": "nonpayable",
      "type": "constructor"
    },
    {
      "anonymous": false,
      "inputs": [
        {
          "indexed": false,
          "name": "creator",
          "type": "address"
        },
        {
          "indexed": false,
          "name": "market",
          "type": "bytes32"
        },
        {
          "indexed": false,
          "name": "notionalAmountDai",
          "type": "uint256"
        },
        {
          "indexed": false,
          "name": "deposit",
          "type": "uint256"
        }
      ],
      "name": "LogCFDCreated",
      "type": "event"
    },
    {
      "anonymous": false,
      "inputs": [
        {
          "indexed": false,
          "name": "joiner",
          "type": "address"
        },
        {
          "indexed": false,
          "name": "amountSent",
          "type": "uint256"
        },
        {
          "indexed": false,
          "name": "buyer",
          "type": "address"
        },
        {
          "indexed": false,
          "name": "seller",
          "type": "address"
        },
        {
          "indexed": false,
          "name": "market",
          "type": "bytes32"
        },
        {
          "indexed": false,
          "name": "notionalAmountDai",
          "type": "uint256"
        },
        {
          "indexed": false,
          "name": "strikePrice",
          "type": "uint256"
        },
        {
          "indexed": false,
          "name": "buyerDepositBalance",
          "type": "uint256"
        },
        {
          "indexed": false,
          "name": "sellerDepositBalance",
          "type": "uint256"
        }
      ],
      "name": "LogCFDInitiated",
      "type": "event"
    },
    {
      "anonymous": false,
      "inputs": [
        {
          "indexed": false,
          "name": "oldOwner",
          "type": "address"
        },
        {
          "indexed": false,
          "name": "newOwner",
          "type": "address"
        }
      ],
      "name": "LogCFDTransferPosition",
      "type": "event"
    },
    {
      "anonymous": false,
      "inputs": [
        {
          "indexed": false,
          "name": "party",
          "type": "address"
        },
        {
          "indexed": false,
          "name": "amount",
          "type": "uint256"
        },
        {
          "indexed": false,
          "name": "market",
          "type": "bytes32"
        }
      ],
      "name": "LogCFDCanceledNew",
      "type": "event"
    },
    {
      "anonymous": false,
      "inputs": [
        {
          "indexed": false,
          "name": "party",
          "type": "address"
        },
        {
          "indexed": false,
          "name": "newStrikePrice",
          "type": "uint256"
        }
      ],
      "name": "LogCFDStrikePriceUpdated",
      "type": "event"
    },
    {
      "anonymous": false,
      "inputs": [
        {
          "indexed": false,
          "name": "party",
          "type": "address"
        },
        {
          "indexed": false,
          "name": "saleStrikePrice",
          "type": "uint256"
        },
        {
          "indexed": false,
          "name": "timeLimit",
          "type": "uint256"
        }
      ],
      "name": "LogCFDSale",
      "type": "event"
    },
    {
      "anonymous": false,
      "inputs": [
        {
          "indexed": false,
          "name": "party",
          "type": "address"
        }
      ],
      "name": "LogCFDSaleCancelled",
      "type": "event"
    },
    {
      "anonymous": false,
      "inputs": [
        {
          "indexed": false,
          "name": "party",
          "type": "address"
        },
        {
          "indexed": false,
          "name": "newPrice",
          "type": "uint256"
        }
      ],
      "name": "LogCFDSaleUpdated",
      "type": "event"
    },
    {
      "anonymous": false,
      "inputs": [
        {
          "indexed": false,
          "name": "to",
          "type": "address"
        },
        {
          "indexed": false,
          "name": "by",
          "type": "address"
        },
        {
          "indexed": false,
          "name": "newNotional",
          "type": "uint256"
        },
        {
          "indexed": false,
          "name": "sellerAmount",
          "type": "uint256"
        },
        {
          "indexed": false,
          "name": "buyerDeposit",
          "type": "uint256"
        },
        {
          "indexed": false,
          "name": "market",
          "type": "bytes32"
        }
      ],
      "name": "LogCFDSold",
      "type": "event"
    },
    {
      "anonymous": false,
      "inputs": [
        {
          "indexed": false,
          "name": "party",
          "type": "address"
        },
        {
          "indexed": false,
          "name": "amount",
          "type": "uint256"
        },
        {
          "indexed": false,
          "name": "isWithdraw",
          "type": "bool"
        },
        {
          "indexed": false,
          "name": "newBalance",
          "type": "uint256"
        },
        {
          "indexed": false,
          "name": "market",
          "type": "bytes32"
        }
      ],
      "name": "LogCFDPartyBalanceUpdate",
      "type": "event"
    },
    {
      "anonymous": false,
      "inputs": [
        {
          "indexed": false,
          "name": "receiver",
          "type": "address"
        },
        {
          "indexed": false,
          "name": "amount",
          "type": "uint256"
        }
      ],
      "name": "LogCFDTransferFunds",
      "type": "event"
    },
    {
      "anonymous": false,
      "inputs": [
        {
          "indexed": false,
          "name": "winner",
          "type": "address"
        },
        {
          "indexed": false,
          "name": "buyerCollateral",
          "type": "uint256"
        },
        {
          "indexed": false,
          "name": "sellerCollateral",
          "type": "uint256"
        },
        {
          "indexed": false,
          "name": "market",
          "type": "bytes32"
        }
      ],
      "name": "LogCFDClosed",
      "type": "event"
    },
    {
      "anonymous": false,
      "inputs": [
        {
          "indexed": false,
          "name": "terminator",
          "type": "address"
        },
        {
          "indexed": false,
          "name": "terminatorAmount",
          "type": "uint256"
        },
        {
          "indexed": false,
          "name": "otherParty",
          "type": "address"
        },
        {
          "indexed": false,
          "name": "otherPartyAmount",
          "type": "uint256"
        },
        {
          "indexed": false,
          "name": "market",
          "type": "bytes32"
        }
      ],
      "name": "LogCFDForceTerminated",
      "type": "event"
    },
    {
      "anonymous": false,
      "inputs": [
        {
          "indexed": false,
          "name": "newCFD",
          "type": "address"
        }
      ],
      "name": "LogCFDUpgraded",
      "type": "event"
    },
    {
      "anonymous": false,
      "inputs": [
        {
          "indexed": false,
          "name": "remainder",
          "type": "uint256"
        }
      ],
      "name": "LogCFDRemainingBalanceUnexpected",
      "type": "event"
    },
    {
      "constant": true,
      "inputs": [],
      "name": "isActive",
      "outputs": [
        {
          "name": "",
          "type": "bool"
        }
      ],
      "payable": false,
      "stateMutability": "view",
      "type": "function"
    },
    {
      "constant": true,
      "inputs": [],
      "name": "isBuyerSelling",
      "outputs": [
        {
          "name": "",
          "type": "bool"
        }
      ],
      "payable": false,
      "stateMutability": "view",
      "type": "function"
    },
    {
      "constant": true,
      "inputs": [],
      "name": "isSellerSelling",
      "outputs": [
        {
          "name": "",
          "type": "bool"
        }
      ],
      "payable": false,
      "stateMutability": "view",
      "type": "function"
    },
    {
      "constant": true,
      "inputs": [
        {
          "name": "_party",
          "type": "address"
        }
      ],
      "name": "isSelling",
      "outputs": [
        {
          "name": "",
          "type": "bool"
        }
      ],
      "payable": false,
      "stateMutability": "view",
      "type": "function"
    },
    {
      "constant": true,
      "inputs": [
        {
          "name": "_party",
          "type": "address"
        }
      ],
      "name": "isContractParty",
      "outputs": [
        {
          "name": "",
          "type": "bool"
        }
      ],
      "payable": false,
      "stateMutability": "view",
      "type": "function"
    },
    {
      "constant": false,
      "inputs": [
        {
          "name": "_registryAddr",
          "type": "address"
        },
        {
          "name": "_cfdRegistryAddr",
          "type": "address"
        },
        {
          "name": "_feedsAddr",
          "type": "address"
        },
        {
          "name": "_partyAddr",
          "type": "address"
        },
        {
          "name": "_marketId",
          "type": "bytes32"
        },
        {
          "name": "_strikePrice",
          "type": "uint256"
        },
        {
          "name": "_notionalAmountDai",
          "type": "uint256"
        },
        {
          "name": "_isBuyer",
          "type": "bool"
        }
      ],
      "name": "create",
      "outputs": [],
      "payable": false,
      "stateMutability": "nonpayable",
      "type": "function"
    },
    {
      "constant": false,
      "inputs": [
        {
          "name": "_cfdAddr",
          "type": "address"
        },
        {
          "name": "_registryAddr",
          "type": "address"
        },
        {
          "name": "_cfdRegistryAddr",
          "type": "address"
        },
        {
          "name": "_feedsAddr",
          "type": "address"
        }
      ],
      "name": "createByUpgrade",
      "outputs": [],
      "payable": false,
      "stateMutability": "nonpayable",
      "type": "function"
    },
    {
      "constant": true,
      "inputs": [],
      "name": "getCfdAttributes",
      "outputs": [
        {
          "name": "",
          "type": "address"
        },
        {
          "name": "",
          "type": "address"
        },
        {
          "name": "",
          "type": "bytes32"
        },
        {
          "name": "",
          "type": "uint256"
        },
        {
          "name": "",
          "type": "uint256"
        },
        {
          "name": "",
          "type": "bool"
        },
        {
          "name": "",
          "type": "bool"
        },
        {
          "name": "",
          "type": "uint8"
        }
      ],
      "payable": false,
      "stateMutability": "view",
      "type": "function"
    },
    {
      "constant": true,
      "inputs": [],
      "name": "getCfdAttributes2",
      "outputs": [
        {
          "name": "",
          "type": "uint256"
        },
        {
          "name": "",
          "type": "uint256"
        },
        {
          "name": "",
          "type": "uint256"
        },
        {
          "name": "",
          "type": "uint256"
        },
        {
          "name": "",
          "type": "uint256"
        },
        {
          "name": "",
          "type": "uint256"
        },
        {
          "name": "",
          "type": "uint256"
        },
        {
          "name": "",
          "type": "uint256"
        }
      ],
      "payable": false,
      "stateMutability": "view",
      "type": "function"
    },
    {
      "constant": true,
      "inputs": [],
      "name": "getCfdAttributes3",
      "outputs": [
        {
          "name": "",
          "type": "bool"
        },
        {
          "name": "",
          "type": "address"
        }
      ],
      "payable": false,
      "stateMutability": "view",
      "type": "function"
    },
    {
      "constant": false,
      "inputs": [
        {
          "name": "_value",
          "type": "uint256"
        }
      ],
      "name": "deposit",
      "outputs": [],
      "payable": false,
      "stateMutability": "nonpayable",
      "type": "function"
    },
    {
      "constant": false,
      "inputs": [],
      "name": "cancelNew",
      "outputs": [],
      "payable": false,
      "stateMutability": "nonpayable",
      "type": "function"
    },
    {
      "constant": false,
      "inputs": [
        {
          "name": "_value",
          "type": "uint256"
        }
      ],
      "name": "topup",
      "outputs": [],
      "payable": false,
      "stateMutability": "nonpayable",
      "type": "function"
    },
    {
      "constant": false,
      "inputs": [
        {
          "name": "_withdrawAmount",
          "type": "uint256"
        }
      ],
      "name": "withdraw",
      "outputs": [],
      "payable": false,
      "stateMutability": "nonpayable",
      "type": "function"
    },
    {
      "constant": false,
      "inputs": [
        {
          "name": "_newAddress",
          "type": "address"
        }
      ],
      "name": "transferPosition",
      "outputs": [],
      "payable": false,
      "stateMutability": "nonpayable",
      "type": "function"
    },
    {
      "constant": false,
      "inputs": [
        {
          "name": "_desiredStrikePrice",
          "type": "uint256"
        },
        {
          "name": "_timeLimit",
          "type": "uint256"
        }
      ],
      "name": "sellPrepare",
      "outputs": [],
      "payable": false,
      "stateMutability": "nonpayable",
      "type": "function"
    },
    {
      "constant": false,
      "inputs": [
        {
          "name": "_newPrice",
          "type": "uint256"
        }
      ],
      "name": "sellUpdate",
      "outputs": [],
      "payable": false,
      "stateMutability": "nonpayable",
      "type": "function"
    },
    {
      "constant": false,
      "inputs": [
        {
          "name": "_newStrikePrice",
          "type": "uint256"
        }
      ],
      "name": "changeStrikePrice",
      "outputs": [],
      "payable": false,
      "stateMutability": "nonpayable",
      "type": "function"
    },
    {
      "constant": false,
      "inputs": [],
      "name": "sellCancel",
      "outputs": [],
      "payable": false,
      "stateMutability": "nonpayable",
      "type": "function"
    },
    {
      "constant": false,
      "inputs": [
        {
          "name": "_buyBuyerSide",
          "type": "bool"
        },
        {
          "name": "_value",
          "type": "uint256"
        }
      ],
      "name": "buy",
      "outputs": [],
      "payable": false,
      "stateMutability": "nonpayable",
      "type": "function"
    },
    {
      "constant": false,
      "inputs": [],
      "name": "liquidate",
      "outputs": [],
      "payable": false,
      "stateMutability": "nonpayable",
      "type": "function"
    },
    {
      "constant": false,
      "inputs": [],
      "name": "forceTerminate",
      "outputs": [],
      "payable": false,
      "stateMutability": "nonpayable",
      "type": "function"
    },
    {
      "constant": false,
      "inputs": [],
      "name": "upgrade",
      "outputs": [],
      "payable": false,
      "stateMutability": "nonpayable",
      "type": "function"
    },
    {
      "constant": true,
      "inputs": [],
      "name": "status",
      "outputs": [
        {
          "name": "",
          "type": "uint8"
        }
      ],
      "payable": false,
      "stateMutability": "view",
      "type": "function"
    },
    {
      "constant": true,
      "inputs": [
        {
          "name": "_marketPrice",
          "type": "uint256"
        },
        {
          "name": "_buyerDepositBalance",
          "type": "uint256"
        },
        {
          "name": "_sellerDepositBalance",
          "type": "uint256"
        },
        {
          "name": "_strikePrice",
          "type": "uint256"
        }
      ],
      "name": "marketPriceInRange",
      "outputs": [
        {
          "name": "inRange",
          "type": "bool"
        }
      ],
      "payable": false,
      "stateMutability": "view",
      "type": "function"
    },
    {
      "constant": true,
      "inputs": [
        {
          "name": "_oldNotional",
          "type": "uint256"
        },
        {
          "name": "_oldStrikePrice",
          "type": "uint256"
        },
        {
          "name": "_newStrikePrice",
          "type": "uint256"
        }
      ],
      "name": "calculateNewNotional",
      "outputs": [
        {
          "name": "newNotional",
          "type": "uint256"
        }
      ],
      "payable": false,
      "stateMutability": "pure",
      "type": "function"
    },
    {
      "constant": true,
      "inputs": [
        {
          "name": "_strikePrice",
          "type": "uint256"
        },
        {
          "name": "_marketPrice",
          "type": "uint256"
        },
        {
          "name": "_notionalAmount",
          "type": "uint256"
        },
        {
          "name": "_depositBalance",
          "type": "uint256"
        },
        {
          "name": "_isBuyer",
          "type": "bool"
        }
      ],
      "name": "calculateCollateralAmount",
      "outputs": [
        {
          "name": "collateral",
          "type": "uint256"
        }
      ],
      "payable": false,
      "stateMutability": "pure",
      "type": "function"
    },
    {
      "constant": true,
      "inputs": [
        {
          "name": "_notionalAmountDai",
          "type": "uint256"
        },
        {
          "name": "_depositBalance",
          "type": "uint256"
        },
        {
          "name": "_strikePrice",
          "type": "uint256"
        },
        {
          "name": "_calcForBuyerSide",
          "type": "bool"
        }
      ],
      "name": "cutOffPrice",
      "outputs": [
        {
          "name": "price",
          "type": "uint256"
        }
      ],
      "payable": false,
      "stateMutability": "pure",
      "type": "function"
    },
    {
      "constant": true,
      "inputs": [
        {
          "name": "_notional",
          "type": "uint256"
        }
      ],
      "name": "creatorFee",
      "outputs": [
        {
          "name": "fee",
          "type": "uint256"
        }
      ],
      "payable": false,
      "stateMutability": "pure",
      "type": "function"
    },
    {
      "constant": true,
      "inputs": [
        {
          "name": "_notional",
          "type": "uint256"
        }
      ],
      "name": "joinerFee",
      "outputs": [
        {
          "name": "fee",
          "type": "uint256"
        }
      ],
      "payable": false,
      "stateMutability": "pure",
      "type": "function"
    },
    {
      "constant": true,
      "inputs": [
        {
          "name": "_strikePrice",
          "type": "uint256"
        },
        {
          "name": "_currentPrice",
          "type": "uint256"
        },
        {
          "name": "_notionalAmount",
          "type": "uint256"
        }
      ],
      "name": "changeInDai",
      "outputs": [
        {
          "name": "change",
          "type": "uint256"
        }
      ],
      "payable": false,
      "stateMutability": "pure",
      "type": "function"
    },
    {
      "constant": true,
      "inputs": [
        {
          "name": "_value",
          "type": "uint256"
        },
        {
          "name": "_newValue",
          "type": "uint256"
        }
      ],
      "name": "percentChange",
      "outputs": [
        {
          "name": "percent",
          "type": "uint256"
        }
      ],
      "payable": false,
      "stateMutability": "pure",
      "type": "function"
    },
    {
      "constant": true,
      "inputs": [
        {
          "name": "_amount",
          "type": "uint256"
        },
        {
          "name": "_percent",
          "type": "uint256"
        }
      ],
      "name": "percentOf",
      "outputs": [
        {
          "name": "adjusted",
          "type": "uint256"
        }
      ],
      "payable": false,
      "stateMutability": "pure",
      "type": "function"
    }
  ],
  "bytecode": "0x6080604052600f80547fffffffffffff000000000000000000000000000000000000000000ff0000ffff16905534801561003857600080fd5b506152ff806100486000396000f3006080604052600436106102b05763ffffffff60e060020a600035041663037b9c1781146102b557806308551a53146102dc5780630a10ff5f1461030d5780630c247fdb14610322578063194307bf146103405780631a9fddf2146103695780631bcccdf7146103835780631bdfca0114610398578063200d2ed2146103ad57806322e20d2a146103e657806322f3e2d4146103fb5780632802759b1461041057806328a07025146104435780632a6d096f146104585780632d4dce7d146104ae5780632e1a7d4d146104c35780632f301a78146104db57806330db555f146104f9578063333c9dda14610511578063393d85331461052657806341c20c8e1461054957806346f33a6d1461055e57806348ddb0dd14610573578063497b13d3146105885780635407baea1461059d578063597e1fb5146105be5780635df0d4cd146105d35780635dfa360a146106145780635e24e35d1461063a5780636182fab31461065b5780636a8100b2146106705780637028875e146106855780637150d8ae1461069d5780637185b30c146106b257806378561939146106c757806378c3829b146106dc5780637af5cde9146106f45780637b103999146107155780637d21f9501461072a57806380f5560514610762578063818197ea146107775780638505571e1461079257806393a96512146107aa57806398074eb4146107bf57806398531f28146107d45780639c03d24a146107e95780639dec1430146108045780639f11853614610819578063a6f408211461082e578063ae3cde5914610849578063b6b55f251461085e578063c2ef94f614610876578063c52987cf146108f2578063c93c88d714610907578063d525be321461091c578063d55ec6971461093d578063df0fdcdc14610952578063e24c469b14610967578063f797efda14610984578063fe2e569914610999575b600080fd5b3480156102c157600080fd5b506102ca6109ae565b60408051918252519081900360200190f35b3480156102e857600080fd5b506102f16109b4565b60408051600160a060020a039092168252519081900360200190f35b34801561031957600080fd5b506102f16109c3565b34801561032e57600080fd5b506102ca6004356024356044356109d2565b34801561034c57600080fd5b506103556109e7565b604080519115158252519081900360200190f35b34801561037557600080fd5b506103816004356109f8565b005b34801561038f57600080fd5b506102ca610c48565b3480156103a457600080fd5b506102ca610c4d565b3480156103b957600080fd5b506103c2610c53565b604051808260038111156103d257fe5b60ff16815260200191505060405180910390f35b3480156103f257600080fd5b506102ca610cb9565b34801561040757600080fd5b50610355610cbf565b34801561041c57600080fd5b50610381600160a060020a0360043581169060243581169060443581169060643516610cee565b34801561044f57600080fd5b5061038161138a565b34801561046457600080fd5b5061046d6116a4565b604080519889526020890197909752878701959095526060870193909352608086019190915260a085015260c084015260e083015251908190036101000190f35b3480156104ba57600080fd5b506102ca6116c6565b3480156104cf57600080fd5b506103816004356116cc565b3480156104e757600080fd5b506102ca600435602435604435611c57565b34801561050557600080fd5b50610381600435611c64565b34801561051d57600080fd5b506102f1612078565b34801561053257600080fd5b506102ca6004356024356044356064351515612091565b34801561055557600080fd5b506103556120a8565b34801561056a57600080fd5b506103556120ba565b34801561057f57600080fd5b506102ca6120e2565b34801561059457600080fd5b506103816120ee565b3480156105a957600080fd5b50610355600160a060020a036004351661239b565b3480156105ca57600080fd5b506103556123cb565b3480156105df57600080fd5b50610381600160a060020a036004358116906024358116906044358116906064351660843560a43560c43560e43515156123db565b34801561062057600080fd5b506102ca6004356024356044356064356084351515612797565b34801561064657600080fd5b50610381600160a060020a03600435166127b0565b34801561066757600080fd5b506102ca612b34565b34801561067c57600080fd5b506102ca612b3a565b34801561069157600080fd5b50610381600435612b40565b3480156106a957600080fd5b506102f1612dc9565b3480156106be57600080fd5b506102ca612dd8565b3480156106d357600080fd5b506102ca612dde565b3480156106e857600080fd5b506102ca600435612de4565b34801561070057600080fd5b50610355600435602435604435606435612def565b34801561072157600080fd5b506102f1612e2f565b34801561073657600080fd5b5061073f612e3e565b604080519215158352600160a060020a0390911660208301528051918290030190f35b34801561076e57600080fd5b506102ca612e64565b34801561078357600080fd5b50610381600435602435612e6a565b34801561079e57600080fd5b506102ca6004356131b8565b3480156107b657600080fd5b506103816131c3565b3480156107cb57600080fd5b506102f1613681565b3480156107e057600080fd5b50610355613690565b3480156107f557600080fd5b506102ca6004356024356136b3565b34801561081057600080fd5b506102ca6136c6565b34801561082557600080fd5b506103556136cc565b34801561083a57600080fd5b506102ca6004356024356136db565b34801561085557600080fd5b506103556136e7565b34801561086a57600080fd5b506103816004356136f0565b34801561088257600080fd5b5061088b613b82565b60408051600160a060020a03808b16825289166020820152908101879052606081018690526080810185905283151560a082015282151560c082015260e081018260038111156108d757fe5b60ff1681526020019850505050505050505060405180910390f35b3480156108fe57600080fd5b506102ca613be0565b34801561091357600080fd5b506102ca613be6565b34801561092857600080fd5b50610355600160a060020a0360043516613bec565b34801561094957600080fd5b50610381613c33565b34801561095e57600080fd5b506102ca6142f4565b34801561097357600080fd5b5061038160043515156024356142fa565b34801561099057600080fd5b506103816148cb565b3480156109a557600080fd5b50610355614a2a565b60035481565b600154600160a060020a031681565b601154600160a060020a031681565b60006109df848484614a38565b949350505050565b600f54640100000000900460ff1681565b610a00610cbf565b60408051808201909152600e8152600080516020615274833981519152602082015280821515610ab15760405160e560020a62461bcd0281526004018080602001828103825283818151815260200191508051906020019080838360005b83811015610a76578181015183820152602001610a5e565b50505050905090810190601f168015610aa35780820380516001836020036101000a031916815260200191505b509250505060405180910390fd5b50610abb33613bec565b60408051808201909152601981527f6d73672e73656e646572206d7573742062652073656c6c657200000000000000602082015280821515610b425760405160e560020a62461bcd02815260040180806020018281038252838181518152602001915080519060200190808383600083811015610a76578181015183820152602001610a5e565b5060408051808201909152601181527f5072696365206d757374206265203e2030000000000000000000000000000000602082015260008611908082610bcd5760405160e560020a62461bcd02815260040180806020018281038252838181518152602001915080519060200190808383600083811015610a76578181015183820152602001610a5e565b50600054600160a060020a0316331415610beb57600b879055610c04565b600154600160a060020a0316331415610c0457600d8790555b604080513381526020810189905281517fbbee2154904c4910310beb779cb9f970f5faa539a34158662d3963477f19ce31929181900390910190a150505050505050565b600581565b600b5481565b600f546000906301000000900460ff16151560011415610c7557506003610cb6565b600f5462010000900460ff161515610c8f57506000610cb6565b610c97613690565b80610ca55750610ca56120ba565b15610cb257506002610cb6565b5060015b90565b60055481565b600f5460009062010000900460ff1615156001148015610ce95750600f546301000000900460ff16155b905090565b600084905080600160a060020a03166380f556056040518163ffffffff1660e060020a02815260040160206040518083038186803b158015610d2f57600080fd5b505afa158015610d43573d6000803e3d6000fd5b505050506040513d6020811015610d5957600080fd5b5051600255604080517f037b9c170000000000000000000000000000000000000000000000000000000081529051600160a060020a0383169163037b9c17916004808301926020929190829003018186803b158015610db757600080fd5b505afa158015610dcb573d6000803e3d6000fd5b505050506040513d6020811015610de157600080fd5b5051600355604080517fc52987cf0000000000000000000000000000000000000000000000000000000081529051600160a060020a0383169163c52987cf916004808301926020929190829003018186803b158015610e3f57600080fd5b505afa158015610e53573d6000803e3d6000fd5b505050506040513d6020811015610e6957600080fd5b5051600655604080517f7150d8ae0000000000000000000000000000000000000000000000000000000081529051600160a060020a03831691637150d8ae916004808301926020929190829003018186803b158015610ec757600080fd5b505afa158015610edb573d6000803e3d6000fd5b505050506040513d6020811015610ef157600080fd5b505160008054600160a060020a031916600160a060020a03928316179055604080517f08551a530000000000000000000000000000000000000000000000000000000081529051918316916308551a5391600480820192602092909190829003018186803b158015610f6257600080fd5b505afa158015610f76573d6000803e3d6000fd5b505050506040513d6020811015610f8c57600080fd5b505160018054600160a060020a031916600160a060020a03928316179055604080517f9dec1430000000000000000000000000000000000000000000000000000000008152905191831691639dec143091600480820192602092909190829003018186803b158015610ffd57600080fd5b505afa158015611011573d6000803e3d6000fd5b505050506040513d602081101561102757600080fd5b5051600955604080517f7185b30c0000000000000000000000000000000000000000000000000000000081529051600160a060020a03831691637185b30c916004808301926020929190829003018186803b15801561108557600080fd5b505afa158015611099573d6000803e3d6000fd5b505050506040513d60208110156110af57600080fd5b50516004908155604080517fc93c88d70000000000000000000000000000000000000000000000000000000081529051600160a060020a0384169263c93c88d792808201926020929091829003018186803b15801561110d57600080fd5b505afa158015611121573d6000803e3d6000fd5b505050506040513d602081101561113757600080fd5b5051600755604080517f2d4dce7d0000000000000000000000000000000000000000000000000000000081529051600160a060020a03831691632d4dce7d916004808301926020929190829003018186803b15801561119557600080fd5b505afa1580156111a9573d6000803e3d6000fd5b505050506040513d60208110156111bf57600080fd5b5051600a55604080517f22e20d2a0000000000000000000000000000000000000000000000000000000081529051600160a060020a038316916322e20d2a916004808301926020929190829003018186803b15801561121d57600080fd5b505afa158015611231573d6000803e3d6000fd5b505050506040513d602081101561124757600080fd5b5051600555604080517f6a8100b20000000000000000000000000000000000000000000000000000000081529051600160a060020a03831691636a8100b2916004808301926020929190829003018186803b1580156112a557600080fd5b505afa1580156112b9573d6000803e3d6000fd5b505050506040513d60208110156112cf57600080fd5b505160085560108054600160a060020a03808616600160a060020a031992831617928390556012805488831690841617905560118054868316931692909217909155600f805462ff00001916620100001790556001546040805160e160020a6340f46fd102815291831660048301525192909116916381e8dfa29160248082019260009290919082900301818387803b15801561136b57600080fd5b505af115801561137f573d6000803e3d6000fd5b505050505050505050565b600080600080600061139a610cbf565b60408051808201909152600e815260008051602061527483398151915260208201528082151561140f5760405160e560020a62461bcd02815260040180806020018281038252838181518152602001915080519060200190808383600083811015610a76578181015183820152602001610a5e565b50611418614a51565b965061142c87600954600a54600654612def565b156114a7576040805160e560020a62461bcd02815260206004820152602360248201527f4c6971756964617465207468726573686f6c64206e6f7420796574207265616360448201527f6865640000000000000000000000000000000000000000000000000000000000606482015290519081900360840190fd5b6114ba6003546009546006546001614aeb565b95508587119450846114d757600154600160a060020a03166114e4565b600054600160a060020a03165b9350601260009054906101000a9004600160a060020a0316600160a060020a0316638ef855686040518163ffffffff1660e060020a02815260040160206040518083038186803b15801561153757600080fd5b505afa15801561154b573d6000803e3d6000fd5b505050506040513d602081101561156157600080fd5b50516040805160e060020a6370a082310281523060048201529051600160a060020a03909216916370a0823191602480820192602092909190829003018186803b1580156115ae57600080fd5b505afa1580156115c2573d6000803e3d6000fd5b505050506040513d60208110156115d857600080fd5b505192506115e68484614b8a565b60408051600160a060020a0386168152602081018590528151600080516020615254833981519152929181900390910190a1600f805463ff000000191663010000001790557faa0254c6ef7b0f13349b08e091c677fb9d83e5829f3e697eee7127c0702292b3848661165957600061165b565b845b876116665785611669565b60005b60025460408051600160a060020a0390951685526020850193909352838301919091526060830152519081900360800190a150505050505050565b600454600554600954600a54600b54600d546007546008549091929394959697565b600a5481565b6000806000806000856001811015606060405190810160405280602281526020017f43616e2774207769746864726177206d6f7265207468656e20617661696c616281526020017f6c650000000000000000000000000000000000000000000000000000000000008152509015156117895760405160e560020a62461bcd02815260040180806020018281038252838181518152602001915080519060200190808383600083811015610a76578181015183820152602001610a5e565b50600f5460408051808201909152601181527f4d75737420626520696e6974696174656400000000000000000000000000000060208201529062010000900460ff16151560011461181f5760405160e560020a62461bcd02815260040180806020018281038252838181518152602001915080519060200190808383600083811015610a76578181015183820152602001610a5e565b50600f5460408051808201909152601281526000805160206152348339815191526020820152906301000000900460ff16156118a05760405160e560020a62461bcd02815260040180806020018281038252838181518152602001915080519060200190808383600083811015610a76578181015183820152602001610a5e565b506118aa3361239b565b606060405190810160405280602181526020016000805160206152b4833981519152815260200160f860020a60730281525090151561192e5760405160e560020a62461bcd02815260040180806020018281038252838181518152602001915080519060200190808383600083811015610a76578181015183820152602001610a5e565b5061193833613bec565b60408051808201909152601d8152600080516020615294833981519152602082015290156119ab5760405160e560020a62461bcd02815260040180806020018281038252838181518152602001915080519060200190808383600083811015610a76578181015183820152602001610a5e565b50600054600160a060020a031633149550856119c957600a546119cd565b6009545b945084871115611a7a5760408051606081018252602281527f43616e2774207769746864726177206d6f7265207468656e20617661696c616260208083019182527f6c6500000000000000000000000000000000000000000000000000000000000083850152925160e560020a62461bcd02815260048101938452825160248201528251929392839260449092019190808383600083811015610a76578181015183820152602001610a5e565b8685039350611a87614a51565b9250611ab38387611a9a57600954611a9c565b855b88611aa75786611aab565b600a545b600654612def565b1515611b2457604080518082018252601781526000805160206152148339815191526020808301918252925160e560020a62461bcd02815260048101938452825160248201528251929392839260449092019190808383600083811015610a76578181015183820152602001610a5e565b611b3560065484600354878a614d52565b9150611b4360035483614dc2565b1515611bb457604080518082018252601781526000805160206152148339815191526020808301918252925160e560020a62461bcd02815260048101938452825160248201528251929392839260449092019190808383600083811015610a76578181015183820152602001610a5e565b611bbe3388614b8a565b60408051338152602081018990528151600080516020615254833981519152929181900390910190a18515611bf7576009849055611bfd565b600a8490555b60025460408051338152602081018a9052600181830152606081018790526080810192909252517fea455ea564b4652eabbfbcf652bb6439ed6f6edea8eb0525f2becb5aec40c8649181900360a00190a150505050505050565b60006109df848484614def565b60408051808201909152601181527f416d6f756e74206e6f7420656e6f756768000000000000000000000000000000602082015260009081906001841015908082611cf45760405160e560020a62461bcd02815260040180806020018281038252838181518152602001915080519060200190808383600083811015610a76578181015183820152602001610a5e565b50600f5460408051808201909152601181527f4d75737420626520696e6974696174656400000000000000000000000000000060208201526201000090910460ff161515600114908082611d8d5760405160e560020a62461bcd02815260040180806020018281038252838181518152602001915080519060200190808383600083811015610a76578181015183820152602001610a5e565b50600f5460408051808201909152601281526000805160206152348339815191526020820152630100000090910460ff1615908082611e115760405160e560020a62461bcd02815260040180806020018281038252838181518152602001915080519060200190808383600083811015610a76578181015183820152602001610a5e565b50611e1b3361239b565b606060405190810160405280602181526020016000805160206152b4833981519152815260200160f860020a6073028152508181901515611ea15760405160e560020a62461bcd02815260040180806020018281038252838181518152602001915080519060200190808383600083811015610a76578181015183820152602001610a5e565b50611eab33613bec565b60408051808201909152601d815260008051602061529483398151915260208201529015908082611f215760405160e560020a62461bcd02815260040180806020018281038252838181518152602001915080519060200190808383600083811015610a76578181015183820152602001610a5e565b50600054600160a060020a031633149b50611f538d8d611f4357600a54611f47565b6009545b9063ffffffff614e3916565b9a50611f616003548c614dc2565b1515611fd257604080518082018252601781526000805160206152148339815191526020808301918252925160e560020a62461bcd02815260048101938452825160248201528251929392839260449092019190808383600083811015610a76578181015183820152602001610a5e565b611fdb8d614e46565b8b15611feb5760098b9055611ff1565b600a8b90555b7fea455ea564b4652eabbfbcf652bb6439ed6f6edea8eb0525f2becb5aec40c864338e60008e6002546040518086600160a060020a0316600160a060020a031681526020018581526020018415151515815260200183815260200182600019166000191681526020019550505050505060405180910390a150505050505050505050505050565b600f5466010000000000009004600160a060020a031681565b600061209f85858585614aeb565b95945050505050565b600f5465010000000000900460ff1681565b600f54600090610100900460ff168015610ce95750600e541580610ce9575050600e54421090565b670de0b6b3a764000081565b600f5460408051808201909152601581527f4d757374206e6f7420626520696e697469617465640000000000000000000000602082015260009162010000900460ff16159080826121845760405160e560020a62461bcd02815260040180806020018281038252838181518152602001915080519060200190808383600083811015610a76578181015183820152602001610a5e565b5061218e3361239b565b606060405190810160405280602181526020016000805160206152b4833981519152815260200160f860020a60730281525081819015156122145760405160e560020a62461bcd02815260040180806020018281038252838181518152602001915080519060200190808383600083811015610a76578181015183820152602001610a5e565b50601260009054906101000a9004600160a060020a0316600160a060020a0316638ef855686040518163ffffffff1660e060020a02815260040160206040518083038186803b15801561226657600080fd5b505afa15801561227a573d6000803e3d6000fd5b505050506040513d602081101561229057600080fd5b50516040805160e060020a6370a082310281523060048201529051600160a060020a03909216916370a0823191602480820192602092909190829003018186803b1580156122dd57600080fd5b505afa1580156122f1573d6000803e3d6000fd5b505050506040513d602081101561230757600080fd5b505194506123153386614b8a565b60408051338152602081018790528151600080516020615254833981519152929181900390910190a1600f805463ff00000019166301000000179055600254604080513381526020810188905280820192909252517f6407ec2a4ae9d6ab72d4d8edded079bc20dae08edf3fcedd15fa606583efd1449181900360600190a15050505050565b60008054600160a060020a03838116911614806123c55750600154600160a060020a038381169116145b92915050565b600f546301000000900460ff1681565b6000806000670de0b6b3a76400008510156040805190810160405280601681526020017f4e6f74696f6e616c2062656c6f77206d696e696d756d0000000000000000000081525081819015156124765760405160e560020a62461bcd02815260040180806020018281038252838181518152602001915080519060200190808383600083811015610a76578181015183820152602001610a5e565b508c601260006101000a815481600160a060020a030219169083600160a060020a03160217905550601260009054906101000a9004600160a060020a0316600160a060020a0316638ef855686040518163ffffffff1660e060020a02815260040160206040518083038186803b1580156124ef57600080fd5b505afa158015612503573d6000803e3d6000fd5b505050506040513d602081101561251957600080fd5b50516040805160e060020a6370a082310281523060048201529051600160a060020a03909216916370a0823191602480820192602092909190829003018186803b15801561256657600080fd5b505afa15801561257a573d6000803e3d6000fd5b505050506040513d602081101561259057600080fd5b5051945061259d87615011565b935083851161262357604080518082018252601d81527f4e6f7420656e6f7567682073656e7420746f20636f76657220666565730000006020808301918252925160e560020a62461bcd02815260048101938452825160248201528251929392839260449092019190808383600083811015610a76578181015183820152602001610a5e565b83850392506126328784614dc2565b15156126a357604080518082018252601781526000805160206152148339815191526020808301918252925160e560020a62461bcd02815260048101938452825160248201528251929392839260449092019190808383600083811015610a76578181015183820152602001610a5e565b85156126ce5760008054600160a060020a031916600160a060020a038c1617905560098390556126ef565b60018054600160a060020a031916600160a060020a038c16179055600a8390555b600289905560038790556004879055600587905560068890556007889055600888905560108054600160a060020a03808f16600160a060020a031992831617909255601180548e8416921691909117905560408051918c168252602082018b905281810189905260608201879052517f69d73ba3035242abcb4cbe9e73c2317a193d589f1ab392766a856075e4a5ea9d9181900360800190a150505050505050505050505050565b60006127a68686868686614d52565b9695505050505050565b600f5460408051808201909152601281526000805160206152348339815191526020820152630100000090910460ff16159080826128335760405160e560020a62461bcd02815260040180806020018281038252838181518152602001915080519060200190808383600083811015610a76578181015183820152602001610a5e565b5061283d3361239b565b606060405190810160405280602181526020016000805160206152b4833981519152815260200160f860020a60730281525081819015156128c35760405160e560020a62461bcd02815260040180806020018281038252838181518152602001915080519060200190808383600083811015610a76578181015183820152602001610a5e565b506128cd8561239b565b60408051808201909152601e81527f436f6e74726163742070617274792063616e27742063616c6c20746869730000602082015290159080826129555760405160e560020a62461bcd02815260040180806020018281038252838181518152602001915080519060200190808383600083811015610a76578181015183820152602001610a5e565b5061295f33613bec565b60408051808201909152601d8152600080516020615294833981519152602082015290159080826129d55760405160e560020a62461bcd02815260040180806020018281038252838181518152602001915080519060200190808383600083811015610a76578181015183820152602001610a5e565b50600054600160a060020a0316331415612a095760008054600160a060020a031916600160a060020a038b16179055612a7d565b600154600160a060020a0316331415612a3c5760018054600160a060020a031916600160a060020a038b16179055612a7d565b600f5466010000000000009004600160a060020a0316331415612a7d57600f805479ffffffffffffffffffffffffffffffffffffffff000000000000191690555b6010546040805160e160020a6340f46fd1028152600160a060020a038c81166004830152915191909216916381e8dfa291602480830192600092919082900301818387803b158015612ace57600080fd5b505af1158015612ae2573d6000803e3d6000fd5b505060408051338152600160a060020a038d16602082015281517fce6084c9f950738add8e5747a76463fe6d6652d782d26beabe2b69029391a5df9450908190039091019150a1505050505050505050565b600c5481565b60085481565b600f5460408051808201909152601581527f4d757374206e6f7420626520696e69746961746564000000000000000000000060208201526201000090910460ff1615908082612bd45760405160e560020a62461bcd02815260040180806020018281038252838181518152602001915080519060200190808383600083811015610a76578181015183820152602001610a5e565b50600f5460408051808201909152601281526000805160206152348339815191526020820152630100000090910460ff1615908082612c585760405160e560020a62461bcd02815260040180806020018281038252838181518152602001915080519060200190808383600083811015610a76578181015183820152602001610a5e565b50612c623361239b565b606060405190810160405280602181526020016000805160206152b4833981519152815260200160f860020a6073028152508181901515612ce85760405160e560020a62461bcd02815260040180806020018281038252838181518152602001915080519060200190808383600083811015610a76578181015183820152602001610a5e565b5060408051808201909152601181527f5072696365206d757374206265203e2030000000000000000000000000000000602082015260008811908082612d735760405160e560020a62461bcd02815260040180806020018281038252838181518152602001915080519060200190808383600083811015610a76578181015183820152602001610a5e565b5060068990556007899055600889905560408051338152602081018b905281517fe77dd1d532a40e832a7a0938f6bcc6e7724487734f75f6b1f84dfeddcc32c47c929181900390910190a1505050505050505050565b600054600160a060020a031681565b60045481565b600d5481565b60006123c582615011565b6000806000612e0360035487866001614aeb565b9150612e1460035486866000614aeb565b90508187118015612e2457508087105b979650505050505050565b601254600160a060020a031681565b600f54640100000000810460ff16916601000000000000909104600160a060020a031690565b60025481565b6000612e753361239b565b606060405190810160405280602181526020016000805160206152b4833981519152815260200160f860020a6073028152508181901515612efb5760405160e560020a62461bcd02815260040180806020018281038252838181518152602001915080519060200190808383600083811015610a76578181015183820152602001610a5e565b50612f04610cbf565b60408051808201909152600e8152600080516020615274833981519152602082015280821515612f795760405160e560020a62461bcd02815260040180806020018281038252838181518152602001915080519060200190808383600083811015610a76578181015183820152602001610a5e565b50612f8333613bec565b60408051808201909152601d815260008051602061529483398151915260208201529015908082612ff95760405160e560020a62461bcd02815260040180806020018281038252838181518152602001915080519060200190808383600083811015610a76578181015183820152602001610a5e565b5060408051808201909152601181527f5072696365206d757374206265203e2030000000000000000000000000000000602082015260008a119080826130845760405160e560020a62461bcd02815260040180806020018281038252838181518152602001915080519060200190808383600083811015610a76578181015183820152602001610a5e565b5061308e8a615030565b600054909950600160a060020a03163314156130c057600f805460ff19166001179055600b8b9055600c8990556130ed565b600154600160a060020a03163314156130ed57600f805461ff001916610100179055600d8b9055600e8990555b601054604080517f62c597040000000000000000000000000000000000000000000000000000000081523360048201529051600160a060020a03909216916362c597049160248082019260009290919082900301818387803b15801561315257600080fd5b505af1158015613166573d6000803e3d6000fd5b505060408051338152602081018f90528082018d905290517fb5d6baf622d177db5af6d250d11c52507155dbc0359dd6ab5f7c65ca36c4ffc19350908190036060019150a15050505050505050505050565b60006123c582615044565b6000806000806000806131d4610cbf565b60408051808201909152600e81526000805160206152748339815191526020820152808215156132495760405160e560020a62461bcd02815260040180806020018281038252838181518152602001915080519060200190808383600083811015610a76578181015183820152602001610a5e565b506132533361239b565b606060405190810160405280602181526020016000805160206152b4833981519152815260200160f860020a60730281525081819015156132d95760405160e560020a62461bcd02815260040180806020018281038252838181518152602001915080519060200190808383600083811015610a76578181015183820152602001610a5e565b506132e2614a51565b600054600654600354600954939d50600160a060020a0390921633149b5061330f9290918d916001614d52565b97506133256006548b600354600a546000614d52565b965061343b8761342f8a601260009054906101000a9004600160a060020a0316600160a060020a0316638ef855686040518163ffffffff1660e060020a02815260040160206040518083038186803b15801561338057600080fd5b505afa158015613394573d6000803e3d6000fd5b505050506040513d60208110156133aa57600080fd5b50516040805160e060020a6370a082310281523060048201529051600160a060020a03909216916370a0823191602480820192602092909190829003018186803b1580156133f757600080fd5b505afa15801561340b573d6000803e3d6000fd5b505050506040513d602081101561342157600080fd5b50519063ffffffff61505316565b9063ffffffff61505316565b95508515613477576040805187815290517fec6a0b860bf684f74dbe39a6138edd92b8c04da302be601f5a4cfea6099b31aa9181900360200190a15b61348086615065565b6134978961348e5787613490565b885b60056150f9565b945088156134c8576134af888663ffffffff61505316565b97506134c1878663ffffffff614e3916565b96506134ed565b6134d8888663ffffffff614e3916565b97506134ea878663ffffffff61505316565b96505b60005461350390600160a060020a031689614b8a565b60005460408051600160a060020a039092168252602082018a905280516000805160206152548339815191529281900390910190a160015461354e90600160a060020a031688614b8a565b60015460408051600160a060020a0390921682526020820189905280516000805160206152548339815191529281900390910190a1600f805463ff0000001964ff00000000199091166401000000001716630100000017905588156136135760005460015460025460408051600160a060020a039485168152602081018d90529290931682840152606082018a9052608082015290517f81bf0ecca77d43968d8c2687fe97a6d65b62e33063055c15042f5d5fd63abe289181900360a00190a1613675565b60015460005460025460408051600160a060020a039485168152602081018c90529290931682840152606082018b9052608082015290517f81bf0ecca77d43968d8c2687fe97a6d65b62e33063055c15042f5d5fd63abe289181900360a00190a15b50505050505050505050565b601054600160a060020a031681565b600f5460009060ff168015610ce95750600c541580610ce9575050600c54421090565b60006136bf8383615101565b9392505050565b60095481565b600f5462010000900460ff1681565b60006136bf83836150f9565b600f5460ff1681565b600f5460408051808201909152601581527f4d757374206e6f7420626520696e697469617465640000000000000000000000602082015260009182916201000090910460ff16159080826137895760405160e560020a62461bcd02815260040180806020018281038252838181518152602001915080519060200190808383600083811015610a76578181015183820152602001610a5e565b50600f5460408051808201909152601281526000805160206152348339815191526020820152630100000090910460ff161590808261380d5760405160e560020a62461bcd02815260040180806020018281038252838181518152602001915080519060200190808383600083811015610a76578181015183820152602001610a5e565b506138173361239b565b60408051808201909152601e81527f436f6e74726163742070617274792063616e27742063616c6c207468697300006020820152901590808261389f5760405160e560020a62461bcd02815260040180806020018281038252838181518152602001915080519060200190808383600083811015610a76578181015183820152602001610a5e565b506138ab600354615044565b975087891161393157604080518082018252601d81527f4e6f7420656e6f7567682073656e7420746f20636f76657220666565730000006020808301918252925160e560020a62461bcd02815260048101938452825160248201528251929392839260449092019190808383600083811015610a76578181015183820152602001610a5e565b878903965061394260035488614dc2565b15156139b357604080518082018252601781526000805160206152148339815191526020808301918252925160e560020a62461bcd02815260048101938452825160248201528251929392839260449092019190808383600083811015610a76578181015183820152602001610a5e565b6139bc89614e46565b6139d16139ca600354615011565b8901615065565b600054600160a060020a031615156139ff5760008054600160a060020a031916331790556009879055613a17565b60018054600160a060020a03191633179055600a8790555b600f805462ff00001916620100001790556010546040805160e160020a6340f46fd10281523360048201529051600160a060020a03909216916381e8dfa29160248082019260009290919082900301818387803b158015613a7757600080fd5b505af1158015613a8b573d6000803e3d6000fd5b505050507f94bdcbfe1580a4a1b6292d3543b07391ef8e107a5168feefc7412f3da94ebe31338a6000809054906101000a9004600160a060020a0316600160009054906101000a9004600160a060020a0316600254600354600654600954600a54604051808a600160a060020a0316600160a060020a0316815260200189815260200188600160a060020a0316600160a060020a0316815260200187600160a060020a0316600160a060020a031681526020018660001916600019168152602001858152602001848152602001838152602001828152602001995050505050505050505060405180910390a1505050505050505050565b60008054600154600254600654600354600f548695869586958695869586958695600160a060020a0390811695169392919060ff80821691610100900416613bc8610c53565b969f959e50939c50919a509850965094509092509050565b60065481565b60075481565b60008054600160a060020a038381169116148015613c0d5750613c0d613690565b806123c55750600154600160a060020a0383811691161480156123c557506123c56120ba565b600080613c3f3361239b565b606060405190810160405280602181526020016000805160206152b4833981519152815260200160f860020a6073028152508181901515613cc55760405160e560020a62461bcd02815260040180806020018281038252838181518152602001915080519060200190808383600083811015610a76578181015183820152602001610a5e565b50613cce610cbf565b60408051808201909152600e8152600080516020615274833981519152602082015280821515613d435760405160e560020a62461bcd02815260040180806020018281038252838181518152602001915080519060200190808383600083811015610a76578181015183820152602001610a5e565b50613d4d33613bec565b60408051808201909152601d815260008051602061529483398151915260208201529015908082613dc35760405160e560020a62461bcd02815260040180806020018281038252838181518152602001915080519060200190808383600083811015610a76578181015183820152602001610a5e565b50600f5460408051808201909152601981527f6d73672e73656e64657220616c72656164792063616c6c65640000000000000060208201526601000000000000909104600160a060020a0316331415908082613e645760405160e560020a62461bcd02815260040180806020018281038252838181518152602001915080519060200190808383600083811015610a76578181015183820152602001610a5e565b50601260009054906101000a9004600160a060020a0316600160a060020a03166323ec7f2a6040518163ffffffff1660e060020a02815260040160206040518083038186803b158015613eb657600080fd5b505afa158015613eca573d6000803e3d6000fd5b505050506040513d6020811015613ee057600080fd5b5051601254604080517f0c5a95f80000000000000000000000000000000000000000000000000000000081523060048201529051600160a060020a039384169390921691630c5a95f891602480820192602092909190829003018186803b158015613f4a57600080fd5b505afa158015613f5e573d6000803e3d6000fd5b505050506040513d6020811015613f7457600080fd5b505160408051808201909152601981527f416c7265616479206174206c61746573742076657273696f6e000000000000006020820152600160a060020a03909116919091141590808261400c5760405160e560020a62461bcd02815260040180806020018281038252838181518152602001915080519060200190808383600083811015610a76578181015183820152602001610a5e565b50600f5466010000000000009004600160a060020a0316151561405c57600f805479ffffffffffffffffffffffffffffffffffffffff0000000000001916336601000000000000021790556142e6565b600f805465ff0000000000191665010000000000179055601254604080517f23ec7f2a0000000000000000000000000000000000000000000000000000000081529051600160a060020a03909216916323ec7f2a91600480820192602092909190829003018186803b1580156140d157600080fd5b505afa1580156140e5573d6000803e3d6000fd5b505050506040513d60208110156140fb57600080fd5b5051604080517f165ae0fc0000000000000000000000000000000000000000000000000000000081529051919d50600160a060020a038e169163165ae0fc916004808201926020929091908290030181600087803b15801561415c57600080fd5b505af1158015614170573d6000803e3d6000fd5b505050506040513d602081101561418657600080fd5b5051601254604080517f8ef855680000000000000000000000000000000000000000000000000000000081529051929d50614294928e92600160a060020a031691638ef85568916004808301926020929190829003018186803b1580156141ec57600080fd5b505afa158015614200573d6000803e3d6000fd5b505050506040513d602081101561421657600080fd5b50516040805160e060020a6370a082310281523060048201529051600160a060020a03909216916370a0823191602480820192602092909190829003018186803b15801561426357600080fd5b505afa158015614277573d6000803e3d6000fd5b505050506040513d602081101561428d57600080fd5b5051614b8a565b600f805465ff00ff0000001916630100000017905560408051600160a060020a038d16815290517fbf44b7c20b944f553303a3ec7caff0a29f0378e297b7d9dc5b1267d359b7ea6c9181900360200190a15b505050505050505050505050565b600e5481565b6000806000806000806000808961430f610cbf565b60408051808201909152600e815260008051602061527483398151915260208201529015156143835760405160e560020a62461bcd02815260040180806020018281038252838181518152602001915080519060200190808383600083811015610a76578181015183820152602001610a5e565b506143af8161439d57600154600160a060020a03166143aa565b600054600160a060020a03165b613bec565b60408051808201909152600f81527f4d757374206265206f6e2073616c65000000000000000000000000000000000060208201529015156144355760405160e560020a62461bcd02815260040180806020018281038252838181518152602001915080519060200190808383600083811015610a76578181015183820152602001610a5e565b5061443f3361239b565b60408051808201909152601e81527f436f6e74726163742070617274792063616e27742063616c6c20746869730000602082015290156144c45760405160e560020a62461bcd02815260040180806020018281038252838181518152602001915080519060200190808383600083811015610a76578181015183820152602001610a5e565b506144d0600354615044565b9850888a1161455657604080518082018252601d81527f4e6f7420656e6f7567682073656e7420746f20636f76657220666565730000006020808301918252925160e560020a62461bcd02815260048101938452825160248201528251929392839260449092019190808383600083811015610a76578181015183820152602001610a5e565b6145668a8a63ffffffff61505316565b975061457460035489614dc2565b15156145e557604080518082018252601781526000805160206152148339815191526020808301918252925160e560020a62461bcd02815260048101938452825160248201528251929392839260449092019190808383600083811015610a76578181015183820152602001610a5e565b6145ed614a51565b96508a6145fc57600d54614600565b600b545b955061462a878c61461357600954614615565b895b8d614620578a614624565b600a545b89612def565b151561469b57604080518082018252601781526000805160206152148339815191526020808301918252925160e560020a62461bcd02815260048101938452825160248201528251929392839260449092019190808383600083811015610a76578181015183820152602001610a5e565b6146a48a614e46565b6146ad89615065565b8a6146c357600154600160a060020a03166146d0565b600054600160a060020a03165b94506146dd8b878761514b565b935061473488601260009054906101000a9004600160a060020a0316600160a060020a0316638ef855686040518163ffffffff1660e060020a02815260040160206040518083038186803b15801561338057600080fd5b925061474560035460065488614def565b91508a156147785760008054600160a060020a03191633179055600988905560078690556004829055600a83905561479f565b60018054600160a060020a03191633179055600a8890556008869055600582905560098390555b600686905560038290556147b28b6151b3565b600f54600160a060020a0386811666010000000000009092041614156147f657600f805479ffffffffffffffffffffffffffffffffffffffff000000000000191690555b6010546040805160e160020a6340f46fd10281523360048201529051600160a060020a03909216916381e8dfa29160248082019260009290919082900301818387803b15801561484557600080fd5b505af1158015614859573d6000803e3d6000fd5b505060025460408051338152600160a060020a038a16602082015280820187905260608101899052608081018f905260a0810192909252517fd356d730a2af36f9a0a6dfacdadfec02dd284bedaf298f1f5894a869abb3b63693509081900360c0019150a15050505050505050505050565b6148d3610cbf565b60408051808201909152600e81526000805160206152748339815191526020820152808215156149485760405160e560020a62461bcd02815260040180806020018281038252838181518152602001915080519060200190808383600083811015610a76578181015183820152602001610a5e565b5061495233613bec565b60408051808201909152601981527f6d73672e73656e646572206d7573742062652073656c6c6572000000000000006020820152808215156149d95760405160e560020a62461bcd02815260040180806020018281038252838181518152602001915080519060200190808383600083811015610a76578181015183820152602001610a5e565b506000546149f190600160a060020a031633146151b3565b6040805133815290517f82229214624615d3bbec967c7100737095261ce7b7cf043d442f92d635b737619181900360200190a150505050565b600f54610100900460ff1681565b600080614a458585615101565b905061209f83826150f9565b601154600254604080517f61da1439000000000000000000000000000000000000000000000000000000008152600481019290925280516000938493600160a060020a03909116926361da143992602480840193829003018186803b158015614ab957600080fd5b505afa158015614acd573d6000803e3d6000fd5b505050506040513d6040811015614ae357600080fd5b505192915050565b60008060008084614b055768052663ccab1e1c0000614b10565b6805b12aefafa80400005b925068056bc75e2d6310000086840204915068056bc75e2d631000008868056bc75e2d6310000088028902811515614b4457fe5b04811515614b4e57fe5b049050848015614b5d57508181115b15614b6b5760009350614b7f565b84614b7857808201614b7c565b8082035b93505b505050949350505050565b601260009054906101000a9004600160a060020a0316600160a060020a0316638ef855686040518163ffffffff1660e060020a02815260040160206040518083038186803b158015614bdb57600080fd5b505afa158015614bef573d6000803e3d6000fd5b505050506040513d6020811015614c0557600080fd5b5051604080517fa9059cbb000000000000000000000000000000000000000000000000000000008152600160a060020a038581166004830152602482018590529151919092169163a9059cbb9160448083019260209291908290030181600087803b158015614c7357600080fd5b505af1158015614c87573d6000803e3d6000fd5b505050506040513d6020811015614c9d57600080fd5b505160408051606081018252602b81527f4661696c757265207472616e73666572696e67206f776e657273686970206f6660208201527f2044414920746f6b656e7300000000000000000000000000000000000000000091810191909152901515614d4d5760405160e560020a62461bcd02815260040180806020018281038252838181518152602001915080519060200190808383600083811015610a76578181015183820152602001610a5e565b505050565b600068056bc75e2d63100000848102908790879086908590819080868087038202811515614d7c57fe5b058802811515614d8857fe5b05811515614d9257fe5b05915087614da257818303614da6565b8183015b90506000811215614db357fe5b9b9a5050505050505050505050565b6000614dcf8360146150f9565b82101580156136bf5750614de5836101f46150f9565b8211159392505050565b600068056bc75e2d63100000614e2784614e0f858463ffffffff6151ea16565b811515614e1857fe5b8791900463ffffffff6151ea16565b811515614e3057fe5b04949350505050565b818101828110156123c557fe5b601260009054906101000a9004600160a060020a0316600160a060020a0316638ef855686040518163ffffffff1660e060020a02815260040160206040518083038186803b158015614e9757600080fd5b505afa158015614eab573d6000803e3d6000fd5b505050506040513d6020811015614ec157600080fd5b5051604080517f23b872dd000000000000000000000000000000000000000000000000000000008152336004820152306024820152604481018490529051600160a060020a03909216916323b872dd916064808201926020929091908290030181600087803b158015614f3357600080fd5b505af1158015614f47573d6000803e3d6000fd5b505050506040513d6020811015614f5d57600080fd5b505160408051606081018252602b81527f4661696c757265207472616e73666572696e67206f776e657273686970206f6660208201527f2044414920746f6b656e730000000000000000000000000000000000000000009181019190915290151561500d5760405160e560020a62461bcd02815260040180806020018281038252838181518152602001915080519060200190808383600083811015610a76578181015183820152602001610a5e565b5050565b6000600a6150208360036150f9565b81151561502957fe5b0492915050565b60004282116150405760006123c5565b5090565b6000600a6150208360056150f9565b60008282111561505f57fe5b50900390565b601254604080517fdb8d55f100000000000000000000000000000000000000000000000000000000815290516150f692600160a060020a03169163db8d55f1916004808301926020929190829003018186803b1580156150c457600080fd5b505afa1580156150d8573d6000803e3d6000fd5b505050506040513d60208110156150ee57600080fd5b505182614b8a565b50565b606491020490565b6000806000838514156151175760009250615143565b8484039150848260640281151561512a57fe5b0590506000811361513e5780600003615140565b805b92505b505092915050565b600061516e600654846003548761516457600a54615168565b6009545b88614d52565b905061517a8282614b8a565b60408051600160a060020a0384168152602081018390528151600080516020615254833981519152929181900390910190a19392505050565b80156151d2576000600b819055600c55600f805460ff191690556150f6565b6000600d819055600e55600f805461ff001916905550565b60008215156151fb575060006123c5565b5081810281838281151561520b57fe5b04146123c557fe00636f6c6c61746572616c496e52616e67652066616c73650000000000000000004d757374206e6f7420626520636c6f7365640000000000000000000000000000ae0c91484288809ae2c2fb81551bd9d06d4d3bcbbce87f3c5a3d5775f299358b4d757374206265206163746976650000000000000000000000000000000000006d73672e73656e646572206d757374206e6f742062652073656c6c65720000004f6e6c7920636f6e747261637420706172746965732063616e20646f20746869a165627a7a7230582028fe0fed841f5850090b146f04d1232dfc80c636a9ee090406d80503731461bf0029",
  "source": "pragma solidity ^0.4.23;\r\npragma experimental \"v0.5.0\";\r\n\r\nimport \"openzeppelin-solidity/contracts/math/SafeMath.sol\";\r\nimport \"../DBC.sol\";\r\nimport \"../Feeds.sol\";\r\nimport \"../Registry.sol\";\r\nimport \"./ContractForDifferenceFactory.sol\";\r\nimport \"./ContractForDifferenceRegistry.sol\";\r\nimport \"./ContractForDifferenceLibrary.sol\";\r\n\r\n\r\n/*\r\n * SOLIUM DISABLE: \r\n *\r\n *   security/no-block-members - we need to use 'now' in order to set a time \r\n *       limit.\r\n */\r\n\r\n /* solium-disable security/no-block-members */\r\n\r\n/**\r\n * @title Contract for difference\r\n *\r\n * Contract for difference for a given market between a\r\n * \"buyer\" (long position) and \"seller\" (short position).\r\n */\r\ncontract ContractForDifference is DBC {\r\n    using SafeMath for uint;\r\n\r\n    /*\r\n     * Events\r\n     */\r\n\r\n    event LogCFDCreated(\r\n        address creator,\r\n        bytes32 market,\r\n        uint notionalAmountDai,\r\n        uint deposit\r\n    );\r\n    event LogCFDInitiated(\r\n        address joiner,\r\n        uint amountSent,\r\n        address buyer,\r\n        address seller,\r\n        bytes32 market,\r\n        uint notionalAmountDai,\r\n        uint strikePrice,\r\n        uint buyerDepositBalance,\r\n        uint sellerDepositBalance\r\n    );\r\n    event LogCFDTransferPosition(address oldOwner, address newOwner);\r\n    event LogCFDCanceledNew(address party, uint amount, bytes32 market);\r\n    event LogCFDStrikePriceUpdated(address party, uint newStrikePrice);\r\n\r\n    event LogCFDSale(\r\n        address party,\r\n        uint saleStrikePrice,\r\n        uint timeLimit\r\n    );\r\n    event LogCFDSaleCancelled(address party);\r\n    event LogCFDSaleUpdated(address party, uint newPrice);\r\n    event LogCFDSold(address to, address by, uint newNotional, uint sellerAmount, uint buyerDeposit, bytes32 market);\r\n\r\n    event LogCFDPartyBalanceUpdate(address party, uint amount, bool isWithdraw, uint newBalance, bytes32 market);\r\n    event LogCFDTransferFunds(address receiver, uint amount);\r\n\r\n    event LogCFDClosed(address winner, uint buyerCollateral, uint sellerCollateral, bytes32 market);\r\n    event LogCFDForceTerminated(address terminator, uint terminatorAmount, address otherParty, uint otherPartyAmount, bytes32 market);\r\n    event LogCFDUpgraded(address newCFD);\r\n    event LogCFDRemainingBalanceUnexpected(uint remainder);\r\n\r\n    enum Status {\r\n        CREATED,\r\n        INITIATED,\r\n        SALE,\r\n        CLOSED\r\n    }\r\n\r\n    /*\r\n     * Constants\r\n     */\r\n\r\n    string constant REASON_NOTIONAL_TOO_LOW = \"Notional below minimum\";\r\n    string constant REASON_FEES_NOT_ENOUGH = \"Not enough sent to cover fees\";\r\n    string constant REASON_DAI_TRANSFER_FAILED = \"Failure transfering ownership of DAI tokens\";\r\n    string constant REASON_COLLATERAL_RANGE_FAILED = \"collateralInRange false\";\r\n    string constant REASON_MUST_NOT_BE_INITIATED = \"Must not be initiated\";\r\n    string constant REASON_MUST_NOT_BE_CLOSED = \"Must not be closed\";\r\n    string constant REASON_MUST_NOT_BE_PARTY = \"Contract party can't call this\";\r\n    string constant REASON_MUST_BE_INITIATED = \"Must be initiated\";\r\n    string constant REASON_MUST_BE_SELLER = \"msg.sender must be seller\";\r\n    string constant REASON_MUST_NOT_BE_SELLER = \"msg.sender must not be seller\";\r\n    string constant REASON_MUST_BE_ON_SALE = \"Must be on sale\";\r\n    string constant REASON_MUST_BE_POSITIVE_PRICE = \"Price must be > 0\";\r\n    string constant REASON_ONLY_CONTRACT_PARTIES = \"Only contract parties can do this\";\r\n    string constant REASON_MUST_BE_ACTIVE = \"Must be active\";\r\n    string constant REASON_MARKET_PRICE_RANGE_FAILED = \"collateralInRange false\";\r\n    string constant REASON_WITHDRAW_NOT_ENOUGH = \"Can't withdraw more then available\";\r\n    string constant REASON_AMOUNT_NOT_ENOUGH = \"Amount not enough\";\r\n    string constant REASON_UPGRADE_ALREADY_SET = \"msg.sender already called\";\r\n    string constant REASON_UPGRADE_ALREADY_LATEST = \"Already at latest version\";\r\n    string constant REASON_TRANSFER_TO_EXISTING_PARTY = \"Can't transfer to existing party\";\r\n\r\n    uint public constant FORCE_TERMINATE_PENALTY_PERCENT = 5;\r\n    uint public constant MINIMUM_NOTIONAL_AMOUNT_DAI = 1 * 1e18; // 1 DAI/1 USD\r\n\r\n\r\n    /*\r\n     * State variables\r\n     */\r\n\r\n    address public buyer;                           // long\r\n    address public seller;                          // short\r\n    bytes32 public market;\r\n\r\n    uint public notionalAmountDai;\r\n    uint public buyerInitialNotional;\r\n    uint public sellerInitialNotional;\r\n\r\n    // format of strike prices as in Feeds contract - see Feeds.decimals()\r\n    uint public strikePrice;\r\n    uint public buyerInitialStrikePrice;\r\n    uint public sellerInitialStrikePrice;\r\n\r\n    // balances of amounts actually deposited/withdrawn from the contract\r\n    uint public buyerDepositBalance;\r\n    uint public sellerDepositBalance;\r\n\r\n    uint public buyerSaleStrikePrice;\r\n    uint public buyerSaleTimeLimit;\r\n\r\n    uint public sellerSaleStrikePrice;\r\n    uint public sellerSaleTimeLimit;\r\n\r\n    bool public buyerSelling;\r\n    bool public sellerSelling;\r\n\r\n    bool public initiated = false;\r\n    bool public closed = false;\r\n    bool public terminated;\r\n\r\n    // set to true for a short period of time - when second party has called\r\n    // upgrade and upgrade has called the new factory to do the work\r\n    bool public upgradeable = false;\r\n\r\n    // set to first party that calls upgrade\r\n    // enables identification of who called and that it has been called once\r\n    address public upgradeCalledBy = 0x0;\r\n\r\n    address public cfdRegistryAddr;\r\n    address public feedsAddr;\r\n\r\n    Registry public registry;\r\n\r\n    /*\r\n     * Functions\r\n     */\r\n\r\n    constructor() public {}\r\n\r\n    /**\r\n     * @dev Contract has been initiated (has 2 parties) and not yet terminated.\r\n     * @return true if contract is active\r\n     */\r\n    function isActive() public view returns (bool) {\r\n        return initiated == true && closed == false;\r\n    }\r\n\r\n    /**\r\n     * @dev Is buyer / long party selling.\r\n     * @return true if buyer has side up for sale\r\n     */\r\n    function isBuyerSelling() public view returns (bool) {\r\n        return buyerSelling &&\r\n            (buyerSaleTimeLimit == 0 || now < buyerSaleTimeLimit);\r\n    }\r\n\r\n    /**\r\n     * @dev Is seller / short party selling.\r\n     * @return true if seller has side up for sale\r\n     */\r\n    function isSellerSelling() public view returns (bool) {\r\n        return sellerSelling &&\r\n            (sellerSaleTimeLimit == 0 || now < sellerSaleTimeLimit);\r\n    }\r\n\r\n    /**\r\n     * @dev If the given party is selling one side of the contract.\r\n     * @return true if the given party is selling\r\n     */\r\n    function isSelling(address _party) public view returns (bool) {\r\n        return (_party == buyer && isBuyerSelling()) ||\r\n            (_party == seller && isSellerSelling());\r\n    }\r\n\r\n    /**\r\n     * @dev Check if the given address is one of the 2 parties of the contract.\r\n     * @param _party Address to check\r\n     * @return true if _party is either the buyer or seller.\r\n     */\r\n    function isContractParty(address _party) public view returns (bool) {\r\n        return _party == buyer || _party == seller;\r\n    }\r\n\r\n    /**\r\n     * @dev Create a new CFDinstance specifying the terms of the contract.\r\n     *\r\n     * Fee of 0.3% of the notional is taken.\r\n     *\r\n     * Therefore the intial deposit is _value minus these fees.\r\n     *\r\n     * @param _registryAddr Registry contract address\r\n     * @param _cfdRegistryAddr CFD Registry contract address\r\n     * @param _feedsAddr Feeds address\r\n     * @param _partyAddr Address of the party creating the contract\r\n     * @param _marketId Contract is for prices on this market\r\n     * @param _strikePrice Agreed initial price for the contract (compatible\r\n                with Feeds stored price - see Feeds.decimals() adjustment)\r\n     * @param _notionalAmountDai Contract amount\r\n     * @param _isBuyer Flag indicating if the contract creator wants to take the\r\n     *            buyer (true) or the seller side (false).\r\n     */\r\n    function create(\r\n        address _registryAddr,\r\n        address _cfdRegistryAddr,\r\n        address _feedsAddr,\r\n        address _partyAddr, // msg.sender calling the Factory\r\n        bytes32 _marketId,\r\n        uint _strikePrice,\r\n        uint _notionalAmountDai,\r\n        bool _isBuyer\r\n    )\r\n        public\r\n        pre_cond(_notionalAmountDai >= MINIMUM_NOTIONAL_AMOUNT_DAI, REASON_NOTIONAL_TOO_LOW)\r\n    {\r\n        registry = Registry(_registryAddr);\r\n        uint daiBalance = registry.getDAI().balanceOf(this);\r\n        uint fees = ContractForDifferenceLibrary.creatorFee(_notionalAmountDai);\r\n        if (daiBalance <= fees)\r\n            revert(REASON_FEES_NOT_ENOUGH);\r\n\r\n        uint collateralSent = daiBalance - fees;\r\n        if (!ContractForDifferenceLibrary.collateralInRange(_notionalAmountDai, collateralSent))\r\n            revert(REASON_COLLATERAL_RANGE_FAILED);\r\n\r\n        if (_isBuyer) {\r\n            buyer = _partyAddr;\r\n            buyerDepositBalance = collateralSent;\r\n        } else {\r\n            seller = _partyAddr;\r\n            sellerDepositBalance = collateralSent;\r\n        }\r\n\r\n        market = _marketId;\r\n        notionalAmountDai = _notionalAmountDai;\r\n        buyerInitialNotional = _notionalAmountDai;\r\n        sellerInitialNotional = _notionalAmountDai;\r\n\r\n        strikePrice = _strikePrice;\r\n        buyerInitialStrikePrice = _strikePrice;\r\n        sellerInitialStrikePrice = _strikePrice;\r\n\r\n        cfdRegistryAddr = _cfdRegistryAddr;\r\n        feedsAddr = _feedsAddr;\r\n\r\n        emit LogCFDCreated(\r\n            _partyAddr,\r\n            market,\r\n            notionalAmountDai,\r\n            daiBalance\r\n        );\r\n    }\r\n\r\n    /**\r\n     * @dev Create a new CFDinstance from a previous CFD instance. This is part\r\n     *      of the upgrade process (see CFD.upgrade()).\r\n     *\r\n     * @param _cfdAddr Address of the existing / old CFD\r\n     * @param _registryAddr Address of Registry contract\r\n     * @param _cfdRegistryAddr Address of CFDRegistry contract\r\n     * @param _feedsAddr Address to send fees to\r\n     */\r\n    function createByUpgrade(\r\n        address _cfdAddr,\r\n        address _registryAddr,\r\n        address _cfdRegistryAddr,\r\n        address _feedsAddr\r\n    )\r\n        public\r\n    {\r\n        ContractForDifference oldCfd = ContractForDifference(_cfdAddr);\r\n\r\n        market = oldCfd.market();\r\n        notionalAmountDai = oldCfd.notionalAmountDai();\r\n        strikePrice = oldCfd.strikePrice();\r\n        buyer = oldCfd.buyer();\r\n        seller = oldCfd.seller();\r\n\r\n        buyerDepositBalance = oldCfd.buyerDepositBalance();\r\n        buyerInitialNotional = oldCfd.buyerInitialNotional();\r\n        buyerInitialStrikePrice = oldCfd.buyerInitialStrikePrice();\r\n\r\n        sellerDepositBalance = oldCfd.sellerDepositBalance();\r\n        sellerInitialNotional = oldCfd.sellerInitialNotional();\r\n        sellerInitialStrikePrice = oldCfd.sellerInitialStrikePrice();\r\n\r\n        cfdRegistryAddr = _cfdRegistryAddr;\r\n        registry = Registry(_registryAddr);\r\n        feedsAddr = _feedsAddr;\r\n\r\n        initiated = true;\r\n\r\n        ContractForDifferenceRegistry(cfdRegistryAddr).registerParty(seller);\r\n    }\r\n\r\n    /**\r\n     * Returns an array with all the attributes of the contract\r\n     * (Had to split in 3 functions because of the stack limit)\r\n     * Max number of return values == 8\r\n     */\r\n    function getCfdAttributes()\r\n        public\r\n        view\r\n        returns (address, address, bytes32, uint, uint, bool, bool, Status)\r\n    {\r\n        return (\r\n            buyer,\r\n            seller,\r\n            market,\r\n            strikePrice,\r\n            notionalAmountDai,\r\n            buyerSelling,\r\n            sellerSelling,\r\n            status()\r\n        );\r\n    }\r\n    function getCfdAttributes2()\r\n        public\r\n        view\r\n        returns (uint, uint, uint, uint, uint, uint, uint, uint)\r\n    {\r\n        return (\r\n            buyerInitialNotional,\r\n            sellerInitialNotional,\r\n            buyerDepositBalance,\r\n            sellerDepositBalance,\r\n            buyerSaleStrikePrice,\r\n            sellerSaleStrikePrice,\r\n            buyerInitialStrikePrice,\r\n            sellerInitialStrikePrice\r\n        );\r\n    }\r\n    function getCfdAttributes3()\r\n        public\r\n        view\r\n        returns (bool, address)\r\n    {\r\n        return (\r\n            terminated,\r\n            upgradeCalledBy\r\n        );\r\n    }\r\n\r\n    /**\r\n     * @dev Counterparty deposits their funds into the contract thereby joining\r\n     * and initiating the contract.\r\n     *\r\n     * Fee of 0.5% of the notional is taken.\r\n     *\r\n     * Therefore the intial deposit is _value minus these fees.\r\n     */\r\n    function deposit(uint _value)\r\n        external\r\n        pre_cond(initiated == false, REASON_MUST_NOT_BE_INITIATED)\r\n        pre_cond(closed == false, REASON_MUST_NOT_BE_CLOSED) // cancelNew has not been called\r\n        pre_cond(isContractParty(msg.sender) == false, REASON_MUST_NOT_BE_PARTY) // reject contract creator depositing\r\n    {\r\n        uint joinerFees = ContractForDifferenceLibrary.joinerFee(notionalAmountDai);\r\n        if (_value <= joinerFees)\r\n            revert(REASON_FEES_NOT_ENOUGH);\r\n\r\n        uint collateralSent = _value - joinerFees;\r\n        if (!ContractForDifferenceLibrary.collateralInRange(notionalAmountDai, collateralSent))\r\n            revert(REASON_COLLATERAL_RANGE_FAILED);\r\n\r\n        daiClaim(_value);\r\n        daiTransferToFees(\r\n            joinerFees + ContractForDifferenceLibrary.creatorFee(notionalAmountDai)\r\n        );\r\n\r\n        if (buyer == 0x0) {\r\n            buyer = msg.sender;\r\n            buyerDepositBalance = collateralSent;\r\n        } else {\r\n            seller = msg.sender;\r\n            sellerDepositBalance = collateralSent;\r\n        }\r\n\r\n        initiated = true;\r\n        ContractForDifferenceRegistry(cfdRegistryAddr).registerParty(msg.sender);\r\n        emit LogCFDInitiated(\r\n            msg.sender,\r\n            _value,\r\n            buyer,\r\n            seller,\r\n            market,\r\n            notionalAmountDai,\r\n            strikePrice,\r\n            buyerDepositBalance,\r\n            sellerDepositBalance\r\n        );\r\n    }\r\n\r\n    /**\r\n     * @dev Cancels a newly created contract refunding the balance to the party\r\n     *      that created the contract. This can only be called before a contract\r\n     *      is initiated. ie. between the create() and deposit() calls.\r\n     */\r\n    function cancelNew()\r\n        external\r\n        pre_cond(initiated == false, REASON_MUST_NOT_BE_INITIATED)\r\n        pre_cond(isContractParty(msg.sender), REASON_ONLY_CONTRACT_PARTIES)\r\n    {\r\n        uint amountSent = registry.getDAI().balanceOf(this);\r\n        daiTransfer(msg.sender, amountSent);\r\n        emit LogCFDTransferFunds(msg.sender, amountSent);\r\n        closed = true;\r\n        emit LogCFDCanceledNew(msg.sender, amountSent, market);\r\n    }\r\n\r\n    /**\r\n     * @dev Party adds more funds to the contract thereby increasing their\r\n     *      deposit balance.\r\n     * @param _value DAI amount\r\n     */\r\n    function topup(uint _value)\r\n        external\r\n        pre_cond(_value >= 1, REASON_AMOUNT_NOT_ENOUGH)\r\n        pre_cond(initiated == true, REASON_MUST_BE_INITIATED)\r\n        pre_cond(closed == false, REASON_MUST_NOT_BE_CLOSED)\r\n        pre_cond(isContractParty(msg.sender), REASON_ONLY_CONTRACT_PARTIES)\r\n        pre_cond(isSelling(msg.sender) == false, REASON_MUST_NOT_BE_SELLER)\r\n    {\r\n        bool isBuyer = msg.sender == buyer;\r\n        uint newDepositBalance = (isBuyer ? \r\n            buyerDepositBalance : \r\n            sellerDepositBalance\r\n        ).add(_value);\r\n\r\n        // check topup doesn't make collateral exceed the maximum\r\n        if (!ContractForDifferenceLibrary.collateralInRange(notionalAmountDai, newDepositBalance))\r\n            revert(REASON_COLLATERAL_RANGE_FAILED);\r\n\r\n        daiClaim(_value);\r\n\r\n        if (isBuyer) {\r\n            buyerDepositBalance = newDepositBalance;\r\n        } else {\r\n            sellerDepositBalance = newDepositBalance;\r\n        }\r\n\r\n        emit LogCFDPartyBalanceUpdate(msg.sender, _value, false, newDepositBalance, market);\r\n    }\r\n\r\n    /**\r\n     * @dev Party withdraws funds from the contract.\r\n     *      They can only withdraw down to an amount that leaves the collateral\r\n     *      to notional difference at 20% or more.\r\n     * @param _withdrawAmount Amount to withdraw from the deposits balance.\r\n     */\r\n    function withdraw(uint _withdrawAmount)\r\n        external\r\n        assertWithdrawPreCond(_withdrawAmount)\r\n    {\r\n        bool isBuyer = msg.sender == buyer;\r\n        uint currentDepositBal = isBuyer ? buyerDepositBalance : sellerDepositBalance;\r\n\r\n        // first simple check that can't withdraw more then deposited\r\n        if (_withdrawAmount > currentDepositBal)\r\n            revert(REASON_WITHDRAW_NOT_ENOUGH);\r\n\r\n        // second a more precise check that the collateral at new balance will remain above the min\r\n        uint newDepositBal = currentDepositBal - _withdrawAmount;\r\n        uint marketPrice = latestPrice();\r\n        if (!marketPriceInRange(\r\n            marketPrice,\r\n            isBuyer ? newDepositBal : buyerDepositBalance,\r\n            isBuyer ? sellerDepositBalance : newDepositBal,\r\n            strikePrice // unchanged on withdraw\r\n        )) {\r\n            revert(REASON_MARKET_PRICE_RANGE_FAILED);\r\n        }\r\n\r\n        uint collateral = ContractForDifferenceLibrary.calculateCollateralAmount(\r\n            strikePrice,\r\n            marketPrice,\r\n            notionalAmountDai,\r\n            newDepositBal,\r\n            isBuyer\r\n        );\r\n\r\n        if (!ContractForDifferenceLibrary.collateralInRange(notionalAmountDai, collateral)) {\r\n            revert(REASON_COLLATERAL_RANGE_FAILED);\r\n        }\r\n\r\n        daiTransfer(msg.sender, _withdrawAmount);\r\n        emit LogCFDTransferFunds(msg.sender, _withdrawAmount);\r\n\r\n        if (isBuyer) {\r\n            buyerDepositBalance = newDepositBal;\r\n        } else {\r\n            sellerDepositBalance = newDepositBal;\r\n        }\r\n\r\n        emit LogCFDPartyBalanceUpdate(msg.sender, _withdrawAmount, true, newDepositBal, market);\r\n    }\r\n\r\n    /* NOTE: Split off into modifier to work around 'stack too deep' error */\r\n    modifier assertWithdrawPreCond(uint _withdrawAmount) \r\n    {\r\n        require(_withdrawAmount >= 1, REASON_WITHDRAW_NOT_ENOUGH);\r\n        require(initiated == true, REASON_MUST_BE_INITIATED);\r\n        require(closed == false, REASON_MUST_NOT_BE_CLOSED);\r\n        require(isContractParty(msg.sender), REASON_ONLY_CONTRACT_PARTIES);\r\n        require(isSelling(msg.sender) == false, REASON_MUST_NOT_BE_SELLER);\r\n        _;\r\n    }\r\n\r\n    /**\r\n     * @dev Parties can transfer contract ownership to another address by\r\n     *      calling this function.\r\n     * @param _newAddress Addreess of the new party to swap in.\r\n     */\r\n    function transferPosition(address _newAddress)\r\n        external\r\n        pre_cond(closed == false, REASON_MUST_NOT_BE_CLOSED)\r\n        pre_cond(isContractParty(msg.sender), REASON_ONLY_CONTRACT_PARTIES)\r\n        pre_cond(isContractParty(_newAddress) == false, REASON_MUST_NOT_BE_PARTY)\r\n        pre_cond(isSelling(msg.sender) == false, REASON_MUST_NOT_BE_SELLER)\r\n    {\r\n        if (msg.sender == buyer) buyer = _newAddress;\r\n        else if (msg.sender == seller) seller = _newAddress;\r\n        else if (msg.sender == upgradeCalledBy) upgradeCalledBy = 0x0;\r\n        ContractForDifferenceRegistry(cfdRegistryAddr).registerParty(_newAddress);\r\n        emit LogCFDTransferPosition(msg.sender, _newAddress);\r\n    }\r\n\r\n    /**\r\n     * @dev Position in a contract can be sold to another party. This function\r\n     *      makes the callers side available for sale. A party can buy the side\r\n     *      with the buy function.\r\n     * @param _desiredStrikePrice Sellers desired sell strike price\r\n     * @param _timeLimit Sale available until this time in UNIX epoch seconds\r\n     *                  (< now for no limit)\r\n     */\r\n    function sellPrepare(uint _desiredStrikePrice, uint _timeLimit)\r\n        external\r\n        pre_cond(isContractParty(msg.sender), REASON_ONLY_CONTRACT_PARTIES)\r\n        pre_cond(isActive(), REASON_MUST_BE_ACTIVE)\r\n        // reject already marked selling by the caller\r\n        pre_cond(isSelling(msg.sender) == false, REASON_MUST_NOT_BE_SELLER)\r\n        pre_cond(_desiredStrikePrice > 0, REASON_MUST_BE_POSITIVE_PRICE)\r\n    {\r\n        // mark side on sale\r\n        uint timeLimit = timeLimitFutureOrZero(_timeLimit);\r\n        if (msg.sender == buyer) {\r\n            buyerSelling = true;\r\n            buyerSaleStrikePrice = _desiredStrikePrice;\r\n            buyerSaleTimeLimit = timeLimit;\r\n        } else if (msg.sender == seller) {\r\n            sellerSelling = true;\r\n            sellerSaleStrikePrice = _desiredStrikePrice;\r\n            sellerSaleTimeLimit = timeLimit;\r\n        }\r\n\r\n        ContractForDifferenceRegistry(cfdRegistryAddr).registerSale(msg.sender);\r\n        emit LogCFDSale(\r\n            msg.sender,\r\n            _desiredStrikePrice,\r\n            timeLimit\r\n        );\r\n    }\r\n\r\n    /**\r\n     * @dev Seller can update the price on the sale.\r\n     */\r\n    function sellUpdate(\r\n        uint _newPrice\r\n    )\r\n        external\r\n        pre_cond(isActive(), REASON_MUST_BE_ACTIVE)\r\n        pre_cond(isSelling(msg.sender), REASON_MUST_BE_SELLER)\r\n        pre_cond(_newPrice > 0, REASON_MUST_BE_POSITIVE_PRICE)\r\n    {\r\n        if (msg.sender == buyer) {\r\n            buyerSaleStrikePrice = _newPrice;\r\n        } else if (msg.sender == seller) {\r\n            sellerSaleStrikePrice = _newPrice;\r\n        }\r\n        emit LogCFDSaleUpdated(msg.sender, _newPrice);\r\n    }\r\n\r\n    /**\r\n     * @dev Party can update the strike price of an non-initialized contract\r\n     */\r\n    function changeStrikePrice(\r\n        uint _newStrikePrice\r\n    )\r\n        external\r\n        pre_cond(initiated == false, REASON_MUST_NOT_BE_INITIATED)\r\n        pre_cond(closed == false, REASON_MUST_NOT_BE_CLOSED)\r\n        pre_cond(isContractParty(msg.sender), REASON_ONLY_CONTRACT_PARTIES)\r\n        pre_cond(_newStrikePrice > 0, REASON_MUST_BE_POSITIVE_PRICE)\r\n    {\r\n        strikePrice = _newStrikePrice;\r\n        buyerInitialStrikePrice = _newStrikePrice;\r\n        sellerInitialStrikePrice = _newStrikePrice;\r\n        emit LogCFDStrikePriceUpdated(msg.sender, _newStrikePrice);\r\n    }\r\n\r\n    /**\r\n     * @dev Cancel the for sale status setup by sellPrepare()\r\n     */\r\n    function sellCancel()\r\n        external\r\n        pre_cond(isActive(), REASON_MUST_BE_ACTIVE)\r\n        pre_cond(isSelling(msg.sender), REASON_MUST_BE_SELLER)\r\n    {\r\n        clearSale(msg.sender == buyer);\r\n        emit LogCFDSaleCancelled(msg.sender);\r\n    }\r\n\r\n    /**\r\n     * @dev Buy the side in the contract that is for sale.\r\n     *\r\n     * Fee of 0.5% of the notional is taken.\r\n     *\r\n     * @param _buyBuyerSide Buying the buyer side or the seller side?\r\n     * @param _value DAI amount\r\n     */\r\n    function buy(bool _buyBuyerSide, uint _value)\r\n        external\r\n        assertBuyPreCond(_buyBuyerSide)\r\n    {\r\n        uint fees = ContractForDifferenceLibrary.joinerFee(notionalAmountDai);\r\n        if (_value <= fees)\r\n            revert(REASON_FEES_NOT_ENOUGH);\r\n\r\n        // check sent collateral falls in the allowable range\r\n        uint collateralSent = _value.sub(fees);\r\n        if (!ContractForDifferenceLibrary.collateralInRange(notionalAmountDai, collateralSent))\r\n            revert(REASON_COLLATERAL_RANGE_FAILED);\r\n\r\n        uint marketPrice = latestPrice();\r\n        uint newStrikePrice = _buyBuyerSide ?\r\n            buyerSaleStrikePrice :\r\n            sellerSaleStrikePrice;\r\n\r\n        // check new parameters fall in the allowable range\r\n        if (!marketPriceInRange(\r\n            marketPrice,\r\n            _buyBuyerSide ? collateralSent : buyerDepositBalance,\r\n            _buyBuyerSide ? sellerDepositBalance : collateralSent,\r\n            newStrikePrice // buying at this strike price\r\n        )) {\r\n            revert(REASON_MARKET_PRICE_RANGE_FAILED);\r\n        }\r\n\r\n        // move ownership of sent DAI to the CFD\r\n        daiClaim(_value);\r\n        daiTransferToFees(fees);\r\n\r\n        // transfer to selling party\r\n        address sellingParty = _buyBuyerSide ? buyer : seller;\r\n        uint sellingPartyCollateral = buyTransferFunds(\r\n            _buyBuyerSide,\r\n            newStrikePrice,\r\n            sellingParty\r\n        );\r\n\r\n        // set new party and balances\r\n        uint remainingPartyDeposits = registry.getDAI().\r\n            balanceOf(this).sub(collateralSent);\r\n\r\n        // new notional amount value\r\n        uint newNotional = ContractForDifferenceLibrary.calculateNewNotional(\r\n            notionalAmountDai,\r\n            strikePrice,\r\n            newStrikePrice\r\n        );\r\n\r\n        if (_buyBuyerSide) {\r\n            buyer = msg.sender;\r\n            buyerDepositBalance = collateralSent;\r\n            buyerInitialStrikePrice = newStrikePrice;\r\n            buyerInitialNotional = newNotional;\r\n            sellerDepositBalance = remainingPartyDeposits;\r\n        } else {\r\n            seller = msg.sender;\r\n            sellerDepositBalance = collateralSent;\r\n            sellerInitialStrikePrice = newStrikePrice;\r\n            sellerInitialNotional = newNotional;\r\n            buyerDepositBalance = remainingPartyDeposits;\r\n        }\r\n\r\n        strikePrice = newStrikePrice;\r\n        notionalAmountDai = newNotional;\r\n\r\n        clearSale(_buyBuyerSide);\r\n\r\n        // clean up upgradeCalledBy if the departing party had set that\r\n        if (upgradeCalledBy == sellingParty) {\r\n            upgradeCalledBy = 0x0;\r\n        }\r\n\r\n        ContractForDifferenceRegistry(cfdRegistryAddr).registerParty(msg.sender);\r\n        emit LogCFDSold(msg.sender, sellingParty, newNotional, sellingPartyCollateral, _value, market);\r\n    }\r\n\r\n    /* NOTE: Split off into modifier to work around 'stack too deep' error */\r\n    modifier assertBuyPreCond(bool _buyBuyerSide) \r\n    {\r\n        require(isActive(), REASON_MUST_BE_ACTIVE);\r\n        require(isSelling(_buyBuyerSide ? buyer : seller), REASON_MUST_BE_ON_SALE);\r\n        require(isContractParty(msg.sender) == false, REASON_MUST_NOT_BE_PARTY);\r\n        _;\r\n    }\r\n\r\n    /**\r\n     * Does all transfers of funds related to the buy().\r\n     *\r\n     * Transfer logic split off in seperate function ONLY to workaround\r\n     * 'Stack too deep' limit.\r\n     */\r\n    function buyTransferFunds(\r\n        bool buyBuyerSide,\r\n        uint newStrikePrice,\r\n        address sellingParty\r\n    )\r\n        private\r\n        returns (uint sellingPartyCollateral)\r\n    {\r\n        // determine collateral amount to send to the selling party\r\n        sellingPartyCollateral = ContractForDifferenceLibrary.calculateCollateralAmount(\r\n            strikePrice,\r\n            newStrikePrice,\r\n            notionalAmountDai,\r\n            buyBuyerSide ? buyerDepositBalance : sellerDepositBalance,\r\n            buyBuyerSide\r\n        );\r\n\r\n        // send money to selling party\r\n        daiTransfer(sellingParty, sellingPartyCollateral);\r\n        emit LogCFDTransferFunds(sellingParty, sellingPartyCollateral);\r\n    }\r\n\r\n    /**\r\n     * @dev Daemons will call this routine when the market price has moved\r\n     *      enough that the closeRatio for this contract has been reached.\r\n     *      It can actually be called by anyone who is willing to pay the gas\r\n     *      for the liquidate. But if the market has moved past the liquidate\r\n     *      threshold the call will be rejected.\r\n     *\r\n     * This will disolve the contract and return each parties balance of\r\n     * collateral.\r\n     */\r\n    function liquidate()\r\n        external\r\n        pre_cond(isActive(), REASON_MUST_BE_ACTIVE)\r\n    {\r\n        uint marketPrice = latestPrice();\r\n\r\n        // #11 double check the 5% threshold was crossed, if not then REJECT\r\n        // (can only liquidate if out of range)\r\n        require(\r\n            !marketPriceInRange(\r\n                marketPrice,\r\n                buyerDepositBalance,\r\n                sellerDepositBalance,\r\n                strikePrice\r\n            ), \r\n            \"Liquidate threshold not yet reached\"\r\n        );\r\n\r\n        // fetch one of the cutoffs to determine which is the winner\r\n        uint buyerCutOff = ContractForDifferenceLibrary.cutOffPrice(\r\n            notionalAmountDai,\r\n            buyerDepositBalance,\r\n            strikePrice,\r\n            true\r\n        );\r\n\r\n        // if buyer cutoff still in range then buyer wins, otherwise seller\r\n        bool winnerIsBuyer = marketPrice > buyerCutOff;\r\n        address winner = winnerIsBuyer ? buyer : seller;\r\n\r\n        // winner takes all\r\n        uint remaining = registry.getDAI().balanceOf(this);\r\n        daiTransfer(winner, remaining);\r\n        emit LogCFDTransferFunds(winner, remaining);\r\n\r\n        closed = true;\r\n\r\n        emit LogCFDClosed(\r\n            winner,\r\n            winnerIsBuyer ? remaining : 0,\r\n            winnerIsBuyer ? 0 : remaining,\r\n            market\r\n        );\r\n    }\r\n\r\n    /**\r\n     * Force terminate executed by one party who will penalised 5% of their\r\n     * collateral. Then penalty will be sent to the counterparty.\r\n     */\r\n    function forceTerminate()\r\n        external\r\n        pre_cond(isActive(), REASON_MUST_BE_ACTIVE)\r\n        pre_cond(isContractParty(msg.sender), REASON_ONLY_CONTRACT_PARTIES)\r\n    {\r\n        uint marketPrice = latestPrice();\r\n        bool forcingPartyIsBuyer = msg.sender == buyer;\r\n\r\n        uint buyerCollateral = ContractForDifferenceLibrary.calculateCollateralAmount(\r\n            strikePrice,\r\n            marketPrice,\r\n            notionalAmountDai,\r\n            buyerDepositBalance,\r\n            true\r\n        );\r\n        uint sellerCollateral = ContractForDifferenceLibrary.calculateCollateralAmount(\r\n            strikePrice,\r\n            marketPrice,\r\n            notionalAmountDai,\r\n            sellerDepositBalance,\r\n            false\r\n        );\r\n\r\n        //\r\n        // calculate and check the remainder - it should be equal to zero\r\n        //\r\n        // if not expected log the event and transfer the remainder to fees - it\r\n        //     will be sorted out manually\r\n        //\r\n        uint balanceRemainder = registry.getDAI().\r\n            balanceOf(this).\r\n            sub(buyerCollateral).\r\n            sub(sellerCollateral);\r\n        if (balanceRemainder != 0) {\r\n            emit LogCFDRemainingBalanceUnexpected(balanceRemainder);\r\n        }\r\n        daiTransferToFees(balanceRemainder);\r\n\r\n        // penalise the force terminator 5% and give it to the counterparty\r\n        uint penalty = ContractForDifferenceLibrary.percentOf(\r\n            forcingPartyIsBuyer ? buyerCollateral : sellerCollateral,\r\n            FORCE_TERMINATE_PENALTY_PERCENT\r\n        );\r\n        if (forcingPartyIsBuyer) {\r\n            buyerCollateral = buyerCollateral.sub(penalty);\r\n            sellerCollateral = sellerCollateral.add(penalty);\r\n        } else {\r\n            buyerCollateral = buyerCollateral.add(penalty);\r\n            sellerCollateral = sellerCollateral.sub(penalty);\r\n        }\r\n\r\n        // Send collateral amounts back each party.\r\n        daiTransfer(buyer, buyerCollateral);\r\n        emit LogCFDTransferFunds(buyer, buyerCollateral);\r\n        daiTransfer(seller, sellerCollateral);\r\n        emit LogCFDTransferFunds(seller, sellerCollateral);\r\n\r\n        terminated = true;\r\n        closed = true;\r\n\r\n        if (forcingPartyIsBuyer)\r\n            emit LogCFDForceTerminated(buyer, buyerCollateral, seller, sellerCollateral, market);\r\n        else\r\n            emit LogCFDForceTerminated(seller, sellerCollateral, buyer, buyerCollateral, market);\r\n    }\r\n\r\n    /**\r\n     * @dev Upgrade contract to a new version. This involves creating a new CFD\r\n     *      at the latest contract set - transferring over all properties and\r\n     *      value from this one to the new one.\r\n     *      An upgrade requires a call to this function from both parties. Then\r\n     *      upgrade will happen when the second party makes the call.\r\n     */\r\n    function upgrade()\r\n        external\r\n        pre_cond(isContractParty(msg.sender), REASON_ONLY_CONTRACT_PARTIES)\r\n        pre_cond(isActive(), REASON_MUST_BE_ACTIVE)\r\n        pre_cond(isSelling(msg.sender) == false, REASON_MUST_NOT_BE_SELLER)\r\n        pre_cond(msg.sender != upgradeCalledBy, REASON_UPGRADE_ALREADY_SET)\r\n        pre_cond(registry.allCFDs(this) != registry.getCFDFactoryLatest(), REASON_UPGRADE_ALREADY_LATEST)\r\n    {\r\n        // 1st call to initiate upgrade process\r\n        if (upgradeCalledBy == 0x0) {\r\n            upgradeCalledBy = msg.sender;\r\n            return;\r\n        }\r\n\r\n        // if here then then this is the 2nd call, invoked by the opposite, so\r\n        // kick off the upgrade process\r\n        upgradeable = true;\r\n        address cfdFactoryLatest = registry.getCFDFactoryLatest();\r\n        address newCfd = ContractForDifferenceFactory(cfdFactoryLatest).\r\n            createByUpgrade();\r\n        daiTransfer(newCfd, registry.getDAI().balanceOf(this));\r\n        upgradeable = false;\r\n        closed = true;\r\n\r\n        emit LogCFDUpgraded(newCfd);\r\n    }\r\n\r\n    /**\r\n     * @dev Derive status from the state variables.\r\n     * @return Status reflecting the current state.\r\n     */\r\n    function status()\r\n        public\r\n        view\r\n        returns (Status)\r\n    {\r\n        if (closed == true)\r\n            return Status.CLOSED;\r\n        else if (initiated == false)\r\n            return Status.CREATED;\r\n        else if (isBuyerSelling() || isSellerSelling())\r\n            return Status.SALE;\r\n        else\r\n            return Status.INITIATED;\r\n    }\r\n\r\n    /**\r\n     * Get the latest read for the market of this CFD.\r\n     */\r\n    function latestPrice()\r\n        internal\r\n        view\r\n        returns (uint price)\r\n    {\r\n        uint marketPrice;\r\n        (marketPrice, ) = Feeds(feedsAddr).read(market);\r\n        return marketPrice;\r\n    }\r\n\r\n    /**\r\n     * @dev Checks if given parameters and given market price result in a price\r\n     *      inside an allowable range. This range is defined by the ContractForDifferenceLibrary.cutOffPrice\r\n     *      function formulas. The idea is that as parameters change - leverage,\r\n     *      market price etc., we must check the change doesn't result in a\r\n     *      liquidation event due to too little collateral.\r\n     *\r\n     * @param _marketPrice Current market price\r\n     * @return true if in range; false if not\r\n     */\r\n\r\n    function marketPriceInRange(\r\n        uint _marketPrice,\r\n        uint _buyerDepositBalance,\r\n        uint _sellerDepositBalance,\r\n        uint _strikePrice\r\n    )\r\n        public\r\n        view\r\n        returns (bool inRange)\r\n    {\r\n        uint buyerCutOff = ContractForDifferenceLibrary.cutOffPrice(\r\n            notionalAmountDai,\r\n            _buyerDepositBalance,\r\n            _strikePrice,\r\n            true\r\n        );\r\n        uint sellerCutOff = ContractForDifferenceLibrary.cutOffPrice(\r\n            notionalAmountDai,\r\n            _sellerDepositBalance,\r\n            _strikePrice,\r\n            false\r\n        );\r\n        inRange = _marketPrice > buyerCutOff && _marketPrice < sellerCutOff;\r\n    }\r\n\r\n   /**\r\n     * @dev Calculate new notional amount after a side has been sold at a new\r\n     *      strike price.\r\n     *\r\n     * Formula is:\r\n     *  N2 = N1 * S2 / S1\r\n     * Where:\r\n     *  N1 = previous notional\r\n     *  S1 = previous strike price\r\n     *  S2 = sale strike price\r\n     *\r\n     * @param _oldNotional Existing notional.\r\n     * @param _oldStrikePrice Existing strike price.\r\n     * @param _newStrikePrice New / Sale strike price.\r\n     * @return newNotional Result of the calculation.\r\n     */\r\n    function calculateNewNotional(\r\n        uint _oldNotional,\r\n        uint _oldStrikePrice,\r\n        uint _newStrikePrice\r\n    )\r\n        public\r\n        pure\r\n        returns (uint newNotional)\r\n    {\r\n        newNotional = ContractForDifferenceLibrary.calculateNewNotional(\r\n            _oldNotional,\r\n            _oldStrikePrice,\r\n            _newStrikePrice\r\n        );\r\n    }\r\n\r\n    /**\r\n     * @dev Calculate the collateral amount for one party given the current\r\n     *      market price and original strike price, notional amount and the\r\n     *      amount the party has deposited into the contract.\r\n     *\r\n     * @param _marketPrice Current market price\r\n     * @param _strikePrice CFD strike price\r\n     * @param _notionalAmount CFD notional amount\r\n     * @param _depositBalance Balances of deposits into the contract\r\n     * @param _isBuyer Buyer or Seller / Long or short party?\r\n     *\r\n     * @return collateral Amount of collateral for the party\r\n     */\r\n    function calculateCollateralAmount(\r\n        uint _strikePrice,\r\n        uint _marketPrice,\r\n        uint _notionalAmount,\r\n        uint _depositBalance,\r\n        bool _isBuyer\r\n    )\r\n        public\r\n        pure\r\n        returns (uint collateral)\r\n    {\r\n        collateral = ContractForDifferenceLibrary.calculateCollateralAmount(\r\n            _strikePrice,\r\n            _marketPrice,\r\n            _notionalAmount,\r\n            _depositBalance,\r\n            _isBuyer\r\n        );\r\n    }\r\n\r\n    /**\r\n     * @dev Calculate the cut off price for buyer or seller.\r\n     *\r\n     * This is the price that if passed would raise a liquidation event.\r\n     *\r\n     * Base Formulas are:\r\n     *     Buyer:  1.05 * S - depositBalanceLong  * S / N\r\n     *     Seller: 0.95 * S + depositBalanceShort * S / N\r\n     *\r\n     * However for Solidity we need to adjust parts by FACTOR_UINT to ensure\r\n     * no fractions.\r\n     *\r\n     * @param _notionalAmountDai Contract notional amount\r\n     * @param _depositBalance Balance of deposits for one party\r\n     *\r\n     * @return cut off price\r\n     */\r\n    function cutOffPrice(\r\n        uint _notionalAmountDai,\r\n        uint _depositBalance,\r\n        uint _strikePrice,\r\n        bool _calcForBuyerSide\r\n    )\r\n        public\r\n        pure\r\n        returns (uint price)\r\n    {\r\n        price = ContractForDifferenceLibrary.cutOffPrice(\r\n            _notionalAmountDai,\r\n            _depositBalance,\r\n            _strikePrice,\r\n            _calcForBuyerSide\r\n        );\r\n    }\r\n\r\n    /**\r\n     * Creator fee - 0.3% of notional.\r\n     */\r\n    function creatorFee(uint _notional) public pure returns (uint fee) {\r\n        fee = ContractForDifferenceLibrary.creatorFee(_notional);\r\n    }\r\n\r\n    /**\r\n     * Joiner (deposit or buy) percentage fee - 0.5% of notional.\r\n     */\r\n    function joinerFee(uint _notional) public pure returns (uint fee) {\r\n        fee = ContractForDifferenceLibrary.joinerFee(_notional);\r\n    }\r\n\r\n    /**\r\n     * @dev Calculate the change in contract value based on the price change.\r\n     * @param _currentPrice Current market price\r\n     */\r\n    function changeInDai(\r\n        uint _strikePrice,\r\n        uint _currentPrice,\r\n        uint _notionalAmount\r\n    )\r\n        public\r\n        pure\r\n        returns (uint change)\r\n    {\r\n        change = ContractForDifferenceLibrary.changeInDai(\r\n            _strikePrice,\r\n            _currentPrice,\r\n            _notionalAmount\r\n        );\r\n    }\r\n\r\n    /**\r\n     * @dev Return a percentage change comparing a value with a new value.\r\n     * @param _value The existing value to compare against\r\n     * @param _newValue The new value to compare the change against\r\n     * @return Percentage change (eg. _value = 100, _newValue = 90 then return 10)\r\n     */\r\n    function percentChange(uint _value, uint _newValue)\r\n        public\r\n        pure\r\n        returns (uint percent)\r\n    {\r\n        percent = ContractForDifferenceLibrary.percentChange(_value, _newValue);\r\n    }\r\n\r\n    /**\r\n     * @dev Return a percentage of a given amount.\r\n     * @param _amount Amount to calculate the percentage of\r\n     * @param _percent Percent amount (1 - 100)\r\n     */\r\n    function percentOf(uint _amount, uint _percent)\r\n        public\r\n        pure\r\n        returns (uint adjusted)\r\n    {\r\n        adjusted = ContractForDifferenceLibrary.percentOf(_amount, _percent);\r\n    }\r\n\r\n    /**\r\n     * Utility that given a time limit will preverve it if in the future OR\r\n     * set it to 0 if it's in the present or past.\r\n     */\r\n    function timeLimitFutureOrZero(\r\n        uint _timeLimit\r\n    )\r\n        private\r\n        view // not pure because of 'now'\r\n        returns(uint timeLimit)\r\n    {\r\n        timeLimit = (_timeLimit > now) ? _timeLimit : 0;\r\n    }\r\n\r\n    /**\r\n     * Clear all sale related state.\r\n     */\r\n    function clearSale(bool _clearBuyerSide) private {\r\n        if (_clearBuyerSide) {\r\n            buyerSaleStrikePrice = 0;\r\n            buyerSaleTimeLimit = 0;\r\n            buyerSelling = false;\r\n        } else {\r\n            sellerSaleStrikePrice = 0;\r\n            sellerSaleTimeLimit = 0;\r\n            sellerSelling = false;\r\n        }\r\n    }\r\n\r\n    /**\r\n     * Transfer DAI to an address.\r\n     */\r\n    function daiTransfer(address _to, uint _value) private {\r\n        require(\r\n            registry.getDAI().transfer(_to, _value),\r\n            REASON_DAI_TRANSFER_FAILED\r\n        );\r\n    }\r\n\r\n    /**\r\n     * Transfer DAI to the fees address.\r\n     */\r\n    function daiTransferToFees(uint _value) private {\r\n        daiTransfer(registry.getFees(), _value);\r\n    }\r\n\r\n    /**\r\n     * Claim DAI - ie. move approved DAI to this CFD contract.\r\n     */\r\n    function daiClaim(uint _value) private {\r\n        require(\r\n            registry.getDAI().transferFrom(msg.sender, this, _value),\r\n            REASON_DAI_TRANSFER_FAILED\r\n        );\r\n    }\r\n\r\n}\r\n",
  "sourcePath": "D:\\Users\\Julien\\Desktop\\Work\\0xFutures\\protocol\\contracts\\cfd\\ContractForDifference.sol",
  "compiler": {
    "name": "solc",
    "version": "0.4.25+commit.59dbf8f1.Emscripten.clang"
  },
  "schemaVersion": "2.0.2",
  "updatedAt": "2019-02-16T16:52:04.977Z"
}