{
  "contractName": "ContractForDifferenceProxy",
  "abi": [
    {
      "constant": false,
      "inputs": [
        {
          "name": "_cfdf",
          "type": "address"
        },
        {
          "name": "_daiToken",
          "type": "address"
        },
        {
          "name": "_marketId",
          "type": "bytes32"
        },
        {
          "name": "_strikePrice",
          "type": "uint256"
        },
        {
          "name": "_notionalAmountDai",
          "type": "uint256"
        },
        {
          "name": "_isBuyer",
          "type": "bool"
        },
        {
          "name": "_value",
          "type": "uint256"
        }
      ],
      "name": "createContract",
      "outputs": [
        {
          "name": "cfd",
          "type": "address"
        }
      ],
      "payable": false,
      "stateMutability": "nonpayable",
      "type": "function"
    },
    {
      "constant": false,
      "inputs": [
        {
          "name": "_cfd",
          "type": "address"
        },
        {
          "name": "_daiToken",
          "type": "address"
        },
        {
          "name": "_value",
          "type": "uint256"
        }
      ],
      "name": "deposit",
      "outputs": [],
      "payable": false,
      "stateMutability": "nonpayable",
      "type": "function"
    },
    {
      "constant": false,
      "inputs": [
        {
          "name": "_cfd",
          "type": "address"
        },
        {
          "name": "_desiredStrikePrice",
          "type": "uint256"
        },
        {
          "name": "_timeLimit",
          "type": "uint256"
        }
      ],
      "name": "sellPrepare",
      "outputs": [],
      "payable": false,
      "stateMutability": "nonpayable",
      "type": "function"
    },
    {
      "constant": false,
      "inputs": [
        {
          "name": "_cfd",
          "type": "address"
        },
        {
          "name": "_newPrice",
          "type": "uint256"
        }
      ],
      "name": "sellUpdate",
      "outputs": [],
      "payable": false,
      "stateMutability": "nonpayable",
      "type": "function"
    },
    {
      "constant": false,
      "inputs": [
        {
          "name": "_cfd",
          "type": "address"
        }
      ],
      "name": "sellCancel",
      "outputs": [],
      "payable": false,
      "stateMutability": "nonpayable",
      "type": "function"
    },
    {
      "constant": false,
      "inputs": [
        {
          "name": "_cfd",
          "type": "address"
        },
        {
          "name": "_daiToken",
          "type": "address"
        },
        {
          "name": "_buyBuyerSide",
          "type": "bool"
        },
        {
          "name": "_value",
          "type": "uint256"
        }
      ],
      "name": "buy",
      "outputs": [],
      "payable": false,
      "stateMutability": "nonpayable",
      "type": "function"
    },
    {
      "constant": false,
      "inputs": [
        {
          "name": "_cfd",
          "type": "address"
        },
        {
          "name": "_daiToken",
          "type": "address"
        },
        {
          "name": "_value",
          "type": "uint256"
        }
      ],
      "name": "topup",
      "outputs": [],
      "payable": false,
      "stateMutability": "nonpayable",
      "type": "function"
    },
    {
      "constant": false,
      "inputs": [
        {
          "name": "_cfd",
          "type": "address"
        },
        {
          "name": "_value",
          "type": "uint256"
        }
      ],
      "name": "withdraw",
      "outputs": [],
      "payable": false,
      "stateMutability": "nonpayable",
      "type": "function"
    },
    {
      "constant": false,
      "inputs": [
        {
          "name": "_cfd",
          "type": "address"
        }
      ],
      "name": "upgrade",
      "outputs": [],
      "payable": false,
      "stateMutability": "nonpayable",
      "type": "function"
    },
    {
      "constant": false,
      "inputs": [
        {
          "name": "_cfd",
          "type": "address"
        },
        {
          "name": "_newAddress",
          "type": "address"
        }
      ],
      "name": "transferPosition",
      "outputs": [],
      "payable": false,
      "stateMutability": "nonpayable",
      "type": "function"
    },
    {
      "constant": false,
      "inputs": [
        {
          "name": "_cfd",
          "type": "address"
        }
      ],
      "name": "forceTerminate",
      "outputs": [],
      "payable": false,
      "stateMutability": "nonpayable",
      "type": "function"
    },
    {
      "constant": false,
      "inputs": [
        {
          "name": "_cfd",
          "type": "address"
        }
      ],
      "name": "cancelNew",
      "outputs": [],
      "payable": false,
      "stateMutability": "nonpayable",
      "type": "function"
    },
    {
      "constant": false,
      "inputs": [
        {
          "name": "_cfd",
          "type": "address"
        },
        {
          "name": "_newPrice",
          "type": "uint256"
        }
      ],
      "name": "changeStrikePrice",
      "outputs": [],
      "payable": false,
      "stateMutability": "nonpayable",
      "type": "function"
    }
  ],
  "bytecode": "0x608060405234801561001057600080fd5b5061102a806100206000396000f3fe608060405234801561001057600080fd5b50600436106100cf5760003560e01c80638340f5491161008c578063d9aa0aab11610066578063d9aa0aab146102c2578063df2b1303146102f0578063f3fef3a314610316578063fdb1087714610342576100cf565b80638340f549146101fa578063ae113bf414610230578063c128d52f14610256576100cf565b8063011cae19146100d457806303257f74146101025780630900f0101461012e5780631e2a9d4c146101545780632cbaf35a1461018a57806349f386a4146101bc575b600080fd5b610100600480360360408110156100ea57600080fd5b506001600160a01b038135169060200135610368565b005b6101006004803603604081101561011857600080fd5b506001600160a01b0381351690602001356103ca565b6101006004803603602081101561014457600080fd5b50356001600160a01b0316610410565b6101006004803603606081101561016a57600080fd5b506001600160a01b03813581169160208101359091169060400135610466565b610100600480360360608110156101a057600080fd5b506001600160a01b0381351690602081013590604001356106fb565b610100600480360360808110156101d257600080fd5b506001600160a01b038135811691602081013590911690604081013515159060600135610749565b6101006004803603606081101561021057600080fd5b506001600160a01b038135811691602081013590911690604001356109af565b6101006004803603602081101561024657600080fd5b50356001600160a01b0316610bea565b6102a6600480360360e081101561026c57600080fd5b506001600160a01b03813581169160208101359091169060408101359060608101359060808101359060a081013515159060c00135610c25565b604080516001600160a01b039092168252519081900360200190f35b610100600480360360408110156102d857600080fd5b506001600160a01b0381358116916020013516610ebe565b6101006004803603602081101561030657600080fd5b50356001600160a01b0316610f16565b6101006004803603604081101561032c57600080fd5b506001600160a01b038135169060200135610f51565b6101006004803603602081101561035857600080fd5b50356001600160a01b0316610f97565b816001600160a01b0316637028875e826040518263ffffffff1660e01b815260040180828152602001915050600060405180830381600087803b1580156103ae57600080fd5b505af11580156103c2573d6000803e3d6000fd5b505050505050565b816001600160a01b0316631a9fddf2826040518263ffffffff1660e01b815260040180828152602001915050600060405180830381600087803b1580156103ae57600080fd5b806001600160a01b031663d55ec6976040518163ffffffff1660e01b8152600401600060405180830381600087803b15801561044b57600080fd5b505af115801561045f573d6000803e3d6000fd5b5050505050565b60408051600160e01b6323b872dd0281523360048201523060248201526044810183905290516001600160a01b038416916323b872dd9160648083019260209291908290030181600087803b1580156104be57600080fd5b505af11580156104d2573d6000803e3d6000fd5b505050506040513d60208110156104e857600080fd5b50516040805160608101909152602c808252610fd360208301399061058e57604051600160e51b62461bcd0281526004018080602001828103825283818151815260200191508051906020019080838360005b8381101561055357818101518382015260200161053b565b50505050905090810190601f1680156105805780820380516001836020036101000a031916815260200191505b509250505060405180910390fd5b5060408051600160e11b636eb1769f0281523060048201526001600160a01b0385811660248301529151839285169163dd62ed3e916044808301926020929190829003018186803b1580156105e257600080fd5b505afa1580156105f6573d6000803e3d6000fd5b505050506040513d602081101561060c57600080fd5b505110156106985760408051600160e01b63095ea7b30281526001600160a01b038581166004830152600019602483015291519184169163095ea7b3916044808201926020929091908290030181600087803b15801561066b57600080fd5b505af115801561067f573d6000803e3d6000fd5b505050506040513d602081101561069557600080fd5b50505b826001600160a01b03166330db555f826040518263ffffffff1660e01b815260040180828152602001915050600060405180830381600087803b1580156106de57600080fd5b505af11580156106f2573d6000803e3d6000fd5b50505050505050565b826001600160a01b031663818197ea83836040518363ffffffff1660e01b81526004018083815260200182815260200192505050600060405180830381600087803b1580156106de57600080fd5b60408051600160e01b6323b872dd0281523360048201523060248201526044810183905290516001600160a01b038516916323b872dd9160648083019260209291908290030181600087803b1580156107a157600080fd5b505af11580156107b5573d6000803e3d6000fd5b505050506040513d60208110156107cb57600080fd5b50516040805160608101909152602c808252610fd360208301399061083457604051600160e51b62461bcd02815260206004820181815283516024840152835190928392604490910191908501908083836000831561055357818101518382015260200161053b565b5060408051600160e11b636eb1769f0281523060048201526001600160a01b0386811660248301529151839286169163dd62ed3e916044808301926020929190829003018186803b15801561088857600080fd5b505afa15801561089c573d6000803e3d6000fd5b505050506040513d60208110156108b257600080fd5b5051101561093e5760408051600160e01b63095ea7b30281526001600160a01b038681166004830152600019602483015291519185169163095ea7b3916044808201926020929091908290030181600087803b15801561091157600080fd5b505af1158015610925573d6000803e3d6000fd5b505050506040513d602081101561093b57600080fd5b50505b60408051600160e01b63e24c469b02815283151560048201526024810183905290516001600160a01b0386169163e24c469b91604480830192600092919082900301818387803b15801561099157600080fd5b505af11580156109a5573d6000803e3d6000fd5b5050505050505050565b60408051600160e01b6323b872dd0281523360048201523060248201526044810183905290516001600160a01b038416916323b872dd9160648083019260209291908290030181600087803b158015610a0757600080fd5b505af1158015610a1b573d6000803e3d6000fd5b505050506040513d6020811015610a3157600080fd5b50516040805160608101909152602c808252610fd3602083013990610a9a57604051600160e51b62461bcd02815260206004820181815283516024840152835190928392604490910191908501908083836000831561055357818101518382015260200161053b565b5060408051600160e11b636eb1769f0281523060048201526001600160a01b0385811660248301529151839285169163dd62ed3e916044808301926020929190829003018186803b158015610aee57600080fd5b505afa158015610b02573d6000803e3d6000fd5b505050506040513d6020811015610b1857600080fd5b50511015610ba45760408051600160e01b63095ea7b30281526001600160a01b038581166004830152600019602483015291519184169163095ea7b3916044808201926020929091908290030181600087803b158015610b7757600080fd5b505af1158015610b8b573d6000803e3d6000fd5b505050506040513d6020811015610ba157600080fd5b50505b826001600160a01b031663b6b55f25826040518263ffffffff1660e01b815260040180828152602001915050600060405180830381600087803b1580156106de57600080fd5b806001600160a01b031663497b13d36040518163ffffffff1660e01b8152600401600060405180830381600087803b15801561044b57600080fd5b60408051600160e01b6323b872dd0281523360048201523060248201526044810183905290516000916001600160a01b038916916323b872dd9160648082019260209290919082900301818787803b158015610c8057600080fd5b505af1158015610c94573d6000803e3d6000fd5b505050506040513d6020811015610caa57600080fd5b50516040805160608101909152602c808252610fd3602083013990610d1357604051600160e51b62461bcd02815260206004820181815283516024840152835190928392604490910191908501908083836000831561055357818101518382015260200161053b565b5060408051600160e11b636eb1769f0281523060048201526001600160a01b038a81166024830152915184928a169163dd62ed3e916044808301926020929190829003018186803b158015610d6757600080fd5b505afa158015610d7b573d6000803e3d6000fd5b505050506040513d6020811015610d9157600080fd5b50511015610e1d5760408051600160e01b63095ea7b30281526001600160a01b038a81166004830152600019602483015291519189169163095ea7b3916044808201926020929091908290030181600087803b158015610df057600080fd5b505af1158015610e04573d6000803e3d6000fd5b505050506040513d6020811015610e1a57600080fd5b50505b60408051600160e31b6308943cc302815260048101889052602481018790526044810186905284151560648201526084810184905290516001600160a01b038a16916344a1e6189160a48083019260209291908290030181600087803b158015610e8657600080fd5b505af1158015610e9a573d6000803e3d6000fd5b505050506040513d6020811015610eb057600080fd5b505198975050505050505050565b816001600160a01b0316635e24e35d826040518263ffffffff1660e01b815260040180826001600160a01b03166001600160a01b03168152602001915050600060405180830381600087803b1580156103ae57600080fd5b806001600160a01b03166393a965126040518163ffffffff1660e01b8152600401600060405180830381600087803b15801561044b57600080fd5b816001600160a01b0316632e1a7d4d826040518263ffffffff1660e01b815260040180828152602001915050600060405180830381600087803b1580156103ae57600080fd5b806001600160a01b031663f797efda6040518163ffffffff1660e01b8152600401600060405180830381600087803b15801561044b57600080fdfe50726f7879206e6565647320746f206f627461696e20616d6f756e742066726f6d207468652073656e646572a165627a7a7230582011598330dfeca0c6caaf6599873684e5af3fee021c9aad6a32c5e15e2492986f0029",
  "source": "pragma solidity ^0.5.0;\n\nimport \"openzeppelin-solidity/contracts/token/ERC20/ERC20.sol\";\nimport \"./ContractForDifference.sol\";\nimport \"./ContractForDifferenceFactory.sol\";\n\n\ncontract ContractForDifferenceProxy {\n\n    string constant REASON_PROXY_NEEDS_FUNDS = \"Proxy needs to obtain amount from the sender\";\n\n    /**\n     * ContractForDifferenceFactory.createContract\n     */\n    function createContract(\n        ContractForDifferenceFactory _cfdf,\n        ERC20 _daiToken,\n        bytes32 _marketId,\n        uint _strikePrice,\n        uint _notionalAmountDai,\n        bool _isBuyer,\n        uint _value\n    )\n        external\n        returns (ContractForDifference cfd)\n    {\n        require(\n            _daiToken.transferFrom(msg.sender, address(this), _value),\n            REASON_PROXY_NEEDS_FUNDS\n        );\n        if (_daiToken.allowance(address(this), address(_cfdf)) < _value) {\n            _daiToken.approve(address(_cfdf), uint(-1));\n        }\n        cfd = _cfdf.createContract(\n            _marketId,\n            _strikePrice,\n            _notionalAmountDai,\n            _isBuyer,\n            _value\n        );\n    }\n\n    /**\n     * ContractForDifference.deposit\n     */\n    function deposit(\n        ContractForDifference _cfd,\n        ERC20 _daiToken,\n        uint _value\n    )\n        external\n    {\n        require(\n            _daiToken.transferFrom(msg.sender, address(this), _value),\n            REASON_PROXY_NEEDS_FUNDS\n        );\n        if (_daiToken.allowance(address(this), address(_cfd)) < _value) {\n            _daiToken.approve(address(_cfd), uint(-1));\n        }\n        _cfd.deposit(_value);\n    }\n\n    /**\n     * ContractForDifference.sellPrepare\n     */\n    function sellPrepare(\n        ContractForDifference _cfd,\n        uint _desiredStrikePrice,\n        uint _timeLimit\n    )\n        external\n    {\n        _cfd.sellPrepare(_desiredStrikePrice, _timeLimit);\n    }\n\n    /**\n     * ContractForDifference.sellUpdate\n     */\n    function sellUpdate(ContractForDifference _cfd, uint _newPrice) external {\n        _cfd.sellUpdate(_newPrice);\n    }\n\n    /**\n     * ContractForDifference.sellCancel\n     */\n    function sellCancel(ContractForDifference _cfd) external {\n        _cfd.sellCancel();\n    }\n\n    /**\n     * ContractForDifference.buy\n     */\n    function buy(\n        ContractForDifference _cfd,\n        ERC20 _daiToken,\n        bool _buyBuyerSide,\n        uint _value\n    )\n        external\n    {\n        require(\n            _daiToken.transferFrom(msg.sender, address(this), _value),\n            REASON_PROXY_NEEDS_FUNDS\n        );\n        if (_daiToken.allowance(address(this), address(_cfd)) < _value) {\n            _daiToken.approve(address(_cfd), uint(-1));\n        }\n        _cfd.buy(_buyBuyerSide, _value);\n    }\n\n    /**\n     * ContractForDifference.topup\n     */\n    function topup(\n        ContractForDifference _cfd,\n        ERC20 _daiToken,\n        uint _value\n    )\n        external\n    {\n        require(\n            _daiToken.transferFrom(msg.sender, address(this), _value),\n            REASON_PROXY_NEEDS_FUNDS\n        );\n        if (_daiToken.allowance(address(this), address(_cfd)) < _value) {\n            _daiToken.approve(address(_cfd), uint(-1));\n        }\n        _cfd.topup(_value);\n    }\n\n    /**\n     * ContractForDifference.withdraw\n     */\n    function withdraw(ContractForDifference _cfd, uint _value) external {\n        _cfd.withdraw(_value);\n    }\n\n    /**\n     * ContractForDifference.upgrade\n     */\n    function upgrade(ContractForDifference _cfd) external {\n        _cfd.upgrade();\n    }\n\n    /**\n     * ContractForDifference.transferPosition\n     */\n    function transferPosition(ContractForDifference _cfd, address _newAddress) external {\n        _cfd.transferPosition(_newAddress);\n    }\n\n    /**\n     * ContractForDifference.forceTerminate\n     */\n    function forceTerminate(ContractForDifference _cfd) external {\n        _cfd.forceTerminate();\n    }\n\n    /**\n     * ContractForDifference.cancelNew\n     */\n    function cancelNew(ContractForDifference _cfd) external {\n        _cfd.cancelNew();\n    }\n\n\n    /**\n     * ContractForDifference.changeStrikePrice\n     */\n    function changeStrikePrice(ContractForDifference _cfd, uint _newPrice) external {\n        _cfd.changeStrikePrice(_newPrice);\n    }\n\n}\n",
  "sourcePath": "/home/julien/0xFutures/protocol-master/contracts/cfd/ContractForDifferenceProxy.sol",
  "compiler": {
    "name": "solc",
    "version": "0.5.6+commit.b259423e.Emscripten.clang"
  },
  "schemaVersion": "3.0.8",
  "updatedAt": "2019-05-02T14:06:41.023Z",
  "devdoc": {
    "methods": {}
  },
  "userdoc": {
    "methods": {
      "buy(address,address,bool,uint256)": {
        "notice": "ContractForDifference.buy"
      },
      "cancelNew(address)": {
        "notice": "ContractForDifference.cancelNew"
      },
      "changeStrikePrice(address,uint256)": {
        "notice": "ContractForDifference.changeStrikePrice"
      },
      "createContract(address,address,bytes32,uint256,uint256,bool,uint256)": {
        "notice": "ContractForDifferenceFactory.createContract"
      },
      "deposit(address,address,uint256)": {
        "notice": "ContractForDifference.deposit"
      },
      "forceTerminate(address)": {
        "notice": "ContractForDifference.forceTerminate"
      },
      "sellCancel(address)": {
        "notice": "ContractForDifference.sellCancel"
      },
      "sellPrepare(address,uint256,uint256)": {
        "notice": "ContractForDifference.sellPrepare"
      },
      "sellUpdate(address,uint256)": {
        "notice": "ContractForDifference.sellUpdate"
      },
      "topup(address,address,uint256)": {
        "notice": "ContractForDifference.topup"
      },
      "transferPosition(address,address)": {
        "notice": "ContractForDifference.transferPosition"
      },
      "upgrade(address)": {
        "notice": "ContractForDifference.upgrade"
      },
      "withdraw(address,uint256)": {
        "notice": "ContractForDifference.withdraw"
      }
    }
  }
}