{
  "contractName": "ContractForDifferenceFactory",
  "abi": [
    {
      "constant": true,
      "inputs": [],
      "name": "forwardFactory",
      "outputs": [
        {
          "name": "",
          "type": "address"
        }
      ],
      "payable": false,
      "stateMutability": "view",
      "type": "function"
    },
    {
      "constant": true,
      "inputs": [],
      "name": "cfdRegistry",
      "outputs": [
        {
          "name": "",
          "type": "address"
        }
      ],
      "payable": false,
      "stateMutability": "view",
      "type": "function"
    },
    {
      "constant": false,
      "inputs": [],
      "name": "renounceOwnership",
      "outputs": [],
      "payable": false,
      "stateMutability": "nonpayable",
      "type": "function"
    },
    {
      "constant": true,
      "inputs": [],
      "name": "cfdModel",
      "outputs": [
        {
          "name": "",
          "type": "address"
        }
      ],
      "payable": false,
      "stateMutability": "view",
      "type": "function"
    },
    {
      "constant": true,
      "inputs": [],
      "name": "registry",
      "outputs": [
        {
          "name": "",
          "type": "address"
        }
      ],
      "payable": false,
      "stateMutability": "view",
      "type": "function"
    },
    {
      "constant": true,
      "inputs": [],
      "name": "owner",
      "outputs": [
        {
          "name": "",
          "type": "address"
        }
      ],
      "payable": false,
      "stateMutability": "view",
      "type": "function"
    },
    {
      "constant": true,
      "inputs": [],
      "name": "isOwner",
      "outputs": [
        {
          "name": "",
          "type": "bool"
        }
      ],
      "payable": false,
      "stateMutability": "view",
      "type": "function"
    },
    {
      "constant": true,
      "inputs": [],
      "name": "feeds",
      "outputs": [
        {
          "name": "",
          "type": "address"
        }
      ],
      "payable": false,
      "stateMutability": "view",
      "type": "function"
    },
    {
      "constant": false,
      "inputs": [
        {
          "name": "newOwner",
          "type": "address"
        }
      ],
      "name": "transferOwnership",
      "outputs": [],
      "payable": false,
      "stateMutability": "nonpayable",
      "type": "function"
    },
    {
      "inputs": [
        {
          "name": "_registry",
          "type": "address"
        },
        {
          "name": "_cfdModel",
          "type": "address"
        },
        {
          "name": "_forwardFactory",
          "type": "address"
        },
        {
          "name": "_feeds",
          "type": "address"
        }
      ],
      "payable": false,
      "stateMutability": "nonpayable",
      "type": "constructor"
    },
    {
      "anonymous": false,
      "inputs": [
        {
          "indexed": true,
          "name": "marketId",
          "type": "bytes32"
        },
        {
          "indexed": true,
          "name": "creator",
          "type": "address"
        },
        {
          "indexed": false,
          "name": "newCFDAddr",
          "type": "address"
        }
      ],
      "name": "LogCFDFactoryNew",
      "type": "event"
    },
    {
      "anonymous": false,
      "inputs": [
        {
          "indexed": true,
          "name": "newCFDAddr",
          "type": "address"
        },
        {
          "indexed": false,
          "name": "oldCFDAddr",
          "type": "address"
        }
      ],
      "name": "LogCFDFactoryNewByUpgrade",
      "type": "event"
    },
    {
      "anonymous": false,
      "inputs": [
        {
          "indexed": true,
          "name": "previousOwner",
          "type": "address"
        },
        {
          "indexed": true,
          "name": "newOwner",
          "type": "address"
        }
      ],
      "name": "OwnershipTransferred",
      "type": "event"
    },
    {
      "constant": false,
      "inputs": [
        {
          "name": "_registry",
          "type": "address"
        }
      ],
      "name": "setRegistry",
      "outputs": [],
      "payable": false,
      "stateMutability": "nonpayable",
      "type": "function"
    },
    {
      "constant": false,
      "inputs": [
        {
          "name": "_cfdModel",
          "type": "address"
        }
      ],
      "name": "setCFDModel",
      "outputs": [],
      "payable": false,
      "stateMutability": "nonpayable",
      "type": "function"
    },
    {
      "constant": false,
      "inputs": [
        {
          "name": "_cfdRegistry",
          "type": "address"
        }
      ],
      "name": "setCFDRegistry",
      "outputs": [],
      "payable": false,
      "stateMutability": "nonpayable",
      "type": "function"
    },
    {
      "constant": false,
      "inputs": [
        {
          "name": "_forwardFactory",
          "type": "address"
        }
      ],
      "name": "setForwardFactory",
      "outputs": [],
      "payable": false,
      "stateMutability": "nonpayable",
      "type": "function"
    },
    {
      "constant": false,
      "inputs": [
        {
          "name": "_feeds",
          "type": "address"
        }
      ],
      "name": "setFeeds",
      "outputs": [],
      "payable": false,
      "stateMutability": "nonpayable",
      "type": "function"
    },
    {
      "constant": false,
      "inputs": [
        {
          "name": "_marketId",
          "type": "bytes32"
        },
        {
          "name": "_strikePrice",
          "type": "uint256"
        },
        {
          "name": "_notionalAmountDai",
          "type": "uint256"
        },
        {
          "name": "_isBuyer",
          "type": "bool"
        },
        {
          "name": "_value",
          "type": "uint256"
        }
      ],
      "name": "createContract",
      "outputs": [
        {
          "name": "cfd",
          "type": "address"
        }
      ],
      "payable": false,
      "stateMutability": "nonpayable",
      "type": "function"
    },
    {
      "constant": false,
      "inputs": [],
      "name": "createByUpgrade",
      "outputs": [
        {
          "name": "newCfd",
          "type": "address"
        }
      ],
      "payable": false,
      "stateMutability": "nonpayable",
      "type": "function"
    }
  ],
  "bytecode": "0x60806040523480156200001157600080fd5b50604051608080620013b4833981018060405260808110156200003357600080fd5b5080516020820151604080840151606090940151600080546001600160a01b031916331780825592519495939491926001600160a01b0316917f8be0079c531659141344cd1fd0a4f28419497f9722a3daafe3b4186f6b6457e0908290a3620000a284620000df60201b60201c565b620000b3836200011b60201b60201c565b620000c4826200015760201b60201c565b620000d5816200019360201b60201c565b50505050620001e0565b620000ef620001cf60201b60201c565b620000f957600080fd5b600180546001600160a01b0319166001600160a01b0392909216919091179055565b6200012b620001cf60201b60201c565b6200013557600080fd5b600280546001600160a01b0319166001600160a01b0392909216919091179055565b62000167620001cf60201b60201c565b6200017157600080fd5b600480546001600160a01b0319166001600160a01b0392909216919091179055565b620001a3620001cf60201b60201c565b620001ad57600080fd5b600580546001600160a01b0319166001600160a01b0392909216919091179055565b6000546001600160a01b0316331490565b6111c480620001f06000396000f3fe608060405234801561001057600080fd5b50600436106101005760003560e01c80638da5cb5b11610097578063abcca75e11610066578063abcca75e14610220578063c03cced314610246578063d63605b81461026c578063f2fde38b1461027457610100565b80638da5cb5b146101b05780638f32d59b146101b85780639255e0d6146101d4578063a91ee0dc146101fa57610100565b8063715018a6116100d3578063715018a61461017057806377b727ac1461017a5780637b103999146101825780637dc532c51461018a57610100565b8063165ae0fc1461010557806338874a1a1461012957806344a1e618146101315780635fd355eb14610168575b600080fd5b61010d61029a565b604080516001600160a01b039092168252519081900360200190f35b61010d610981565b61010d600480360360a081101561014757600080fd5b50803590602081013590604081013590606081013515159060800135610990565b61010d610eb6565b610178610ec5565b005b61010d610f20565b61010d610f2f565b610178600480360360208110156101a057600080fd5b50356001600160a01b0316610f3e565b61010d610f71565b6101c0610f80565b604080519115158252519081900360200190f35b610178600480360360208110156101ea57600080fd5b50356001600160a01b0316610f91565b6101786004803603602081101561021057600080fd5b50356001600160a01b0316610fc4565b6101786004803603602081101561023657600080fd5b50356001600160a01b0316610ff7565b6101786004803603602081101561025c57600080fd5b50356001600160a01b031661102a565b61010d61105d565b6101786004803603602081101561028a57600080fd5b50356001600160a01b031661106c565b6000306001600160a01b0316600160009054906101000a90046001600160a01b03166001600160a01b03166323ec7f2a6040518163ffffffff1660e01b815260040160206040518083038186803b1580156102f457600080fd5b505afa158015610308573d6000803e3d6000fd5b505050506040513d602081101561031e57600080fd5b5051604080516060810190915260308082526001600160a01b039092169290921491906110f86020830139906103d557604051600160e51b62461bcd0281526004018080602001828103825283818151815260200191508051906020019080838360005b8381101561039a578181015183820152602001610382565b50505050905090810190601f1680156103c75780820380516001836020036101000a031916815260200191505b509250505060405180910390fd5b5060015460408051600160e31b63018b52bf0281523360048201819052915191926000926001600160a01b0390911691630c5a95f8916024808301926020929190829003018186803b15801561042a57600080fd5b505afa15801561043e573d6000803e3d6000fd5b505050506040513d602081101561045457600080fd5b505190506001600160a01b0381161580159061047957506001600160a01b0381163014155b6040518060400160405280601f81526020017f43616c6c6572206d757374206265206120726567697374657265642043464400815250906104fe57604051600160e51b62461bcd02815260206004820181815283516024840152835190928392604490910191908501908083836000831561039a578181015183820152602001610382565b506000829050806001600160a01b03166341c20c8e6040518163ffffffff1660e01b815260040160206040518083038186803b15801561053d57600080fd5b505afa158015610551573d6000803e3d6000fd5b505050506040513d602081101561056757600080fd5b5051604080516060810190915260218082526111286020830139906105d057604051600160e51b62461bcd02815260206004820181815283516024840152835190928392604490910191908501908083836000831561039a578181015183820152602001610382565b506004805460025460408051600160e01b639193ba0b0281526001600160a01b039283169481019490945251911691639193ba0b9160248083019260209291908290030181600087803b15801561062657600080fd5b505af115801561063a573d6000803e3d6000fd5b505050506040513d602081101561065057600080fd5b505160035460408051600160e11b6338a86c5702815290519296506001600160a01b0391821692630596030d92889290861691637150d8ae91600480820192602092909190829003018186803b1580156106a957600080fd5b505afa1580156106bd573d6000803e3d6000fd5b505050506040513d60208110156106d357600080fd5b50516040805163ffffffff851660e01b81526001600160a01b03938416600482015292909116602483015251604480830192600092919082900301818387803b15801561071f57600080fd5b505af1158015610733573d6000803e3d6000fd5b505060015460035460055460408051600160e01b632802759b0281526001600160a01b038a81166004830152948516602482015292841660448401529083166064830152519188169350632802759b925060848082019260009290919082900301818387803b1580156107a557600080fd5b505af11580156107b9573d6000803e3d6000fd5b505060015460408051600160e31b630eda01fb0281526001600160a01b03898116600483015291519190921693506376d00fd89250602480830192600092919082900301818387803b15801561080e57600080fd5b505af1158015610822573d6000803e3d6000fd5b50505050836001600160a01b0316637150d8ae6040518163ffffffff1660e01b815260040160206040518083038186803b15801561085f57600080fd5b505afa158015610873573d6000803e3d6000fd5b505050506040513d602081101561088957600080fd5b505160408051600160e01b6380f5560502815290516001600160a01b03928316928716916380f55605916004808301926020929190829003018186803b1580156108d257600080fd5b505afa1580156108e6573d6000803e3d6000fd5b505050506040513d60208110156108fc57600080fd5b5051604080516001600160a01b038816815290517f2d0c41699a808fef3dcfaa411d95703031d69229e73f5f3299fd6045deb4f9629181900360200190a3604080516001600160a01b0383811682529151918616917fe77178664194a5b1c28f6ee0f3fcb6d4404d796abfdf7edee18b68617768f48a9181900360200190a250505090565b6004546001600160a01b031681565b600081600160009054906101000a90046001600160a01b03166001600160a01b0316638ef855686040518163ffffffff1660e01b815260040160206040518083038186803b1580156109e157600080fd5b505afa1580156109f5573d6000803e3d6000fd5b505050506040513d6020811015610a0b57600080fd5b505160408051600160e11b636eb1769f02815233600482015230602482015290516001600160a01b039092169163dd62ed3e91604480820192602092909190829003018186803b158015610a5e57600080fd5b505afa158015610a72573d6000803e3d6000fd5b505050506040513d6020811015610a8857600080fd5b50516040805160608101909152602580825292909110159161117460208301398082610af857604051600160e51b62461bcd02815260206004820181815283516024840152835190928392604490910191908501908083836000831561039a578181015183820152602001610382565b506004805460025460408051600160e01b639193ba0b0281526001600160a01b03928316948101949094525133939190921691639193ba0b916024808201926020929091908290030181600087803b158015610b5357600080fd5b505af1158015610b67573d6000803e3d6000fd5b505050506040513d6020811015610b7d57600080fd5b505160015460408051600160e31b6311df0aad02815290519296506001600160a01b0390911691638ef8556891600480820192602092909190829003018186803b158015610bca57600080fd5b505afa158015610bde573d6000803e3d6000fd5b505050506040513d6020811015610bf457600080fd5b505160408051600160e01b6323b872dd0281526001600160a01b038481166004830152878116602483015260448201899052915191909216916323b872dd9160648083019260209291908290030181600087803b158015610c5457600080fd5b505af1158015610c68573d6000803e3d6000fd5b505050506040513d6020811015610c7e57600080fd5b50516040805160608101909152602b808252611149602083013990610ce757604051600160e51b62461bcd02815260206004820181815283516024840152835190928392604490910191908501908083836000831561039a578181015183820152602001610382565b5060015460035460055460408051600160e31b631073769f0281526001600160a01b039485166004820152928416602484015290831660448301528383166064830152608482018c905260a482018b905260c482018a905288151560e4830152519186169163839bb4f8916101048082019260009290919082900301818387803b158015610d7457600080fd5b505af1158015610d88573d6000803e3d6000fd5b505060015460408051600160e31b630eda01fb0281526001600160a01b03898116600483015291519190921693506376d00fd89250602480830192600092919082900301818387803b158015610ddd57600080fd5b505af1158015610df1573d6000803e3d6000fd5b5050604080516001600160a01b038881168252915191851693508c92507f2d0c41699a808fef3dcfaa411d95703031d69229e73f5f3299fd6045deb4f962919081900360200190a360035460408051600160e01b630596030d0281526001600160a01b038781166004830152848116602483015291519190921691630596030d91604480830192600092919082900301818387803b158015610e9257600080fd5b505af1158015610ea6573d6000803e3d6000fd5b5050505050505095945050505050565b6003546001600160a01b031681565b610ecd610f80565b610ed657600080fd5b600080546040516001600160a01b03909116907f8be0079c531659141344cd1fd0a4f28419497f9722a3daafe3b4186f6b6457e0908390a3600080546001600160a01b0319169055565b6002546001600160a01b031681565b6001546001600160a01b031681565b610f46610f80565b610f4f57600080fd5b600580546001600160a01b0319166001600160a01b0392909216919091179055565b6000546001600160a01b031690565b6000546001600160a01b0316331490565b610f99610f80565b610fa257600080fd5b600380546001600160a01b0319166001600160a01b0392909216919091179055565b610fcc610f80565b610fd557600080fd5b600180546001600160a01b0319166001600160a01b0392909216919091179055565b610fff610f80565b61100857600080fd5b600280546001600160a01b0319166001600160a01b0392909216919091179055565b611032610f80565b61103b57600080fd5b600480546001600160a01b0319166001600160a01b0392909216919091179055565b6005546001600160a01b031681565b611074610f80565b61107d57600080fd5b61108681611089565b50565b6001600160a01b03811661109c57600080fd5b600080546040516001600160a01b03808516939216917f8be0079c531659141344cd1fd0a4f28419497f9722a3daafe3b4186f6b6457e091a3600080546001600160a01b0319166001600160a01b039290921691909117905556fe43616e206f6e6c792075706772616465206f6e206120666163746f7279207468617420697320746865206c61746573747570677261646561626c65206973206e6f742073657420696e20746865204346444661696c757265207472616e73666572696e67206f776e657273686970206f662044414920746f6b656e7344414920616c6c6f77616e6365206973206c657373207468616e20746865205f76616c7565a165627a7a7230582019e3db75f4a77a0a892c1409c7865ed7742a7590f9127b0f831c62ad4e408ec70029",
  "source": "pragma solidity ^0.5.0;\r\n\r\nimport \"openzeppelin-solidity/contracts/ownership/Ownable.sol\";\r\nimport \"../DBC.sol\";\r\nimport \"../Registry.sol\";\r\nimport \"../ForwardFactory.sol\";\r\nimport \"./ContractForDifference.sol\";\r\nimport \"./ContractForDifferenceRegistry.sol\";\r\n\r\ncontract ContractForDifferenceFactory is DBC, Ownable {\r\n    event LogCFDFactoryNew(\r\n        bytes32 indexed marketId,\r\n        address indexed creator,\r\n        address newCFDAddr\r\n    );\r\n    event LogCFDFactoryNewByUpgrade(\r\n        address indexed newCFDAddr,\r\n        address oldCFDAddr\r\n    );\r\n\r\n    string constant REASON_MUST_BE_LATEST = \"Can only upgrade on a factory that is the latest\";\r\n    string constant REASON_MUST_REGISTERED_CFD = \"Caller must be a registered CFD\";\r\n    string constant REASON_UPGRADEABLE_FLAG_NOT_SET = \"upgradeable is not set in the CFD\";\r\n    string constant REASON_DAI_TRANSFER_FAILED = \"Failure transfering ownership of DAI tokens\";\r\n    string constant REASON_DAI_ALLOWANCE_TOO_LOW = \"DAI allowance is less than the _value\";\r\n\r\n    Registry public registry;\r\n    address public cfdModel;\r\n    address public cfdRegistry;\r\n    address public forwardFactory;\r\n    address public feeds;\r\n\r\n    constructor(\r\n        address _registry,\r\n        address _cfdModel,\r\n        address _forwardFactory,\r\n        address _feeds\r\n    ) public {\r\n        setRegistry(_registry);\r\n        setCFDModel(_cfdModel);\r\n        setForwardFactory(_forwardFactory);\r\n        setFeeds(_feeds);\r\n    }\r\n\r\n    function setRegistry(address _registry) public onlyOwner {\r\n        registry = Registry(_registry);\r\n    }\r\n\r\n    function setCFDModel(address _cfdModel) public onlyOwner {\r\n        cfdModel = _cfdModel;\r\n    }\r\n\r\n    function setCFDRegistry(address _cfdRegistry) public onlyOwner {\r\n        cfdRegistry = _cfdRegistry;\r\n    }\r\n\r\n    function setForwardFactory(address _forwardFactory) public onlyOwner {\r\n        forwardFactory = _forwardFactory;\r\n    }\r\n\r\n    function setFeeds(address _feeds) public onlyOwner {\r\n        feeds = _feeds;\r\n    }\r\n\r\n    /**\r\n     * Create a new ContractForDifference instance\r\n     *\r\n     * @param _marketId Contract for this market (see Feeds.sol markets)\r\n     * @param _strikePrice Contact strike price\r\n     * @param _notionalAmountDai Contract notional amount\r\n     * @param _isBuyer If the caller is to be the buyer, else they will be the seller\r\n     * @param _value Amount of DAI to deposit\r\n     *\r\n     * @return address of new contract\r\n     */\r\n    function createContract(\r\n        bytes32 _marketId,\r\n        uint _strikePrice,\r\n        uint _notionalAmountDai,\r\n        bool _isBuyer,\r\n        uint _value\r\n    )\r\n        external\r\n        pre_cond(\r\n            registry.getDAI().allowance(msg.sender, address(this)) >= _value, \r\n            REASON_DAI_ALLOWANCE_TOO_LOW\r\n        )\r\n        returns (ContractForDifference cfd)\r\n    {\r\n        address creator = msg.sender;\r\n\r\n        cfd = ContractForDifference(\r\n            ForwardFactory(forwardFactory).createForwarder(cfdModel)\r\n        );\r\n        require(\r\n            registry.getDAI().transferFrom(creator, address(cfd), _value),\r\n            REASON_DAI_TRANSFER_FAILED\r\n        );\r\n        cfd.createNew(\r\n            address(registry),\r\n            cfdRegistry,\r\n            feeds,\r\n            creator,\r\n            _marketId,\r\n            _strikePrice,\r\n            _notionalAmountDai,\r\n            _isBuyer\r\n        );\r\n\r\n        registry.addCFD(address(cfd));\r\n        emit LogCFDFactoryNew(_marketId, creator, address(cfd));\r\n        ContractForDifferenceRegistry(cfdRegistry).registerNew(address(cfd), creator);\r\n    }\r\n\r\n    /**\r\n     * Upgrade a CFD at a different set of contracts to this set of contracts.\r\n     * The old CFD itself will invoke this function to do the upgrade.\r\n\r\n     * @return address of new contract\r\n     */\r\n    function createByUpgrade()\r\n        external\r\n        returns (ContractForDifference newCfd)\r\n    {\r\n        // can only upgrade this if factory is the latest version\r\n        require(registry.getCFDFactoryLatest() == address(this), REASON_MUST_BE_LATEST);\r\n\r\n        address cfdAddr = msg.sender;\r\n\r\n        // can only upgrade if cfd registered and not with this latest version\r\n        address registryEntry = registry.allCFDs(cfdAddr);\r\n        require(\r\n            registryEntry != address(0) && registryEntry != address(this), \r\n            REASON_MUST_REGISTERED_CFD\r\n        );\r\n\r\n        ContractForDifference existingCfd = ContractForDifference(cfdAddr);\r\n        require(existingCfd.upgradeable(), REASON_UPGRADEABLE_FLAG_NOT_SET);\r\n\r\n        newCfd = ContractForDifference(\r\n            ForwardFactory(forwardFactory).createForwarder(cfdModel)\r\n        );\r\n\r\n        // Register in the CFD registry before calling createByUpgrade as\r\n        // createByUpgrade requires this to registerParty().\r\n        ContractForDifferenceRegistry(cfdRegistry).registerNew(\r\n            address(newCfd),\r\n            existingCfd.buyer()\r\n        );\r\n\r\n        newCfd.createByUpgrade(\r\n            cfdAddr,\r\n            address(registry),\r\n            cfdRegistry,\r\n            feeds\r\n        );\r\n\r\n        // Put the CFD in the main Registry\r\n        registry.addCFD(address(newCfd));\r\n\r\n        // replicate logging for an ordinary create so queries will get this to\r\n        emit LogCFDFactoryNew(newCfd.market(), newCfd.buyer(), address(newCfd));\r\n        emit LogCFDFactoryNewByUpgrade(address(newCfd), address(existingCfd));\r\n    }\r\n\r\n}\r\n",
  "sourcePath": "D:\\Users\\Julien\\Desktop\\Work\\0xFutures\\protocol\\contracts\\cfd\\ContractForDifferenceFactory.sol",
  "compiler": {
    "name": "solc",
    "version": "0.5.6+commit.b259423e.Emscripten.clang"
  },
  "schemaVersion": "3.0.8",
  "updatedAt": "2019-05-16T06:11:23.302Z",
  "devdoc": {
    "methods": {
      "createByUpgrade()": {
        "return": "address of new contract\r"
      },
      "createContract(bytes32,uint256,uint256,bool,uint256)": {
        "params": {
          "_isBuyer": "If the caller is to be the buyer, else they will be the seller\r",
          "_marketId": "Contract for this market (see Feeds.sol markets)\r",
          "_notionalAmountDai": "Contract notional amount\r",
          "_strikePrice": "Contact strike price\r",
          "_value": "Amount of DAI to deposit\r "
        },
        "return": "address of new contract\r"
      },
      "isOwner()": {
        "return": "true if `msg.sender` is the owner of the contract."
      },
      "owner()": {
        "return": "the address of the owner."
      },
      "renounceOwnership()": {
        "details": "Allows the current owner to relinquish control of the contract."
      },
      "transferOwnership(address)": {
        "details": "Allows the current owner to transfer control of the contract to a newOwner.",
        "params": {
          "newOwner": "The address to transfer ownership to."
        }
      }
    }
  },
  "userdoc": {
    "methods": {
      "createByUpgrade()": {
        "notice": "Upgrade a CFD at a different set of contracts to this set of contracts.\r The old CFD itself will invoke this function to do the upgrade.\r"
      },
      "createContract(bytes32,uint256,uint256,bool,uint256)": {
        "notice": "Create a new ContractForDifference instance\r "
      },
      "renounceOwnership()": {
        "notice": "Renouncing to ownership will leave the contract without an owner. It will not be possible to call the functions with the `onlyOwner` modifier anymore."
      }
    }
  }
}