{
  "contractName": "ContractForDifferenceFactory",
  "abi": [
    {
      "constant": true,
      "inputs": [],
      "name": "forwardFactory",
      "outputs": [
        {
          "name": "",
          "type": "address"
        }
      ],
      "payable": false,
      "stateMutability": "view",
      "type": "function"
    },
    {
      "constant": true,
      "inputs": [],
      "name": "cfdRegistry",
      "outputs": [
        {
          "name": "",
          "type": "address"
        }
      ],
      "payable": false,
      "stateMutability": "view",
      "type": "function"
    },
    {
      "constant": false,
      "inputs": [],
      "name": "renounceOwnership",
      "outputs": [],
      "payable": false,
      "stateMutability": "nonpayable",
      "type": "function"
    },
    {
      "constant": true,
      "inputs": [],
      "name": "cfdModel",
      "outputs": [
        {
          "name": "",
          "type": "address"
        }
      ],
      "payable": false,
      "stateMutability": "view",
      "type": "function"
    },
    {
      "constant": true,
      "inputs": [],
      "name": "registry",
      "outputs": [
        {
          "name": "",
          "type": "address"
        }
      ],
      "payable": false,
      "stateMutability": "view",
      "type": "function"
    },
    {
      "constant": true,
      "inputs": [],
      "name": "owner",
      "outputs": [
        {
          "name": "",
          "type": "address"
        }
      ],
      "payable": false,
      "stateMutability": "view",
      "type": "function"
    },
    {
      "constant": true,
      "inputs": [],
      "name": "isOwner",
      "outputs": [
        {
          "name": "",
          "type": "bool"
        }
      ],
      "payable": false,
      "stateMutability": "view",
      "type": "function"
    },
    {
      "constant": true,
      "inputs": [],
      "name": "feeds",
      "outputs": [
        {
          "name": "",
          "type": "address"
        }
      ],
      "payable": false,
      "stateMutability": "view",
      "type": "function"
    },
    {
      "constant": true,
      "inputs": [],
      "name": "kyberFacade",
      "outputs": [
        {
          "name": "",
          "type": "address"
        }
      ],
      "payable": false,
      "stateMutability": "view",
      "type": "function"
    },
    {
      "constant": false,
      "inputs": [
        {
          "name": "newOwner",
          "type": "address"
        }
      ],
      "name": "transferOwnership",
      "outputs": [],
      "payable": false,
      "stateMutability": "nonpayable",
      "type": "function"
    },
    {
      "inputs": [
        {
          "name": "_registry",
          "type": "address"
        },
        {
          "name": "_cfdModel",
          "type": "address"
        },
        {
          "name": "_forwardFactory",
          "type": "address"
        },
        {
          "name": "_feeds",
          "type": "address"
        },
        {
          "name": "_kyberFacade",
          "type": "address"
        }
      ],
      "payable": false,
      "stateMutability": "nonpayable",
      "type": "constructor"
    },
    {
      "anonymous": false,
      "inputs": [
        {
          "indexed": true,
          "name": "marketId",
          "type": "bytes32"
        },
        {
          "indexed": true,
          "name": "creator",
          "type": "address"
        },
        {
          "indexed": false,
          "name": "newCFDAddr",
          "type": "address"
        }
      ],
      "name": "LogCFDFactoryNew",
      "type": "event"
    },
    {
      "anonymous": false,
      "inputs": [
        {
          "indexed": true,
          "name": "newCFDAddr",
          "type": "address"
        },
        {
          "indexed": false,
          "name": "oldCFDAddr",
          "type": "address"
        }
      ],
      "name": "LogCFDFactoryNewByUpgrade",
      "type": "event"
    },
    {
      "anonymous": false,
      "inputs": [
        {
          "indexed": true,
          "name": "previousOwner",
          "type": "address"
        },
        {
          "indexed": true,
          "name": "newOwner",
          "type": "address"
        }
      ],
      "name": "OwnershipTransferred",
      "type": "event"
    },
    {
      "constant": false,
      "inputs": [
        {
          "name": "_registry",
          "type": "address"
        }
      ],
      "name": "setRegistry",
      "outputs": [],
      "payable": false,
      "stateMutability": "nonpayable",
      "type": "function"
    },
    {
      "constant": false,
      "inputs": [
        {
          "name": "_cfdModel",
          "type": "address"
        }
      ],
      "name": "setCFDModel",
      "outputs": [],
      "payable": false,
      "stateMutability": "nonpayable",
      "type": "function"
    },
    {
      "constant": false,
      "inputs": [
        {
          "name": "_cfdRegistry",
          "type": "address"
        }
      ],
      "name": "setCFDRegistry",
      "outputs": [],
      "payable": false,
      "stateMutability": "nonpayable",
      "type": "function"
    },
    {
      "constant": false,
      "inputs": [
        {
          "name": "_forwardFactory",
          "type": "address"
        }
      ],
      "name": "setForwardFactory",
      "outputs": [],
      "payable": false,
      "stateMutability": "nonpayable",
      "type": "function"
    },
    {
      "constant": false,
      "inputs": [
        {
          "name": "_feeds",
          "type": "address"
        }
      ],
      "name": "setFeeds",
      "outputs": [],
      "payable": false,
      "stateMutability": "nonpayable",
      "type": "function"
    },
    {
      "constant": false,
      "inputs": [
        {
          "name": "_kyberFacade",
          "type": "address"
        }
      ],
      "name": "setKyberFacade",
      "outputs": [],
      "payable": false,
      "stateMutability": "nonpayable",
      "type": "function"
    },
    {
      "constant": false,
      "inputs": [
        {
          "name": "_marketId",
          "type": "bytes32"
        },
        {
          "name": "_strikePrice",
          "type": "uint256"
        },
        {
          "name": "_notionalAmountDai",
          "type": "uint256"
        },
        {
          "name": "_isBuyer",
          "type": "bool"
        },
        {
          "name": "_value",
          "type": "uint256"
        }
      ],
      "name": "createContract",
      "outputs": [
        {
          "name": "cfd",
          "type": "address"
        }
      ],
      "payable": false,
      "stateMutability": "nonpayable",
      "type": "function"
    },
    {
      "constant": false,
      "inputs": [
        {
          "name": "_marketId",
          "type": "bytes32"
        },
        {
          "name": "_strikePrice",
          "type": "uint256"
        },
        {
          "name": "_notionalAmountDai",
          "type": "uint256"
        },
        {
          "name": "_isBuyer",
          "type": "bool"
        }
      ],
      "name": "createContractWithETH",
      "outputs": [
        {
          "name": "cfd",
          "type": "address"
        }
      ],
      "payable": true,
      "stateMutability": "payable",
      "type": "function"
    },
    {
      "constant": false,
      "inputs": [],
      "name": "createByUpgrade",
      "outputs": [
        {
          "name": "newCfd",
          "type": "address"
        }
      ],
      "payable": false,
      "stateMutability": "nonpayable",
      "type": "function"
    }
  ],
  "bytecode": "0x60806040523480156200001157600080fd5b5060405160a080620017dc833981018060405260a08110156200003357600080fd5b50805160208201516040808401516060850151608090950151600080546001600160a01b031916331780825593519596949592949391926001600160a01b0392909216917f8be0079c531659141344cd1fd0a4f28419497f9722a3daafe3b4186f6b6457e0908290a3620000ad85620000fc60201b60201c565b620000be846200013860201b60201c565b620000cf836200017460201b60201c565b620000e082620001b060201b60201c565b620000f181620001ec60201b60201c565b505050505062000239565b6200010c6200022860201b60201c565b6200011657600080fd5b600180546001600160a01b0319166001600160a01b0392909216919091179055565b620001486200022860201b60201c565b6200015257600080fd5b600280546001600160a01b0319166001600160a01b0392909216919091179055565b620001846200022860201b60201c565b6200018e57600080fd5b600480546001600160a01b0319166001600160a01b0392909216919091179055565b620001c06200022860201b60201c565b620001ca57600080fd5b600580546001600160a01b0319166001600160a01b0392909216919091179055565b620001fc6200022860201b60201c565b6200020657600080fd5b600680546001600160a01b0319166001600160a01b0392909216919091179055565b6000546001600160a01b0316331490565b61159380620002496000396000f3fe6080604052600436106101145760003560e01c80637dc532c5116100a0578063abcca75e11610064578063abcca75e14610334578063c03cced314610367578063d63605b81461039a578063ef410289146103af578063f2fde38b146103c457610114565b80637dc532c51461025d5780638da5cb5b146102905780638f32d59b146102a55780639255e0d6146102ce578063a91ee0dc1461030157610114565b80635fd355eb116100e75780635fd355eb146101d8578063715018a6146101ed57806377b727ac146102025780637b103999146102175780637b9e2fc21461022c57610114565b8063165ae0fc14610119578063382c4c771461014a57806338874a1a1461017f57806344a1e61814610194575b600080fd5b34801561012557600080fd5b5061012e6103f7565b604080516001600160a01b039092168252519081900360200190f35b34801561015657600080fd5b5061017d6004803603602081101561016d57600080fd5b50356001600160a01b0316610ade565b005b34801561018b57600080fd5b5061012e610b11565b3480156101a057600080fd5b5061012e600480360360a08110156101b757600080fd5b50803590602081013590604081013590606081013515159060800135610b20565b3480156101e457600080fd5b5061012e610ca4565b3480156101f957600080fd5b5061017d610cb3565b34801561020e57600080fd5b5061012e610d0e565b34801561022357600080fd5b5061012e610d1d565b61012e6004803603608081101561024257600080fd5b50803590602081013590604081013590606001351515610d2c565b34801561026957600080fd5b5061017d6004803603602081101561028057600080fd5b50356001600160a01b0316610dc9565b34801561029c57600080fd5b5061012e610dfc565b3480156102b157600080fd5b506102ba610e0b565b604080519115158252519081900360200190f35b3480156102da57600080fd5b5061017d600480360360208110156102f157600080fd5b50356001600160a01b0316610e1c565b34801561030d57600080fd5b5061017d6004803603602081101561032457600080fd5b50356001600160a01b0316610e4f565b34801561034057600080fd5b5061017d6004803603602081101561035757600080fd5b50356001600160a01b0316610e82565b34801561037357600080fd5b5061017d6004803603602081101561038a57600080fd5b50356001600160a01b0316610eb5565b3480156103a657600080fd5b5061012e610ee8565b3480156103bb57600080fd5b5061012e610ef7565b3480156103d057600080fd5b5061017d600480360360208110156103e757600080fd5b50356001600160a01b0316610f06565b6000306001600160a01b0316600160009054906101000a90046001600160a01b03166001600160a01b03166323ec7f2a6040518163ffffffff1660e01b815260040160206040518083038186803b15801561045157600080fd5b505afa158015610465573d6000803e3d6000fd5b505050506040513d602081101561047b57600080fd5b5051604080516060810190915260308082526001600160a01b039092169290921491906114c760208301399061053257604051600160e51b62461bcd0281526004018080602001828103825283818151815260200191508051906020019080838360005b838110156104f75781810151838201526020016104df565b50505050905090810190601f1680156105245780820380516001836020036101000a031916815260200191505b509250505060405180910390fd5b5060015460408051600160e31b63018b52bf0281523360048201819052915191926000926001600160a01b0390911691630c5a95f8916024808301926020929190829003018186803b15801561058757600080fd5b505afa15801561059b573d6000803e3d6000fd5b505050506040513d60208110156105b157600080fd5b505190506001600160a01b038116158015906105d657506001600160a01b0381163014155b6040518060400160405280601f81526020017f43616c6c6572206d7573742062652061207265676973746572656420434644008152509061065b57604051600160e51b62461bcd0281526020600482018181528351602484015283519092839260449091019190850190808383600083156104f75781810151838201526020016104df565b506000829050806001600160a01b03166341c20c8e6040518163ffffffff1660e01b815260040160206040518083038186803b15801561069a57600080fd5b505afa1580156106ae573d6000803e3d6000fd5b505050506040513d60208110156106c457600080fd5b5051604080516060810190915260218082526114f760208301399061072d57604051600160e51b62461bcd0281526020600482018181528351602484015283519092839260449091019190850190808383600083156104f75781810151838201526020016104df565b506004805460025460408051600160e01b639193ba0b0281526001600160a01b039283169481019490945251911691639193ba0b9160248083019260209291908290030181600087803b15801561078357600080fd5b505af1158015610797573d6000803e3d6000fd5b505050506040513d60208110156107ad57600080fd5b505160035460408051600160e11b6338a86c5702815290519296506001600160a01b0391821692630596030d92889290861691637150d8ae91600480820192602092909190829003018186803b15801561080657600080fd5b505afa15801561081a573d6000803e3d6000fd5b505050506040513d602081101561083057600080fd5b50516040805163ffffffff851660e01b81526001600160a01b03938416600482015292909116602483015251604480830192600092919082900301818387803b15801561087c57600080fd5b505af1158015610890573d6000803e3d6000fd5b505060015460035460055460408051600160e01b632802759b0281526001600160a01b038a81166004830152948516602482015292841660448401529083166064830152519188169350632802759b925060848082019260009290919082900301818387803b15801561090257600080fd5b505af1158015610916573d6000803e3d6000fd5b505060015460408051600160e31b630eda01fb0281526001600160a01b03898116600483015291519190921693506376d00fd89250602480830192600092919082900301818387803b15801561096b57600080fd5b505af115801561097f573d6000803e3d6000fd5b50505050836001600160a01b0316637150d8ae6040518163ffffffff1660e01b815260040160206040518083038186803b1580156109bc57600080fd5b505afa1580156109d0573d6000803e3d6000fd5b505050506040513d60208110156109e657600080fd5b505160408051600160e01b6380f5560502815290516001600160a01b03928316928716916380f55605916004808301926020929190829003018186803b158015610a2f57600080fd5b505afa158015610a43573d6000803e3d6000fd5b505050506040513d6020811015610a5957600080fd5b5051604080516001600160a01b038816815290517f2d0c41699a808fef3dcfaa411d95703031d69229e73f5f3299fd6045deb4f9629181900360200190a3604080516001600160a01b0383811682529151918616917fe77178664194a5b1c28f6ee0f3fcb6d4404d796abfdf7edee18b68617768f48a9181900360200190a250505090565b610ae6610e0b565b610aef57600080fd5b600680546001600160a01b0319166001600160a01b0392909216919091179055565b6004546001600160a01b031681565b600081600160009054906101000a90046001600160a01b03166001600160a01b0316638ef855686040518163ffffffff1660e01b815260040160206040518083038186803b158015610b7157600080fd5b505afa158015610b85573d6000803e3d6000fd5b505050506040513d6020811015610b9b57600080fd5b505160408051600160e11b636eb1769f02815233600482015230602482015290516001600160a01b039092169163dd62ed3e91604480820192602092909190829003018186803b158015610bee57600080fd5b505afa158015610c02573d6000803e3d6000fd5b505050506040513d6020811015610c1857600080fd5b50516040805160608101909152602580825292909110159161154360208301398082610c8857604051600160e51b62461bcd0281526020600482018181528351602484015283519092839260449091019190850190808383600083156104f75781810151838201526020016104df565b50610c9888888888886001610f23565b98975050505050505050565b6003546001600160a01b031681565b610cbb610e0b565b610cc457600080fd5b600080546040516001600160a01b03909116907f8be0079c531659141344cd1fd0a4f28419497f9722a3daafe3b4186f6b6457e0908390a3600080546001600160a01b0319169055565b6002546001600160a01b031681565b6001546001600160a01b031681565b60065460408051600160e31b6314ed3541028152306004820152905160009283926001600160a01b039091169163a769aa08913491602480830192602092919082900301818588803b158015610d8157600080fd5b505af1158015610d95573d6000803e3d6000fd5b50505050506040513d6020811015610dac57600080fd5b50519050610dbf86868686856000610f23565b9695505050505050565b610dd1610e0b565b610dda57600080fd5b600580546001600160a01b0319166001600160a01b0392909216919091179055565b6000546001600160a01b031690565b6000546001600160a01b0316331490565b610e24610e0b565b610e2d57600080fd5b600380546001600160a01b0319166001600160a01b0392909216919091179055565b610e57610e0b565b610e6057600080fd5b600180546001600160a01b0319166001600160a01b0392909216919091179055565b610e8a610e0b565b610e9357600080fd5b600280546001600160a01b0319166001600160a01b0392909216919091179055565b610ebd610e0b565b610ec657600080fd5b600480546001600160a01b0319166001600160a01b0392909216919091179055565b6005546001600160a01b031681565b6006546001600160a01b031681565b610f0e610e0b565b610f1757600080fd5b610f2081611458565b50565b6004805460025460408051600160e01b639193ba0b0281526001600160a01b0392831694810194909452516000939190921691639193ba0b9160248082019260209290919082900301818787803b158015610f7d57600080fd5b505af1158015610f91573d6000803e3d6000fd5b505050506040513d6020811015610fa757600080fd5b505190506001821515141561112557600160009054906101000a90046001600160a01b03166001600160a01b0316638ef855686040518163ffffffff1660e01b815260040160206040518083038186803b15801561100457600080fd5b505afa158015611018573d6000803e3d6000fd5b505050506040513d602081101561102e57600080fd5b505160408051600160e01b6323b872dd0281523360048201526001600160a01b03848116602483015260448201879052915191909216916323b872dd9160648083019260209291908290030181600087803b15801561108c57600080fd5b505af11580156110a0573d6000803e3d6000fd5b505050506040513d60208110156110b657600080fd5b50516040805160608101909152602b80825261151860208301399061111f57604051600160e51b62461bcd0281526020600482018181528351602484015283519092839260449091019190850190808383600083156104f75781810151838201526020016104df565b5061128a565b600160009054906101000a90046001600160a01b03166001600160a01b0316638ef855686040518163ffffffff1660e01b815260040160206040518083038186803b15801561117357600080fd5b505afa158015611187573d6000803e3d6000fd5b505050506040513d602081101561119d57600080fd5b505160408051600160e01b63a9059cbb0281526001600160a01b038481166004830152602482018790529151919092169163a9059cbb9160448083019260209291908290030181600087803b1580156111f557600080fd5b505af1158015611209573d6000803e3d6000fd5b505050506040513d602081101561121f57600080fd5b50516040805160608101909152602b80825261151860208301399061128857604051600160e51b62461bcd0281526020600482018181528351602484015283519092839260449091019190850190808383600083156104f75781810151838201526020016104df565b505b60015460035460055460408051600160e31b631073769f0281526001600160a01b039485166004820152928416602484015290831660448301523360648301819052608483018b905260a483018a905260c4830189905287151560e48401529051909284169163839bb4f89161010480830192600092919082900301818387803b15801561131757600080fd5b505af115801561132b573d6000803e3d6000fd5b505060015460408051600160e31b630eda01fb0281526001600160a01b03878116600483015291519190921693506376d00fd89250602480830192600092919082900301818387803b15801561138057600080fd5b505af1158015611394573d6000803e3d6000fd5b5050604080516001600160a01b038681168252915191851693508b92507f2d0c41699a808fef3dcfaa411d95703031d69229e73f5f3299fd6045deb4f962919081900360200190a360035460408051600160e01b630596030d0281526001600160a01b038581166004830152848116602483015291519190921691630596030d91604480830192600092919082900301818387803b15801561143557600080fd5b505af1158015611449573d6000803e3d6000fd5b50505050509695505050505050565b6001600160a01b03811661146b57600080fd5b600080546040516001600160a01b03808516939216917f8be0079c531659141344cd1fd0a4f28419497f9722a3daafe3b4186f6b6457e091a3600080546001600160a01b0319166001600160a01b039290921691909117905556fe43616e206f6e6c792075706772616465206f6e206120666163746f7279207468617420697320746865206c61746573747570677261646561626c65206973206e6f742073657420696e20746865204346444661696c757265207472616e73666572696e67206f776e657273686970206f662044414920746f6b656e7344414920616c6c6f77616e6365206973206c657373207468616e20746865205f76616c7565a165627a7a723058201174582608705c8e9dd1b8352fd318c74fd3c76c43491698cec7a98b764ab9eb0029",
  "source": "pragma solidity ^0.5.0;\r\n\r\nimport \"openzeppelin-solidity/contracts/ownership/Ownable.sol\";\r\nimport \"../DBC.sol\";\r\nimport \"../Registry.sol\";\r\nimport \"../ForwardFactory.sol\";\r\nimport \"../kyber/KyberFacade.sol\";\r\nimport \"./ContractForDifference.sol\";\r\nimport \"./ContractForDifferenceRegistry.sol\";\r\n\r\ncontract ContractForDifferenceFactory is DBC, Ownable {\r\n    event LogCFDFactoryNew(\r\n        bytes32 indexed marketId,\r\n        address indexed creator,\r\n        address newCFDAddr\r\n    );\r\n    event LogCFDFactoryNewByUpgrade(\r\n        address indexed newCFDAddr,\r\n        address oldCFDAddr\r\n    );\r\n\r\n    string constant REASON_MUST_BE_LATEST = \"Can only upgrade on a factory that is the latest\";\r\n    string constant REASON_MUST_REGISTERED_CFD = \"Caller must be a registered CFD\";\r\n    string constant REASON_UPGRADEABLE_FLAG_NOT_SET = \"upgradeable is not set in the CFD\";\r\n    string constant REASON_DAI_TRANSFER_FAILED = \"Failure transfering ownership of DAI tokens\";\r\n    string constant REASON_DAI_ALLOWANCE_TOO_LOW = \"DAI allowance is less than the _value\";\r\n\r\n    Registry public registry;\r\n    address public cfdModel;\r\n    address public cfdRegistry;\r\n    address public forwardFactory;\r\n    address public feeds;\r\n    KyberFacade public kyberFacade;\r\n\r\n    constructor(\r\n        address _registry,\r\n        address _cfdModel,\r\n        address _forwardFactory,\r\n        address _feeds,\r\n        address _kyberFacade\r\n    ) public {\r\n        setRegistry(_registry);\r\n        setCFDModel(_cfdModel);\r\n        setForwardFactory(_forwardFactory);\r\n        setFeeds(_feeds);\r\n        setKyberFacade(_kyberFacade);\r\n    }\r\n\r\n    function setRegistry(address _registry) public onlyOwner {\r\n        registry = Registry(_registry);\r\n    }\r\n\r\n    function setCFDModel(address _cfdModel) public onlyOwner {\r\n        cfdModel = _cfdModel;\r\n    }\r\n\r\n    function setCFDRegistry(address _cfdRegistry) public onlyOwner {\r\n        cfdRegistry = _cfdRegistry;\r\n    }\r\n\r\n    function setForwardFactory(address _forwardFactory) public onlyOwner {\r\n        forwardFactory = _forwardFactory;\r\n    }\r\n\r\n    function setFeeds(address _feeds) public onlyOwner {\r\n        feeds = _feeds;\r\n    }\r\n\r\n    function setKyberFacade(address _kyberFacade) public onlyOwner {\r\n        kyberFacade = KyberFacade(_kyberFacade);\r\n    }\r\n\r\n    /**\r\n     * Create a new ContractForDifference instance given DAI.\r\n     *\r\n     * @param _marketId Contract for this market (see PriceFeeds.sol markets)\r\n     * @param _strikePrice Contract strike price\r\n     * @param _notionalAmountDai Contract notional amount in DAI\r\n     * @param _isBuyer If the caller is to be the buyer, else they will be the seller\r\n     * @param _value Amount of DAI to deposit\r\n     *\r\n     * @return address of new contract\r\n     */\r\n    function createContract(\r\n        bytes32 _marketId,\r\n        uint _strikePrice,\r\n        uint _notionalAmountDai,\r\n        bool _isBuyer,\r\n        uint _value\r\n    )\r\n        external\r\n        pre_cond(\r\n            registry.getDAI().allowance(msg.sender, address(this)) >= _value,\r\n            REASON_DAI_ALLOWANCE_TOO_LOW\r\n        )\r\n        returns (ContractForDifference cfd)\r\n    {\r\n        cfd = createContractInternal(\r\n            _marketId,\r\n            _strikePrice,\r\n            _notionalAmountDai,\r\n            _isBuyer,\r\n            _value,\r\n            true // DAI is with the caller\r\n        );\r\n    }\r\n\r\n    /**\r\n     * Create a new ContractForDifference instance given ETH.\r\n     *\r\n     * Sent ETH is traded for DAI on the fly and the resulting amount of DAI\r\n     * is the contract collateral. So callers should calculate how much\r\n     * DAI collateral they want ahead of time and send the appropriate amount\r\n     * of ETH to match.\r\n     *\r\n     * @param _marketId Contract for this market (see Feeds.sol markets)\r\n     * @param _strikePrice Contact strike price\r\n     * @param _notionalAmountDai Contract notional amount\r\n     * @param _isBuyer If the caller is to be the buyer, else they will be the seller\r\n     *\r\n     * @return address of new contract\r\n     */\r\n    function createContractWithETH(\r\n        bytes32 _marketId,\r\n        uint _strikePrice,\r\n        uint _notionalAmountDai,\r\n        bool _isBuyer\r\n    )\r\n        external\r\n        payable\r\n        returns (ContractForDifference cfd)\r\n    {\r\n        uint daiAmount = kyberFacade.ethToDai.value(msg.value)(address(this));\r\n        cfd = createContractInternal(\r\n            _marketId,\r\n            _strikePrice,\r\n            _notionalAmountDai,\r\n            _isBuyer,\r\n            daiAmount,\r\n            false // DAI not with caller - is with this contract from the trade\r\n        );\r\n    }\r\n\r\n    /**\r\n     * Create a new ContractForDifference instance.\r\n     *\r\n     * @param _marketId Contract for this market (see PriceFeeds.sol markets)\r\n     * @param _strikePrice Contract strike price\r\n     * @param _notionalAmountDai Contract notional amount in DAI\r\n     * @param _isBuyer If the caller is to be the buyer, else they will be the seller\r\n     * @param _value Amount of DAI to deposit\r\n     * @param _daiWithCaller DAI is either with the msg.sender or with this\r\n     *      contract from an eth2dai trade executed just before this function\r\n     *      call.\r\n     *\r\n     * @return address of new contract\r\n     */\r\n    function createContractInternal(\r\n        bytes32 _marketId,\r\n        uint _strikePrice,\r\n        uint _notionalAmountDai,\r\n        bool _isBuyer,\r\n        uint _value,\r\n        bool _daiWithCaller\r\n    )\r\n        private\r\n        returns (ContractForDifference cfd)\r\n    {\r\n        cfd = ContractForDifference(\r\n            ForwardFactory(forwardFactory).createForwarder(cfdModel)\r\n        );\r\n\r\n        if (_daiWithCaller == true) {\r\n            require(\r\n                registry.getDAI().transferFrom(\r\n                    msg.sender,\r\n                    address(cfd),\r\n                    _value\r\n                ),\r\n                REASON_DAI_TRANSFER_FAILED\r\n            );\r\n        } else {\r\n            require(\r\n                registry.getDAI().transfer(address(cfd), _value),\r\n                REASON_DAI_TRANSFER_FAILED\r\n            );\r\n        }\r\n\r\n        address creator = msg.sender;\r\n        cfd.createNew(\r\n            address(registry),\r\n            cfdRegistry,\r\n            feeds,\r\n            creator,\r\n            _marketId,\r\n            _strikePrice,\r\n            _notionalAmountDai,\r\n            _isBuyer\r\n        );\r\n\r\n        registry.addCFD(address(cfd));\r\n        emit LogCFDFactoryNew(_marketId, creator, address(cfd));\r\n        ContractForDifferenceRegistry(cfdRegistry).registerNew(\r\n            address(cfd),\r\n            creator\r\n        );\r\n    }\r\n\r\n    /**\r\n     * Upgrade a CFD at a different set of contracts to this set of contracts.\r\n     * The old CFD itself will invoke this function to do the upgrade.\r\n\r\n     * @return address of new contract\r\n     */\r\n    function createByUpgrade()\r\n        external\r\n        returns (ContractForDifference newCfd)\r\n    {\r\n        // can only upgrade this if factory is the latest version\r\n        require(registry.getCFDFactoryLatest() == address(this), REASON_MUST_BE_LATEST);\r\n\r\n        address cfdAddr = msg.sender;\r\n\r\n        // can only upgrade if cfd registered and not with this latest version\r\n        address registryEntry = registry.allCFDs(cfdAddr);\r\n        require(\r\n            registryEntry != address(0) && registryEntry != address(this),\r\n            REASON_MUST_REGISTERED_CFD\r\n        );\r\n\r\n        ContractForDifference existingCfd = ContractForDifference(cfdAddr);\r\n        require(existingCfd.upgradeable(), REASON_UPGRADEABLE_FLAG_NOT_SET);\r\n\r\n        newCfd = ContractForDifference(\r\n            ForwardFactory(forwardFactory).createForwarder(cfdModel)\r\n        );\r\n\r\n        // Register in the CFD registry before calling createByUpgrade as\r\n        // createByUpgrade requires this to registerParty().\r\n        ContractForDifferenceRegistry(cfdRegistry).registerNew(\r\n            address(newCfd),\r\n            existingCfd.buyer()\r\n        );\r\n\r\n        newCfd.createByUpgrade(\r\n            cfdAddr,\r\n            address(registry),\r\n            cfdRegistry,\r\n            feeds\r\n        );\r\n\r\n        // Put the CFD in the main Registry\r\n        registry.addCFD(address(newCfd));\r\n\r\n        // replicate logging for an ordinary create so queries will get this to\r\n        emit LogCFDFactoryNew(newCfd.market(), newCfd.buyer(), address(newCfd));\r\n        emit LogCFDFactoryNewByUpgrade(address(newCfd), address(existingCfd));\r\n    }\r\n\r\n}\r\n",
  "sourcePath": "D:\\Users\\Julien\\Desktop\\Work\\0xFutures\\protocol\\contracts\\cfd\\ContractForDifferenceFactory.sol",
  "compiler": {
    "name": "solc",
    "version": "0.5.6+commit.b259423e.Emscripten.clang"
  },
  "schemaVersion": "3.0.8",
  "updatedAt": "2019-12-29T13:29:19.610Z",
  "devdoc": {
    "methods": {
      "createByUpgrade()": {
        "return": "address of new contract\r"
      },
      "createContract(bytes32,uint256,uint256,bool,uint256)": {
        "params": {
          "_isBuyer": "If the caller is to be the buyer, else they will be the seller\r",
          "_marketId": "Contract for this market (see PriceFeeds.sol markets)\r",
          "_notionalAmountDai": "Contract notional amount in DAI\r",
          "_strikePrice": "Contract strike price\r",
          "_value": "Amount of DAI to deposit\r "
        },
        "return": "address of new contract\r"
      },
      "createContractWithETH(bytes32,uint256,uint256,bool)": {
        "params": {
          "_isBuyer": "If the caller is to be the buyer, else they will be the seller\r ",
          "_marketId": "Contract for this market (see Feeds.sol markets)\r",
          "_notionalAmountDai": "Contract notional amount\r",
          "_strikePrice": "Contact strike price\r"
        },
        "return": "address of new contract\r"
      },
      "isOwner()": {
        "return": "true if `msg.sender` is the owner of the contract."
      },
      "owner()": {
        "return": "the address of the owner."
      },
      "renounceOwnership()": {
        "details": "Allows the current owner to relinquish control of the contract."
      },
      "transferOwnership(address)": {
        "details": "Allows the current owner to transfer control of the contract to a newOwner.",
        "params": {
          "newOwner": "The address to transfer ownership to."
        }
      }
    }
  },
  "userdoc": {
    "methods": {
      "createByUpgrade()": {
        "notice": "Upgrade a CFD at a different set of contracts to this set of contracts.\r The old CFD itself will invoke this function to do the upgrade.\r"
      },
      "createContract(bytes32,uint256,uint256,bool,uint256)": {
        "notice": "Create a new ContractForDifference instance given DAI.\r "
      },
      "createContractWithETH(bytes32,uint256,uint256,bool)": {
        "notice": "Create a new ContractForDifference instance given ETH.\r      * Sent ETH is traded for DAI on the fly and the resulting amount of DAI\r is the contract collateral. So callers should calculate how much\r DAI collateral they want ahead of time and send the appropriate amount\r of ETH to match.\r "
      },
      "renounceOwnership()": {
        "notice": "Renouncing to ownership will leave the contract without an owner. It will not be possible to call the functions with the `onlyOwner` modifier anymore."
      }
    }
  }
}