{
  "contractName": "ContractForDifference",
  "abi": [
    {
      "constant": true,
      "inputs": [],
      "name": "notionalAmountDai",
      "outputs": [
        {
          "name": "",
          "type": "uint256"
        }
      ],
      "payable": false,
      "stateMutability": "view",
      "type": "function"
    },
    {
      "constant": true,
      "inputs": [],
      "name": "seller",
      "outputs": [
        {
          "name": "",
          "type": "address"
        }
      ],
      "payable": false,
      "stateMutability": "view",
      "type": "function"
    },
    {
      "constant": true,
      "inputs": [],
      "name": "feedsAddr",
      "outputs": [
        {
          "name": "",
          "type": "address"
        }
      ],
      "payable": false,
      "stateMutability": "view",
      "type": "function"
    },
    {
      "constant": true,
      "inputs": [],
      "name": "terminated",
      "outputs": [
        {
          "name": "",
          "type": "bool"
        }
      ],
      "payable": false,
      "stateMutability": "view",
      "type": "function"
    },
    {
      "constant": true,
      "inputs": [],
      "name": "FORCE_TERMINATE_PENALTY_PERCENT",
      "outputs": [
        {
          "name": "",
          "type": "uint256"
        }
      ],
      "payable": false,
      "stateMutability": "view",
      "type": "function"
    },
    {
      "constant": true,
      "inputs": [],
      "name": "buyerSaleStrikePrice",
      "outputs": [
        {
          "name": "",
          "type": "uint256"
        }
      ],
      "payable": false,
      "stateMutability": "view",
      "type": "function"
    },
    {
      "constant": true,
      "inputs": [],
      "name": "sellerInitialNotional",
      "outputs": [
        {
          "name": "",
          "type": "uint256"
        }
      ],
      "payable": false,
      "stateMutability": "view",
      "type": "function"
    },
    {
      "constant": true,
      "inputs": [],
      "name": "sellerDepositBalance",
      "outputs": [
        {
          "name": "",
          "type": "uint256"
        }
      ],
      "payable": false,
      "stateMutability": "view",
      "type": "function"
    },
    {
      "constant": true,
      "inputs": [],
      "name": "upgradeCalledBy",
      "outputs": [
        {
          "name": "",
          "type": "address"
        }
      ],
      "payable": false,
      "stateMutability": "view",
      "type": "function"
    },
    {
      "constant": true,
      "inputs": [],
      "name": "upgradeable",
      "outputs": [
        {
          "name": "",
          "type": "bool"
        }
      ],
      "payable": false,
      "stateMutability": "view",
      "type": "function"
    },
    {
      "constant": true,
      "inputs": [],
      "name": "MINIMUM_NOTIONAL_AMOUNT_DAI",
      "outputs": [
        {
          "name": "",
          "type": "uint256"
        }
      ],
      "payable": false,
      "stateMutability": "view",
      "type": "function"
    },
    {
      "constant": true,
      "inputs": [],
      "name": "closed",
      "outputs": [
        {
          "name": "",
          "type": "bool"
        }
      ],
      "payable": false,
      "stateMutability": "view",
      "type": "function"
    },
    {
      "constant": true,
      "inputs": [],
      "name": "buyerSaleTimeLimit",
      "outputs": [
        {
          "name": "",
          "type": "uint256"
        }
      ],
      "payable": false,
      "stateMutability": "view",
      "type": "function"
    },
    {
      "constant": true,
      "inputs": [],
      "name": "liquidateMutualCalledBy",
      "outputs": [
        {
          "name": "",
          "type": "address"
        }
      ],
      "payable": false,
      "stateMutability": "view",
      "type": "function"
    },
    {
      "constant": true,
      "inputs": [],
      "name": "sellerInitialStrikePrice",
      "outputs": [
        {
          "name": "",
          "type": "uint256"
        }
      ],
      "payable": false,
      "stateMutability": "view",
      "type": "function"
    },
    {
      "constant": true,
      "inputs": [],
      "name": "buyer",
      "outputs": [
        {
          "name": "",
          "type": "address"
        }
      ],
      "payable": false,
      "stateMutability": "view",
      "type": "function"
    },
    {
      "constant": true,
      "inputs": [],
      "name": "buyerInitialNotional",
      "outputs": [
        {
          "name": "",
          "type": "uint256"
        }
      ],
      "payable": false,
      "stateMutability": "view",
      "type": "function"
    },
    {
      "constant": true,
      "inputs": [],
      "name": "sellerSaleStrikePrice",
      "outputs": [
        {
          "name": "",
          "type": "uint256"
        }
      ],
      "payable": false,
      "stateMutability": "view",
      "type": "function"
    },
    {
      "constant": true,
      "inputs": [],
      "name": "registry",
      "outputs": [
        {
          "name": "",
          "type": "address"
        }
      ],
      "payable": false,
      "stateMutability": "view",
      "type": "function"
    },
    {
      "constant": true,
      "inputs": [],
      "name": "market",
      "outputs": [
        {
          "name": "",
          "type": "bytes32"
        }
      ],
      "payable": false,
      "stateMutability": "view",
      "type": "function"
    },
    {
      "constant": true,
      "inputs": [],
      "name": "cfdRegistryAddr",
      "outputs": [
        {
          "name": "",
          "type": "address"
        }
      ],
      "payable": false,
      "stateMutability": "view",
      "type": "function"
    },
    {
      "constant": true,
      "inputs": [],
      "name": "buyerDepositBalance",
      "outputs": [
        {
          "name": "",
          "type": "uint256"
        }
      ],
      "payable": false,
      "stateMutability": "view",
      "type": "function"
    },
    {
      "constant": true,
      "inputs": [],
      "name": "initiated",
      "outputs": [
        {
          "name": "",
          "type": "bool"
        }
      ],
      "payable": false,
      "stateMutability": "view",
      "type": "function"
    },
    {
      "constant": true,
      "inputs": [],
      "name": "buyerSelling",
      "outputs": [
        {
          "name": "",
          "type": "bool"
        }
      ],
      "payable": false,
      "stateMutability": "view",
      "type": "function"
    },
    {
      "constant": true,
      "inputs": [],
      "name": "liquidatedMutually",
      "outputs": [
        {
          "name": "",
          "type": "bool"
        }
      ],
      "payable": false,
      "stateMutability": "view",
      "type": "function"
    },
    {
      "constant": true,
      "inputs": [],
      "name": "strikePrice",
      "outputs": [
        {
          "name": "",
          "type": "uint256"
        }
      ],
      "payable": false,
      "stateMutability": "view",
      "type": "function"
    },
    {
      "constant": true,
      "inputs": [],
      "name": "buyerInitialStrikePrice",
      "outputs": [
        {
          "name": "",
          "type": "uint256"
        }
      ],
      "payable": false,
      "stateMutability": "view",
      "type": "function"
    },
    {
      "constant": true,
      "inputs": [],
      "name": "sellerSaleTimeLimit",
      "outputs": [
        {
          "name": "",
          "type": "uint256"
        }
      ],
      "payable": false,
      "stateMutability": "view",
      "type": "function"
    },
    {
      "constant": true,
      "inputs": [],
      "name": "sellerSelling",
      "outputs": [
        {
          "name": "",
          "type": "bool"
        }
      ],
      "payable": false,
      "stateMutability": "view",
      "type": "function"
    },
    {
      "anonymous": false,
      "inputs": [
        {
          "indexed": false,
          "name": "creator",
          "type": "address"
        },
        {
          "indexed": false,
          "name": "market",
          "type": "bytes32"
        },
        {
          "indexed": false,
          "name": "notionalAmountDai",
          "type": "uint256"
        },
        {
          "indexed": false,
          "name": "deposit",
          "type": "uint256"
        }
      ],
      "name": "LogCFDCreated",
      "type": "event"
    },
    {
      "anonymous": false,
      "inputs": [
        {
          "indexed": false,
          "name": "joiner",
          "type": "address"
        },
        {
          "indexed": false,
          "name": "amountSent",
          "type": "uint256"
        },
        {
          "indexed": false,
          "name": "buyer",
          "type": "address"
        },
        {
          "indexed": false,
          "name": "seller",
          "type": "address"
        },
        {
          "indexed": false,
          "name": "market",
          "type": "bytes32"
        },
        {
          "indexed": false,
          "name": "notionalAmountDai",
          "type": "uint256"
        },
        {
          "indexed": false,
          "name": "strikePrice",
          "type": "uint256"
        },
        {
          "indexed": false,
          "name": "buyerDepositBalance",
          "type": "uint256"
        },
        {
          "indexed": false,
          "name": "sellerDepositBalance",
          "type": "uint256"
        }
      ],
      "name": "LogCFDInitiated",
      "type": "event"
    },
    {
      "anonymous": false,
      "inputs": [
        {
          "indexed": false,
          "name": "oldOwner",
          "type": "address"
        },
        {
          "indexed": false,
          "name": "newOwner",
          "type": "address"
        }
      ],
      "name": "LogCFDTransferPosition",
      "type": "event"
    },
    {
      "anonymous": false,
      "inputs": [
        {
          "indexed": false,
          "name": "party",
          "type": "address"
        },
        {
          "indexed": false,
          "name": "amount",
          "type": "uint256"
        },
        {
          "indexed": false,
          "name": "market",
          "type": "bytes32"
        }
      ],
      "name": "LogCFDCanceledNew",
      "type": "event"
    },
    {
      "anonymous": false,
      "inputs": [
        {
          "indexed": false,
          "name": "party",
          "type": "address"
        },
        {
          "indexed": false,
          "name": "newStrikePrice",
          "type": "uint256"
        }
      ],
      "name": "LogCFDStrikePriceUpdated",
      "type": "event"
    },
    {
      "anonymous": false,
      "inputs": [
        {
          "indexed": false,
          "name": "party",
          "type": "address"
        },
        {
          "indexed": false,
          "name": "saleStrikePrice",
          "type": "uint256"
        },
        {
          "indexed": false,
          "name": "timeLimit",
          "type": "uint256"
        }
      ],
      "name": "LogCFDSale",
      "type": "event"
    },
    {
      "anonymous": false,
      "inputs": [
        {
          "indexed": false,
          "name": "party",
          "type": "address"
        }
      ],
      "name": "LogCFDSaleCancelled",
      "type": "event"
    },
    {
      "anonymous": false,
      "inputs": [
        {
          "indexed": false,
          "name": "party",
          "type": "address"
        },
        {
          "indexed": false,
          "name": "newPrice",
          "type": "uint256"
        }
      ],
      "name": "LogCFDSaleUpdated",
      "type": "event"
    },
    {
      "anonymous": false,
      "inputs": [
        {
          "indexed": false,
          "name": "to",
          "type": "address"
        },
        {
          "indexed": false,
          "name": "by",
          "type": "address"
        },
        {
          "indexed": false,
          "name": "newNotional",
          "type": "uint256"
        },
        {
          "indexed": false,
          "name": "sellerAmount",
          "type": "uint256"
        },
        {
          "indexed": false,
          "name": "buyerDeposit",
          "type": "uint256"
        },
        {
          "indexed": false,
          "name": "market",
          "type": "bytes32"
        }
      ],
      "name": "LogCFDSold",
      "type": "event"
    },
    {
      "anonymous": false,
      "inputs": [
        {
          "indexed": false,
          "name": "party",
          "type": "address"
        },
        {
          "indexed": false,
          "name": "amount",
          "type": "uint256"
        },
        {
          "indexed": false,
          "name": "isWithdraw",
          "type": "bool"
        },
        {
          "indexed": false,
          "name": "newBalance",
          "type": "uint256"
        },
        {
          "indexed": false,
          "name": "market",
          "type": "bytes32"
        }
      ],
      "name": "LogCFDPartyBalanceUpdate",
      "type": "event"
    },
    {
      "anonymous": false,
      "inputs": [
        {
          "indexed": false,
          "name": "receiver",
          "type": "address"
        },
        {
          "indexed": false,
          "name": "amount",
          "type": "uint256"
        }
      ],
      "name": "LogCFDTransferFunds",
      "type": "event"
    },
    {
      "anonymous": false,
      "inputs": [
        {
          "indexed": false,
          "name": "winner",
          "type": "address"
        },
        {
          "indexed": false,
          "name": "buyerCollateral",
          "type": "uint256"
        },
        {
          "indexed": false,
          "name": "sellerCollateral",
          "type": "uint256"
        },
        {
          "indexed": false,
          "name": "market",
          "type": "bytes32"
        }
      ],
      "name": "LogCFDClosed",
      "type": "event"
    },
    {
      "anonymous": false,
      "inputs": [
        {
          "indexed": false,
          "name": "terminator",
          "type": "address"
        },
        {
          "indexed": false,
          "name": "terminatorAmount",
          "type": "uint256"
        },
        {
          "indexed": false,
          "name": "otherParty",
          "type": "address"
        },
        {
          "indexed": false,
          "name": "otherPartyAmount",
          "type": "uint256"
        },
        {
          "indexed": false,
          "name": "market",
          "type": "bytes32"
        }
      ],
      "name": "LogCFDForceTerminated",
      "type": "event"
    },
    {
      "anonymous": false,
      "inputs": [
        {
          "indexed": false,
          "name": "buyer",
          "type": "address"
        },
        {
          "indexed": false,
          "name": "seller",
          "type": "address"
        },
        {
          "indexed": false,
          "name": "buyerAmount",
          "type": "uint256"
        },
        {
          "indexed": false,
          "name": "sellerAmount",
          "type": "uint256"
        }
      ],
      "name": "LogCFDLiquidateMutual",
      "type": "event"
    },
    {
      "anonymous": false,
      "inputs": [
        {
          "indexed": false,
          "name": "party",
          "type": "address"
        }
      ],
      "name": "LogCFDLiquidateMutualCancelled",
      "type": "event"
    },
    {
      "anonymous": false,
      "inputs": [
        {
          "indexed": false,
          "name": "newCFD",
          "type": "address"
        }
      ],
      "name": "LogCFDUpgraded",
      "type": "event"
    },
    {
      "anonymous": false,
      "inputs": [
        {
          "indexed": false,
          "name": "remainder",
          "type": "uint256"
        }
      ],
      "name": "LogCFDRemainingBalanceUnexpected",
      "type": "event"
    },
    {
      "constant": true,
      "inputs": [],
      "name": "isActive",
      "outputs": [
        {
          "name": "",
          "type": "bool"
        }
      ],
      "payable": false,
      "stateMutability": "view",
      "type": "function"
    },
    {
      "constant": true,
      "inputs": [],
      "name": "isBuyerSelling",
      "outputs": [
        {
          "name": "",
          "type": "bool"
        }
      ],
      "payable": false,
      "stateMutability": "view",
      "type": "function"
    },
    {
      "constant": true,
      "inputs": [],
      "name": "isSellerSelling",
      "outputs": [
        {
          "name": "",
          "type": "bool"
        }
      ],
      "payable": false,
      "stateMutability": "view",
      "type": "function"
    },
    {
      "constant": true,
      "inputs": [
        {
          "name": "_party",
          "type": "address"
        }
      ],
      "name": "isSelling",
      "outputs": [
        {
          "name": "",
          "type": "bool"
        }
      ],
      "payable": false,
      "stateMutability": "view",
      "type": "function"
    },
    {
      "constant": true,
      "inputs": [
        {
          "name": "_party",
          "type": "address"
        }
      ],
      "name": "isContractParty",
      "outputs": [
        {
          "name": "",
          "type": "bool"
        }
      ],
      "payable": false,
      "stateMutability": "view",
      "type": "function"
    },
    {
      "constant": false,
      "inputs": [
        {
          "name": "_registryAddr",
          "type": "address"
        },
        {
          "name": "_cfdRegistryAddr",
          "type": "address"
        },
        {
          "name": "_feedsAddr",
          "type": "address"
        },
        {
          "name": "_partyAddr",
          "type": "address"
        },
        {
          "name": "_marketId",
          "type": "bytes32"
        },
        {
          "name": "_strikePrice",
          "type": "uint256"
        },
        {
          "name": "_notionalAmountDai",
          "type": "uint256"
        },
        {
          "name": "_isBuyer",
          "type": "bool"
        }
      ],
      "name": "createNew",
      "outputs": [],
      "payable": false,
      "stateMutability": "nonpayable",
      "type": "function"
    },
    {
      "constant": false,
      "inputs": [
        {
          "name": "_cfdAddr",
          "type": "address"
        },
        {
          "name": "_registryAddr",
          "type": "address"
        },
        {
          "name": "_cfdRegistryAddr",
          "type": "address"
        },
        {
          "name": "_feedsAddr",
          "type": "address"
        }
      ],
      "name": "createByUpgrade",
      "outputs": [],
      "payable": false,
      "stateMutability": "nonpayable",
      "type": "function"
    },
    {
      "constant": true,
      "inputs": [],
      "name": "getCfdAttributes",
      "outputs": [
        {
          "name": "",
          "type": "address"
        },
        {
          "name": "",
          "type": "address"
        },
        {
          "name": "",
          "type": "bytes32"
        },
        {
          "name": "",
          "type": "uint256"
        },
        {
          "name": "",
          "type": "uint256"
        },
        {
          "name": "",
          "type": "bool"
        },
        {
          "name": "",
          "type": "bool"
        },
        {
          "name": "",
          "type": "uint8"
        }
      ],
      "payable": false,
      "stateMutability": "view",
      "type": "function"
    },
    {
      "constant": true,
      "inputs": [],
      "name": "getCfdAttributes2",
      "outputs": [
        {
          "name": "",
          "type": "uint256"
        },
        {
          "name": "",
          "type": "uint256"
        },
        {
          "name": "",
          "type": "uint256"
        },
        {
          "name": "",
          "type": "uint256"
        },
        {
          "name": "",
          "type": "uint256"
        },
        {
          "name": "",
          "type": "uint256"
        },
        {
          "name": "",
          "type": "uint256"
        },
        {
          "name": "",
          "type": "uint256"
        }
      ],
      "payable": false,
      "stateMutability": "view",
      "type": "function"
    },
    {
      "constant": true,
      "inputs": [],
      "name": "getCfdAttributes3",
      "outputs": [
        {
          "name": "",
          "type": "bool"
        },
        {
          "name": "",
          "type": "address"
        },
        {
          "name": "",
          "type": "bool"
        },
        {
          "name": "",
          "type": "address"
        }
      ],
      "payable": false,
      "stateMutability": "view",
      "type": "function"
    },
    {
      "constant": false,
      "inputs": [
        {
          "name": "_collateral",
          "type": "uint256"
        }
      ],
      "name": "deposit",
      "outputs": [],
      "payable": false,
      "stateMutability": "nonpayable",
      "type": "function"
    },
    {
      "constant": false,
      "inputs": [],
      "name": "cancelNew",
      "outputs": [],
      "payable": false,
      "stateMutability": "nonpayable",
      "type": "function"
    },
    {
      "constant": false,
      "inputs": [
        {
          "name": "_value",
          "type": "uint256"
        }
      ],
      "name": "topup",
      "outputs": [],
      "payable": false,
      "stateMutability": "nonpayable",
      "type": "function"
    },
    {
      "constant": false,
      "inputs": [
        {
          "name": "_withdrawAmount",
          "type": "uint256"
        }
      ],
      "name": "withdraw",
      "outputs": [],
      "payable": false,
      "stateMutability": "nonpayable",
      "type": "function"
    },
    {
      "constant": false,
      "inputs": [
        {
          "name": "_newAddress",
          "type": "address"
        }
      ],
      "name": "transferPosition",
      "outputs": [],
      "payable": false,
      "stateMutability": "nonpayable",
      "type": "function"
    },
    {
      "constant": false,
      "inputs": [
        {
          "name": "_desiredStrikePrice",
          "type": "uint256"
        },
        {
          "name": "_timeLimit",
          "type": "uint256"
        }
      ],
      "name": "sellPrepare",
      "outputs": [],
      "payable": false,
      "stateMutability": "nonpayable",
      "type": "function"
    },
    {
      "constant": false,
      "inputs": [
        {
          "name": "_newPrice",
          "type": "uint256"
        }
      ],
      "name": "sellUpdate",
      "outputs": [],
      "payable": false,
      "stateMutability": "nonpayable",
      "type": "function"
    },
    {
      "constant": false,
      "inputs": [
        {
          "name": "_newStrikePrice",
          "type": "uint256"
        }
      ],
      "name": "changeStrikePrice",
      "outputs": [],
      "payable": false,
      "stateMutability": "nonpayable",
      "type": "function"
    },
    {
      "constant": false,
      "inputs": [],
      "name": "sellCancel",
      "outputs": [],
      "payable": false,
      "stateMutability": "nonpayable",
      "type": "function"
    },
    {
      "constant": false,
      "inputs": [
        {
          "name": "_buyBuyerSide",
          "type": "bool"
        },
        {
          "name": "_collateral",
          "type": "uint256"
        }
      ],
      "name": "buy",
      "outputs": [],
      "payable": false,
      "stateMutability": "nonpayable",
      "type": "function"
    },
    {
      "constant": false,
      "inputs": [],
      "name": "liquidate",
      "outputs": [],
      "payable": false,
      "stateMutability": "nonpayable",
      "type": "function"
    },
    {
      "constant": false,
      "inputs": [],
      "name": "liquidateMutual",
      "outputs": [],
      "payable": false,
      "stateMutability": "nonpayable",
      "type": "function"
    },
    {
      "constant": false,
      "inputs": [],
      "name": "liquidateMutualCancel",
      "outputs": [],
      "payable": false,
      "stateMutability": "nonpayable",
      "type": "function"
    },
    {
      "constant": false,
      "inputs": [],
      "name": "forceTerminate",
      "outputs": [],
      "payable": false,
      "stateMutability": "nonpayable",
      "type": "function"
    },
    {
      "constant": false,
      "inputs": [],
      "name": "upgrade",
      "outputs": [],
      "payable": false,
      "stateMutability": "nonpayable",
      "type": "function"
    },
    {
      "constant": true,
      "inputs": [],
      "name": "status",
      "outputs": [
        {
          "name": "",
          "type": "uint8"
        }
      ],
      "payable": false,
      "stateMutability": "view",
      "type": "function"
    },
    {
      "constant": true,
      "inputs": [
        {
          "name": "_marketPrice",
          "type": "uint256"
        },
        {
          "name": "_buyerDepositBalance",
          "type": "uint256"
        },
        {
          "name": "_sellerDepositBalance",
          "type": "uint256"
        },
        {
          "name": "_strikePrice",
          "type": "uint256"
        }
      ],
      "name": "marketPriceInRange",
      "outputs": [
        {
          "name": "inRange",
          "type": "bool"
        }
      ],
      "payable": false,
      "stateMutability": "view",
      "type": "function"
    },
    {
      "constant": true,
      "inputs": [
        {
          "name": "_oldNotional",
          "type": "uint256"
        },
        {
          "name": "_oldStrikePrice",
          "type": "uint256"
        },
        {
          "name": "_newStrikePrice",
          "type": "uint256"
        }
      ],
      "name": "calculateNewNotional",
      "outputs": [
        {
          "name": "newNotional",
          "type": "uint256"
        }
      ],
      "payable": false,
      "stateMutability": "pure",
      "type": "function"
    },
    {
      "constant": true,
      "inputs": [
        {
          "name": "_strikePrice",
          "type": "uint256"
        },
        {
          "name": "_marketPrice",
          "type": "uint256"
        },
        {
          "name": "_notionalAmount",
          "type": "uint256"
        },
        {
          "name": "_depositBalance",
          "type": "uint256"
        },
        {
          "name": "_isBuyer",
          "type": "bool"
        }
      ],
      "name": "calculateCollateralAmount",
      "outputs": [
        {
          "name": "collateral",
          "type": "uint256"
        }
      ],
      "payable": false,
      "stateMutability": "pure",
      "type": "function"
    },
    {
      "constant": true,
      "inputs": [
        {
          "name": "_notionalAmountDai",
          "type": "uint256"
        },
        {
          "name": "_depositBalance",
          "type": "uint256"
        },
        {
          "name": "_strikePrice",
          "type": "uint256"
        },
        {
          "name": "_calcForBuyerSide",
          "type": "bool"
        }
      ],
      "name": "cutOffPrice",
      "outputs": [
        {
          "name": "price",
          "type": "uint256"
        }
      ],
      "payable": false,
      "stateMutability": "pure",
      "type": "function"
    },
    {
      "constant": true,
      "inputs": [
        {
          "name": "_strikePrice",
          "type": "uint256"
        },
        {
          "name": "_currentPrice",
          "type": "uint256"
        },
        {
          "name": "_notionalAmount",
          "type": "uint256"
        }
      ],
      "name": "changeInDai",
      "outputs": [
        {
          "name": "change",
          "type": "uint256"
        }
      ],
      "payable": false,
      "stateMutability": "pure",
      "type": "function"
    },
    {
      "constant": true,
      "inputs": [
        {
          "name": "_value",
          "type": "uint256"
        },
        {
          "name": "_newValue",
          "type": "uint256"
        }
      ],
      "name": "percentChange",
      "outputs": [
        {
          "name": "percent",
          "type": "uint256"
        }
      ],
      "payable": false,
      "stateMutability": "pure",
      "type": "function"
    },
    {
      "constant": true,
      "inputs": [
        {
          "name": "_amount",
          "type": "uint256"
        },
        {
          "name": "_percent",
          "type": "uint256"
        }
      ],
      "name": "percentOf",
      "outputs": [
        {
          "name": "adjusted",
          "type": "uint256"
        }
      ],
      "payable": false,
      "stateMutability": "pure",
      "type": "function"
    }
  ],
  "bytecode": "0x6080604052600f80547fffffffffff00000000000000000000000000000000000000000000000000ffff169055601080546001600160a01b031916905534801561004857600080fd5b50615633806100586000396000f3fe608060405234801561001057600080fd5b50600436106103ba5760003560e01c80637028875e116101f45780639dec14301161011a578063c93c88d7116100ad578063df0fdcdc1161007c578063df0fdcdc14610930578063e24c469b14610938578063f797efda1461095d578063fe2e569914610965576103ba565b8063c93c88d7146108f2578063d525be32146108fa578063d55ec69714610920578063ddac6d6414610928576103ba565b8063b6b55f25116100e9578063b6b55f2514610856578063c2ef94f614610873578063c4d2c844146108e2578063c52987cf146108ea576103ba565b80639dec14301461081b5780639f11853614610823578063a6f408211461082b578063ae3cde591461084e576103ba565b80637d21f9501161019257806393a965121161016157806393a96512146107e057806398074eb4146107e857806398531f28146107f05780639c03d24a146107f8576103ba565b80637d21f9501461071f57806380f556051461075a578063818197ea14610762578063839bb4f814610785576103ba565b806378561939116101ce57806378561939146106d857806379bf4796146106e05780637af5cde9146106e85780637b10399914610717576103ba565b80637028875e146106ab5780637150d8ae146106c85780637185b30c146106d0576103ba565b80632e1a7d4d116102e4578063497b13d3116102775780635e24e35d116102465780635e24e35d1461066d5780636182fab314610693578063699f7c961461069b5780636a8100b2146106a3576103ba565b8063497b13d3146106005780635407baea14610608578063597e1fb51461062e5780635dfa360a14610636576103ba565b8063393d8533116102b3578063393d8533146105b757806341c20c8e146105e857806346f33a6d146105f057806348ddb0dd146105f8576103ba565b80632e1a7d4d1461054c5780632f301a781461056957806330db555f14610592578063333c9dda146105af576103ba565b80631bdfca011161035c5780632802759b1161032b5780632802759b146104b557806328a07025146104f35780632a6d096f146104fb5780632d4dce7d14610544576103ba565b80631bdfca0114610471578063200d2ed21461047957806322e20d2a146104a557806322f3e2d4146104ad576103ba565b80630c247fdb116103985780630c247fdb14610405578063194307bf1461042e5780631a9fddf21461044a5780631bcccdf714610469576103ba565b8063037b9c17146103bf57806308551a53146103d95780630a10ff5f146103fd575b600080fd5b6103c761096d565b60408051918252519081900360200190f35b6103e1610973565b604080516001600160a01b039092168252519081900360200190f35b6103e1610982565b6103c76004803603606081101561041b57600080fd5b5080359060208101359060400135610991565b6104366109a6565b604080519115158252519081900360200190f35b6104676004803603602081101561046057600080fd5b50356109b7565b005b6103c7610d26565b6103c7610d2b565b610481610d31565b6040518082600381111561049157fe5b60ff16815260200191505060405180910390f35b6103c7610d95565b610436610d9b565b610467600480360360808110156104cb57600080fd5b506001600160a01b038135811691602081013582169160408201358116916060013516610dca565b610467611387565b61050361165d565b604080519889526020890197909752878701959095526060870193909352608086019190915260a085015260c084015260e083015251908190036101000190f35b6103c761167f565b6104676004803603602081101561056257600080fd5b5035611685565b6103c76004803603606081101561057f57600080fd5b5080359060208101359060400135611b5d565b610467600480360360208110156105a857600080fd5b5035611b6a565b6103e1611f56565b6103c7600480360360808110156105cd57600080fd5b50803590602081013590604081013590606001351515611f6c565b610436611f83565b610436611f96565b6103c7611fbe565b610467611fca565b6104366004803603602081101561061e57600080fd5b50356001600160a01b0316612249565b610436612279565b6103c7600480360360a081101561064c57600080fd5b50803590602081013590604081013590606081013590608001351515612289565b6104676004803603602081101561068357600080fd5b50356001600160a01b03166122a2565b6103c76125fd565b6103e1612603565b6103c7612612565b610467600480360360208110156106c157600080fd5b5035612618565b6103e161287f565b6103c761288e565b6103c7612894565b61046761289a565b610436600480360360808110156106fe57600080fd5b5080359060208101359060408101359060600135612b3a565b6103e1612b7a565b610727612b89565b6040805194151585526001600160a01b039384166020860152911515848301529091166060830152519081900360800190f35b6103c7612bc3565b6104676004803603604081101561077857600080fd5b5080359060200135612bc9565b610467600480360361010081101561079c57600080fd5b506001600160a01b0381358116916020810135821691604082013581169160608101359091169060808101359060a08101359060c08101359060e001351515613000565b6104676133de565b6103e16135d8565b6104366135e7565b6103c76004803603604081101561080e57600080fd5b508035906020013561360a565b6103c761361d565b610436613623565b6103c76004803603604081101561084157600080fd5b5080359060200135613632565b61043661363e565b6104676004803603602081101561086c57600080fd5b5035613647565b61087b613a1b565b604080516001600160a01b03808b16825289166020820152908101879052606081018690526080810185905283151560a082015282151560c082015260e081018260038111156108c757fe5b60ff1681526020019850505050505050505060405180910390f35b610436613a79565b6103c7613a8b565b6103c7613a91565b6104366004803603602081101561091057600080fd5b50356001600160a01b0316613a97565b610467613ade565b6104676140ff565b6103c761423d565b6104676004803603604081101561094e57600080fd5b50803515159060200135614243565b6104676147f4565b61043661494d565b60035481565b6001546001600160a01b031681565b6012546001600160a01b031681565b600061099e84848461495b565b949350505050565b600f54640100000000900460ff1681565b6109bf610d9b565b60408051808201909152600e81526000805160206154fb83398151915260208201528082610a6e57604051600160e51b62461bcd0281526004018080602001828103825283818151815260200191508051906020019080838360005b83811015610a33578181015183820152602001610a1b565b50505050905090810190601f168015610a605780820380516001836020036101000a031916815260200191505b509250505060405180910390fd5b50610a7833613a97565b60408051808201909152601981527f6d73672e73656e646572206d7573742062652073656c6c65720000000000000060208201528082610afc57604051600160e51b62461bcd028152602060048201818152835160248401528351909283926044909101919085019080838360008315610a33578181015183820152602001610a1b565b50600085116040518060400160405280601181526020016001607c1b7005072696365206d757374206265203e20302815250818190610b7f57604051600160e51b62461bcd028152602060048201818152835160248401528351909283926044909101919085019080838360008315610a33578181015183820152602001610a1b565b50600080546001600160a01b03163314610b9a576000610b9d565b60015b90506000610bcf60035483610bb457600a54610bb8565b6009545b84610bc557600854610bc9565b6007545b85614974565b6000549091506001600160a01b0316331415610c5b578089116040518060600160405280602381526020016154976023913990610c5057604051600160e51b62461bcd028152602060048201818152835160248401528351909283926044909101919085019080838360008315610a33578181015183820152602001610a1b565b50600b899055610ce0565b6001546001600160a01b0316331415610ce0578089106040518060600160405280602381526020016154236023913990610cd957604051600160e51b62461bcd028152602060048201818152835160248401528351909283926044909101919085019080838360008315610a33578181015183820152602001610a1b565b50600d8990555b60408051338152602081018b905281517fbbee2154904c4910310beb779cb9f970f5faa539a34158662d3963477f19ce31929181900390910190a1505050505050505050565b600581565b600b5481565b600f546000906301000000900460ff16151560011415610d5357506003610d92565b600f5462010000900460ff16610d6b57506000610d92565b610d736135e7565b80610d815750610d81611f96565b15610d8e57506002610d92565b5060015b90565b60055481565b600f5460009062010000900460ff1615156001148015610dc55750600f546301000000900460ff16155b905090565b6000849050806001600160a01b03166380f556056040518163ffffffff1660e01b815260040160206040518083038186803b158015610e0857600080fd5b505afa158015610e1c573d6000803e3d6000fd5b505050506040513d6020811015610e3257600080fd5b505160025560408051600160e01b63037b9c1702815290516001600160a01b0383169163037b9c17916004808301926020929190829003018186803b158015610e7a57600080fd5b505afa158015610e8e573d6000803e3d6000fd5b505050506040513d6020811015610ea457600080fd5b505160035560408051600160e01b63c52987cf02815290516001600160a01b0383169163c52987cf916004808301926020929190829003018186803b158015610eec57600080fd5b505afa158015610f00573d6000803e3d6000fd5b505050506040513d6020811015610f1657600080fd5b505160065560408051600160e11b6338a86c5702815290516001600160a01b03831691637150d8ae916004808301926020929190829003018186803b158015610f5e57600080fd5b505afa158015610f72573d6000803e3d6000fd5b505050506040513d6020811015610f8857600080fd5b5051600080546001600160a01b0319166001600160a01b0392831617905560408051600160e01b6308551a530281529051918316916308551a5391600480820192602092909190829003018186803b158015610fe357600080fd5b505afa158015610ff7573d6000803e3d6000fd5b505050506040513d602081101561100d57600080fd5b5051600180546001600160a01b0319166001600160a01b0392831617905560408051600160e41b6309dec143028152905191831691639dec143091600480820192602092909190829003018186803b15801561106857600080fd5b505afa15801561107c573d6000803e3d6000fd5b505050506040513d602081101561109257600080fd5b505160095560408051600160e21b631c616cc302815290516001600160a01b03831691637185b30c916004808301926020929190829003018186803b1580156110da57600080fd5b505afa1580156110ee573d6000803e3d6000fd5b505050506040513d602081101561110457600080fd5b5051600490815560408051600160e01b63c93c88d702815290516001600160a01b0384169263c93c88d792808201926020929091829003018186803b15801561114c57600080fd5b505afa158015611160573d6000803e3d6000fd5b505050506040513d602081101561117657600080fd5b505160075560408051600160e01b632d4dce7d02815290516001600160a01b03831691632d4dce7d916004808301926020929190829003018186803b1580156111be57600080fd5b505afa1580156111d2573d6000803e3d6000fd5b505050506040513d60208110156111e857600080fd5b5051600a5560408051600160e11b631171069502815290516001600160a01b038316916322e20d2a916004808301926020929190829003018186803b15801561123057600080fd5b505afa158015611244573d6000803e3d6000fd5b505050506040513d602081101561125a57600080fd5b505160055560408051600160e11b633540805902815290516001600160a01b03831691636a8100b2916004808301926020929190829003018186803b1580156112a257600080fd5b505afa1580156112b6573d6000803e3d6000fd5b505050506040513d60208110156112cc57600080fd5b5051600855601180546001600160a01b038086166001600160a01b031992831617928390556013805488831690841617905560128054868316931692909217909155600f805462ff000019166201000017905560015460408051600160e11b6340f46fd102815291831660048301525192909116916381e8dfa29160248082019260009290919082900301818387803b15801561136857600080fd5b505af115801561137c573d6000803e3d6000fd5b505050505050505050565b61138f610d9b565b60408051808201909152600e81526000805160206154fb8339815191526020820152808261140157604051600160e51b62461bcd028152602060048201818152835160248401528351909283926044909101919085019080838360008315610a33578181015183820152602001610a1b565b50600061140c614a11565b905061142081600954600a54600654612b3a565b1561145f57604051600160e51b62461bcd0281526004018080602001828103825260238152602001806154746023913960400191505060405180910390fd5b60006114746003546009546006546001614974565b9050808211600081611491576001546001600160a01b031661149e565b6000546001600160a01b03165b90506000601360009054906101000a90046001600160a01b03166001600160a01b0316638ef855686040518163ffffffff1660e01b815260040160206040518083038186803b1580156114f057600080fd5b505afa158015611504573d6000803e3d6000fd5b505050506040513d602081101561151a57600080fd5b505160408051600160e01b6370a0823102815230600482015290516001600160a01b03909216916370a0823191602480820192602092909190829003018186803b15801561156757600080fd5b505afa15801561157b573d6000803e3d6000fd5b505050506040513d602081101561159157600080fd5b5051905061159f8282614a94565b604080516001600160a01b03841681526020810183905281516000805160206154db833981519152929181900390910190a1600f805463ff000000191663010000001790557faa0254c6ef7b0f13349b08e091c677fb9d83e5829f3e697eee7127c0702292b38284611612576000611614565b825b8561161f5783611622565b60005b600254604080516001600160a01b0390951685526020850193909352838301919091526060830152519081900360800190a150505050505050565b600454600554600954600a54600b54600d546007546008549091929394959697565b600a5481565b8060018110156040518060600160405280602281526020016155bd60229139906116f357604051600160e51b62461bcd028152602060048201818152835160248401528351909283926044909101919085019080838360008315610a33578181015183820152602001610a1b565b50600f5460408051808201909152601181526001607a1b70135d5cdd081899481a5b9a5d1a585d19590260208201529062010000900460ff16151560011461177f57604051600160e51b62461bcd028152602060048201818152835160248401528351909283926044909101919085019080838360008315610a33578181015183820152602001610a1b565b50600f546040805180820190915260128152600160721b71135d5cdd081b9bdd0818994818db1bdcd959026020820152906301000000900460ff161561180957604051600160e51b62461bcd028152602060048201818152835160248401528351909283926044909101919085019080838360008315610a33578181015183820152602001610a1b565b5061181333612249565b60405180606001604052806021815260200161557c602191399061187b57604051600160e51b62461bcd028152602060048201818152835160248401528351909283926044909101919085019080838360008315610a33578181015183820152602001610a1b565b5061188533613a97565b60408051808201909152601d815260008051602061559d833981519152602082015290156118f757604051600160e51b62461bcd028152602060048201818152835160248401528351909283926044909101919085019080838360008315610a33578181015183820152602001610a1b565b50600080546001600160a01b03163314908161191557600a54611919565b6009545b905080841115611986576040518060600160405280602281526020016155bd60229139604051600160e51b62461bcd028152602060048201818152835160248401528351909283926044909101919085019080838360008315610a33578181015183820152602001610a1b565b8381036000611993614a11565b90506119bf81856119a6576009546119a8565b835b866119b357846119b7565b600a545b600654612b3a565b611a2c576040805180820182526017815260008051602061540383398151915260208083019182529251600160e51b62461bcd0281526004810193845282516024820152825192939283926044909201919080838360008315610a33578181015183820152602001610a1b565b6000611a3f600654836003548689614cf6565b9050611a4d60035482614d60565b611aba576040805180820182526017815260008051602061540383398151915260208083019182529251600160e51b62461bcd0281526004810193845282516024820152825192939283926044909201919080838360008315610a33578181015183820152602001610a1b565b611ac43388614a94565b604080513381526020810189905281516000805160206154db833981519152929181900390910190a18415611afd576009839055611b03565b600a8390555b60025460408051338152602081018a9052600181830152606081018690526080810192909252517fea455ea564b4652eabbfbcf652bb6439ed6f6edea8eb0525f2becb5aec40c8649181900360a00190a150505050505050565b600061099e848484614d8d565b60018110156040518060400160405280601181526020017f416d6f756e74206e6f7420656e6f756768000000000000000000000000000000815250818190611bf657604051600160e51b62461bcd028152602060048201818152835160248401528351909283926044909101919085019080838360008315610a33578181015183820152602001610a1b565b50600f60029054906101000a900460ff16151560011515146040518060400160405280601181526020016001607a1b70135d5cdd081899481a5b9a5d1a585d195902815250818190611c8c57604051600160e51b62461bcd028152602060048201818152835160248401528351909283926044909101919085019080838360008315610a33578181015183820152602001610a1b565b50600f546040805180820190915260128152600160721b71135d5cdd081b9bdd0818994818db1bdcd959026020820152630100000090910460ff1615908082611d1957604051600160e51b62461bcd028152602060048201818152835160248401528351909283926044909101919085019080838360008315610a33578181015183820152602001610a1b565b50611d2333612249565b60405180606001604052806021815260200161557c602191398082611d8c57604051600160e51b62461bcd028152602060048201818152835160248401528351909283926044909101919085019080838360008315610a33578181015183820152602001610a1b565b50611d9633613a97565b60408051808201909152601d815260008051602061559d83398151915260208201529015908082611e0b57604051600160e51b62461bcd028152602060048201818152835160248401528351909283926044909101919085019080838360008315610a33578181015183820152602001610a1b565b50600080546001600160a01b0316331490611e3d8d83611e2d57600a54611e31565b6009545b9063ffffffff614dd316565b9050611e4b60035482614d60565b611eb8576040805180820182526017815260008051602061540383398151915260208083019182529251600160e51b62461bcd0281526004810193845282516024820152825192939283926044909201919080838360008315610a33578181015183820152602001610a1b565b611ec18d614de5565b8115611ed1576009819055611ed7565b600a8190555b7fea455ea564b4652eabbfbcf652bb6439ed6f6edea8eb0525f2becb5aec40c864338e60008460025460405180866001600160a01b03166001600160a01b03168152602001858152602001841515151581526020018381526020018281526020019550505050505060405180910390a150505050505050505050505050565b600f54600160381b90046001600160a01b031681565b6000611f7a85858585614974565b95945050505050565b600f546601000000000000900460ff1681565b600f54600090610100900460ff168015610dc55750600e541580610dc5575050600e54421090565b670de0b6b3a764000081565b600f5460408051808201909152601581526001605a1b74135d5cdd081b9bdd081899481a5b9a5d1a585d19590260208201526201000090910460ff161590808261205857604051600160e51b62461bcd028152602060048201818152835160248401528351909283926044909101919085019080838360008315610a33578181015183820152602001610a1b565b5061206233612249565b60405180606001604052806021815260200161557c6021913980826120cb57604051600160e51b62461bcd028152602060048201818152835160248401528351909283926044909101919085019080838360008315610a33578181015183820152602001610a1b565b5060135460408051600160e31b6311df0aad02815290516000926001600160a01b031691638ef85568916004808301926020929190829003018186803b15801561211457600080fd5b505afa158015612128573d6000803e3d6000fd5b505050506040513d602081101561213e57600080fd5b505160408051600160e01b6370a0823102815230600482015290516001600160a01b03909216916370a0823191602480820192602092909190829003018186803b15801561218b57600080fd5b505afa15801561219f573d6000803e3d6000fd5b505050506040513d60208110156121b557600080fd5b505190506121c33382614a94565b604080513381526020810183905281516000805160206154db833981519152929181900390910190a1600f805463ff00000019166301000000179055600254604080513381526020810184905280820192909252517f6407ec2a4ae9d6ab72d4d8edded079bc20dae08edf3fcedd15fa606583efd1449181900360600190a15050505050565b600080546001600160a01b038381169116148061227357506001546001600160a01b038381169116145b92915050565b600f546301000000900460ff1681565b60006122988686868686614cf6565b9695505050505050565b600f546040805180820190915260128152600160721b71135d5cdd081b9bdd0818994818db1bdcd959026020820152630100000090910460ff161590808261232e57604051600160e51b62461bcd028152602060048201818152835160248401528351909283926044909101919085019080838360008315610a33578181015183820152602001610a1b565b5061233833612249565b60405180606001604052806021815260200161557c6021913980826123a157604051600160e51b62461bcd028152602060048201818152835160248401528351909283926044909101919085019080838360008315610a33578181015183820152602001610a1b565b506123ab85612249565b60408051808201909152601e81527f436f6e74726163742070617274792063616e27742063616c6c207468697300006020820152901590808261243257604051600160e51b62461bcd028152602060048201818152835160248401528351909283926044909101919085019080838360008315610a33578181015183820152602001610a1b565b5061243c33613a97565b60408051808201909152601d815260008051602061559d833981519152602082015290159080826124b157604051600160e51b62461bcd028152602060048201818152835160248401528351909283926044909101919085019080838360008315610a33578181015183820152602001610a1b565b506000546001600160a01b03163314156124e557600080546001600160a01b0319166001600160a01b038b16179055612546565b6001546001600160a01b031633141561251857600180546001600160a01b0319166001600160a01b038b16179055612546565b600f54600160381b90046001600160a01b031633141561254657600f8054600160381b600160d81b03191690555b60115460408051600160e11b6340f46fd10281526001600160a01b038c81166004830152915191909216916381e8dfa291602480830192600092919082900301818387803b15801561259757600080fd5b505af11580156125ab573d6000803e3d6000fd5b5050604080513381526001600160a01b038d16602082015281517fce6084c9f950738add8e5747a76463fe6d6652d782d26beabe2b69029391a5df9450908190039091019150a1505050505050505050565b600c5481565b6010546001600160a01b031681565b60085481565b600f5460408051808201909152601581526001605a1b74135d5cdd081b9bdd081899481a5b9a5d1a585d19590260208201526201000090910460ff16159080826126a657604051600160e51b62461bcd028152602060048201818152835160248401528351909283926044909101919085019080838360008315610a33578181015183820152602001610a1b565b50600f546040805180820190915260128152600160721b71135d5cdd081b9bdd0818994818db1bdcd959026020820152630100000090910460ff161590808261273357604051600160e51b62461bcd028152602060048201818152835160248401528351909283926044909101919085019080838360008315610a33578181015183820152602001610a1b565b5061273d33612249565b60405180606001604052806021815260200161557c6021913980826127a657604051600160e51b62461bcd028152602060048201818152835160248401528351909283926044909101919085019080838360008315610a33578181015183820152602001610a1b565b50600087116040518060400160405280601181526020016001607c1b7005072696365206d757374206265203e2030281525081819061282957604051600160e51b62461bcd028152602060048201818152835160248401528351909283926044909101919085019080838360008315610a33578181015183820152602001610a1b565b5060068990556007899055600889905560408051338152602081018b905281517fe77dd1d532a40e832a7a0938f6bcc6e7724487734f75f6b1f84dfeddcc32c47c929181900390910190a1505050505050505050565b6000546001600160a01b031681565b60045481565b600d5481565b6128a333612249565b60405180606001604052806021815260200161557c60219139808261290c57604051600160e51b62461bcd028152602060048201818152835160248401528351909283926044909101919085019080838360008315610a33578181015183820152602001610a1b565b50612915610d9b565b60408051808201909152600e81526000805160206154fb8339815191526020820152808261298757604051600160e51b62461bcd028152602060048201818152835160248401528351909283926044909101919085019080838360008315610a33578181015183820152602001610a1b565b5061299133613a97565b60408051808201909152601d815260008051602061559d83398151915260208201529015908082612a0657604051600160e51b62461bcd028152602060048201818152835160248401528351909283926044909101919085019080838360008315610a33578181015183820152602001610a1b565b50601054604080516060810190915260298082526001600160a01b03909216331415916155df60208301398082612a8157604051600160e51b62461bcd028152602060048201818152835160248401528351909283926044909101919085019080838360008315610a33578181015183820152602001610a1b565b506010546001600160a01b0316612aa957601080546001600160a01b03191633179055612b30565b600080612ab66000614f50565b600f805465ff0000000000191665010000000000179055600054600154604080516001600160a01b0393841681529190921660208201528082018490526060810183905290519294509092507fd754aeea0eaf5666cbd646261deaae96cd6256ec2936fac2f8ddc3e1050c55a5919081900360800190a150505b5050505050505050565b600080612b4c60035486856001614974565b90506000612b5f60035486866000614974565b90508187118015612b6f57508087105b979650505050505050565b6013546001600160a01b031681565b600f5460105460ff64010000000083048116926001600160a01b03600160381b820481169365010000000000909204909216911690919293565b60025481565b612bd233612249565b60405180606001604052806021815260200161557c602191398082612c3b57604051600160e51b62461bcd028152602060048201818152835160248401528351909283926044909101919085019080838360008315610a33578181015183820152602001610a1b565b50612c44610d9b565b60408051808201909152600e81526000805160206154fb83398151915260208201528082612cb657604051600160e51b62461bcd028152602060048201818152835160248401528351909283926044909101919085019080838360008315610a33578181015183820152602001610a1b565b50612cc033613a97565b60408051808201909152601d815260008051602061559d83398151915260208201529015908082612d3557604051600160e51b62461bcd028152602060048201818152835160248401528351909283926044909101919085019080838360008315610a33578181015183820152602001610a1b565b50600088116040518060400160405280601181526020016001607c1b7005072696365206d757374206265203e20302815250818190612db857604051600160e51b62461bcd028152602060048201818152835160248401528351909283926044909101919085019080838360008315610a33578181015183820152602001610a1b565b50600080546001600160a01b03163314612dd3576000612dd6565b60015b90506000612ded60035483610bb457600a54610bb8565b90506000612dfa8c6152d3565b6000549091506001600160a01b0316331415612e9857818d116040518060600160405280602381526020016154976023913990612e7b57604051600160e51b62461bcd028152602060048201818152835160248401528351909283926044909101919085019080838360008315610a33578181015183820152602001610a1b565b50600f805460ff19166001179055600b8d9055600c819055612f31565b6001546001600160a01b0316331415612f3157818d106040518060600160405280602381526020016154236023913990612f1657604051600160e51b62461bcd028152602060048201818152835160248401528351909283926044909101919085019080838360008315610a33578181015183820152602001610a1b565b50600f805461ff001916610100179055600d8d9055600e8190555b60115460408051600160e21b6318b165c102815233600482015290516001600160a01b03909216916362c597049160248082019260009290919082900301818387803b158015612f8057600080fd5b505af1158015612f94573d6000803e3d6000fd5b505050507fb5d6baf622d177db5af6d250d11c52507155dbc0359dd6ab5f7c65ca36c4ffc1338e8360405180846001600160a01b03166001600160a01b03168152602001838152602001828152602001935050505060405180910390a150505050505050505050505050565b670de0b6b3a76400008210156040518060400160405280601681526020017f4e6f74696f6e616c2062656c6f77206d696e696d756d0000000000000000000081525081819061309357604051600160e51b62461bcd028152602060048201818152835160248401528351909283926044909101919085019080838360008315610a33578181015183820152602001610a1b565b50876001600160a01b031663f4463db5876040518263ffffffff1660e01b81526004018082815260200191505060206040518083038186803b1580156130d857600080fd5b505afa1580156130ec573d6000803e3d6000fd5b505050506040513d602081101561310257600080fd5b50516040805160608101909152602e8082526154466020830139808261316c57604051600160e51b62461bcd028152602060048201818152835160248401528351909283926044909101919085019080838360008315610a33578181015183820152602001610a1b565b50601380546001600160a01b0319166001600160a01b038e8116919091179182905560408051600160e31b6311df0aad028152905160009390921691638ef8556891600480820192602092909190829003018186803b1580156131ce57600080fd5b505afa1580156131e2573d6000803e3d6000fd5b505050506040513d60208110156131f857600080fd5b505160408051600160e01b6370a0823102815230600482015290516001600160a01b03909216916370a0823191602480820192602092909190829003018186803b15801561324557600080fd5b505afa158015613259573d6000803e3d6000fd5b505050506040513d602081101561326f57600080fd5b5051905061327d8782614d60565b6132ea576040805180820182526017815260008051602061540383398151915260208083019182529251600160e51b62461bcd0281526004810193845282516024820152825192939283926044909201919080838360008315610a33578181015183820152602001610a1b565b851561331557600080546001600160a01b0319166001600160a01b038c161790556009819055613336565b600180546001600160a01b0319166001600160a01b038c16179055600a8190555b6002899055600387905560048790556005879055600688905560078890556008889055601180546001600160a01b03808f166001600160a01b031992831617909255601280548e8416921691909117905560408051918c168252602082018b905281810189905260608201839052517f69d73ba3035242abcb4cbe9e73c2317a193d589f1ab392766a856075e4a5ea9d9181900360800190a150505050505050505050505050565b6133e6610d9b565b60408051808201909152600e81526000805160206154fb8339815191526020820152808261345857604051600160e51b62461bcd028152602060048201818152835160248401528351909283926044909101919085019080838360008315610a33578181015183820152602001610a1b565b5061346233612249565b60405180606001604052806021815260200161557c6021913980826134cb57604051600160e51b62461bcd028152602060048201818152835160248401528351909283926044909101919085019080838360008315610a33578181015183820152602001610a1b565b506000806134d96001614f50565b600f805464ff0000000019166401000000001790556000549193509150336001600160a01b03909116141561356e57600054600154600254604080516001600160a01b03948516815260208101879052929093168284015260608201849052608082015290517f81bf0ecca77d43968d8c2687fe97a6d65b62e33063055c15042f5d5fd63abe289181900360a00190a16135d0565b600154600054600254604080516001600160a01b03948516815260208101869052929093168284015260608201859052608082015290517f81bf0ecca77d43968d8c2687fe97a6d65b62e33063055c15042f5d5fd63abe289181900360a00190a15b505050505050565b6011546001600160a01b031681565b600f5460009060ff168015610dc55750600c541580610dc5575050600c54421090565b600061361683836152e7565b9392505050565b60095481565b600f5462010000900460ff1681565b6000613616838361531e565b600f5460ff1681565b600f5460408051808201909152601581526001605a1b74135d5cdd081b9bdd081899481a5b9a5d1a585d19590260208201526201000090910460ff16159080826136d557604051600160e51b62461bcd028152602060048201818152835160248401528351909283926044909101919085019080838360008315610a33578181015183820152602001610a1b565b50600f546040805180820190915260128152600160721b71135d5cdd081b9bdd0818994818db1bdcd959026020820152630100000090910460ff161590808261376257604051600160e51b62461bcd028152602060048201818152835160248401528351909283926044909101919085019080838360008315610a33578181015183820152602001610a1b565b5061376c33612249565b60408051808201909152601e81527f436f6e74726163742070617274792063616e27742063616c6c20746869730000602082015290159080826137f357604051600160e51b62461bcd028152602060048201818152835160248401528351909283926044909101919085019080838360008315610a33578181015183820152602001610a1b565b5061380060035488614d60565b61386d576040805180820182526017815260008051602061540383398151915260208083019182529251600160e51b62461bcd0281526004810193845282516024820152825192939283926044909201919080838360008315610a33578181015183820152602001610a1b565b61387687614de5565b6000546001600160a01b03166138a257600080546001600160a01b0319163317905560098790556138ba565b600180546001600160a01b03191633179055600a8790555b600f805462ff000019166201000017905560115460408051600160e11b6340f46fd102815233600482015290516001600160a01b03909216916381e8dfa29160248082019260009290919082900301818387803b15801561391a57600080fd5b505af115801561392e573d6000803e3d6000fd5b505050507f94bdcbfe1580a4a1b6292d3543b07391ef8e107a5168feefc7412f3da94ebe3133886000809054906101000a90046001600160a01b0316600160009054906101000a90046001600160a01b0316600254600354600654600954600a54604051808a6001600160a01b03166001600160a01b03168152602001898152602001886001600160a01b03166001600160a01b03168152602001876001600160a01b03166001600160a01b03168152602001868152602001858152602001848152602001838152602001828152602001995050505050505050505060405180910390a150505050505050565b60008054600154600254600654600354600f5486958695869586958695869586956001600160a01b0390811695169392919060ff80821691610100900416613a61610d31565b969f959e50939c50919a509850965094509092509050565b600f5465010000000000900460ff1681565b60065481565b60075481565b600080546001600160a01b038381169116148015613ab85750613ab86135e7565b8061227357506001546001600160a01b0383811691161480156122735750612273611f96565b613ae733612249565b60405180606001604052806021815260200161557c602191398082613b5057604051600160e51b62461bcd028152602060048201818152835160248401528351909283926044909101919085019080838360008315610a33578181015183820152602001610a1b565b50613b59610d9b565b60408051808201909152600e81526000805160206154fb83398151915260208201528082613bcb57604051600160e51b62461bcd028152602060048201818152835160248401528351909283926044909101919085019080838360008315610a33578181015183820152602001610a1b565b50613bd533613a97565b60408051808201909152601d815260008051602061559d83398151915260208201529015908082613c4a57604051600160e51b62461bcd028152602060048201818152835160248401528351909283926044909101919085019080838360008315610a33578181015183820152602001610a1b565b50600f60079054906101000a90046001600160a01b03166001600160a01b0316336001600160a01b031614156040518060600160405280602181526020016154ba602191398082613cdf57604051600160e51b62461bcd028152602060048201818152835160248401528351909283926044909101919085019080838360008315610a33578181015183820152602001610a1b565b50601360009054906101000a90046001600160a01b03166001600160a01b03166323ec7f2a6040518163ffffffff1660e01b815260040160206040518083038186803b158015613d2e57600080fd5b505afa158015613d42573d6000803e3d6000fd5b505050506040513d6020811015613d5857600080fd5b505160135460408051600160e31b63018b52bf02815230600482015290516001600160a01b039384169390921691630c5a95f891602480820192602092909190829003018186803b158015613dac57600080fd5b505afa158015613dc0573d6000803e3d6000fd5b505050506040513d6020811015613dd657600080fd5b505160408051808201909152601981527f416c7265616479206174206c61746573742076657273696f6e0000000000000060208201526001600160a01b039091169190911415908082613e6d57604051600160e51b62461bcd028152602060048201818152835160248401528351909283926044909101919085019080838360008315610a33578181015183820152602001610a1b565b50600f54600160381b90046001600160a01b0316613ea557600f8054600160381b600160d81b03191633600160381b021790556140f3565b600f805466ff0000000000001916660100000000000017905560135460408051600160e11b6311f63f9502815290516000926001600160a01b0316916323ec7f2a916004808301926020929190829003018186803b158015613f0657600080fd5b505afa158015613f1a573d6000803e3d6000fd5b505050506040513d6020811015613f3057600080fd5b505160408051600160e21b630596b83f02815290519192506000916001600160a01b0384169163165ae0fc91600480830192602092919082900301818787803b158015613f7c57600080fd5b505af1158015613f90573d6000803e3d6000fd5b505050506040513d6020811015613fa657600080fd5b505160135460408051600160e31b6311df0aad028152905192935061409e9284926001600160a01b031691638ef85568916004808301926020929190829003018186803b158015613ff657600080fd5b505afa15801561400a573d6000803e3d6000fd5b505050506040513d602081101561402057600080fd5b505160408051600160e01b6370a0823102815230600482015290516001600160a01b03909216916370a0823191602480820192602092909190829003018186803b15801561406d57600080fd5b505afa158015614081573d6000803e3d6000fd5b505050506040513d602081101561409757600080fd5b5051614a94565b600f805466ff0000ff00000019166301000000179055604080516001600160a01b038316815290517fbf44b7c20b944f553303a3ec7caff0a29f0378e297b7d9dc5b1267d359b7ea6c9181900360200190a150505b50505050505050505050565b614107610d9b565b60408051808201909152600e81526000805160206154fb8339815191526020820152808261417957604051600160e51b62461bcd028152602060048201818152835160248401528351909283926044909101919085019080838360008315610a33578181015183820152602001610a1b565b50601054604080516060810190915260368082526001600160a01b03909216331491615546602083013980826141f357604051600160e51b62461bcd028152602060048201818152835160248401528351909283926044909101919085019080838360008315610a33578181015183820152602001610a1b565b50601080546001600160a01b03191690556040805133815290517feb7cb024eee8a89a41b2cbb1bfb1b7cd435743b340ab2ef5c536c5b0d640c3889181900360200190a150505050565b600e5481565b8161424c610d9b565b6040518060400160405280600e81526020016000805160206154fb833981519152815250906142bf57604051600160e51b62461bcd028152602060048201818152835160248401528351909283926044909101919085019080838360008315610a33578181015183820152602001610a1b565b506142eb816142d9576001546001600160a01b03166142e6565b6000546001600160a01b03165b613a97565b6040518060400160405280600f81526020017f4d757374206265206f6e2073616c6500000000000000000000000000000000008152509061437057604051600160e51b62461bcd028152602060048201818152835160248401528351909283926044909101919085019080838360008315610a33578181015183820152602001610a1b565b5061437a33612249565b60408051808201909152601e81527f436f6e74726163742070617274792063616e27742063616c6c20746869730000602082015290156143fe57604051600160e51b62461bcd028152602060048201818152835160248401528351909283926044909101919085019080838360008315610a33578181015183820152602001610a1b565b5061440b60035483614d60565b614478576040805180820182526017815260008051602061540383398151915260208083019182529251600160e51b62461bcd0281526004810193845282516024820152825192939283926044909201919080838360008315610a33578181015183820152602001610a1b565b6000614482614a11565b905060008461449357600d54614497565b600b545b90506144c182866144aa576009546144ac565b855b876144b757866144bb565b600a545b84612b3a565b61452e576040805180820182526017815260008051602061540383398151915260208083019182529251600160e51b62461bcd0281526004810193845282516024820152825192939283926044909201919080838360008315610a33578181015183820152602001610a1b565b61453784614de5565b60008561454f576001546001600160a01b031661455c565b6000546001600160a01b03165b9050600061456b878484615326565b9050600061467087601360009054906101000a90046001600160a01b03166001600160a01b0316638ef855686040518163ffffffff1660e01b815260040160206040518083038186803b1580156145c157600080fd5b505afa1580156145d5573d6000803e3d6000fd5b505050506040513d60208110156145eb57600080fd5b505160408051600160e01b6370a0823102815230600482015290516001600160a01b03909216916370a0823191602480820192602092909190829003018186803b15801561463857600080fd5b505afa15801561464c573d6000803e3d6000fd5b505050506040513d602081101561466257600080fd5b50519063ffffffff61538e16565b9050600061468360035460065487614d8d565b905088156146b657600080546001600160a01b03191633179055600988905560078590556004819055600a8290556146dd565b600180546001600160a01b03191633179055600a8890556008859055600581905560098290555b600685905560038190556146f0896153a3565b600f546001600160a01b03858116600160381b90920416141561472157600f8054600160381b600160d81b03191690555b60115460408051600160e11b6340f46fd102815233600482015290516001600160a01b03909216916381e8dfa29160248082019260009290919082900301818387803b15801561477057600080fd5b505af1158015614784573d6000803e3d6000fd5b5050600254604080513381526001600160a01b038916602082015280820186905260608101889052608081018d905260a0810192909252517fd356d730a2af36f9a0a6dfacdadfec02dd284bedaf298f1f5894a869abb3b63693509081900360c0019150a1505050505050505050565b6147fc610d9b565b60408051808201909152600e81526000805160206154fb8339815191526020820152808261486e57604051600160e51b62461bcd028152602060048201818152835160248401528351909283926044909101919085019080838360008315610a33578181015183820152602001610a1b565b5061487833613a97565b60408051808201909152601981527f6d73672e73656e646572206d7573742062652073656c6c657200000000000000602082015280826148fc57604051600160e51b62461bcd028152602060048201818152835160248401528351909283926044909101919085019080838360008315610a33578181015183820152602001610a1b565b50600054614914906001600160a01b031633146153a3565b6040805133815290517f82229214624615d3bbec967c7100737095261ce7b7cf043d442f92d635b737619181900360200190a150505050565b600f54610100900460ff1681565b60008061496885856152e7565b9050611f7a838261531e565b6000808261498b5768052663ccab1e1c0000614996565b6805b12aefafa80400005b9050600068056bc75e2d63100000858302049050600068056bc75e2d631000008868056bc75e2d6310000088028902816149cc57fe5b04816149d457fe5b0490508480156149e357508181115b156149f4576000935050505061099e565b84614a0157808201614a05565b8082035b98975050505050505050565b60125460025460408051600160e01b6361da14390281526004810192909252516000926001600160a01b0316916361da1439916024808301926020929190829003018186803b158015614a6357600080fd5b505afa158015614a77573d6000803e3d6000fd5b505050506040513d6020811015614a8d57600080fd5b5051919050565b6000823f9050600081601360009054906101000a90046001600160a01b03166001600160a01b031663e37af2d16040518163ffffffff1660e01b815260040160206040518083038186803b158015614aeb57600080fd5b505afa158015614aff573d6000803e3d6000fd5b505050506040513d6020811015614b1557600080fd5b50511415614b8957836001600160a01b0316638da5cb5b6040518163ffffffff1660e01b815260040160206040518083038186803b158015614b5657600080fd5b505afa158015614b6a573d6000803e3d6000fd5b505050506040513d6020811015614b8057600080fd5b50519050614b8c565b50825b601360009054906101000a90046001600160a01b03166001600160a01b0316638ef855686040518163ffffffff1660e01b815260040160206040518083038186803b158015614bda57600080fd5b505afa158015614bee573d6000803e3d6000fd5b505050506040513d6020811015614c0457600080fd5b505160408051600160e01b63a9059cbb0281526001600160a01b038481166004830152602482018790529151919092169163a9059cbb9160448083019260209291908290030181600087803b158015614c5c57600080fd5b505af1158015614c70573d6000803e3d6000fd5b505050506040513d6020811015614c8657600080fd5b50516040805160608101909152602b80825261551b602083013990614cef57604051600160e51b62461bcd028152602060048201818152835160248401528351909283926044909101919085019080838360008315610a33578181015183820152602001610a1b565b5050505050565b600068056bc75e2d631000008481029087908790869085908085808603820281614d1c57fe5b05870281614d2657fe5b0581614d2e57fe5b059050600087614d4057818303614d44565b8183015b90506000811215614d5157fe5b9b9a5050505050505050505050565b6000614d6d83601461531e565b82101580156136165750614d83836101f461531e565b8211159392505050565b600068056bc75e2d63100000614dc384614dad858463ffffffff6153db16565b81614db457fe5b8791900463ffffffff6153db16565b81614dca57fe5b04949350505050565b60008282018381101561361657600080fd5b601360009054906101000a90046001600160a01b03166001600160a01b0316638ef855686040518163ffffffff1660e01b815260040160206040518083038186803b158015614e3357600080fd5b505afa158015614e47573d6000803e3d6000fd5b505050506040513d6020811015614e5d57600080fd5b505160408051600160e01b6323b872dd0281523360048201523060248201526044810184905290516001600160a01b03909216916323b872dd916064808201926020929091908290030181600087803b158015614eb957600080fd5b505af1158015614ecd573d6000803e3d6000fd5b505050506040513d6020811015614ee357600080fd5b50516040805160608101909152602b80825261551b602083013990614f4c57604051600160e51b62461bcd028152602060048201818152835160248401528351909283926044909101919085019080838360008315610a33578181015183820152602001610a1b565b5050565b600080614f5b610d9b565b60408051808201909152600e81526000805160206154fb83398151915260208201528082614fcd57604051600160e51b62461bcd028152602060048201818152835160248401528351909283926044909101919085019080838360008315610a33578181015183820152602001610a1b565b50614fd733612249565b60405180606001604052806021815260200161557c60219139808261504057604051600160e51b62461bcd028152602060048201818152835160248401528351909283926044909101919085019080838360008315610a33578181015183820152602001610a1b565b50600061504b614a11565b9050615061600654826003546009546001614cf6565b965061507760065482600354600a546000614cf6565b955060006150dd876150d18a601360009054906101000a90046001600160a01b03166001600160a01b0316638ef855686040518163ffffffff1660e01b815260040160206040518083038186803b1580156145c157600080fd5b9063ffffffff61538e16565b90508015615119576040805182815290517fec6a0b860bf684f74dbe39a6138edd92b8c04da302be601f5a4cfea6099b31aa9181900360200190a15b60135460408051600160e01b638da5cb5b0281529051615194926001600160a01b031691638da5cb5b916004808301926020929190829003018186803b15801561516257600080fd5b505afa158015615176573d6000803e3d6000fd5b505050506040513d602081101561518c57600080fd5b505182614a94565b6001891515141561521f57600080546001600160a01b03163314906151c6826151bd57896151bf565b8a5b600561531e565b905081156151f7576151de8a8263ffffffff61538e16565b99506151f0898263ffffffff614dd316565b985061521c565b6152078a8263ffffffff614dd316565b9950615219898263ffffffff61538e16565b98505b50505b600054615235906001600160a01b031689614a94565b600054604080516001600160a01b039092168252602082018a905280516000805160206154db8339815191529281900390910190a1600154615280906001600160a01b031688614a94565b600154604080516001600160a01b0390921682526020820189905280516000805160206154db8339815191529281900390910190a15050600f805463ff0000001916630100000017905550505050915091565b60004282116152e3576000612273565b5090565b6000818314156152f957506000612273565b828203600084606483028161530a57fe5b0590506000811361099e5780600003611f7a565b606491020490565b6000615349600654846003548761533f57600a54615343565b6009545b88614cf6565b90506153558282614a94565b604080516001600160a01b03841681526020810183905281516000805160206154db833981519152929181900390910190a19392505050565b60008282111561539d57600080fd5b50900390565b80156153c2576000600b819055600c55600f805460ff191690556153d8565b6000600d819055600e55600f805461ff00191690555b50565b6000826153ea57506000612273565b828202828482816153f757fe5b041461361657600080fdfe636f6c6c61746572616c496e52616e67652066616c73650000000000000000004d757374206265206c657373207468616e206c69717569646174696f6e20707269636550726963652072657175657374656420666f7220696e616374697665206f7220756e6b6e6f776e206d61726b65744c6971756964617465207468726573686f6c64206e6f742079657420726561636865644d757374206265206d6f7265207468616e206c69717569646174696f6e2070726963656d73672e73656e64657220616c72656164792063616c6c65642075706772616465ae0c91484288809ae2c2fb81551bd9d06d4d3bcbbce87f3c5a3d5775f299358b4d757374206265206163746976650000000000000000000000000000000000004661696c757265207472616e73666572696e67206f776e657273686970206f662044414920746f6b656e736d73672e73656e646572206d757374206265207468652073616d65206173206c69717569646174654d757475616c43616c6c656442794f6e6c7920636f6e747261637420706172746965732063616e20646f20746869736d73672e73656e646572206d757374206e6f742062652073656c6c657200000043616e2774207769746864726177206d6f7265207468656e20617661696c61626c656d73672e73656e64657220616c72656164792063616c6c6564206c69717569646174654d757475616ca165627a7a723058205b8b7c5d07bb46a6e8282dc9f0b3399c12a062cc3ecabec108e666a1283507c40029",
  "source": "pragma solidity >=0.5.6 <0.6.0;\n\nimport \"openzeppelin-solidity/contracts/math/SafeMath.sol\";\nimport \"../DBC.sol\";\nimport \"../dappsys/proxy.sol\";\nimport \"../feeds/PriceFeeds.sol\";\nimport \"../Registry.sol\";\nimport \"./ContractForDifferenceFactory.sol\";\nimport \"./ContractForDifferenceRegistry.sol\";\nimport \"./ContractForDifferenceLibrary.sol\";\n\n\n/*\n * SOLIUM DISABLE:\n *\n *   security/no-block-members - we need to use 'now' in order to set a time\n *       limit.\n */\n\n /* solium-disable security/no-block-members */\n\n/**\n * @title Contract for difference\n *\n * Contract for difference for a given market between a\n * \"buyer\" (long position) and \"seller\" (short position).\n */\ncontract ContractForDifference is DBC {\n    using SafeMath for uint;\n\n    /*\n     * Events\n     */\n\n    event LogCFDCreated(\n        address creator,\n        bytes32 market,\n        uint notionalAmountDai,\n        uint deposit\n    );\n    event LogCFDInitiated(\n        address joiner,\n        uint amountSent,\n        address buyer,\n        address seller,\n        bytes32 market,\n        uint notionalAmountDai,\n        uint strikePrice,\n        uint buyerDepositBalance,\n        uint sellerDepositBalance\n    );\n    event LogCFDTransferPosition(address oldOwner, address newOwner);\n    event LogCFDCanceledNew(address party, uint amount, bytes32 market);\n    event LogCFDStrikePriceUpdated(address party, uint newStrikePrice);\n\n    event LogCFDSale(\n        address party,\n        uint saleStrikePrice,\n        uint timeLimit\n    );\n    event LogCFDSaleCancelled(address party);\n    event LogCFDSaleUpdated(address party, uint newPrice);\n    event LogCFDSold(address to, address by, uint newNotional, uint sellerAmount, uint buyerDeposit, bytes32 market);\n\n    event LogCFDPartyBalanceUpdate(address party, uint amount, bool isWithdraw, uint newBalance, bytes32 market);\n    event LogCFDTransferFunds(address receiver, uint amount);\n\n    event LogCFDClosed(address winner, uint buyerCollateral, uint sellerCollateral, bytes32 market);\n    event LogCFDForceTerminated(address terminator, uint terminatorAmount, address otherParty, uint otherPartyAmount, bytes32 market);\n    event LogCFDLiquidateMutual(address buyer, address seller, uint buyerAmount, uint sellerAmount);\n    event LogCFDLiquidateMutualCancelled(address party);\n    event LogCFDUpgraded(address newCFD);\n    event LogCFDRemainingBalanceUnexpected(uint remainder);\n\n    enum Status {\n        CREATED,\n        INITIATED,\n        SALE,\n        CLOSED\n    }\n\n    /*\n     * Constants\n     */\n\n    string constant REASON_NOTIONAL_TOO_LOW = \"Notional below minimum\";\n    string constant REASON_DAI_TRANSFER_FAILED = \"Failure transfering ownership of DAI tokens\";\n    string constant REASON_COLLATERAL_RANGE_FAILED = \"collateralInRange false\";\n    string constant REASON_MUST_NOT_BE_INITIATED = \"Must not be initiated\";\n    string constant REASON_MUST_NOT_BE_CLOSED = \"Must not be closed\";\n    string constant REASON_MUST_NOT_BE_PARTY = \"Contract party can't call this\";\n    string constant REASON_MUST_BE_INITIATED = \"Must be initiated\";\n    string constant REASON_MUST_BE_SELLER = \"msg.sender must be seller\";\n    string constant REASON_MUST_NOT_BE_SELLER = \"msg.sender must not be seller\";\n    string constant REASON_MUST_BE_ON_SALE = \"Must be on sale\";\n    string constant REASON_MUST_BE_POSITIVE_PRICE = \"Price must be > 0\";\n    string constant REASON_ONLY_CONTRACT_PARTIES = \"Only contract parties can do this\";\n    string constant REASON_MUST_BE_ACTIVE = \"Must be active\";\n    string constant REASON_MARKET_PRICE_RANGE_FAILED = \"collateralInRange false\";\n    string constant REASON_MARKET_INACTIVE_OR_UNKNOWN = \"Price requested for inactive or unknown market\";\n    string constant REASON_WITHDRAW_NOT_ENOUGH = \"Can't withdraw more then available\";\n    string constant REASON_AMOUNT_NOT_ENOUGH = \"Amount not enough\";\n    string constant REASON_UPGRADE_ALREADY_SET = \"msg.sender already called upgrade\";\n    string constant REASON_UPGRADE_ALREADY_LATEST = \"Already at latest version\";\n    string constant REASON_TRANSFER_TO_EXISTING_PARTY = \"Can't transfer to existing party\";\n    string constant REASON_MUST_BE_MORE_THAN_CUTOFF = \"Must be more than liquidation price\";\n    string constant REASON_MUST_BE_LESS_THAN_CUTOFF = \"Must be less than liquidation price\";\n    string constant REASON_LIQUIDATE_MUTUAL_ALREADY_SET = \"msg.sender already called liquidateMutual\";\n    string constant REASON_MUST_BE_LIQUIDATE_MUTUAL_CALLER = \"msg.sender must be the same as liquidateMutualCalledBy\";\n\n    uint public constant FORCE_TERMINATE_PENALTY_PERCENT = 5;\n    uint public constant MINIMUM_NOTIONAL_AMOUNT_DAI = 1 * 1e18; // 1 DAI/1 USD\n\n\n    /*\n     * State variables\n     */\n\n    address public buyer;                           // long\n    address public seller;                          // short\n    bytes32 public market;\n\n    uint public notionalAmountDai;\n    uint public buyerInitialNotional;\n    uint public sellerInitialNotional;\n\n    // strike prices as prices stored in PriceFeeds\n    uint public strikePrice;\n    uint public buyerInitialStrikePrice;\n    uint public sellerInitialStrikePrice;\n\n    // balances of amounts actually deposited/withdrawn from the contract\n    uint public buyerDepositBalance;\n    uint public sellerDepositBalance;\n\n    uint public buyerSaleStrikePrice;\n    uint public buyerSaleTimeLimit;\n\n    uint public sellerSaleStrikePrice;\n    uint public sellerSaleTimeLimit;\n\n    bool public buyerSelling;\n    bool public sellerSelling;\n\n    bool public initiated = false;\n    bool public closed = false;\n    bool public terminated = false;\n    bool public liquidatedMutually = false;\n\n    // set to true for a short period of time - when second party has called\n    // upgrade and upgrade has called the new factory to do the work\n    bool public upgradeable = false;\n\n    // set to first party that calls upgrade\n    // enables identification of who called and that it has been called once\n    address public upgradeCalledBy = address(0);\n\n    // set to first party that calls liquidateMutual\n    // enables identification of who called and that it has been called once\n    address public liquidateMutualCalledBy = address(0);\n\n    address public cfdRegistryAddr;\n    address public feedsAddr;\n\n    Registry public registry;\n\n    /*\n     * Functions\n     */\n\n    /**\n     * @dev Contract has been initiated (has 2 parties) and not yet terminated.\n     * @return true if contract is active\n     */\n    function isActive() public view returns (bool) {\n        return initiated == true && closed == false;\n    }\n\n    /**\n     * @dev Is buyer / long party selling.\n     * @return true if buyer has side up for sale\n     */\n    function isBuyerSelling() public view returns (bool) {\n        return buyerSelling &&\n            (buyerSaleTimeLimit == 0 || now < buyerSaleTimeLimit);\n    }\n\n    /**\n     * @dev Is seller / short party selling.\n     * @return true if seller has side up for sale\n     */\n    function isSellerSelling() public view returns (bool) {\n        return sellerSelling &&\n            (sellerSaleTimeLimit == 0 || now < sellerSaleTimeLimit);\n    }\n\n    /**\n     * @dev If the given party is selling one side of the contract.\n     * @return true if the given party is selling\n     */\n    function isSelling(address _party) public view returns (bool) {\n        return (_party == buyer && isBuyerSelling()) ||\n            (_party == seller && isSellerSelling());\n    }\n\n    /**\n     * @dev Check if the given address is one of the 2 parties of the contract.\n     * @param _party Address to check\n     * @return true if _party is either the buyer or seller.\n     */\n    function isContractParty(address _party) public view returns (bool) {\n        return _party == buyer || _party == seller;\n    }\n\n    /**\n     * @dev Create a new CFDinstance specifying the terms of the contract.\n     *\n     * @param _registryAddr Registry contract address\n     * @param _cfdRegistryAddr CFD Registry contract address\n     * @param _feedsAddr Feeds address\n     * @param _partyAddr Address of the party creating the contract\n     * @param _marketId Contract is for prices on this market\n     * @param _strikePrice Strike price\n     * @param _notionalAmountDai Contract amount\n     * @param _isBuyer Flag indicating if the contract creator wants to take the\n     *            buyer (true) or the seller side (false).\n     */\n    function createNew(\n        address _registryAddr,\n        address _cfdRegistryAddr,\n        address _feedsAddr,\n        address _partyAddr, // msg.sender calling the Factory\n        bytes32 _marketId,\n        uint _strikePrice,\n        uint _notionalAmountDai,\n        bool _isBuyer\n    )\n        public\n        pre_cond(_notionalAmountDai >= MINIMUM_NOTIONAL_AMOUNT_DAI, REASON_NOTIONAL_TOO_LOW)\n        pre_cond(PriceFeeds(_feedsAddr).isMarketActive(_marketId), REASON_MARKET_INACTIVE_OR_UNKNOWN)\n    {\n        registry = Registry(_registryAddr);\n        uint collateralSent = registry.getDAI().balanceOf(address(this));\n\n        if (!ContractForDifferenceLibrary.collateralInRange(_notionalAmountDai, collateralSent))\n            revert(REASON_COLLATERAL_RANGE_FAILED);\n\n        if (_isBuyer) {\n            buyer = _partyAddr;\n            buyerDepositBalance = collateralSent;\n        } else {\n            seller = _partyAddr;\n            sellerDepositBalance = collateralSent;\n        }\n\n        market = _marketId;\n        notionalAmountDai = _notionalAmountDai;\n        buyerInitialNotional = _notionalAmountDai;\n        sellerInitialNotional = _notionalAmountDai;\n\n        strikePrice = _strikePrice;\n        buyerInitialStrikePrice = _strikePrice;\n        sellerInitialStrikePrice = _strikePrice;\n\n        cfdRegistryAddr = _cfdRegistryAddr;\n        feedsAddr = _feedsAddr;\n\n        emit LogCFDCreated(\n            _partyAddr,\n            market,\n            notionalAmountDai,\n            collateralSent\n        );\n    }\n\n    /**\n     * @dev Create a new CFDinstance from a previous CFD instance. This is part\n     *      of the upgrade process (see CFD.upgrade()).\n     *\n     * @param _cfdAddr Address of the existing / old CFD\n     * @param _registryAddr Address of Registry contract\n     * @param _cfdRegistryAddr Address of CFDRegistry contract\n     * @param _feedsAddr Address of Feeds contract\n     */\n    function createByUpgrade(\n        address _cfdAddr,\n        address _registryAddr,\n        address _cfdRegistryAddr,\n        address _feedsAddr\n    )\n        // NOTE on security: any address can call this however if the CFD\n        // instance has not yet been added to the ContractForDifferentRegistry\n        // (which only ContractForDifferenceFactory can do) then this\n        // function will fail at registerParty() below.\n        // Of course someone can call this with a fake\n        // ContractForDifferenceRegistry but then nothing will touch\n        // or change the state of the 0xfutures set of deployed contracts.\n        public\n    {\n        ContractForDifference oldCfd = ContractForDifference(_cfdAddr);\n\n        market = oldCfd.market();\n        notionalAmountDai = oldCfd.notionalAmountDai();\n        strikePrice = oldCfd.strikePrice();\n        buyer = oldCfd.buyer();\n        seller = oldCfd.seller();\n\n        buyerDepositBalance = oldCfd.buyerDepositBalance();\n        buyerInitialNotional = oldCfd.buyerInitialNotional();\n        buyerInitialStrikePrice = oldCfd.buyerInitialStrikePrice();\n\n        sellerDepositBalance = oldCfd.sellerDepositBalance();\n        sellerInitialNotional = oldCfd.sellerInitialNotional();\n        sellerInitialStrikePrice = oldCfd.sellerInitialStrikePrice();\n\n        cfdRegistryAddr = _cfdRegistryAddr;\n        registry = Registry(_registryAddr);\n        feedsAddr = _feedsAddr;\n\n        initiated = true;\n\n        ContractForDifferenceRegistry(cfdRegistryAddr).registerParty(seller);\n    }\n\n    /**\n     * Returns an array with all the attributes of the contract\n     * (Had to split in 3 functions because of the stack limit)\n     * Max number of return values == 8\n     */\n    function getCfdAttributes()\n        public\n        view\n        returns (address, address, bytes32, uint, uint, bool, bool, Status)\n    {\n        return (\n            buyer,\n            seller,\n            market,\n            strikePrice,\n            notionalAmountDai,\n            buyerSelling,\n            sellerSelling,\n            status()\n        );\n    }\n    function getCfdAttributes2()\n        public\n        view\n        returns (uint, uint, uint, uint, uint, uint, uint, uint)\n    {\n        return (\n            buyerInitialNotional,\n            sellerInitialNotional,\n            buyerDepositBalance,\n            sellerDepositBalance,\n            buyerSaleStrikePrice,\n            sellerSaleStrikePrice,\n            buyerInitialStrikePrice,\n            sellerInitialStrikePrice\n        );\n    }\n    function getCfdAttributes3()\n        public\n        view\n        returns (bool, address, bool, address)\n    {\n        return (\n            terminated,\n            upgradeCalledBy,\n            liquidatedMutually,\n            liquidateMutualCalledBy\n        );\n    }\n\n    /**\n     * @dev Counterparty deposits their funds into the contract thereby joining\n     * and initiating the contract.\n     */\n    function deposit(uint _collateral)\n        external\n        pre_cond(initiated == false, REASON_MUST_NOT_BE_INITIATED)\n        pre_cond(closed == false, REASON_MUST_NOT_BE_CLOSED) // cancelNew has not been called\n        pre_cond(isContractParty(msg.sender) == false, REASON_MUST_NOT_BE_PARTY) // reject contract creator depositing\n    {\n        if (!ContractForDifferenceLibrary.collateralInRange(notionalAmountDai, _collateral))\n            revert(REASON_COLLATERAL_RANGE_FAILED);\n\n        daiClaim(_collateral);\n\n        if (buyer == address(0)) {\n            buyer = msg.sender;\n            buyerDepositBalance = _collateral;\n        } else {\n            seller = msg.sender;\n            sellerDepositBalance = _collateral;\n        }\n\n        initiated = true;\n        ContractForDifferenceRegistry(cfdRegistryAddr).registerParty(msg.sender);\n        emit LogCFDInitiated(\n            msg.sender,\n            _collateral,\n            buyer,\n            seller,\n            market,\n            notionalAmountDai,\n            strikePrice,\n            buyerDepositBalance,\n            sellerDepositBalance\n        );\n    }\n\n    /**\n     * @dev Cancels a newly created contract refunding the balance to the party\n     *      that created the contract. This can only be called before a contract\n     *      is initiated. ie. between the createNew() and deposit() calls.\n     */\n    function cancelNew()\n        external\n        pre_cond(initiated == false, REASON_MUST_NOT_BE_INITIATED)\n        pre_cond(isContractParty(msg.sender), REASON_ONLY_CONTRACT_PARTIES)\n    {\n        uint amountSent = registry.getDAI().balanceOf(address(this));\n        daiTransfer(msg.sender, amountSent);\n        emit LogCFDTransferFunds(msg.sender, amountSent);\n        closed = true;\n        emit LogCFDCanceledNew(msg.sender, amountSent, market);\n    }\n\n    /**\n     * @dev Party adds more funds to the contract thereby increasing their\n     *      deposit balance.\n     * @param _value DAI amount\n     */\n    function topup(uint _value)\n        external\n        pre_cond(_value >= 1, REASON_AMOUNT_NOT_ENOUGH)\n        pre_cond(initiated == true, REASON_MUST_BE_INITIATED)\n        pre_cond(closed == false, REASON_MUST_NOT_BE_CLOSED)\n        pre_cond(isContractParty(msg.sender), REASON_ONLY_CONTRACT_PARTIES)\n        pre_cond(isSelling(msg.sender) == false, REASON_MUST_NOT_BE_SELLER)\n    {\n        bool isBuyer = msg.sender == buyer;\n        uint newDepositBalance = (isBuyer ?\n            buyerDepositBalance :\n            sellerDepositBalance\n        ).add(_value);\n\n        // check topup doesn't make collateral exceed the maximum\n        if (!ContractForDifferenceLibrary.collateralInRange(notionalAmountDai, newDepositBalance))\n            revert(REASON_COLLATERAL_RANGE_FAILED);\n\n        daiClaim(_value);\n\n        if (isBuyer) {\n            buyerDepositBalance = newDepositBalance;\n        } else {\n            sellerDepositBalance = newDepositBalance;\n        }\n\n        emit LogCFDPartyBalanceUpdate(msg.sender, _value, false, newDepositBalance, market);\n    }\n\n    /**\n     * @dev Party withdraws funds from the contract.\n     *      They can only withdraw down to an amount that leaves the collateral\n     *      to notional difference at 20% or more.\n     * @param _withdrawAmount Amount to withdraw from the deposits balance.\n     */\n    function withdraw(uint _withdrawAmount)\n        external\n        assertWithdrawPreCond(_withdrawAmount)\n    {\n        bool isBuyer = msg.sender == buyer;\n        uint currentDepositBal = isBuyer ? buyerDepositBalance : sellerDepositBalance;\n\n        // first simple check that can't withdraw more then deposited\n        if (_withdrawAmount > currentDepositBal)\n            revert(REASON_WITHDRAW_NOT_ENOUGH);\n\n        // second a more precise check that the collateral at new balance will remain above the min\n        uint newDepositBal = currentDepositBal - _withdrawAmount;\n        uint marketPrice = latestPrice();\n        if (!marketPriceInRange(\n            marketPrice,\n            isBuyer ? newDepositBal : buyerDepositBalance,\n            isBuyer ? sellerDepositBalance : newDepositBal,\n            strikePrice // unchanged on withdraw\n        )) {\n            revert(REASON_MARKET_PRICE_RANGE_FAILED);\n        }\n\n        uint collateral = ContractForDifferenceLibrary.calculateCollateralAmount(\n            strikePrice,\n            marketPrice,\n            notionalAmountDai,\n            newDepositBal,\n            isBuyer\n        );\n\n        if (!ContractForDifferenceLibrary.collateralInRange(notionalAmountDai, collateral)) {\n            revert(REASON_COLLATERAL_RANGE_FAILED);\n        }\n\n        daiTransfer(msg.sender, _withdrawAmount);\n        emit LogCFDTransferFunds(msg.sender, _withdrawAmount);\n\n        if (isBuyer) {\n            buyerDepositBalance = newDepositBal;\n        } else {\n            sellerDepositBalance = newDepositBal;\n        }\n\n        emit LogCFDPartyBalanceUpdate(msg.sender, _withdrawAmount, true, newDepositBal, market);\n    }\n\n    /* NOTE: Split off into modifier to work around 'stack too deep' error */\n    modifier assertWithdrawPreCond(uint _withdrawAmount)\n    {\n        require(_withdrawAmount >= 1, REASON_WITHDRAW_NOT_ENOUGH);\n        require(initiated == true, REASON_MUST_BE_INITIATED);\n        require(closed == false, REASON_MUST_NOT_BE_CLOSED);\n        require(isContractParty(msg.sender), REASON_ONLY_CONTRACT_PARTIES);\n        require(isSelling(msg.sender) == false, REASON_MUST_NOT_BE_SELLER);\n        _;\n    }\n\n    /**\n     * @dev Parties can transfer contract ownership to another address by\n     *      calling this function.\n     * @param _newAddress Addreess of the new party to swap in.\n     */\n    function transferPosition(address _newAddress)\n        external\n        pre_cond(closed == false, REASON_MUST_NOT_BE_CLOSED)\n        pre_cond(isContractParty(msg.sender), REASON_ONLY_CONTRACT_PARTIES)\n        pre_cond(isContractParty(_newAddress) == false, REASON_MUST_NOT_BE_PARTY)\n        pre_cond(isSelling(msg.sender) == false, REASON_MUST_NOT_BE_SELLER)\n    {\n        if (msg.sender == buyer) buyer = _newAddress;\n        else if (msg.sender == seller) seller = _newAddress;\n        else if (msg.sender == upgradeCalledBy) upgradeCalledBy = address(0);\n        ContractForDifferenceRegistry(cfdRegistryAddr).registerParty(_newAddress);\n        emit LogCFDTransferPosition(msg.sender, _newAddress);\n    }\n\n    /**\n     * @dev Position in a contract can be sold to another party. This function\n     *      makes the callers side available for sale. A party can buy the side\n     *      with the buy function.\n     * @param _desiredStrikePrice Sellers desired sell strike price\n     * @param _timeLimit Sale available until this time in UNIX epoch seconds\n     *                  (< now for no limit)\n     */\n    function sellPrepare(uint _desiredStrikePrice, uint _timeLimit)\n        external\n        pre_cond(isContractParty(msg.sender), REASON_ONLY_CONTRACT_PARTIES)\n        pre_cond(isActive(), REASON_MUST_BE_ACTIVE)\n        // reject already marked selling by the caller\n        pre_cond(isSelling(msg.sender) == false, REASON_MUST_NOT_BE_SELLER)\n        pre_cond(_desiredStrikePrice > 0, REASON_MUST_BE_POSITIVE_PRICE)\n    {\n        // calculate cutoff price\n        bool isBuyer = (msg.sender == buyer) ? true : false;\n        uint cutOff = ContractForDifferenceLibrary.cutOffPrice(\n            notionalAmountDai,\n            (isBuyer) ? buyerDepositBalance : sellerDepositBalance,\n            (isBuyer) ? buyerInitialStrikePrice : sellerInitialStrikePrice,\n            isBuyer\n        );\n\n        // mark side on sale\n        uint timeLimit = timeLimitFutureOrZero(_timeLimit);\n        if (msg.sender == buyer) {\n            // check sale strike price is not below liquidation price\n            require(_desiredStrikePrice > cutOff, REASON_MUST_BE_MORE_THAN_CUTOFF);\n            buyerSelling = true;\n            buyerSaleStrikePrice = _desiredStrikePrice;\n            buyerSaleTimeLimit = timeLimit;\n        } else if (msg.sender == seller) {\n            // check sale strike price is not already above liquidation price\n            require(_desiredStrikePrice < cutOff, REASON_MUST_BE_LESS_THAN_CUTOFF);\n            sellerSelling = true;\n            sellerSaleStrikePrice = _desiredStrikePrice;\n            sellerSaleTimeLimit = timeLimit;\n        }\n\n        ContractForDifferenceRegistry(cfdRegistryAddr).registerSale(msg.sender);\n        emit LogCFDSale(\n            msg.sender,\n            _desiredStrikePrice,\n            timeLimit\n        );\n    }\n\n    /**\n     * @dev Seller can update the price on the sale.\n     */\n    function sellUpdate(\n        uint _newPrice\n    )\n        external\n        pre_cond(isActive(), REASON_MUST_BE_ACTIVE)\n        pre_cond(isSelling(msg.sender), REASON_MUST_BE_SELLER)\n        pre_cond(_newPrice > 0, REASON_MUST_BE_POSITIVE_PRICE)\n    {\n        // calculate cutoff price\n        bool isBuyer = (msg.sender == buyer) ? true : false;\n        uint cutOff = ContractForDifferenceLibrary.cutOffPrice(\n            notionalAmountDai,\n            (isBuyer) ? buyerDepositBalance : sellerDepositBalance,\n            (isBuyer) ? buyerInitialStrikePrice : sellerInitialStrikePrice,\n            isBuyer\n        );\n\n        if (msg.sender == buyer) {\n            // check new strike price is not below liquidation price\n            require(_newPrice > cutOff, REASON_MUST_BE_MORE_THAN_CUTOFF);\n            buyerSaleStrikePrice = _newPrice;\n        } else if (msg.sender == seller) {\n            // check new strike price is not already above liquidation price\n            require(_newPrice < cutOff, REASON_MUST_BE_LESS_THAN_CUTOFF);\n            sellerSaleStrikePrice = _newPrice;\n        }\n        emit LogCFDSaleUpdated(msg.sender, _newPrice);\n    }\n\n    /**\n     * @dev Party can update the strike price of an non-initialized contract\n     */\n    function changeStrikePrice(\n        uint _newStrikePrice\n    )\n        external\n        pre_cond(initiated == false, REASON_MUST_NOT_BE_INITIATED)\n        pre_cond(closed == false, REASON_MUST_NOT_BE_CLOSED)\n        pre_cond(isContractParty(msg.sender), REASON_ONLY_CONTRACT_PARTIES)\n        pre_cond(_newStrikePrice > 0, REASON_MUST_BE_POSITIVE_PRICE)\n    {\n        strikePrice = _newStrikePrice;\n        buyerInitialStrikePrice = _newStrikePrice;\n        sellerInitialStrikePrice = _newStrikePrice;\n        emit LogCFDStrikePriceUpdated(msg.sender, _newStrikePrice);\n    }\n\n    /**\n     * @dev Cancel the for sale status setup by sellPrepare()\n     */\n    function sellCancel()\n        external\n        pre_cond(isActive(), REASON_MUST_BE_ACTIVE)\n        pre_cond(isSelling(msg.sender), REASON_MUST_BE_SELLER)\n    {\n        clearSale(msg.sender == buyer);\n        emit LogCFDSaleCancelled(msg.sender);\n    }\n\n    /**\n     * @dev Buy the side in the contract that is for sale.\n     *\n     * @param _buyBuyerSide Buying the buyer side or the seller side?\n     * @param _collateral DAI amount\n     */\n    function buy(bool _buyBuyerSide, uint _collateral)\n        external\n        assertBuyPreCond(_buyBuyerSide)\n    {\n        // check sent collateral falls in the allowable range\n        if (!ContractForDifferenceLibrary.collateralInRange(notionalAmountDai, _collateral))\n            revert(REASON_COLLATERAL_RANGE_FAILED);\n\n        uint marketPrice = latestPrice();\n        uint newStrikePrice = _buyBuyerSide ?\n            buyerSaleStrikePrice :\n            sellerSaleStrikePrice;\n\n        // check new parameters fall in the allowable range\n        if (!marketPriceInRange(\n            marketPrice,\n            _buyBuyerSide ? _collateral : buyerDepositBalance,\n            _buyBuyerSide ? sellerDepositBalance : _collateral,\n            newStrikePrice // buying at this strike price\n        )) {\n            revert(REASON_MARKET_PRICE_RANGE_FAILED);\n        }\n\n        // move ownership of sent DAI to the CFD\n        daiClaim(_collateral);\n\n        // transfer to selling party\n        address sellingParty = _buyBuyerSide ? buyer : seller;\n        uint sellingPartyCollateral = buyTransferFunds(\n            _buyBuyerSide,\n            newStrikePrice,\n            sellingParty\n        );\n\n        // set new party and balances\n        uint remainingPartyDeposits = registry.getDAI().\n            balanceOf(address(this)).sub(_collateral);\n\n        // new notional amount value\n        uint newNotional = ContractForDifferenceLibrary.calculateNewNotional(\n            notionalAmountDai,\n            strikePrice,\n            newStrikePrice\n        );\n\n        if (_buyBuyerSide) {\n            buyer = msg.sender;\n            buyerDepositBalance = _collateral;\n            buyerInitialStrikePrice = newStrikePrice;\n            buyerInitialNotional = newNotional;\n            sellerDepositBalance = remainingPartyDeposits;\n        } else {\n            seller = msg.sender;\n            sellerDepositBalance = _collateral;\n            sellerInitialStrikePrice = newStrikePrice;\n            sellerInitialNotional = newNotional;\n            buyerDepositBalance = remainingPartyDeposits;\n        }\n\n        strikePrice = newStrikePrice;\n        notionalAmountDai = newNotional;\n\n        clearSale(_buyBuyerSide);\n\n        // clean up upgradeCalledBy if the departing party had set that\n        if (upgradeCalledBy == sellingParty) {\n            upgradeCalledBy = address(0);\n        }\n\n        ContractForDifferenceRegistry(cfdRegistryAddr).registerParty(msg.sender);\n        emit LogCFDSold(msg.sender, sellingParty, newNotional, sellingPartyCollateral, _collateral, market);\n    }\n\n    /* NOTE: Split off into modifier to work around 'stack too deep' error */\n    modifier assertBuyPreCond(bool _buyBuyerSide)\n    {\n        require(isActive(), REASON_MUST_BE_ACTIVE);\n        require(isSelling(_buyBuyerSide ? buyer : seller), REASON_MUST_BE_ON_SALE);\n        require(isContractParty(msg.sender) == false, REASON_MUST_NOT_BE_PARTY);\n        _;\n    }\n\n    /**\n     * Does all transfers of funds related to the buy().\n     *\n     * Transfer logic split off in seperate function ONLY to workaround\n     * 'Stack too deep' limit.\n     */\n    function buyTransferFunds(\n        bool buyBuyerSide,\n        uint newStrikePrice,\n        address sellingParty\n    )\n        private\n        returns (uint sellingPartyCollateral)\n    {\n        // determine collateral amount to send to the selling party\n        sellingPartyCollateral = ContractForDifferenceLibrary.calculateCollateralAmount(\n            strikePrice,\n            newStrikePrice,\n            notionalAmountDai,\n            buyBuyerSide ? buyerDepositBalance : sellerDepositBalance,\n            buyBuyerSide\n        );\n\n        // send money to selling party\n        daiTransfer(sellingParty, sellingPartyCollateral);\n        emit LogCFDTransferFunds(sellingParty, sellingPartyCollateral);\n    }\n\n    /**\n     * Daemons will call this routine when the market price has moved enough\n     * that the closeRatio for this contract has been reached. It can\n     * actually be called by anyone who is willing to pay the gas for the\n     * liquidate.\n     *\n     * If the market has not moved past the liquidate threshold the call\n     * will be rejected.\n     *\n     * @dev This will disolve the contract and return each parties balance of\n     * collateral.\n     */\n    function liquidate()\n        external\n        pre_cond(isActive(), REASON_MUST_BE_ACTIVE)\n    {\n        uint marketPrice = latestPrice();\n\n        // #11 double check the 5% threshold was crossed, if not then REJECT\n        // (can only liquidate if out of range)\n        require(\n            !marketPriceInRange(\n                marketPrice,\n                buyerDepositBalance,\n                sellerDepositBalance,\n                strikePrice\n            ),\n            \"Liquidate threshold not yet reached\"\n        );\n\n        // fetch one of the cutoffs to determine which is the winner\n        uint buyerCutOff = ContractForDifferenceLibrary.cutOffPrice(\n            notionalAmountDai,\n            buyerDepositBalance,\n            strikePrice,\n            true\n        );\n\n        // if buyer cutoff still in range then buyer wins, otherwise seller\n        bool winnerIsBuyer = marketPrice > buyerCutOff;\n        address winner = winnerIsBuyer ? buyer : seller;\n\n        // winner takes all\n        uint remaining = registry.getDAI().balanceOf(address(this));\n        daiTransfer(winner, remaining);\n        emit LogCFDTransferFunds(winner, remaining);\n\n        closed = true;\n\n        emit LogCFDClosed(\n            winner,\n            winnerIsBuyer ? remaining : 0,\n            winnerIsBuyer ? 0 : remaining,\n            market\n        );\n    }\n\n    /**\n     * @dev This functions allows a mutual liquiidation of the contract. It\n     *      requires both parties call it. The contract will be liquidated\n     *      when the second party calls it.\n     */\n    function liquidateMutual()\n        external\n        pre_cond(isContractParty(msg.sender), REASON_ONLY_CONTRACT_PARTIES)\n        pre_cond(isActive(), REASON_MUST_BE_ACTIVE)\n        pre_cond(isSelling(msg.sender) == false, REASON_MUST_NOT_BE_SELLER)\n        pre_cond(msg.sender != liquidateMutualCalledBy, REASON_LIQUIDATE_MUTUAL_ALREADY_SET)\n    {\n        // 1st call to initiate liquidateMutual process\n        if (liquidateMutualCalledBy == address(0)) {\n            liquidateMutualCalledBy = msg.sender;\n            return;\n        }\n\n        // 2nd call has been made\n        (uint buyerCollateral, uint sellerCollateral) = liquidateInternal(false);\n\n        liquidatedMutually = true;\n\n        emit LogCFDLiquidateMutual(buyer, seller, buyerCollateral, sellerCollateral);\n    }\n\n    /**\n     * @dev Cancel the intent to liquidate mutually. This reverses a previous\n     * intent to liquidate by the account liquidateMutualCalledBy.\n     */\n    function liquidateMutualCancel()\n        external\n        pre_cond(isActive(), REASON_MUST_BE_ACTIVE)\n        pre_cond(msg.sender == liquidateMutualCalledBy, REASON_MUST_BE_LIQUIDATE_MUTUAL_CALLER)\n    {\n        liquidateMutualCalledBy = address(0);\n        emit LogCFDLiquidateMutualCancelled(msg.sender);\n    }\n\n    /**\n     * Force terminate executed by one party who will penalised 5% of their\n     * collateral. Then penalty will be sent to the counterparty.\n     */\n    function forceTerminate()\n        external\n        pre_cond(isActive(), REASON_MUST_BE_ACTIVE)\n        pre_cond(isContractParty(msg.sender), REASON_ONLY_CONTRACT_PARTIES)\n    {\n        (uint buyerCollateral, uint sellerCollateral) = liquidateInternal(true);\n\n        terminated = true;\n\n        if (msg.sender == buyer)\n            emit LogCFDForceTerminated(buyer, buyerCollateral, seller, sellerCollateral, market);\n        else\n            emit LogCFDForceTerminated(seller, sellerCollateral, buyer, buyerCollateral, market);\n    }\n\n    /**\n     * Liquidate function shared by both forceTerminate and liquidateMutual\n     * that redistributes funds to both parties. Amounts are distributed based\n     * on the current market price. In the case of forceTerminate a fee is\n     * taken from the terminating party and given to the counterparty.\n     */\n    function liquidateInternal(bool liquidateForced)\n        internal\n        pre_cond(isActive(), REASON_MUST_BE_ACTIVE)\n        pre_cond(isContractParty(msg.sender), REASON_ONLY_CONTRACT_PARTIES)\n        returns (uint buyerCollateral, uint sellerCollateral)\n    {\n        uint marketPrice = latestPrice();\n\n        buyerCollateral = ContractForDifferenceLibrary.calculateCollateralAmount(\n            strikePrice,\n            marketPrice,\n            notionalAmountDai,\n            buyerDepositBalance,\n            true\n        );\n        sellerCollateral = ContractForDifferenceLibrary.calculateCollateralAmount(\n            strikePrice,\n            marketPrice,\n            notionalAmountDai,\n            sellerDepositBalance,\n            false\n        );\n\n        //\n        // calculate and check the remainder - it should be equal to zero\n        //\n        // if not expected log the event and transfer the remainder to the\n        //     owner account - it will be sorted out manually\n        //\n        uint balanceRemainder = registry.getDAI().\n            balanceOf(address(this)).\n            sub(buyerCollateral).\n            sub(sellerCollateral);\n        if (balanceRemainder != 0) {\n            emit LogCFDRemainingBalanceUnexpected(balanceRemainder);\n        }\n\n        // Transfer the remainder to the owner account. When balance unexpected\n        // is manually resolved the amount can be redistributed.\n        daiTransfer(registry.owner(), balanceRemainder);\n\n        if (liquidateForced == true) {\n            bool forcingPartyIsBuyer = msg.sender == buyer;\n\n            // penalise the force terminator 5% and give it to the counterparty\n            uint penalty = ContractForDifferenceLibrary.percentOf(\n                forcingPartyIsBuyer ? buyerCollateral : sellerCollateral,\n                FORCE_TERMINATE_PENALTY_PERCENT\n            );\n            if (forcingPartyIsBuyer) {\n                buyerCollateral = buyerCollateral.sub(penalty);\n                sellerCollateral = sellerCollateral.add(penalty);\n            } else {\n                buyerCollateral = buyerCollateral.add(penalty);\n                sellerCollateral = sellerCollateral.sub(penalty);\n            }\n        }\n\n        // Send collateral amounts back each party.\n        daiTransfer(buyer, buyerCollateral);\n        emit LogCFDTransferFunds(buyer, buyerCollateral);\n        daiTransfer(seller, sellerCollateral);\n        emit LogCFDTransferFunds(seller, sellerCollateral);\n\n        closed = true;\n\n        return (buyerCollateral, sellerCollateral);\n    }\n\n\n    /**\n     * @dev Upgrade contract to a new version. This involves creating a new CFD\n     *      at the latest contract set - transferring over all properties and\n     *      value from this one to the new one.\n     *      An upgrade requires a call to this function from both parties. Then\n     *      upgrade will happen when the second party makes the call.\n     */\n    function upgrade()\n        external\n        pre_cond(isContractParty(msg.sender), REASON_ONLY_CONTRACT_PARTIES)\n        pre_cond(isActive(), REASON_MUST_BE_ACTIVE)\n        pre_cond(isSelling(msg.sender) == false, REASON_MUST_NOT_BE_SELLER)\n        pre_cond(msg.sender != upgradeCalledBy, REASON_UPGRADE_ALREADY_SET)\n        pre_cond(registry.allCFDs(address(this)) != registry.getCFDFactoryLatest(), REASON_UPGRADE_ALREADY_LATEST)\n    {\n        // 1st call to initiate upgrade process\n        if (upgradeCalledBy == address(0)) {\n            upgradeCalledBy = msg.sender;\n            return;\n        }\n\n        // if here then then this is the 2nd call, invoked by the opposite, so\n        // kick off the upgrade process\n        upgradeable = true;\n        address cfdFactoryLatest = registry.getCFDFactoryLatest();\n        address newCfd = address(ContractForDifferenceFactory(cfdFactoryLatest).createByUpgrade());\n        daiTransfer(newCfd, registry.getDAI().balanceOf(address(this)));\n        upgradeable = false;\n        closed = true;\n\n        emit LogCFDUpgraded(newCfd);\n    }\n\n    /**\n     * @dev Derive status from the state variables.\n     * @return Status reflecting the current state.\n     */\n    function status()\n        public\n        view\n        returns (Status)\n    {\n        if (closed == true)\n            return Status.CLOSED;\n        else if (initiated == false)\n            return Status.CREATED;\n        else if (isBuyerSelling() || isSellerSelling())\n            return Status.SALE;\n        else\n            return Status.INITIATED;\n    }\n\n    /**\n     * Get the latest read for the market of this CFD.\n     */\n    function latestPrice()\n        internal\n        view\n        returns (uint price)\n    {\n        price = PriceFeeds(feedsAddr).read(market);\n    }\n\n    /**\n     * @dev Checks if given parameters and given market price result in a price\n     *      inside an allowable range. This range is defined by the ContractForDifferenceLibrary.cutOffPrice\n     *      function formulas. The idea is that as parameters change - leverage,\n     *      market price etc., we must check the change doesn't result in a\n     *      liquidation event due to too little collateral.\n     *\n     * @param _marketPrice Current market price\n     * @return true if in range; false if not\n     */\n\n    function marketPriceInRange(\n        uint _marketPrice,\n        uint _buyerDepositBalance,\n        uint _sellerDepositBalance,\n        uint _strikePrice\n    )\n        public\n        view\n        returns (bool inRange)\n    {\n        uint buyerCutOff = ContractForDifferenceLibrary.cutOffPrice(\n            notionalAmountDai,\n            _buyerDepositBalance,\n            _strikePrice,\n            true\n        );\n        uint sellerCutOff = ContractForDifferenceLibrary.cutOffPrice(\n            notionalAmountDai,\n            _sellerDepositBalance,\n            _strikePrice,\n            false\n        );\n        inRange = _marketPrice > buyerCutOff && _marketPrice < sellerCutOff;\n    }\n\n   /**\n     * @dev Calculate new notional amount after a side has been sold at a new\n     *      strike price.\n     *\n     * Formula is:\n     *  N2 = N1 * S2 / S1\n     * Where:\n     *  N1 = previous notional\n     *  S1 = previous strike price\n     *  S2 = sale strike price\n     *\n     * @param _oldNotional Existing notional.\n     * @param _oldStrikePrice Existing strike price.\n     * @param _newStrikePrice New / Sale strike price.\n     * @return newNotional Result of the calculation.\n     */\n    function calculateNewNotional(\n        uint _oldNotional,\n        uint _oldStrikePrice,\n        uint _newStrikePrice\n    )\n        public\n        pure\n        returns (uint newNotional)\n    {\n        newNotional = ContractForDifferenceLibrary.calculateNewNotional(\n            _oldNotional,\n            _oldStrikePrice,\n            _newStrikePrice\n        );\n    }\n\n    /**\n     * @dev Calculate the collateral amount for one party given the current\n     *      market price and original strike price, notional amount and the\n     *      amount the party has deposited into the contract.\n     *\n     * @param _marketPrice Current market price\n     * @param _strikePrice CFD strike price\n     * @param _notionalAmount CFD notional amount\n     * @param _depositBalance Balances of deposits into the contract\n     * @param _isBuyer Buyer or Seller / Long or short party?\n     *\n     * @return collateral Amount of collateral for the party\n     */\n    function calculateCollateralAmount(\n        uint _strikePrice,\n        uint _marketPrice,\n        uint _notionalAmount,\n        uint _depositBalance,\n        bool _isBuyer\n    )\n        public\n        pure\n        returns (uint collateral)\n    {\n        collateral = ContractForDifferenceLibrary.calculateCollateralAmount(\n            _strikePrice,\n            _marketPrice,\n            _notionalAmount,\n            _depositBalance,\n            _isBuyer\n        );\n    }\n\n    /**\n     * @dev Calculate the cut off price for buyer or seller.\n     *\n     * This is the price that if passed would raise a liquidation event.\n     *\n     * Base Formulas are:\n     *     Buyer:  1.05 * S - depositBalanceLong  * S / N\n     *     Seller: 0.95 * S + depositBalanceShort * S / N\n     *\n     * However for Solidity we need to adjust parts by FACTOR_UINT to ensure\n     * no fractions.\n     *\n     * @param _notionalAmountDai Contract notional amount\n     * @param _depositBalance Balance of deposits for one party\n     *\n     * @return cut off price\n     */\n    function cutOffPrice(\n        uint _notionalAmountDai,\n        uint _depositBalance,\n        uint _strikePrice,\n        bool _calcForBuyerSide\n    )\n        public\n        pure\n        returns (uint price)\n    {\n        price = ContractForDifferenceLibrary.cutOffPrice(\n            _notionalAmountDai,\n            _depositBalance,\n            _strikePrice,\n            _calcForBuyerSide\n        );\n    }\n\n    /**\n     * @dev Calculate the change in contract value based on the price change.\n     * @param _currentPrice Current market price\n     */\n    function changeInDai(\n        uint _strikePrice,\n        uint _currentPrice,\n        uint _notionalAmount\n    )\n        public\n        pure\n        returns (uint change)\n    {\n        change = ContractForDifferenceLibrary.changeInDai(\n            _strikePrice,\n            _currentPrice,\n            _notionalAmount\n        );\n    }\n\n    /**\n     * @dev Return a percentage change comparing a value with a new value.\n     * @param _value The existing value to compare against\n     * @param _newValue The new value to compare the change against\n     * @return Percentage change (eg. _value = 100, _newValue = 90 then return 10)\n     */\n    function percentChange(uint _value, uint _newValue)\n        public\n        pure\n        returns (uint percent)\n    {\n        percent = ContractForDifferenceLibrary.percentChange(_value, _newValue);\n    }\n\n    /**\n     * @dev Return a percentage of a given amount.\n     * @param _amount Amount to calculate the percentage of\n     * @param _percent Percent amount (1 - 100)\n     */\n    function percentOf(uint _amount, uint _percent)\n        public\n        pure\n        returns (uint adjusted)\n    {\n        adjusted = ContractForDifferenceLibrary.percentOf(_amount, _percent);\n    }\n\n    /**\n     * Utility that given a time limit will preverve it if in the future OR\n     * set it to 0 if it's in the present or past.\n     */\n    function timeLimitFutureOrZero(\n        uint _timeLimit\n    )\n        private\n        view // not pure because of 'now'\n        returns(uint timeLimit)\n    {\n        timeLimit = (_timeLimit > now) ? _timeLimit : 0;\n    }\n\n    /**\n     * Clear all sale related state.\n     */\n    function clearSale(bool _clearBuyerSide) private {\n        if (_clearBuyerSide) {\n            buyerSaleStrikePrice = 0;\n            buyerSaleTimeLimit = 0;\n            buyerSelling = false;\n        } else {\n            sellerSaleStrikePrice = 0;\n            sellerSaleTimeLimit = 0;\n            sellerSelling = false;\n        }\n    }\n\n    /**\n     * Transfer DAI to an address.\n     */\n    function daiTransfer(address _to, uint _value) private {\n        bytes32 toAddrCodeHash;\n        /* solium-disable security/no-inline-assembly */\n        assembly {\n\t\t\ttoAddrCodeHash := extcodehash(_to)\n        }\n\n        address toAddr;\n        if (registry.getProxyCodeHash() == toAddrCodeHash) {\n            toAddr = DSProxy(address(_to)).owner();\n        } else {\n            toAddr = _to;\n        }\n\n        require(\n            registry.getDAI().transfer(toAddr, _value),\n            REASON_DAI_TRANSFER_FAILED\n        );\n    }\n\n    /**\n     * Claim DAI - ie. move approved DAI to this CFD contract.\n     */\n    function daiClaim(uint _value) private {\n        require(\n            registry.getDAI().transferFrom(msg.sender, address(this), _value),\n            REASON_DAI_TRANSFER_FAILED\n        );\n    }\n\n}\n",
  "sourcePath": "/home/julien/0xFutures/protocol/contracts/cfd/ContractForDifference.sol",
  "compiler": {
    "name": "solc",
    "version": "0.5.6+commit.b259423e.Emscripten.clang"
  },
  "schemaVersion": "3.0.8",
  "updatedAt": "2019-07-22T07:25:29.785Z",
  "devdoc": {
    "methods": {
      "buy(bool,uint256)": {
        "details": "Buy the side in the contract that is for sale.",
        "params": {
          "_buyBuyerSide": "Buying the buyer side or the seller side?",
          "_collateral": "DAI amount"
        }
      },
      "calculateCollateralAmount(uint256,uint256,uint256,uint256,bool)": {
        "details": "Calculate the collateral amount for one party given the current     market price and original strike price, notional amount and the     amount the party has deposited into the contract.",
        "params": {
          "_depositBalance": "Balances of deposits into the contract",
          "_isBuyer": "Buyer or Seller / Long or short party?",
          "_marketPrice": "Current market price",
          "_notionalAmount": "CFD notional amount",
          "_strikePrice": "CFD strike price"
        },
        "return": "collateral Amount of collateral for the party"
      },
      "calculateNewNotional(uint256,uint256,uint256)": {
        "details": "Calculate new notional amount after a side has been sold at a new     strike price.     * Formula is: N2 = N1 * S2 / S1 Where: N1 = previous notional S1 = previous strike price S2 = sale strike price",
        "params": {
          "_newStrikePrice": "New / Sale strike price.",
          "_oldNotional": "Existing notional.",
          "_oldStrikePrice": "Existing strike price."
        },
        "return": "newNotional Result of the calculation."
      },
      "cancelNew()": {
        "details": "Cancels a newly created contract refunding the balance to the party     that created the contract. This can only be called before a contract     is initiated. ie. between the createNew() and deposit() calls."
      },
      "changeInDai(uint256,uint256,uint256)": {
        "details": "Calculate the change in contract value based on the price change.",
        "params": {
          "_currentPrice": "Current market price"
        }
      },
      "changeStrikePrice(uint256)": {
        "details": "Party can update the strike price of an non-initialized contract"
      },
      "createByUpgrade(address,address,address,address)": {
        "details": "Create a new CFDinstance from a previous CFD instance. This is part     of the upgrade process (see CFD.upgrade()).",
        "params": {
          "_cfdAddr": "Address of the existing / old CFD",
          "_cfdRegistryAddr": "Address of CFDRegistry contract",
          "_feedsAddr": "Address of Feeds contract",
          "_registryAddr": "Address of Registry contract"
        }
      },
      "createNew(address,address,address,address,bytes32,uint256,uint256,bool)": {
        "details": "Create a new CFDinstance specifying the terms of the contract.",
        "params": {
          "_cfdRegistryAddr": "CFD Registry contract address",
          "_feedsAddr": "Feeds address",
          "_isBuyer": "Flag indicating if the contract creator wants to take the           buyer (true) or the seller side (false).",
          "_marketId": "Contract is for prices on this market",
          "_notionalAmountDai": "Contract amount",
          "_partyAddr": "Address of the party creating the contract",
          "_registryAddr": "Registry contract address",
          "_strikePrice": "Strike price"
        }
      },
      "cutOffPrice(uint256,uint256,uint256,bool)": {
        "details": "Calculate the cut off price for buyer or seller.     * This is the price that if passed would raise a liquidation event.     * Base Formulas are:    Buyer:  1.05 * S - depositBalanceLong  * S / N    Seller: 0.95 * S + depositBalanceShort * S / N     * However for Solidity we need to adjust parts by FACTOR_UINT to ensure no fractions.",
        "params": {
          "_depositBalance": "Balance of deposits for one party",
          "_notionalAmountDai": "Contract notional amount"
        },
        "return": "cut off price"
      },
      "deposit(uint256)": {
        "details": "Counterparty deposits their funds into the contract thereby joining and initiating the contract."
      },
      "isActive()": {
        "details": "Contract has been initiated (has 2 parties) and not yet terminated.",
        "return": "true if contract is active"
      },
      "isBuyerSelling()": {
        "details": "Is buyer / long party selling.",
        "return": "true if buyer has side up for sale"
      },
      "isContractParty(address)": {
        "details": "Check if the given address is one of the 2 parties of the contract.",
        "params": {
          "_party": "Address to check"
        },
        "return": "true if _party is either the buyer or seller."
      },
      "isSellerSelling()": {
        "details": "Is seller / short party selling.",
        "return": "true if seller has side up for sale"
      },
      "isSelling(address)": {
        "details": "If the given party is selling one side of the contract.",
        "return": "true if the given party is selling"
      },
      "liquidate()": {
        "details": "This will disolve the contract and return each parties balance of collateral."
      },
      "liquidateMutual()": {
        "details": "This functions allows a mutual liquiidation of the contract. It     requires both parties call it. The contract will be liquidated     when the second party calls it."
      },
      "liquidateMutualCancel()": {
        "details": "Cancel the intent to liquidate mutually. This reverses a previous intent to liquidate by the account liquidateMutualCalledBy."
      },
      "marketPriceInRange(uint256,uint256,uint256,uint256)": {
        "details": "Checks if given parameters and given market price result in a price     inside an allowable range. This range is defined by the ContractForDifferenceLibrary.cutOffPrice     function formulas. The idea is that as parameters change - leverage,     market price etc., we must check the change doesn't result in a     liquidation event due to too little collateral.",
        "params": {
          "_marketPrice": "Current market price"
        },
        "return": "true if in range; false if not"
      },
      "percentChange(uint256,uint256)": {
        "details": "Return a percentage change comparing a value with a new value.",
        "params": {
          "_newValue": "The new value to compare the change against",
          "_value": "The existing value to compare against"
        },
        "return": "Percentage change (eg. _value = 100, _newValue = 90 then return 10)"
      },
      "percentOf(uint256,uint256)": {
        "details": "Return a percentage of a given amount.",
        "params": {
          "_amount": "Amount to calculate the percentage of",
          "_percent": "Percent amount (1 - 100)"
        }
      },
      "sellCancel()": {
        "details": "Cancel the for sale status setup by sellPrepare()"
      },
      "sellPrepare(uint256,uint256)": {
        "details": "Position in a contract can be sold to another party. This function     makes the callers side available for sale. A party can buy the side     with the buy function.",
        "params": {
          "_desiredStrikePrice": "Sellers desired sell strike price",
          "_timeLimit": "Sale available until this time in UNIX epoch seconds                 (< now for no limit)"
        }
      },
      "sellUpdate(uint256)": {
        "details": "Seller can update the price on the sale."
      },
      "status()": {
        "details": "Derive status from the state variables.",
        "return": "Status reflecting the current state."
      },
      "topup(uint256)": {
        "details": "Party adds more funds to the contract thereby increasing their     deposit balance.",
        "params": {
          "_value": "DAI amount"
        }
      },
      "transferPosition(address)": {
        "details": "Parties can transfer contract ownership to another address by     calling this function.",
        "params": {
          "_newAddress": "Addreess of the new party to swap in."
        }
      },
      "upgrade()": {
        "details": "Upgrade contract to a new version. This involves creating a new CFD     at the latest contract set - transferring over all properties and     value from this one to the new one.     An upgrade requires a call to this function from both parties. Then     upgrade will happen when the second party makes the call."
      },
      "withdraw(uint256)": {
        "details": "Party withdraws funds from the contract.     They can only withdraw down to an amount that leaves the collateral     to notional difference at 20% or more.",
        "params": {
          "_withdrawAmount": "Amount to withdraw from the deposits balance."
        }
      }
    },
    "title": "Contract for difference * Contract for difference for a given market between a \"buyer\" (long position) and \"seller\" (short position)."
  },
  "userdoc": {
    "methods": {
      "forceTerminate()": {
        "notice": "Force terminate executed by one party who will penalised 5% of their collateral. Then penalty will be sent to the counterparty."
      },
      "getCfdAttributes()": {
        "notice": "Returns an array with all the attributes of the contract (Had to split in 3 functions because of the stack limit) Max number of return values == 8"
      },
      "liquidate()": {
        "notice": "Daemons will call this routine when the market price has moved enough that the closeRatio for this contract has been reached. It can actually be called by anyone who is willing to pay the gas for the liquidate.     * If the market has not moved past the liquidate threshold the call will be rejected."
      }
    }
  }
}