{
  "contractName": "DSProxy",
  "abi": [
    {
      "constant": false,
      "inputs": [
        {
          "name": "owner_",
          "type": "address"
        }
      ],
      "name": "setOwner",
      "outputs": [],
      "payable": false,
      "stateMutability": "nonpayable",
      "type": "function"
    },
    {
      "constant": true,
      "inputs": [],
      "name": "cache",
      "outputs": [
        {
          "name": "",
          "type": "address"
        }
      ],
      "payable": false,
      "stateMutability": "view",
      "type": "function"
    },
    {
      "constant": false,
      "inputs": [
        {
          "name": "authority_",
          "type": "address"
        }
      ],
      "name": "setAuthority",
      "outputs": [],
      "payable": false,
      "stateMutability": "nonpayable",
      "type": "function"
    },
    {
      "constant": true,
      "inputs": [],
      "name": "owner",
      "outputs": [
        {
          "name": "",
          "type": "address"
        }
      ],
      "payable": false,
      "stateMutability": "view",
      "type": "function"
    },
    {
      "constant": true,
      "inputs": [],
      "name": "authority",
      "outputs": [
        {
          "name": "",
          "type": "address"
        }
      ],
      "payable": false,
      "stateMutability": "view",
      "type": "function"
    },
    {
      "inputs": [
        {
          "name": "_cacheAddr",
          "type": "address"
        }
      ],
      "payable": false,
      "stateMutability": "nonpayable",
      "type": "constructor"
    },
    {
      "anonymous": false,
      "inputs": [
        {
          "indexed": false,
          "name": "target",
          "type": "address"
        },
        {
          "indexed": false,
          "name": "data",
          "type": "bytes"
        }
      ],
      "name": "LogParams",
      "type": "event"
    },
    {
      "anonymous": true,
      "inputs": [
        {
          "indexed": true,
          "name": "sig",
          "type": "bytes4"
        },
        {
          "indexed": true,
          "name": "guy",
          "type": "address"
        },
        {
          "indexed": true,
          "name": "foo",
          "type": "bytes32"
        },
        {
          "indexed": true,
          "name": "bar",
          "type": "bytes32"
        },
        {
          "indexed": false,
          "name": "wad",
          "type": "uint256"
        },
        {
          "indexed": false,
          "name": "fax",
          "type": "bytes"
        }
      ],
      "name": "LogNote",
      "type": "event"
    },
    {
      "anonymous": false,
      "inputs": [
        {
          "indexed": true,
          "name": "authority",
          "type": "address"
        }
      ],
      "name": "LogSetAuthority",
      "type": "event"
    },
    {
      "anonymous": false,
      "inputs": [
        {
          "indexed": true,
          "name": "owner",
          "type": "address"
        }
      ],
      "name": "LogSetOwner",
      "type": "event"
    },
    {
      "constant": false,
      "inputs": [
        {
          "name": "_target",
          "type": "address"
        },
        {
          "name": "_data",
          "type": "bytes"
        }
      ],
      "name": "execute",
      "outputs": [
        {
          "name": "response",
          "type": "bytes"
        }
      ],
      "payable": false,
      "stateMutability": "nonpayable",
      "type": "function"
    },
    {
      "constant": false,
      "inputs": [
        {
          "name": "_code",
          "type": "bytes"
        },
        {
          "name": "_data",
          "type": "bytes"
        }
      ],
      "name": "execute",
      "outputs": [
        {
          "name": "target",
          "type": "address"
        },
        {
          "name": "response",
          "type": "bytes"
        }
      ],
      "payable": false,
      "stateMutability": "nonpayable",
      "type": "function"
    },
    {
      "constant": false,
      "inputs": [
        {
          "name": "_cacheAddr",
          "type": "address"
        }
      ],
      "name": "setCache",
      "outputs": [
        {
          "name": "",
          "type": "bool"
        }
      ],
      "payable": false,
      "stateMutability": "nonpayable",
      "type": "function"
    }
  ],
  "bytecode": "0x608060405234801561001057600080fd5b50604051602080610ef28339810180604052602081101561003057600080fd5b5051600180546001600160a01b031916339081179091556040517fce241d7ca1f669fee44b6fc00b8eba2df3bb514eed0f6f668f8f89096e81ed9490600090a261007f8161008660201b60201c565b505061035b565b60006100bc336000357fffffffff000000000000000000000000000000000000000000000000000000001661024160201b60201c565b61012757604080517f08c379a000000000000000000000000000000000000000000000000000000000815260206004820152601460248201527f64732d617574682d756e617574686f72697a6564000000000000000000000000604482015290519081900360640190fd5b604080513480825260208201838152369383018490526004359360243593849286923392600080357fffffffff000000000000000000000000000000000000000000000000000000001693889391929060608201848480828437600083820152604051601f909101601f1916909201829003965090945050505050a46001600160a01b03851661021857604080517f08c379a000000000000000000000000000000000000000000000000000000000815260206004820152601f60248201527f64732d70726f78792d63616368652d616464726573732d726571756972656400604482015290519081900360640190fd5b600280546001600160a01b0387166001600160a01b031990911617905560019350505050919050565b60006001600160a01b03831630141561025c57506001610355565b6001546001600160a01b038481169116141561027a57506001610355565b6000546001600160a01b031661029257506000610355565b600054604080517fb70096130000000000000000000000000000000000000000000000000000000081526001600160a01b0386811660048301523060248301527fffffffff00000000000000000000000000000000000000000000000000000000861660448301529151919092169163b7009613916064808301926020929190829003018186803b15801561032657600080fd5b505afa15801561033a573d6000803e3d6000fd5b505050506040513d602081101561035057600080fd5b505190505b92915050565b610b888061036a6000396000f3fe608060405234801561001057600080fd5b50600436106100885760003560e01c80637a9e5e4b1161005b5780637a9e5e4b146103c25780638da5cb5b146103e8578063948f5076146103f0578063bf7e214f1461042a57610088565b806313af40351461008d5780631cff79cd146100b55780631f6a1eb9146101e057806360c7d2951461039e575b600080fd5b6100b3600480360360208110156100a357600080fd5b50356001600160a01b0316610432565b005b61016b600480360360408110156100cb57600080fd5b6001600160a01b0382351691908101906040810160208201356401000000008111156100f657600080fd5b82018360208201111561010857600080fd5b8035906020019184600183028401116401000000008311171561012a57600080fd5b91908080601f0160208091040260200160405190810160405280939291908181526020018383808284376000920191909152509295506104e6945050505050565b6040805160208082528351818301528351919283929083019185019080838360005b838110156101a557818101518382015260200161018d565b50505050905090810190601f1680156101d25780820380516001836020036101000a031916815260200191505b509250505060405180910390f35b61030d600480360360408110156101f657600080fd5b81019060208101813564010000000081111561021157600080fd5b82018360208201111561022357600080fd5b8035906020019184600183028401116401000000008311171561024557600080fd5b91908080601f016020809104026020016040519081016040528093929190818152602001838380828437600092019190915250929594936020810193503591505064010000000081111561029857600080fd5b8201836020820111156102aa57600080fd5b803590602001918460018302840111640100000000831117156102cc57600080fd5b91908080601f016020809104026020016040519081016040528093929190818152602001838380828437600092019190915250929550610661945050505050565b60405180836001600160a01b03166001600160a01b0316815260200180602001828103825283818151815260200191508051906020019080838360005b8381101561036257818101518382015260200161034a565b50505050905090810190601f16801561038f5780820380516001836020036101000a031916815260200191505b50935050505060405180910390f35b6103a6610842565b604080516001600160a01b039092168252519081900360200190f35b6100b3600480360360208110156103d857600080fd5b50356001600160a01b0316610851565b6103a6610901565b6104166004803603602081101561040657600080fd5b50356001600160a01b0316610910565b604080519115158252519081900360200190f35b6103a6610a61565b610448336000356001600160e01b031916610a70565b6104965760408051600160e51b62461bcd0281526020600482015260146024820152600160621b73191ccb585d5d1a0b5d5b985d5d1a1bdc9a5e995902604482015290519081900360640190fd5b600180546001600160a01b0319166001600160a01b0383811691909117918290556040519116907fce241d7ca1f669fee44b6fc00b8eba2df3bb514eed0f6f668f8f89096e81ed9490600090a250565b60606104fe336000356001600160e01b031916610a70565b61054c5760408051600160e51b62461bcd0281526020600482015260146024820152600160621b73191ccb585d5d1a0b5d5b985d5d1a1bdc9a5e995902604482015290519081900360640190fd5b604080513480825260208201838152369383018490526004359360243593849286923392600080356001600160e01b03191693889391929060608201848480828437600083820152604051601f909101601f1916909201829003965090945050505050a46001600160a01b03861661060e5760408051600160e51b62461bcd02815260206004820181905260248201527f64732d70726f78792d7461726765742d616464726573732d7265717569726564604482015290519081900360640190fd5b600080865160208801896113885a03f43d6040519550601f19601f6020830101168601604052808652806000602088013e81156001811461064e57610655565b8160208801fd5b50505050505092915050565b600254604051600160e21b6322fd14570281526020600482018181528551602484015285516000946060946001600160a01b0390911693638bf4515c93899390928392604490910191908501908083838c5b838110156106cb5781810151838201526020016106b3565b50505050905090810190601f1680156106f85780820380516001836020036101000a031916815260200191505b509250505060206040518083038186803b15801561071557600080fd5b505afa158015610729573d6000803e3d6000fd5b505050506040513d602081101561073f57600080fd5b505191506001600160a01b03821661082f57600254604051600160e11b633f6861d90281526020600482018181528751602484015287516001600160a01b0390941693637ed0c3b293899383926044909201919085019080838360005b838110156107b457818101518382015260200161079c565b50505050905090810190601f1680156107e15780820380516001836020036101000a031916815260200191505b5092505050602060405180830381600087803b15801561080057600080fd5b505af1158015610814573d6000803e3d6000fd5b505050506040513d602081101561082a57600080fd5b505191505b61083982846104e6565b90509250929050565b6002546001600160a01b031681565b610867336000356001600160e01b031916610a70565b6108b55760408051600160e51b62461bcd0281526020600482015260146024820152600160621b73191ccb585d5d1a0b5d5b985d5d1a1bdc9a5e995902604482015290519081900360640190fd5b600080546001600160a01b0319166001600160a01b03838116919091178083556040519116917f1abebea81bfa2637f28358c371278fb15ede7ea8dd28d2e03b112ff6d936ada491a250565b6001546001600160a01b031681565b6000610928336000356001600160e01b031916610a70565b6109765760408051600160e51b62461bcd0281526020600482015260146024820152600160621b73191ccb585d5d1a0b5d5b985d5d1a1bdc9a5e995902604482015290519081900360640190fd5b604080513480825260208201838152369383018490526004359360243593849286923392600080356001600160e01b03191693889391929060608201848480828437600083820152604051601f909101601f1916909201829003965090945050505050a46001600160a01b038516610a385760408051600160e51b62461bcd02815260206004820152601f60248201527f64732d70726f78792d63616368652d616464726573732d726571756972656400604482015290519081900360640190fd5b600280546001600160a01b0387166001600160a01b031990911617905560019350505050919050565b6000546001600160a01b031681565b60006001600160a01b038316301415610a8b57506001610b56565b6001546001600160a01b0384811691161415610aa957506001610b56565b6000546001600160a01b0316610ac157506000610b56565b60005460408051600160e01b63b70096130281526001600160a01b0386811660048301523060248301526001600160e01b0319861660448301529151919092169163b7009613916064808301926020929190829003018186803b158015610b2757600080fd5b505afa158015610b3b573d6000803e3d6000fd5b505050506040513d6020811015610b5157600080fd5b505190505b9291505056fea165627a7a72305820daa6cda2b7f00bdf3316c1372f0325e3081f810b607fac9a4b1175b74848cc430029",
  "source": "// proxy.sol - execute actions atomically through the proxy's identity\r\n\r\n// Copyright (C) 2017  DappHub, LLC\r\n\r\n// This program is free software: you can redistribute it and/or modify\r\n// it under the terms of the GNU General Public License as published by\r\n// the Free Software Foundation, either version 3 of the License, or\r\n// (at your option) any later version.\r\n\r\n// This program is distributed in the hope that it will be useful,\r\n// but WITHOUT ANY WARRANTY; without even the implied warranty of\r\n// MERCHANTABILITY or FITNESS FOR A PARTICULAR PURPOSE.  See the\r\n// GNU General Public License for more details.\r\n\r\n// You should have received a copy of the GNU General Public License\r\n// along with this program.  If not, see <http://www.gnu.org/licenses/>.\r\n\r\npragma solidity >=0.5.0 <0.6.0;\r\n\r\nimport \"./auth.sol\";\r\nimport \"./note.sol\";\r\n\r\n// DSProxy - 0xFutures modifications:\r\n\r\n// - removed all payable keywords and the payable fallback as our proxies\r\n//   don't take or send ETH at all. Additionally solidity would enforce address\r\n//   instances in the CFD to be payable which we don't want.\r\n\r\n// DSProxy - original from dappsys:\r\n\r\n// Allows code execution using a persistant identity This can be very\r\n// useful to execute a sequence of atomic actions. Since the owner of\r\n// the proxy can be changed, this allows for dynamic ownership models\r\n// i.e. a multisig\r\ncontract DSProxy is DSAuth, DSNote {\r\n    event LogParams(address target, bytes data);\r\n\r\n    DSProxyCache public cache;  // global cache for contracts\r\n\r\n    constructor(address _cacheAddr) public {\r\n        setCache(_cacheAddr);\r\n    }\r\n\r\n    // use the proxy to execute calldata _data on contract _code\r\n    function execute(bytes memory _code, bytes memory _data)\r\n        public\r\n        returns (address target, bytes memory response)\r\n    {\r\n        target = cache.read(_code);\r\n        if (target == address(0)) {\r\n            // deploy contract & store its address in cache\r\n            target = cache.write(_code);\r\n        }\r\n\r\n        response = execute(target, _data);\r\n    }\r\n\r\n    function execute(address _target, bytes memory _data)\r\n        public\r\n        auth\r\n        note\r\n        returns (bytes memory response)\r\n    {\r\n        // emit LogParams(_target, _data);\r\n        require(_target != address(0), \"ds-proxy-target-address-required\");\r\n\r\n        // call contract in current context\r\n        /* solium-disable security/no-inline-assembly */\r\n        assembly {\r\n            let succeeded := delegatecall(sub(gas, 5000), _target, add(_data, 0x20), mload(_data), 0, 0)\r\n            let size := returndatasize\r\n\r\n            response := mload(0x40)\r\n            mstore(0x40, add(response, and(add(add(size, 0x20), 0x1f), not(0x1f))))\r\n            mstore(response, size)\r\n            returndatacopy(add(response, 0x20), 0, size)\r\n\r\n            switch iszero(succeeded)\r\n            case 1 {\r\n                // throw if delegatecall failed\r\n                revert(add(response, 0x20), size)\r\n            }\r\n        }\r\n    }\r\n\r\n    //set new cache\r\n    function setCache(address _cacheAddr)\r\n        public\r\n        auth\r\n        note\r\n        returns (bool)\r\n    {\r\n        require(_cacheAddr != address(0), \"ds-proxy-cache-address-required\");\r\n        cache = DSProxyCache(_cacheAddr);  // overwrite cache\r\n        return true;\r\n    }\r\n}\r\n\r\n// DSProxyFactory\r\n// This factory deploys new proxy instances through build()\r\n// Deployed proxy addresses are logged\r\ncontract DSProxyFactory {\r\n    event Created(address indexed sender, address indexed owner, address proxy, address cache);\r\n    mapping(address=>bool) public isProxy;\r\n    DSProxyCache public cache;\r\n\r\n    constructor() public {\r\n        cache = new DSProxyCache();\r\n    }\r\n\r\n    // deploys a new proxy instance\r\n    // sets owner of proxy to caller\r\n    function build() public returns (address proxy) {\r\n        proxy = build(msg.sender);\r\n    }\r\n\r\n    // deploys a new proxy instance\r\n    // sets custom owner of proxy\r\n    function build(address owner) public returns (address proxy) {\r\n        proxy = address(new DSProxy(address(cache)));\r\n        emit Created(msg.sender, owner, address(proxy), address(cache));\r\n        DSProxy(proxy).setOwner(owner);\r\n        isProxy[proxy] = true;\r\n    }\r\n}\r\n\r\n// DSProxyCache\r\n// This global cache stores addresses of contracts previously deployed\r\n// by a proxy. This saves gas from repeat deployment of the same\r\n// contracts and eliminates blockchain bloat.\r\n\r\n// By default, all proxies deployed from the same factory store\r\n// contracts in the same cache. The cache a proxy instance uses can be\r\n// changed.  The cache uses the sha3 hash of a contract's bytecode to\r\n// lookup the address\r\ncontract DSProxyCache {\r\n    mapping(bytes32 => address) cache;\r\n\r\n    function read(bytes memory _code) public view returns (address) {\r\n        bytes32 hash = keccak256(_code);\r\n        return cache[hash];\r\n    }\r\n\r\n    function write(bytes memory _code) public returns (address target) {\r\n        /* solium-disable security/no-inline-assembly */\r\n        assembly {\r\n            target := create(0, add(_code, 0x20), mload(_code))\r\n            switch iszero(extcodesize(target))\r\n            case 1 {\r\n                // throw if contract failed to deploy\r\n                revert(0, 0)\r\n            }\r\n        }\r\n        bytes32 hash = keccak256(_code);\r\n        cache[hash] = target;\r\n    }\r\n}\r\n",
  "sourcePath": "D:\\Users\\Julien\\Desktop\\Work\\0xFutures\\protocol\\contracts\\dappsys\\proxy.sol",
  "compiler": {
    "name": "solc",
    "version": "0.5.6+commit.b259423e.Emscripten.clang"
  },
  "schemaVersion": "3.0.8",
  "updatedAt": "2019-05-16T06:11:23.325Z",
  "devdoc": {
    "methods": {}
  },
  "userdoc": {
    "methods": {}
  }
}