{
  "contractName": "EthUsdMaker",
  "abi": [
    {
      "constant": true,
      "inputs": [],
      "name": "read",
      "outputs": [
        {
          "name": "",
          "type": "bytes32"
        }
      ],
      "payable": false,
      "stateMutability": "view",
      "type": "function"
    },
    {
      "constant": false,
      "inputs": [
        {
          "name": "_price",
          "type": "bytes32"
        }
      ],
      "name": "put",
      "outputs": [],
      "payable": false,
      "stateMutability": "nonpayable",
      "type": "function"
    }
  ],
  "bytecode": "0x608060405234801561001057600080fd5b5060a28061001f6000396000f3fe6080604052348015600f57600080fd5b506004361060325760003560e01c806357de26a4146037578063e3a8f7c614604f575b600080fd5b603d606b565b60408051918252519081900360200190f35b606960048036036020811015606357600080fd5b50356071565b005b60005490565b60005556fea165627a7a72305820699be931a843547095f7f2003244f800707058f1b876098d9cf5f916563879400029",
  "source": "pragma solidity ^0.5.0;\r\n\r\n/**\r\n * Mock version of the MakerDAO medianizer price feeds contract for getting the\r\n * ETHUSD price in test and development.\r\n *\r\n * See also interface contracts/feeds/EthUsdMakerInterface.sol.\r\n */\r\ncontract EthUsdMaker {\r\n    bytes32 price;\r\n\r\n    function read() public view returns (bytes32) {\r\n        return price;\r\n    }\r\n\r\n    function put(bytes32 _price) external {\r\n        price = _price;\r\n    }\r\n\r\n}\r\n",
  "sourcePath": "D:/Users/Julien/Desktop/Work/0xFutures/protocol/contracts/mock/EthUsdMaker.sol",
  "compiler": {
    "name": "solc",
    "version": "0.5.6+commit.b259423e.Emscripten.clang"
  },
  "schemaVersion": "3.0.8",
  "updatedAt": "2019-05-16T06:11:23.345Z",
  "devdoc": {
    "methods": {}
  },
  "userdoc": {
    "methods": {},
    "notice": "Mock version of the MakerDAO medianizer price feeds contract for getting the\r ETHUSD price in test and development.\r  * See also interface contracts/feeds/EthUsdMakerInterface.sol.\r"
  }
}