{
  "contractName": "EthUsdMaker",
  "abi": [
    {
      "constant": true,
      "inputs": [],
      "name": "read",
      "outputs": [
        {
          "name": "",
          "type": "bytes32"
        }
      ],
      "payable": false,
      "stateMutability": "view",
      "type": "function"
    },
    {
      "constant": false,
      "inputs": [
        {
          "name": "_price",
          "type": "bytes32"
        }
      ],
      "name": "put",
      "outputs": [],
      "payable": false,
      "stateMutability": "nonpayable",
      "type": "function"
    }
  ],
  "bytecode": "0x608060405234801561001057600080fd5b5060a28061001f6000396000f3fe6080604052348015600f57600080fd5b506004361060325760003560e01c806357de26a4146037578063e3a8f7c614604f575b600080fd5b603d606b565b60408051918252519081900360200190f35b606960048036036020811015606357600080fd5b50356071565b005b60005490565b60005556fea165627a7a7230582044c790575a75538dab2999d94b2f2d6cf2417f6fbb2248aad84df910b856198f0029",
  "source": "pragma solidity ^0.5.0;\n\n/**\n * Mock version of the MakerDAO medianizer price feeds contract for getting the\n * ETHUSD price in test and development.\n *\n * See also interface contracts/feeds/EthUsdMakerInterface.sol.\n */\ncontract EthUsdMaker {\n    bytes32 price;\n\n    function read() public view returns (bytes32) {\n        return price;\n    }\n\n    function put(bytes32 _price) external {\n        price = _price;\n    }\n\n}\n",
  "sourcePath": "/home/julien/0xFutures/protocol-master/contracts/mock/EthUsdMaker.sol",
  "compiler": {
    "name": "solc",
    "version": "0.5.6+commit.b259423e.Emscripten.clang"
  },
  "schemaVersion": "3.0.8",
  "updatedAt": "2019-06-04T07:28:12.764Z",
  "devdoc": {
    "methods": {}
  },
  "userdoc": {
    "methods": {},
    "notice": "Mock version of the MakerDAO medianizer price feeds contract for getting the ETHUSD price in test and development. * See also interface contracts/feeds/EthUsdMakerInterface.sol."
  }
}