{
  "contractName": "Feeds",
  "abi": [
    {
      "constant": true,
      "inputs": [],
      "name": "daemonAccount",
      "outputs": [
        {
          "name": "",
          "type": "address"
        }
      ],
      "payable": false,
      "stateMutability": "view",
      "type": "function"
    },
    {
      "constant": true,
      "inputs": [],
      "name": "decimals",
      "outputs": [
        {
          "name": "",
          "type": "uint256"
        }
      ],
      "payable": false,
      "stateMutability": "view",
      "type": "function"
    },
    {
      "constant": true,
      "inputs": [
        {
          "name": "",
          "type": "bytes32"
        }
      ],
      "name": "marketNames",
      "outputs": [
        {
          "name": "",
          "type": "string"
        }
      ],
      "payable": false,
      "stateMutability": "view",
      "type": "function"
    },
    {
      "constant": false,
      "inputs": [],
      "name": "renounceOwnership",
      "outputs": [],
      "payable": false,
      "stateMutability": "nonpayable",
      "type": "function"
    },
    {
      "constant": true,
      "inputs": [
        {
          "name": "",
          "type": "bytes32"
        }
      ],
      "name": "markets",
      "outputs": [
        {
          "name": "",
          "type": "bool"
        }
      ],
      "payable": false,
      "stateMutability": "view",
      "type": "function"
    },
    {
      "constant": true,
      "inputs": [],
      "name": "owner",
      "outputs": [
        {
          "name": "",
          "type": "address"
        }
      ],
      "payable": false,
      "stateMutability": "view",
      "type": "function"
    },
    {
      "constant": false,
      "inputs": [
        {
          "name": "_newOwner",
          "type": "address"
        }
      ],
      "name": "transferOwnership",
      "outputs": [],
      "payable": false,
      "stateMutability": "nonpayable",
      "type": "function"
    },
    {
      "payable": false,
      "stateMutability": "nonpayable",
      "type": "fallback"
    },
    {
      "anonymous": false,
      "inputs": [
        {
          "indexed": true,
          "name": "bytesId",
          "type": "bytes32"
        },
        {
          "indexed": false,
          "name": "strId",
          "type": "string"
        }
      ],
      "name": "LogFeedsMarketAdded",
      "type": "event"
    },
    {
      "anonymous": false,
      "inputs": [
        {
          "indexed": true,
          "name": "marketId",
          "type": "bytes32"
        }
      ],
      "name": "LogFeedsMarketRemoved",
      "type": "event"
    },
    {
      "anonymous": false,
      "inputs": [
        {
          "indexed": true,
          "name": "marketId",
          "type": "bytes32"
        },
        {
          "indexed": true,
          "name": "timestamp",
          "type": "uint256"
        },
        {
          "indexed": false,
          "name": "value",
          "type": "uint256"
        }
      ],
      "name": "LogFeedsPush",
      "type": "event"
    },
    {
      "anonymous": false,
      "inputs": [
        {
          "indexed": true,
          "name": "previousOwner",
          "type": "address"
        }
      ],
      "name": "OwnershipRenounced",
      "type": "event"
    },
    {
      "anonymous": false,
      "inputs": [
        {
          "indexed": true,
          "name": "previousOwner",
          "type": "address"
        },
        {
          "indexed": true,
          "name": "newOwner",
          "type": "address"
        }
      ],
      "name": "OwnershipTransferred",
      "type": "event"
    },
    {
      "constant": true,
      "inputs": [
        {
          "name": "_marketId",
          "type": "bytes32"
        }
      ],
      "name": "isMarketActive",
      "outputs": [
        {
          "name": "",
          "type": "bool"
        }
      ],
      "payable": false,
      "stateMutability": "view",
      "type": "function"
    },
    {
      "constant": true,
      "inputs": [],
      "name": "isDaemon",
      "outputs": [
        {
          "name": "",
          "type": "bool"
        }
      ],
      "payable": false,
      "stateMutability": "view",
      "type": "function"
    },
    {
      "constant": false,
      "inputs": [
        {
          "name": "_daemon",
          "type": "address"
        }
      ],
      "name": "setDaemonAccount",
      "outputs": [],
      "payable": false,
      "stateMutability": "nonpayable",
      "type": "function"
    },
    {
      "constant": false,
      "inputs": [
        {
          "name": "_marketId",
          "type": "bytes32"
        },
        {
          "name": "_value",
          "type": "uint256"
        },
        {
          "name": "_timestamp",
          "type": "uint256"
        }
      ],
      "name": "push",
      "outputs": [],
      "payable": false,
      "stateMutability": "nonpayable",
      "type": "function"
    },
    {
      "constant": true,
      "inputs": [
        {
          "name": "_marketId",
          "type": "bytes32"
        }
      ],
      "name": "read",
      "outputs": [
        {
          "name": "value",
          "type": "uint256"
        },
        {
          "name": "timestamp",
          "type": "uint256"
        }
      ],
      "payable": false,
      "stateMutability": "view",
      "type": "function"
    },
    {
      "constant": false,
      "inputs": [
        {
          "name": "_marketStrId",
          "type": "string"
        }
      ],
      "name": "addMarket",
      "outputs": [
        {
          "name": "marketId",
          "type": "bytes32"
        }
      ],
      "payable": false,
      "stateMutability": "nonpayable",
      "type": "function"
    },
    {
      "constant": false,
      "inputs": [
        {
          "name": "_marketId",
          "type": "bytes32"
        }
      ],
      "name": "removeMarket",
      "outputs": [],
      "payable": false,
      "stateMutability": "nonpayable",
      "type": "function"
    }
  ],
  "bytecode": "0x6080604052601e60015560008054600160a060020a03191633179055610c098061002a6000396000f3006080604052600436106100cf5763ffffffff7c01000000000000000000000000000000000000000000000000000000006000350416630baeb69a8114610195578063313ce567146101c657806341955214146101ed57806342fe66951461027a5780635c5212dd1461029a57806361da1439146102b4578063715018a6146102e55780637564912b146102fa57806380957015146103265780638da5cb5b1461033b57806392f4b0b314610350578063e649d78c1461036e578063f2fde38b1461038f578063f4463db5146103b0575b3480156100db57600080fd5b50604080518082018252601c81527f43616e27742063616c6c2066616c6c6261636b2066756e6374696f6e000000006020808301918252925160e560020a62461bcd0281526004810193845282516024820152825192939283926044909201919080838360005b8381101561015a578181015183820152602001610142565b50505050905090810190601f1680156101875780820380516001836020036101000a031916815260200191505b509250505060405180910390fd5b3480156101a157600080fd5b506101aa6103c8565b60408051600160a060020a039092168252519081900360200190f35b3480156101d257600080fd5b506101db6103d7565b60408051918252519081900360200190f35b3480156101f957600080fd5b506102056004356103dd565b6040805160208082528351818301528351919283929083019185019080838360005b8381101561023f578181015183820152602001610227565b50505050905090810190601f16801561026c5780820380516001836020036101000a031916815260200191505b509250505060405180910390f35b34801561028657600080fd5b506101db6004803560248101910135610478565b3480156102a657600080fd5b506102b260043561059b565b005b3480156102c057600080fd5b506102cc6004356106dc565b6040805192835260208301919091528051918290030190f35b3480156102f157600080fd5b506102b26107ae565b34801561030657600080fd5b5061031260043561081a565b604080519115158252519081900360200190f35b34801561033257600080fd5b5061031261082f565b34801561034757600080fd5b506101aa610841565b34801561035c57600080fd5b506102b2600435602435604435610850565b34801561037a57600080fd5b506102b2600160a060020a0360043516610a30565b34801561039b57600080fd5b506102b2600160a060020a0360043516610a76565b3480156103bc57600080fd5b50610312600435610a99565b600454600160a060020a031681565b60015481565b60036020908152600091825260409182902080548351601f6002600019610100600186161502019093169290920491820184900484028101840190945280845290918301828280156104705780601f1061044557610100808354040283529160200191610470565b820191906000526020600020905b81548152906001019060200180831161045357829003601f168201915b505050505081565b60008054600160a060020a0316331461049057600080fd5b8282604051602001808383808284378201915050925050506040516020818303038152906040526040518082805190602001908083835b602083106104e65780518252601f1990920191602091820191016104c7565b51815160001960209485036101000a019081169019919091161790526040805194909201849003909320600081815260028552828120805460ff1916600117905560039094529220919450610542935090915085905084610b45565b50604080516020808252810184905282917fec0192f611133301ab5dd94a415ca4ed865668ca2f52cceee52eaa561044bafa9186918691908190810184848082843760405192018290039550909350505050a292915050565b600054600160a060020a031633146105b257600080fd5b6105bb81610a99565b606060405190810160405280602581526020017f4d61726b6574206d7573742062652061637469766520746f207075736820612081526020017f76616c7565000000000000000000000000000000000000000000000000000000815250818190151561066c5760405160e560020a62461bcd0281526004018080602001828103825283818151815260200191508051906020019080838360008381101561015a578181015183820152602001610142565b506000838152600260209081526040808320805460ff19169055805180820182528381528083018481528785526005909352818420905181559151600192909201919091555184917f1de4d777747a0fae0f827374bf2373391fee95df6f6fc3e24af9c7ca46ecd37291a2505050565b6000806106e883610a99565b606060405190810160405280602581526020017f4d61726b6574206d7573742062652061637469766520746f207075736820612081526020017f76616c756500000000000000000000000000000000000000000000000000000081525081819015156107995760405160e560020a62461bcd0281526004018080602001828103825283818151815260200191508051906020019080838360008381101561015a578181015183820152602001610142565b506107a385610aae565b935093505050915091565b600054600160a060020a031633146107c557600080fd5b60008054604051600160a060020a03909116917ff8df31144d9c2f0f6b59d69b8b98abd5459d07f2742c4df920b25aae33c6482091a26000805473ffffffffffffffffffffffffffffffffffffffff19169055565b60026020526000908152604090205460ff1681565b600454600160a060020a031633145b90565b600054600160a060020a031681565b61085861082f565b606060405190810160405280602481526020017f43616c6c6572206d75737420626520746865207265676973746572656420446181526020017f656d6f6e0000000000000000000000000000000000000000000000000000000081525081819015156109095760405160e560020a62461bcd0281526004018080602001828103825283818151815260200191508051906020019080838360008381101561015a578181015183820152602001610142565b5061091385610a99565b606060405190810160405280602581526020017f4d61726b6574206d7573742062652061637469766520746f207075736820612081526020017f76616c756500000000000000000000000000000000000000000000000000000081525081819015156109c45760405160e560020a62461bcd0281526004018080602001828103825283818151815260200191508051906020019080838360008381101561015a578181015183820152602001610142565b50604080518082018252878152602080820188815260008b81526005835284902092518355516001909201919091558151888152915187928a927f62a9ea16f13bd1758296411634390e5cfe2b3879cb368388a74714a03698cbd992918290030190a350505050505050565b600054600160a060020a03163314610a4757600080fd5b6004805473ffffffffffffffffffffffffffffffffffffffff1916600160a060020a0392909216919091179055565b600054600160a060020a03163314610a8d57600080fd5b610a9681610ac8565b50565b60009081526002602052604090205460ff1690565b600090815260056020526040902080546001909101549091565b600160a060020a0381161515610add57600080fd5b60008054604051600160a060020a03808516939216917f8be0079c531659141344cd1fd0a4f28419497f9722a3daafe3b4186f6b6457e091a36000805473ffffffffffffffffffffffffffffffffffffffff1916600160a060020a0392909216919091179055565b828054600181600116156101000203166002900490600052602060002090601f016020900481019282601f10610b865782800160ff19823516178555610bb3565b82800160010185558215610bb3579182015b82811115610bb3578235825591602001919060010190610b98565b50610bbf929150610bc3565b5090565b61083e91905b80821115610bbf5760008155600101610bc95600a165627a7a723058201dd7f66cbfaa4ff567576223dca3caaf2a8086f60881a4d23d935eb3802963920029",
  "source": "pragma solidity ^0.4.23;\r\npragma experimental \"v0.5.0\";\r\n\r\nimport \"openzeppelin-solidity/contracts/ownership/Ownable.sol\";\r\nimport \"./DBC.sol\";\r\n\r\n\r\ncontract Feeds is DBC, Ownable {\r\n\r\n    event LogFeedsMarketAdded(bytes32 indexed bytesId, string strId);\r\n    event LogFeedsMarketRemoved(bytes32 indexed marketId);\r\n    event LogFeedsPush(bytes32 indexed marketId, uint indexed timestamp, uint value);\r\n\r\n    string constant REASON_MUST_BE_FROM_DAEMON = \"Caller must be the registered Daemon\";\r\n    string constant REASON_MUST_BE_ACTIVE_MARKET = \"Market must be active to push a value\";\r\n    string constant REASON_FALLBACK = \"Can't call fallback function\";\r\n\r\n    /**\r\n     * As solidity doesn't support storing floats we'll store values as integers\r\n     * adjusted by a predetermined number of decimals.\r\n     *\r\n     * For example if decimals is 18 then:\r\n     *  1.23456789 is stored as 1234567890000000000.\r\n     *\r\n     * For now we have one fixed for all markets. Later we'll likely need to\r\n     * support a different number for some markets.\r\n     */\r\n    uint public decimals = 30;\r\n\r\n\r\n    /**\r\n     * Active markets - market active if markets[market_id] is true\r\n     */\r\n    mapping(bytes32 => bool) public markets;\r\n\r\n    function isMarketActive(bytes32 _marketId) public view returns (bool) {\r\n        return markets[_marketId];\r\n    }\r\n\r\n    /**\r\n     * Mapping from the market id to the string form. eg. \"Poloniex_BTC_ETH\"\r\n     */\r\n    mapping(bytes32 => string) public marketNames;\r\n\r\n\r\n    /**\r\n     * Daemon - account that pushes new price feed values\r\n     */\r\n    address public daemonAccount;\r\n\r\n    function isDaemon() public view returns (bool) {\r\n        return msg.sender == daemonAccount;\r\n    }\r\n\r\n    function setDaemonAccount(address _daemon) public onlyOwner {\r\n        daemonAccount = _daemon;\r\n    }\r\n\r\n\r\n    /**\r\n     * Feed data - by market\r\n     */\r\n    struct DataPoint {\r\n        uint value;       // original value * (10**decimals)\r\n        uint timestamp;   // UNIX milliseconds\r\n    }\r\n    mapping(bytes32 => DataPoint) latestData;\r\n\r\n\r\n    /**\r\n     * Push value and timestamp of read into the contract.\r\n     * @param _value Read value * (10^decimals). See decimal description above.\r\n     * @param _timestamp UNIX milliseconds timestamp of the read\r\n     */\r\n    function push(\r\n        bytes32 _marketId,\r\n        uint _value,\r\n        uint _timestamp\r\n    )\r\n        external\r\n        pre_cond(isDaemon(), REASON_MUST_BE_FROM_DAEMON)\r\n        pre_cond(isMarketActive(_marketId), REASON_MUST_BE_ACTIVE_MARKET)\r\n    {\r\n        latestData[_marketId] = DataPoint(_value, _timestamp);\r\n        emit LogFeedsPush(_marketId, _timestamp, _value);\r\n    }\r\n\r\n    /**\r\n     * Read the latest value and timestamp from the contract.\r\n     */\r\n    function read(bytes32 _marketId)\r\n        external\r\n        view\r\n        pre_cond(isMarketActive(_marketId), REASON_MUST_BE_ACTIVE_MARKET)\r\n        returns (uint value, uint timestamp)\r\n    {\r\n        return readInternal(_marketId);\r\n    }\r\n\r\n    function readInternal(bytes32 _marketId)\r\n        internal\r\n        view\r\n        returns (uint value, uint timestamp)\r\n    {\r\n        value = latestData[_marketId].value;\r\n        timestamp = latestData[_marketId].timestamp;\r\n    }\r\n\r\n\r\n    /**\r\n     * Add a new market\r\n     * @param _marketStrId String id of market something like \"Poloniex_BTC_ETH\"\r\n     * @return marketId bytes32 keccak256 of the _marketStrId\r\n     */\r\n    function addMarket(string _marketStrId)\r\n        external\r\n        onlyOwner\r\n        returns (bytes32 marketId)\r\n    {\r\n        marketId = keccak256(abi.encodePacked(_marketStrId));\r\n        markets[marketId] = true;\r\n        marketNames[marketId] = _marketStrId;\r\n        emit LogFeedsMarketAdded(marketId, _marketStrId);\r\n    }\r\n\r\n    /**\r\n     * Removes a market.\r\n     */\r\n    function removeMarket(bytes32 _marketId)\r\n        external\r\n        onlyOwner\r\n        pre_cond(isMarketActive(_marketId), REASON_MUST_BE_ACTIVE_MARKET)\r\n    {\r\n        markets[_marketId] = false;\r\n        latestData[_marketId] = DataPoint(0, 0);\r\n        emit LogFeedsMarketRemoved(_marketId);\r\n        // TODO: provide a withdraw and mark balances\r\n    }\r\n\r\n    // Disable the fallback\r\n    function () external {\r\n        revert(REASON_FALLBACK);\r\n    }\r\n\r\n}\r\n",
  "sourcePath": "D:\\Users\\Julien\\Desktop\\Work\\0xFutures\\protocol\\contracts\\Feeds.sol",
  "compiler": {
    "name": "solc",
    "version": "0.4.24+commit.e67f0147.Emscripten.clang"
  },
  "schemaVersion": "2.0.1",
  "updatedAt": "2018-12-11T13:18:02.971Z"
}