{
  "contractName": "ForwardFactory",
  "abi": [
    {
      "anonymous": false,
      "inputs": [
        {
          "indexed": false,
          "name": "forwarderAddress",
          "type": "address"
        },
        {
          "indexed": false,
          "name": "targetContract",
          "type": "address"
        }
      ],
      "name": "LogForwarderDeployed",
      "type": "event"
    },
    {
      "constant": false,
      "inputs": [
        {
          "name": "_target",
          "type": "address"
        }
      ],
      "name": "createForwarder",
      "outputs": [
        {
          "name": "fwdContract",
          "type": "address"
        }
      ],
      "payable": false,
      "stateMutability": "nonpayable",
      "type": "function"
    }
  ],
  "bytecode": "0x608060405234801561001057600080fd5b50610160806100206000396000f3fe608060405234801561001057600080fd5b506004361061002b5760003560e01c80639193ba0b14610030575b600080fd5b6100566004803603602081101561004657600080fd5b50356001600160a01b0316610072565b604080516001600160a01b039092168252519081900360200190f35b6040517f602e600c600039602e6000f33660006000376101006000366000730000000000808252600160601b6001600160a01b03841602601b8301819052600160a81b6a5af41558576101006000f302602f8401819052600093909190603a8186f09450843b80156100e3576100e5565bfe5b5050604080516001600160a01b0380871682528716602082015281517fe3b17932c50c6e05c2f75f7e045a5fc54b3ac85ce2c29134028227ba28b7d73e929181900390910190a150505091905056fea165627a7a723058206bafc650e0d61c23b38cb7b6305aee17b619473dddb5ad337c8857cd856cd0bc0029",
  "source": "pragma solidity ^0.5.0;\n\n/**\n * Factory creating DELETECALL forwarding contracts.\n *\n * This implementation is from:\n *  https://gist.github.com/izqui/7f904443e6d19c1ab52ec7f5ad46b3a8\n */\ncontract ForwardFactory {\n\n    event LogForwarderDeployed(address forwarderAddress, address targetContract);\n\n    function createForwarder(address _target) public returns (address fwdContract) {\n        /*\n           Bytecode origin https://www.reddit.com/r/ethereum/comments/6ic49q/any_assembly_programmers_willing_to_write_a/dj5ceuw/\n\n            CALLDATASIZE\n            PUSH1 0x00\n            PUSH1 0x00\n            CALLDATACOPY\n            PUSH2 0x1000\n            PUSH1 0x00\n            CALLDATASIZE\n            PUSH1 0x00\n            PUSH20 0xf00df00df00df00df00df00df00df00df00df00d // placeholder address\n            GAS\n            DELEGATE_CALL\n            ISZERO\n            PC\n            JUMPI\n            PUSH2 0x1000\n            PUSH1 0x00\n            RETURN\n        */\n        bytes32 b1 = 0x602e600c600039602e6000f33660006000376101006000366000730000000000; // length 27 bytes = 1b\n        bytes32 b2 = 0x5af41558576101006000f3000000000000000000000000000000000000000000; // length 11 bytes\n\n        uint256 shiftedAddress = uint256(_target) * ((2 ** 8) ** 12);   // Shift address 12 bytes to the left\n\n        /*\n         * SOLIUM DISABLE no-inline-assembly error. How else to cheaply do this?\n         */\n\n        /* solium-disable security/no-inline-assembly */\n        assembly {\n            let contractCode := mload(0x40)                 // Find empty storage location using \"free memory pointer\"\n            mstore(contractCode, b1)                        // We add the first part of the bytecode\n            mstore(add(contractCode, 0x1b), shiftedAddress) // Add target address\n            mstore(add(contractCode, 0x2f), b2)             // Final part of bytecode\n            fwdContract := create(0, contractCode, 0x3A)    // total length 58 dec = 3a\n            switch extcodesize(fwdContract) case 0 { invalid() }\n        }\n\n        emit LogForwarderDeployed(fwdContract, _target);\n    }\n\n}\n",
  "sourcePath": "/home/julien/0xFutures/protocol/contracts/ForwardFactory.sol",
  "compiler": {
    "name": "solc",
    "version": "0.5.6+commit.b259423e.Emscripten.clang"
  },
  "schemaVersion": "3.0.8",
  "updatedAt": "2019-06-07T11:54:35.746Z",
  "devdoc": {
    "methods": {}
  },
  "userdoc": {
    "methods": {},
    "notice": "Factory creating DELETECALL forwarding contracts. * This implementation is from: https://gist.github.com/izqui/7f904443e6d19c1ab52ec7f5ad46b3a8"
  }
}