{
  "contractName": "KyberFacade",
  "abi": [
    {
      "constant": false,
      "inputs": [],
      "name": "renounceOwnership",
      "outputs": [],
      "payable": false,
      "stateMutability": "nonpayable",
      "type": "function"
    },
    {
      "constant": true,
      "inputs": [],
      "name": "registry",
      "outputs": [
        {
          "name": "",
          "type": "address"
        }
      ],
      "payable": false,
      "stateMutability": "view",
      "type": "function"
    },
    {
      "constant": true,
      "inputs": [],
      "name": "owner",
      "outputs": [
        {
          "name": "",
          "type": "address"
        }
      ],
      "payable": false,
      "stateMutability": "view",
      "type": "function"
    },
    {
      "constant": true,
      "inputs": [],
      "name": "isOwner",
      "outputs": [
        {
          "name": "",
          "type": "bool"
        }
      ],
      "payable": false,
      "stateMutability": "view",
      "type": "function"
    },
    {
      "constant": false,
      "inputs": [
        {
          "name": "newOwner",
          "type": "address"
        }
      ],
      "name": "transferOwnership",
      "outputs": [],
      "payable": false,
      "stateMutability": "nonpayable",
      "type": "function"
    },
    {
      "inputs": [
        {
          "name": "_registry",
          "type": "address"
        },
        {
          "name": "_kyberWalletId",
          "type": "address"
        }
      ],
      "payable": false,
      "stateMutability": "nonpayable",
      "type": "constructor"
    },
    {
      "anonymous": false,
      "inputs": [
        {
          "indexed": true,
          "name": "previousOwner",
          "type": "address"
        },
        {
          "indexed": true,
          "name": "newOwner",
          "type": "address"
        }
      ],
      "name": "OwnershipTransferred",
      "type": "event"
    },
    {
      "constant": false,
      "inputs": [
        {
          "name": "_registry",
          "type": "address"
        }
      ],
      "name": "setRegistry",
      "outputs": [],
      "payable": false,
      "stateMutability": "nonpayable",
      "type": "function"
    },
    {
      "constant": false,
      "inputs": [
        {
          "name": "_kyberWalletId",
          "type": "address"
        }
      ],
      "name": "setKyberWalletId",
      "outputs": [],
      "payable": false,
      "stateMutability": "nonpayable",
      "type": "function"
    },
    {
      "constant": false,
      "inputs": [
        {
          "name": "_destAddress",
          "type": "address"
        }
      ],
      "name": "ethToDai",
      "outputs": [
        {
          "name": "destAmount",
          "type": "uint256"
        }
      ],
      "payable": true,
      "stateMutability": "payable",
      "type": "function"
    },
    {
      "constant": true,
      "inputs": [
        {
          "name": "_ethValue",
          "type": "uint256"
        }
      ],
      "name": "daiRate",
      "outputs": [
        {
          "name": "rate",
          "type": "uint256"
        }
      ],
      "payable": false,
      "stateMutability": "view",
      "type": "function"
    }
  ],
  "bytecode": "0x608060405234801561001057600080fd5b50604051604080610a2a8339810180604052604081101561003057600080fd5b508051602090910151600080546001600160a01b03191633178082556040516001600160a01b039190911691907f8be0079c531659141344cd1fd0a4f28419497f9722a3daafe3b4186f6b6457e0908290a3610091826100a760201b60201c565b6100a0816100e060201b60201c565b505061012a565b6100b561011960201b60201c565b6100be57600080fd5b600180546001600160a01b0319166001600160a01b0392909216919091179055565b6100ee61011960201b60201c565b6100f757600080fd5b600280546001600160a01b0319166001600160a01b0392909216919091179055565b6000546001600160a01b0316331490565b6108f1806101396000396000f3fe6080604052600436106100865760003560e01c80638f32d59b116100595780638f32d59b1461011b578063a769aa0814610144578063a91ee0dc1461017c578063f2704763146101af578063f2fde38b146101d957610086565b806354deda011461008b578063715018a6146100c05780637b103999146100d55780638da5cb5b14610106575b600080fd5b34801561009757600080fd5b506100be600480360360208110156100ae57600080fd5b50356001600160a01b031661020c565b005b3480156100cc57600080fd5b506100be61023f565b3480156100e157600080fd5b506100ea61029a565b604080516001600160a01b039092168252519081900360200190f35b34801561011257600080fd5b506100ea6102a9565b34801561012757600080fd5b506101306102b8565b604080519115158252519081900360200190f35b61016a6004803603602081101561015a57600080fd5b50356001600160a01b03166102c9565b60408051918252519081900360200190f35b34801561018857600080fd5b506100be6004803603602081101561019f57600080fd5b50356001600160a01b0316610682565b3480156101bb57600080fd5b5061016a600480360360208110156101d257600080fd5b50356106b5565b3480156101e557600080fd5b506100be600480360360208110156101fc57600080fd5b50356001600160a01b031661083a565b6102146102b8565b61021d57600080fd5b600280546001600160a01b0319166001600160a01b0392909216919091179055565b6102476102b8565b61025057600080fd5b600080546040516001600160a01b03909116907f8be0079c531659141344cd1fd0a4f28419497f9722a3daafe3b4186f6b6457e0908390a3600080546001600160a01b0319169055565b6001546001600160a01b031681565b6000546001600160a01b031690565b6000546001600160a01b0316331490565b600080600160009054906101000a90046001600160a01b03166001600160a01b0316638ef855686040518163ffffffff1660e01b815260040160206040518083038186803b15801561031a57600080fd5b505afa15801561032e573d6000803e3d6000fd5b505050506040513d602081101561034457600080fd5b505160015460408051600160e41b630467561902815290519293506000926001600160a01b0390921691634675619091600480820192602092909190829003018186803b15801561039457600080fd5b505afa1580156103a8573d6000803e3d6000fd5b505050506040513d60208110156103be57600080fd5b505160408051600160e01b63809a9e5502815273eeeeeeeeeeeeeeeeeeeeeeeeeeeeeeeeeeeeeeee60048201526001600160a01b038581166024830152346044830152825193169263809a9e5592606480840193919291829003018186803b15801561042957600080fd5b505afa15801561043d573d6000803e3d6000fd5b505050506040513d604081101561045357600080fd5b505160015460408051600160e41b630467561902815290519293506001600160a01b0390911691634675619091600480820192602092909190829003018186803b1580156104a057600080fd5b505afa1580156104b4573d6000803e3d6000fd5b505050506040513d60208110156104ca57600080fd5b50516001600160a01b03166329589f613473eeeeeeeeeeeeeeeeeeeeeeeeeeeeeeeeeeeeeeee8186896b033b2e3c9fd0803ce800000060648904606202600260009054906101000a90046001600160a01b0316604051806040016040528060048152602001600160e01b635045524d028152506040518a63ffffffff1660e01b815260040180896001600160a01b03166001600160a01b03168152602001888152602001876001600160a01b03166001600160a01b03168152602001866001600160a01b03166001600160a01b03168152602001858152602001848152602001836001600160a01b03166001600160a01b0316815260200180602001828103825283818151815260200191508051906020019080838360005b838110156105fb5781810151838201526020016105e3565b50505050905090810190601f1680156106285780820380516001836020036101000a031916815260200191505b5099505050505050505050506020604051808303818588803b15801561064d57600080fd5b505af1158015610661573d6000803e3d6000fd5b50505050506040513d602081101561067857600080fd5b5051949350505050565b61068a6102b8565b61069357600080fd5b600180546001600160a01b0319166001600160a01b0392909216919091179055565b60015460408051600160e41b630467561902815290516000926001600160a01b0316916346756190916004808301926020929190829003018186803b1580156106fd57600080fd5b505afa158015610711573d6000803e3d6000fd5b505050506040513d602081101561072757600080fd5b505160015460408051600160e31b6311df0aad02815290516001600160a01b039384169363809a9e559373eeeeeeeeeeeeeeeeeeeeeeeeeeeeeeeeeeeeeeee93911691638ef8556891600480820192602092909190829003018186803b15801561079057600080fd5b505afa1580156107a4573d6000803e3d6000fd5b505050506040513d60208110156107ba57600080fd5b50516040805163ffffffff851660e01b81526001600160a01b039384166004820152929091166024830152604482018690528051606480840193829003018186803b15801561080857600080fd5b505afa15801561081c573d6000803e3d6000fd5b505050506040513d604081101561083257600080fd5b505192915050565b6108426102b8565b61084b57600080fd5b61085481610857565b50565b6001600160a01b03811661086a57600080fd5b600080546040516001600160a01b03808516939216917f8be0079c531659141344cd1fd0a4f28419497f9722a3daafe3b4186f6b6457e091a3600080546001600160a01b0319166001600160a01b039290921691909117905556fea165627a7a723058205b55d2edef9d921e49dccda19305e208c53a64af64f3b10a8ab9f8da82568d8e0029",
  "source": "pragma solidity ^0.5.0;\r\n\r\nimport \"openzeppelin-solidity/contracts/ownership/Ownable.sol\";\r\nimport \"../Registry.sol\";\r\nimport \"./KyberNetworkProxyInterface.sol\";\r\n\r\n/**\r\n * A facade for 0xfutures interactions with the Kyber network contracts.\r\n *\r\n * Interfacing with KyberNetworkProxy:\r\n * https://developer.kyber.network/docs/API_ABI-KyberNetworkProxy/\r\n */\r\n\r\ncontract KyberFacade is Ownable {\r\n\r\n    /*\r\n     * Constants\r\n     */\r\n\r\n    // Use only permissioned reserves\r\n    bytes constant PERMISSIONED_ONLY_HINT = bytes(\"PERM\");\r\n\r\n    // Denotes native ETH in Kyber\r\n    address constant NATIVE_ETH = 0xEeeeeEeeeEeEeeEeEeEeeEEEeeeeEeeeeeeeEEeE;\r\n\r\n    // Kyber trades require a non 0 maximum destination amount. Since we don't\r\n    // need to restrict on a maximum set it to a very large amount that won't\r\n    // be hit\r\n    uint constant MAX_DEST_AMOUNT = 1e18 * 1e9; // 1 billion DAI\r\n\r\n    /*\r\n     * State\r\n     */\r\n\r\n    Registry public registry;\r\n    address kyberWalletId;\r\n\r\n    constructor(address _registry, address _kyberWalletId) public {\r\n        setRegistry(_registry);\r\n        setKyberWalletId(_kyberWalletId);\r\n    }\r\n\r\n    function setRegistry(address _registry) public onlyOwner {\r\n        registry = Registry(_registry);\r\n    }\r\n\r\n    function setKyberWalletId(address _kyberWalletId) public onlyOwner {\r\n        kyberWalletId = _kyberWalletId;\r\n    }\r\n\r\n    /**\r\n     * Trade ETH for DAI with:\r\n     *  - only permissioned reserves\r\n     *  - 0xfutures kyber wallet id\r\n     *  - a maximum 2% slip from the current expected rate\r\n     *  - an unreachable maximum destination token amount (effectively no max)\r\n     *\r\n     * @param _destAddress Receiver of DAI tokens\r\n     */\r\n    function ethToDai(address _destAddress)\r\n        public\r\n        payable\r\n        returns (uint destAmount)\r\n    {\r\n        address daiToken = address(registry.getDAI());\r\n        (uint currentExpectedRate,) = registry.getKyberNetworkProxy().getExpectedRate(\r\n            NATIVE_ETH,\r\n            daiToken,\r\n            msg.value\r\n        );\r\n        destAmount = registry.getKyberNetworkProxy().tradeWithHint.value(msg.value)(\r\n            NATIVE_ETH, // src token - ETH\r\n            msg.value, // ETH amount\r\n            daiToken, // dest token - DAI\r\n            _destAddress, // DAI transferred to here\r\n            MAX_DEST_AMOUNT,\r\n            currentExpectedRate / 100 * 98, // allow a maximum 2% slip\r\n            kyberWalletId, // will receive 30% of fees in KNC\r\n            PERMISSIONED_ONLY_HINT\r\n        );\r\n    }\r\n\r\n    /**\r\n     * Get the expected ETH to DAI rate for the next trade\r\n     * (see getExpectedRate for details).\r\n     * @param _ethValue An amount of ETH to get the expected rate for.\r\n     */\r\n    function daiRate(uint _ethValue)\r\n        public\r\n        view\r\n        returns (uint rate)\r\n    {\r\n        (rate,) = registry.getKyberNetworkProxy().getExpectedRate(\r\n            NATIVE_ETH,\r\n            address(registry.getDAI()),\r\n            _ethValue\r\n        );\r\n    }\r\n}\r\n",
  "sourcePath": "D:\\Users\\Julien\\Desktop\\Work\\0xFutures\\protocol\\contracts\\kyber\\KyberFacade.sol",
  "compiler": {
    "name": "solc",
    "version": "0.5.6+commit.b259423e.Emscripten.clang"
  },
  "schemaVersion": "3.0.8",
  "updatedAt": "2020-01-04T15:21:55.736Z",
  "devdoc": {
    "methods": {
      "daiRate(uint256)": {
        "params": {
          "_ethValue": "An amount of ETH to get the expected rate for.\r"
        }
      },
      "ethToDai(address)": {
        "params": {
          "_destAddress": "Receiver of DAI tokens\r"
        }
      },
      "isOwner()": {
        "return": "true if `msg.sender` is the owner of the contract."
      },
      "owner()": {
        "return": "the address of the owner."
      },
      "renounceOwnership()": {
        "details": "Allows the current owner to relinquish control of the contract."
      },
      "transferOwnership(address)": {
        "details": "Allows the current owner to transfer control of the contract to a newOwner.",
        "params": {
          "newOwner": "The address to transfer ownership to."
        }
      }
    }
  },
  "userdoc": {
    "methods": {
      "daiRate(uint256)": {
        "notice": "Get the expected ETH to DAI rate for the next trade\r (see getExpectedRate for details).\r"
      },
      "ethToDai(address)": {
        "notice": "Trade ETH for DAI with:\r - only permissioned reserves\r - 0xfutures kyber wallet id\r - a maximum 2% slip from the current expected rate\r - an unreachable maximum destination token amount (effectively no max)\r "
      },
      "renounceOwnership()": {
        "notice": "Renouncing to ownership will leave the contract without an owner. It will not be possible to call the functions with the `onlyOwner` modifier anymore."
      }
    },
    "notice": "A facade for 0xfutures interactions with the Kyber network contracts.\r  * Interfacing with KyberNetworkProxy:\r https://developer.kyber.network/docs/API_ABI-KyberNetworkProxy/\r"
  }
}