{
  "contractName": "KyberFacade",
  "abi": [
    {
      "constant": false,
      "inputs": [],
      "name": "renounceOwnership",
      "outputs": [],
      "payable": false,
      "stateMutability": "nonpayable",
      "type": "function"
    },
    {
      "constant": true,
      "inputs": [],
      "name": "registry",
      "outputs": [
        {
          "name": "",
          "type": "address"
        }
      ],
      "payable": false,
      "stateMutability": "view",
      "type": "function"
    },
    {
      "constant": true,
      "inputs": [],
      "name": "owner",
      "outputs": [
        {
          "name": "",
          "type": "address"
        }
      ],
      "payable": false,
      "stateMutability": "view",
      "type": "function"
    },
    {
      "constant": true,
      "inputs": [],
      "name": "isOwner",
      "outputs": [
        {
          "name": "",
          "type": "bool"
        }
      ],
      "payable": false,
      "stateMutability": "view",
      "type": "function"
    },
    {
      "constant": false,
      "inputs": [
        {
          "name": "newOwner",
          "type": "address"
        }
      ],
      "name": "transferOwnership",
      "outputs": [],
      "payable": false,
      "stateMutability": "nonpayable",
      "type": "function"
    },
    {
      "inputs": [
        {
          "name": "_registry",
          "type": "address"
        },
        {
          "name": "_kyberWalletId",
          "type": "address"
        }
      ],
      "payable": false,
      "stateMutability": "nonpayable",
      "type": "constructor"
    },
    {
      "anonymous": false,
      "inputs": [
        {
          "indexed": true,
          "name": "previousOwner",
          "type": "address"
        },
        {
          "indexed": true,
          "name": "newOwner",
          "type": "address"
        }
      ],
      "name": "OwnershipTransferred",
      "type": "event"
    },
    {
      "constant": false,
      "inputs": [
        {
          "name": "_registry",
          "type": "address"
        }
      ],
      "name": "setRegistry",
      "outputs": [],
      "payable": false,
      "stateMutability": "nonpayable",
      "type": "function"
    },
    {
      "constant": false,
      "inputs": [
        {
          "name": "_kyberWalletId",
          "type": "address"
        }
      ],
      "name": "setKyberWalletId",
      "outputs": [],
      "payable": false,
      "stateMutability": "nonpayable",
      "type": "function"
    },
    {
      "constant": false,
      "inputs": [
        {
          "name": "_destAddress",
          "type": "address"
        }
      ],
      "name": "ethToDai",
      "outputs": [
        {
          "name": "destAmount",
          "type": "uint256"
        }
      ],
      "payable": true,
      "stateMutability": "payable",
      "type": "function"
    },
    {
      "constant": true,
      "inputs": [
        {
          "name": "_ethValue",
          "type": "uint256"
        }
      ],
      "name": "daiRate",
      "outputs": [
        {
          "name": "rate",
          "type": "uint256"
        }
      ],
      "payable": false,
      "stateMutability": "view",
      "type": "function"
    }
  ],
  "bytecode": "0x608060405234801561001057600080fd5b50604051604080610c8c8339810180604052604081101561003057600080fd5b5080516020918201519091610048906100b5811b901c565b600080546001600160a01b0319166001600160a01b03928316178082556040519216917f8be0079c531659141344cd1fd0a4f28419497f9722a3daafe3b4186f6b6457e0908290a361009f826100b960201b60201c565b6100ae8161014260201b60201c565b50506101f6565b3390565b6100c76101cb60201b60201c565b61012057604080517f08c379a00000000000000000000000000000000000000000000000000000000081526020600482018190526024820152600080516020610c6c833981519152604482015290519081900360640190fd5b600180546001600160a01b0319166001600160a01b0392909216919091179055565b6101506101cb60201b60201c565b6101a957604080517f08c379a00000000000000000000000000000000000000000000000000000000081526020600482018190526024820152600080516020610c6c833981519152604482015290519081900360640190fd5b600280546001600160a01b0319166001600160a01b0392909216919091179055565b600080546001600160a01b03166101e76100b5602090811b901c565b6001600160a01b031614905090565b610a67806102056000396000f3fe6080604052600436106100865760003560e01c80638f32d59b116100595780638f32d59b1461011b578063a769aa0814610144578063a91ee0dc1461017c578063f2704763146101af578063f2fde38b146101d957610086565b806354deda011461008b578063715018a6146100c05780637b103999146100d55780638da5cb5b14610106575b600080fd5b34801561009757600080fd5b506100be600480360360208110156100ae57600080fd5b50356001600160a01b031661020c565b005b3480156100cc57600080fd5b506100be610278565b3480156100e157600080fd5b506100ea61030c565b604080516001600160a01b039092168252519081900360200190f35b34801561011257600080fd5b506100ea61031b565b34801561012757600080fd5b5061013061032a565b604080519115158252519081900360200190f35b61016a6004803603602081101561015a57600080fd5b50356001600160a01b031661034e565b60408051918252519081900360200190f35b34801561018857600080fd5b506100be6004803603602081101561019f57600080fd5b50356001600160a01b0316610707565b3480156101bb57600080fd5b5061016a600480360360208110156101d257600080fd5b5035610773565b3480156101e557600080fd5b506100be600480360360208110156101fc57600080fd5b50356001600160a01b03166108f8565b61021461032a565b6102565760408051600160e51b62461bcd0281526020600482018190526024820152600080516020610a1c833981519152604482015290519081900360640190fd5b600280546001600160a01b0319166001600160a01b0392909216919091179055565b61028061032a565b6102c25760408051600160e51b62461bcd0281526020600482018190526024820152600080516020610a1c833981519152604482015290519081900360640190fd5b600080546040516001600160a01b03909116907f8be0079c531659141344cd1fd0a4f28419497f9722a3daafe3b4186f6b6457e0908390a3600080546001600160a01b0319169055565b6001546001600160a01b031681565b6000546001600160a01b031690565b600080546001600160a01b031661033f61094e565b6001600160a01b031614905090565b600080600160009054906101000a90046001600160a01b03166001600160a01b0316638ef855686040518163ffffffff1660e01b815260040160206040518083038186803b15801561039f57600080fd5b505afa1580156103b3573d6000803e3d6000fd5b505050506040513d60208110156103c957600080fd5b505160015460408051600160e41b630467561902815290519293506000926001600160a01b0390921691634675619091600480820192602092909190829003018186803b15801561041957600080fd5b505afa15801561042d573d6000803e3d6000fd5b505050506040513d602081101561044357600080fd5b505160408051600160e01b63809a9e5502815273eeeeeeeeeeeeeeeeeeeeeeeeeeeeeeeeeeeeeeee60048201526001600160a01b038581166024830152346044830152825193169263809a9e5592606480840193919291829003018186803b1580156104ae57600080fd5b505afa1580156104c2573d6000803e3d6000fd5b505050506040513d60408110156104d857600080fd5b505160015460408051600160e41b630467561902815290519293506001600160a01b0390911691634675619091600480820192602092909190829003018186803b15801561052557600080fd5b505afa158015610539573d6000803e3d6000fd5b505050506040513d602081101561054f57600080fd5b50516001600160a01b03166329589f613473eeeeeeeeeeeeeeeeeeeeeeeeeeeeeeeeeeeeeeee8186896b033b2e3c9fd0803ce800000060648904606202600260009054906101000a90046001600160a01b0316604051806040016040528060048152602001600160e01b635045524d028152506040518a63ffffffff1660e01b815260040180896001600160a01b03166001600160a01b03168152602001888152602001876001600160a01b03166001600160a01b03168152602001866001600160a01b03166001600160a01b03168152602001858152602001848152602001836001600160a01b03166001600160a01b0316815260200180602001828103825283818151815260200191508051906020019080838360005b83811015610680578181015183820152602001610668565b50505050905090810190601f1680156106ad5780820380516001836020036101000a031916815260200191505b5099505050505050505050506020604051808303818588803b1580156106d257600080fd5b505af11580156106e6573d6000803e3d6000fd5b50505050506040513d60208110156106fd57600080fd5b5051949350505050565b61070f61032a565b6107515760408051600160e51b62461bcd0281526020600482018190526024820152600080516020610a1c833981519152604482015290519081900360640190fd5b600180546001600160a01b0319166001600160a01b0392909216919091179055565b60015460408051600160e41b630467561902815290516000926001600160a01b0316916346756190916004808301926020929190829003018186803b1580156107bb57600080fd5b505afa1580156107cf573d6000803e3d6000fd5b505050506040513d60208110156107e557600080fd5b505160015460408051600160e31b6311df0aad02815290516001600160a01b039384169363809a9e559373eeeeeeeeeeeeeeeeeeeeeeeeeeeeeeeeeeeeeeee93911691638ef8556891600480820192602092909190829003018186803b15801561084e57600080fd5b505afa158015610862573d6000803e3d6000fd5b505050506040513d602081101561087857600080fd5b50516040805163ffffffff851660e01b81526001600160a01b039384166004820152929091166024830152604482018690528051606480840193829003018186803b1580156108c657600080fd5b505afa1580156108da573d6000803e3d6000fd5b505050506040513d60408110156108f057600080fd5b505192915050565b61090061032a565b6109425760408051600160e51b62461bcd0281526020600482018190526024820152600080516020610a1c833981519152604482015290519081900360640190fd5b61094b81610952565b50565b3390565b6001600160a01b03811661099a57604051600160e51b62461bcd0281526004018080602001828103825260268152602001806109f66026913960400191505060405180910390fd5b600080546040516001600160a01b03808516939216917f8be0079c531659141344cd1fd0a4f28419497f9722a3daafe3b4186f6b6457e091a3600080546001600160a01b0319166001600160a01b039290921691909117905556fe4f776e61626c653a206e6577206f776e657220697320746865207a65726f20616464726573734f776e61626c653a2063616c6c6572206973206e6f7420746865206f776e6572a165627a7a723058209fb1f3d751cb4535007964bedfa4702e774cf5c765a9b033986bb3ec4ef15b8000294f776e61626c653a2063616c6c6572206973206e6f7420746865206f776e6572",
  "source": "pragma solidity ^0.5.0;\n\nimport \"openzeppelin-solidity/contracts/ownership/Ownable.sol\";\nimport \"../Registry.sol\";\nimport \"./KyberNetworkProxyInterface.sol\";\n\n/**\n * A facade for 0xfutures interactions with the Kyber network contracts.\n *\n * Interfacing with KyberNetworkProxy:\n * https://developer.kyber.network/docs/API_ABI-KyberNetworkProxy/\n */\n\ncontract KyberFacade is Ownable {\n\n    /*\n     * Constants\n     */\n\n    // Use only permissioned reserves\n    bytes constant PERMISSIONED_ONLY_HINT = bytes(\"PERM\");\n\n    // Denotes native ETH in Kyber\n    address constant NATIVE_ETH = 0xEeeeeEeeeEeEeeEeEeEeeEEEeeeeEeeeeeeeEEeE;\n\n    // Kyber trades require a non 0 maximum destination amount. Since we don't\n    // need to restrict on a maximum set it to a very large amount that won't\n    // be hit\n    uint constant MAX_DEST_AMOUNT = 1e18 * 1e9; // 1 billion DAI\n\n    /*\n     * State\n     */\n\n    Registry public registry;\n    address kyberWalletId;\n\n    constructor(address _registry, address _kyberWalletId) public {\n        setRegistry(_registry);\n        setKyberWalletId(_kyberWalletId);\n    }\n\n    function setRegistry(address _registry) public onlyOwner {\n        registry = Registry(_registry);\n    }\n\n    function setKyberWalletId(address _kyberWalletId) public onlyOwner {\n        kyberWalletId = _kyberWalletId;\n    }\n\n    /**\n     * Trade ETH for DAI with:\n     *  - only permissioned reserves\n     *  - 0xfutures kyber wallet id\n     *  - a maximum 2% slip from the current expected rate\n     *  - an unreachable maximum destination token amount (effectively no max)\n     *\n     * @param _destAddress Receiver of DAI tokens\n     */\n    function ethToDai(address _destAddress)\n        public\n        payable\n        returns (uint destAmount)\n    {\n        address daiToken = address(registry.getDAI());\n        (uint currentExpectedRate,) = registry.getKyberNetworkProxy().getExpectedRate(\n            NATIVE_ETH,\n            daiToken,\n            msg.value\n        );\n        destAmount = registry.getKyberNetworkProxy().tradeWithHint.value(msg.value)(\n            NATIVE_ETH, // src token - ETH\n            msg.value, // ETH amount\n            daiToken, // dest token - DAI\n            _destAddress, // DAI transferred to here\n            MAX_DEST_AMOUNT,\n            currentExpectedRate / 100 * 98, // allow a maximum 2% slip\n            kyberWalletId, // will receive 30% of fees in KNC\n            PERMISSIONED_ONLY_HINT\n        );\n    }\n\n    /**\n     * Get the expected ETH to DAI rate for the next trade\n     * (see getExpectedRate for details).\n     * @param _ethValue An amount of ETH to get the expected rate for.\n     */\n    function daiRate(uint _ethValue)\n        public\n        view\n        returns (uint rate)\n    {\n        (rate,) = registry.getKyberNetworkProxy().getExpectedRate(\n            NATIVE_ETH,\n            address(registry.getDAI()),\n            _ethValue\n        );\n    }\n}\n",
  "sourcePath": "/Users/julien/Desktop/protocol/contracts/kyber/KyberFacade.sol",
  "compiler": {
    "name": "solc",
    "version": "0.5.6+commit.b259423e.Emscripten.clang"
  },
  "schemaVersion": "3.0.20",
  "updatedAt": "2020-01-17T22:17:34.177Z",
  "devdoc": {
    "methods": {
      "daiRate(uint256)": {
        "params": {
          "_ethValue": "An amount of ETH to get the expected rate for."
        }
      },
      "ethToDai(address)": {
        "params": {
          "_destAddress": "Receiver of DAI tokens"
        }
      },
      "isOwner()": {
        "details": "Returns true if the caller is the current owner."
      },
      "owner()": {
        "details": "Returns the address of the current owner."
      },
      "renounceOwnership()": {
        "details": "Leaves the contract without owner. It will not be possible to call `onlyOwner` functions anymore. Can only be called by the current owner.     * NOTE: Renouncing ownership will leave the contract without an owner, thereby removing any functionality that is only available to the owner."
      },
      "transferOwnership(address)": {
        "details": "Transfers ownership of the contract to a new account (`newOwner`). Can only be called by the current owner."
      }
    }
  },
  "userdoc": {
    "methods": {
      "daiRate(uint256)": {
        "notice": "Get the expected ETH to DAI rate for the next trade (see getExpectedRate for details)."
      },
      "ethToDai(address)": {
        "notice": "Trade ETH for DAI with: - only permissioned reserves - 0xfutures kyber wallet id - a maximum 2% slip from the current expected rate - an unreachable maximum destination token amount (effectively no max)"
      }
    },
    "notice": "A facade for 0xfutures interactions with the Kyber network contracts. * Interfacing with KyberNetworkProxy: https://developer.kyber.network/docs/API_ABI-KyberNetworkProxy/"
  }
}