{
  "contractName": "KyberFacade",
  "abi": [
    {
      "constant": false,
      "inputs": [],
      "name": "renounceOwnership",
      "outputs": [],
      "payable": false,
      "stateMutability": "nonpayable",
      "type": "function"
    },
    {
      "constant": true,
      "inputs": [],
      "name": "owner",
      "outputs": [
        {
          "name": "",
          "type": "address"
        }
      ],
      "payable": false,
      "stateMutability": "view",
      "type": "function"
    },
    {
      "constant": true,
      "inputs": [],
      "name": "isOwner",
      "outputs": [
        {
          "name": "",
          "type": "bool"
        }
      ],
      "payable": false,
      "stateMutability": "view",
      "type": "function"
    },
    {
      "constant": false,
      "inputs": [
        {
          "name": "newOwner",
          "type": "address"
        }
      ],
      "name": "transferOwnership",
      "outputs": [],
      "payable": false,
      "stateMutability": "nonpayable",
      "type": "function"
    },
    {
      "inputs": [
        {
          "name": "_kyberNetworkProxyAddr",
          "type": "address"
        },
        {
          "name": "_kyberWalletId",
          "type": "address"
        }
      ],
      "payable": false,
      "stateMutability": "nonpayable",
      "type": "constructor"
    },
    {
      "anonymous": false,
      "inputs": [
        {
          "indexed": true,
          "name": "previousOwner",
          "type": "address"
        },
        {
          "indexed": true,
          "name": "newOwner",
          "type": "address"
        }
      ],
      "name": "OwnershipTransferred",
      "type": "event"
    },
    {
      "constant": false,
      "inputs": [
        {
          "name": "_daiToken",
          "type": "address"
        },
        {
          "name": "_destAddress",
          "type": "address"
        }
      ],
      "name": "ethToDai",
      "outputs": [
        {
          "name": "destAmount",
          "type": "uint256"
        }
      ],
      "payable": true,
      "stateMutability": "payable",
      "type": "function"
    }
  ],
  "bytecode": "0x608060405234801561001057600080fd5b506040516040806105798339810180604052604081101561003057600080fd5b508051602090910151600080546001600160a01b03191633178082556040516001600160a01b039190911691907f8be0079c531659141344cd1fd0a4f28419497f9722a3daafe3b4186f6b6457e0908290a3600180546001600160a01b039384166001600160a01b031991821617909155600280549290931691161790556104bc806100bd6000396000f3fe60806040526004361061004a5760003560e01c80635b1a0f121461004f578063715018a61461008f5780638da5cb5b146100a65780638f32d59b146100d7578063f2fde38b14610100575b600080fd5b61007d6004803603604081101561006557600080fd5b506001600160a01b0381358116916020013516610133565b60408051918252519081900360200190f35b34801561009b57600080fd5b506100a461038a565b005b3480156100b257600080fd5b506100bb6103e5565b604080516001600160a01b039092168252519081900360200190f35b3480156100e357600080fd5b506100ec6103f4565b604080519115158252519081900360200190f35b34801561010c57600080fd5b506100a46004803603602081101561012357600080fd5b50356001600160a01b0316610405565b60015460408051600160e01b63809a9e5502815273eeeeeeeeeeeeeeeeeeeeeeeeeeeeeeeeeeeeeeee60048201526001600160a01b0385811660248301523460448301528251600094859492169263809a9e55926064808301939192829003018186803b1580156101a357600080fd5b505afa1580156101b7573d6000803e3d6000fd5b505050506040513d60408110156101cd57600080fd5b50516001549091506001600160a01b03166329589f6173eeeeeeeeeeeeeeeeeeeeeeeeeeeeeeeeeeeeeeee3487876b033b2e3c9fd0803ce800000060648804606202600260009054906101000a90046001600160a01b0316604051806040016040528060048152602001600160e01b635045524d028152506040518963ffffffff1660e01b815260040180896001600160a01b03166001600160a01b03168152602001888152602001876001600160a01b03166001600160a01b03168152602001866001600160a01b03166001600160a01b03168152602001858152602001848152602001836001600160a01b03166001600160a01b0316815260200180602001828103825283818151815260200191508051906020019080838360005b838110156103035781810151838201526020016102eb565b50505050905090810190601f1680156103305780820380516001836020036101000a031916815260200191505b509950505050505050505050602060405180830381600087803b15801561035657600080fd5b505af115801561036a573d6000803e3d6000fd5b505050506040513d602081101561038057600080fd5b5051949350505050565b6103926103f4565b61039b57600080fd5b600080546040516001600160a01b03909116907f8be0079c531659141344cd1fd0a4f28419497f9722a3daafe3b4186f6b6457e0908390a3600080546001600160a01b0319169055565b6000546001600160a01b031690565b6000546001600160a01b0316331490565b61040d6103f4565b61041657600080fd5b61041f81610422565b50565b6001600160a01b03811661043557600080fd5b600080546040516001600160a01b03808516939216917f8be0079c531659141344cd1fd0a4f28419497f9722a3daafe3b4186f6b6457e091a3600080546001600160a01b0319166001600160a01b039290921691909117905556fea165627a7a7230582051ab8ab3842378112441fb305c31f918c3740a2e063fe06dc0205e90b3b3355f0029",
  "source": "pragma solidity ^0.5.0;\n\nimport \"openzeppelin-solidity/contracts/ownership/Ownable.sol\";\nimport \"./KyberNetworkProxyInterface.sol\";\n\n/**\n * A facade for 0xfutures interactions with the Kyber network contracts.\n *\n * Interfacing with KyberNetworkProxy:\n * https://developer.kyber.network/docs/API_ABI-KyberNetworkProxy/\n */\n\ncontract KyberFacade is Ownable {\n\n    /*\n     * Constants\n     */\n\n    // Use only permissioned reserves\n    bytes constant PERMISSIONED_ONLY_HINT = bytes(\"PERM\");\n\n    // Denotes native ETH in Kyber\n    address constant NATIVE_ETH = 0xEeeeeEeeeEeEeeEeEeEeeEEEeeeeEeeeeeeeEEeE;\n\n    // Kyber trades require a non 0 maximum destination amount. Since we don't\n    // need to restrict on a maximum set it to a very large amount that won't\n    // be hit\n    uint constant MAX_DEST_AMOUNT = 10**18 * 10**9; // 1 billion DAI\n\n    /*\n     * State\n     */\n\n    KyberNetworkProxyInterface kyber;\n    address kyberWalletId;\n\n\n    constructor(\n        address _kyberNetworkProxyAddr,\n        address _kyberWalletId\n    ) public {\n        kyber = KyberNetworkProxyInterface(_kyberNetworkProxyAddr);\n        kyberWalletId = _kyberWalletId;\n    }\n\n\n    /**\n     * Trade ETH for DAI with:\n     *  - only permissioned reserves\n     *  - 0xfutures kyber wallet id\n     *  - a maximum 2% slip from the current expected rate\n     *  - an unreachable maximum destination token amount (effectively no max)\n     *\n     * @param _daiToken DAI ERC20 token contract address\n     * @param _destAddress DAI ERC20 token contract address\n     */\n    function ethToDai(\n        address _daiToken,\n        address _destAddress\n    )\n        public\n        payable\n        returns (uint destAmount)\n    {\n        (uint currentExpectedRate,) = kyber.getExpectedRate(\n            NATIVE_ETH,\n            _daiToken,\n            msg.value\n        );\n        destAmount = kyber.tradeWithHint(\n            NATIVE_ETH, // src token - ETH\n            msg.value, // ETH amount\n            _daiToken, // dest token - DAI\n            _destAddress, // DAI transferred to here\n            MAX_DEST_AMOUNT,\n            currentExpectedRate / 100 * 98, // allow a maximum 2% slip\n            kyberWalletId, // will receive 30% of fees in KNC\n            PERMISSIONED_ONLY_HINT\n        );\n    }\n}\n",
  "sourcePath": "/home/hatch/projects/0xfutures/protocol/contracts/kyber/KyberFacade.sol",
  "compiler": {
    "name": "solc",
    "version": "0.5.6+commit.b259423e.Emscripten.clang"
  },
  "schemaVersion": "3.0.8",
  "updatedAt": "2019-07-18T08:44:21.992Z",
  "devdoc": {
    "methods": {
      "ethToDai(address,address)": {
        "params": {
          "_daiToken": "DAI ERC20 token contract address",
          "_destAddress": "DAI ERC20 token contract address"
        }
      },
      "isOwner()": {
        "return": "true if `msg.sender` is the owner of the contract."
      },
      "owner()": {
        "return": "the address of the owner."
      },
      "renounceOwnership()": {
        "details": "Allows the current owner to relinquish control of the contract."
      },
      "transferOwnership(address)": {
        "details": "Allows the current owner to transfer control of the contract to a newOwner.",
        "params": {
          "newOwner": "The address to transfer ownership to."
        }
      }
    }
  },
  "userdoc": {
    "methods": {
      "ethToDai(address,address)": {
        "notice": "Trade ETH for DAI with: - only permissioned reserves - 0xfutures kyber wallet id - a maximum 2% slip from the current expected rate - an unreachable maximum destination token amount (effectively no max)"
      },
      "renounceOwnership()": {
        "notice": "Renouncing to ownership will leave the contract without an owner. It will not be possible to call the functions with the `onlyOwner` modifier anymore."
      }
    },
    "notice": "A facade for 0xfutures interactions with the Kyber network contracts. * Interfacing with KyberNetworkProxy: https://developer.kyber.network/docs/API_ABI-KyberNetworkProxy/"
  }
}