{
  "contractName": "KyberNetworkProxy",
  "abi": [
    {
      "constant": true,
      "inputs": [
        {
          "name": "",
          "type": "address"
        }
      ],
      "name": "rates",
      "outputs": [
        {
          "name": "",
          "type": "uint256"
        }
      ],
      "payable": false,
      "stateMutability": "view",
      "type": "function"
    },
    {
      "constant": true,
      "inputs": [],
      "name": "daiToken",
      "outputs": [
        {
          "name": "",
          "type": "address"
        }
      ],
      "payable": false,
      "stateMutability": "view",
      "type": "function"
    },
    {
      "inputs": [
        {
          "name": "_daiToken",
          "type": "address"
        }
      ],
      "payable": false,
      "stateMutability": "nonpayable",
      "type": "constructor"
    },
    {
      "constant": true,
      "inputs": [
        {
          "name": "",
          "type": "address"
        },
        {
          "name": "dest",
          "type": "address"
        },
        {
          "name": "",
          "type": "uint256"
        }
      ],
      "name": "getExpectedRate",
      "outputs": [
        {
          "name": "expectedRate",
          "type": "uint256"
        },
        {
          "name": "slippageRate",
          "type": "uint256"
        }
      ],
      "payable": false,
      "stateMutability": "view",
      "type": "function"
    },
    {
      "constant": false,
      "inputs": [
        {
          "name": "src",
          "type": "address"
        },
        {
          "name": "srcAmount",
          "type": "uint256"
        },
        {
          "name": "dest",
          "type": "address"
        },
        {
          "name": "destAddress",
          "type": "address"
        },
        {
          "name": "",
          "type": "uint256"
        },
        {
          "name": "",
          "type": "uint256"
        },
        {
          "name": "",
          "type": "address"
        },
        {
          "name": "",
          "type": "bytes"
        }
      ],
      "name": "tradeWithHint",
      "outputs": [
        {
          "name": "destAmount",
          "type": "uint256"
        }
      ],
      "payable": true,
      "stateMutability": "payable",
      "type": "function"
    },
    {
      "constant": false,
      "inputs": [
        {
          "name": "_tokenAddress",
          "type": "address"
        },
        {
          "name": "_rate",
          "type": "uint256"
        }
      ],
      "name": "put",
      "outputs": [],
      "payable": false,
      "stateMutability": "nonpayable",
      "type": "function"
    }
  ],
  "bytecode": "0x608060405234801561001057600080fd5b506040516020806103df8339810180604052602081101561003057600080fd5b5051600080546001600160a01b039092166001600160a01b031990921691909117905561037d806100626000396000f3fe60806040526004361061004a5760003560e01c806329589f611461004f5780637f8d53c614610143578063809a9e551461017e578063a8734f0b146101da578063be22f5461461020d575b600080fd5b610131600480360361010081101561006657600080fd5b6001600160a01b0382358116926020810135926040820135831692606083013581169260808101359260a08201359260c0830135169190810190610100810160e08201356401000000008111156100bc57600080fd5b8201836020820111156100ce57600080fd5b803590602001918460018302840111640100000000831117156100f057600080fd5b91908080601f01602080910402602001604051908101604052809392919081815260200183838082843760009201919091525092955061023e945050505050565b60408051918252519081900360200190f35b34801561014f57600080fd5b5061017c6004803603604081101561016657600080fd5b506001600160a01b0381351690602001356102f5565b005b34801561018a57600080fd5b506101c1600480360360608110156101a157600080fd5b506001600160a01b03813581169160208101359091169060400135610311565b6040805192835260208301919091528051918290030190f35b3480156101e657600080fd5b50610131600480360360208110156101fd57600080fd5b50356001600160a01b0316610330565b34801561021957600080fd5b50610222610342565b604080516001600160a01b039092168252519081900360200190f35b60008061024c8a898b610311565b509050670de0b6b3a76400008982026000805460408051600160e01b63a9059cbb0281526001600160a01b038d811660048301529590940460248501819052905190965093169263a9059cbb926044808201936020939283900390910190829087803b1580156102bb57600080fd5b505af11580156102cf573d6000803e3d6000fd5b505050506040513d60208110156102e557600080fd5b50919a9950505050505050505050565b6001600160a01b03909116600090815260016020526040902055565b506001600160a01b031660009081526001602052604090205491829150565b60016020526000908152604090205481565b6000546001600160a01b03168156fea165627a7a7230582063c3b88ec4cbec206d3048803d14d8dd770be1e066611cdb7153d615ac25cdb20029",
  "source": "pragma solidity ^0.5.0;\n\nimport \"openzeppelin-solidity/contracts/token/ERC20/ERC20.sol\";\n\n/**\n * Mock version of the KyberNetworkProxy contract for getting the\n * market rates in test and development.\n * see https://developer.kyber.network/docs/API_ABI-KyberNetworkProxy/\n */\n\ncontract KyberNetworkProxy {\n    ERC20 public daiToken;\n\n    mapping(address => uint) public rates;\n\n    constructor(address _daiToken) public {\n        daiToken = ERC20(_daiToken);\n    }\n\n    function getExpectedRate(\n        address,\n        address dest,\n        uint\n    )\n        public\n        view\n        returns (uint expectedRate, uint slippageRate)\n    {\n        uint rate = rates[address(dest)];\n        return (rate, rate);\n    }\n\n    function tradeWithHint(\n        address src,\n        uint srcAmount,\n        address dest,\n        address destAddress,\n        uint,\n        uint,\n        address,\n        bytes memory\n    )\n        public\n        payable\n        returns(uint destAmount)\n    {\n        (uint rate,) = getExpectedRate(src, dest, srcAmount);\n        destAmount = rate * srcAmount / 1e18;\n        daiToken.transfer(destAddress, destAmount);\n    }\n\n    function put(address _tokenAddress, uint _rate) external {\n        rates[_tokenAddress] = _rate;\n    }\n\n}\n",
  "sourcePath": "/home/julien/0xFutures/protocol/contracts/mock/KyberNetworkProxy.sol",
  "compiler": {
    "name": "solc",
    "version": "0.5.6+commit.b259423e.Emscripten.clang"
  },
  "schemaVersion": "3.0.8",
  "updatedAt": "2019-08-03T15:18:13.426Z",
  "devdoc": {
    "methods": {}
  },
  "userdoc": {
    "methods": {},
    "notice": "Mock version of the KyberNetworkProxy contract for getting the market rates in test and development. see https://developer.kyber.network/docs/API_ABI-KyberNetworkProxy/"
  }
}