{
  "contractName": "KyberNetworkProxy",
  "abi": [
    {
      "constant": true,
      "inputs": [
        {
          "name": "src",
          "type": "address"
        },
        {
          "name": "dest",
          "type": "address"
        },
        {
          "name": "srcQty",
          "type": "uint256"
        }
      ],
      "name": "getExpectedRate",
      "outputs": [
        {
          "name": "expectedRate",
          "type": "uint256"
        },
        {
          "name": "slippageRate",
          "type": "uint256"
        }
      ],
      "payable": false,
      "stateMutability": "view",
      "type": "function"
    },
    {
      "constant": false,
      "inputs": [
        {
          "name": "_tokenAddress",
          "type": "address"
        },
        {
          "name": "_rate",
          "type": "uint256"
        }
      ],
      "name": "put",
      "outputs": [],
      "payable": false,
      "stateMutability": "nonpayable",
      "type": "function"
    }
  ],
  "bytecode": "0x608060405234801561001057600080fd5b50610115806100206000396000f3fe6080604052348015600f57600080fd5b506004361060325760003560e01c80637f8d53c6146037578063809a9e55146062575b600080fd5b606060048036036040811015604b57600080fd5b506001600160a01b03813516906020013560ae565b005b609560048036036060811015607657600080fd5b506001600160a01b0381358116916020810135909116906040013560ca565b6040805192835260208301919091528051918290030190f35b6001600160a01b03909116600090815260208190526040902055565b506001600160a01b03166000908152602081905260409020549182915056fea165627a7a72305820a1fbec89d41f633eec1c092b024070511c6acb69854e0c7202313458503c97e10029",
  "source": "pragma solidity ^0.5.0;\n\n/**\n * Mock version of the KyberNetworkProxy contract for getting the\n * market rates in test and development.\n * see https://developer.kyber.network/docs/API_ABI-KyberNetworkProxy/\n */\n\ncontract KyberNetworkProxy {\n    mapping(address => uint) rates;\n\n    function getExpectedRate(address src, address dest, uint srcQty) public view\n        returns (uint expectedRate, uint slippageRate)\n    {\n        uint rate = rates[address(dest)];\n        return (rate, rate);\n    }\n\n    function put(address _tokenAddress, uint _rate) external {\n        rates[_tokenAddress] = _rate;\n    }\n\n}\n",
  "sourcePath": "/home/hatch/projects/0xfutures/protocol/contracts/mock/KyberNetworkProxy.sol",
  "compiler": {
    "name": "solc",
    "version": "0.5.6+commit.b259423e.Emscripten.clang"
  },
  "schemaVersion": "3.0.8",
  "updatedAt": "2019-07-10T03:10:53.985Z",
  "devdoc": {
    "methods": {}
  },
  "userdoc": {
    "methods": {},
    "notice": "Mock version of the KyberNetworkProxy contract for getting the market rates in test and development. see https://developer.kyber.network/docs/API_ABI-KyberNetworkProxy/"
  }
}