{
  "contractName": "PriceFeedsExternal",
  "abi": [
    {
      "constant": true,
      "inputs": [
        {
          "name": "",
          "type": "bytes32"
        }
      ],
      "name": "marketNames",
      "outputs": [
        {
          "name": "",
          "type": "string"
        }
      ],
      "payable": false,
      "stateMutability": "view",
      "type": "function"
    },
    {
      "constant": false,
      "inputs": [],
      "name": "renounceOwnership",
      "outputs": [],
      "payable": false,
      "stateMutability": "nonpayable",
      "type": "function"
    },
    {
      "constant": true,
      "inputs": [],
      "name": "owner",
      "outputs": [
        {
          "name": "",
          "type": "address"
        }
      ],
      "payable": false,
      "stateMutability": "view",
      "type": "function"
    },
    {
      "constant": true,
      "inputs": [],
      "name": "isOwner",
      "outputs": [
        {
          "name": "",
          "type": "bool"
        }
      ],
      "payable": false,
      "stateMutability": "view",
      "type": "function"
    },
    {
      "constant": false,
      "inputs": [
        {
          "name": "newOwner",
          "type": "address"
        }
      ],
      "name": "transferOwnership",
      "outputs": [],
      "payable": false,
      "stateMutability": "nonpayable",
      "type": "function"
    },
    {
      "anonymous": false,
      "inputs": [
        {
          "indexed": true,
          "name": "bytesId",
          "type": "bytes32"
        },
        {
          "indexed": false,
          "name": "strId",
          "type": "string"
        }
      ],
      "name": "LogPriceFeedsExternalMarketAdded",
      "type": "event"
    },
    {
      "anonymous": false,
      "inputs": [
        {
          "indexed": true,
          "name": "marketId",
          "type": "bytes32"
        }
      ],
      "name": "LogPriceFeedsExternalMarketRemoved",
      "type": "event"
    },
    {
      "anonymous": false,
      "inputs": [
        {
          "indexed": true,
          "name": "previousOwner",
          "type": "address"
        },
        {
          "indexed": true,
          "name": "newOwner",
          "type": "address"
        }
      ],
      "name": "OwnershipTransferred",
      "type": "event"
    },
    {
      "constant": true,
      "inputs": [
        {
          "name": "_marketId",
          "type": "bytes32"
        }
      ],
      "name": "isMarketActive",
      "outputs": [
        {
          "name": "",
          "type": "bool"
        }
      ],
      "payable": false,
      "stateMutability": "view",
      "type": "function"
    },
    {
      "constant": false,
      "inputs": [
        {
          "name": "_marketStrId",
          "type": "string"
        },
        {
          "name": "_priceContract",
          "type": "address"
        },
        {
          "name": "_callSig",
          "type": "bytes32"
        }
      ],
      "name": "addMarket",
      "outputs": [
        {
          "name": "marketId",
          "type": "bytes32"
        }
      ],
      "payable": false,
      "stateMutability": "nonpayable",
      "type": "function"
    },
    {
      "constant": false,
      "inputs": [
        {
          "name": "_marketId",
          "type": "bytes32"
        }
      ],
      "name": "removeMarket",
      "outputs": [],
      "payable": false,
      "stateMutability": "nonpayable",
      "type": "function"
    },
    {
      "constant": true,
      "inputs": [
        {
          "name": "_marketId",
          "type": "bytes32"
        }
      ],
      "name": "read",
      "outputs": [
        {
          "name": "priceValue",
          "type": "uint256"
        }
      ],
      "payable": false,
      "stateMutability": "view",
      "type": "function"
    }
  ],
  "bytecode": "0x60806040819052600080546001600160a01b03191633178082556001600160a01b0316917f8be0079c531659141344cd1fd0a4f28419497f9722a3daafe3b4186f6b6457e0908290a36108de806100576000396000f3fe608060405234801561001057600080fd5b50600436106100935760003560e01c8063715018a611610066578063715018a6146101f75780638da5cb5b146101ff5780638f32d59b14610223578063f2fde38b1461023f578063f4463db51461026557610093565b80630b8043d51461009857806341955214146101295780635c5212dd146101bb57806361da1439146101da575b600080fd5b610117600480360360608110156100ae57600080fd5b8101906020810181356401000000008111156100c957600080fd5b8201836020820111156100db57600080fd5b803590602001918460018302840111640100000000831117156100fd57600080fd5b91935091506001600160a01b038135169060200135610282565b60408051918252519081900360200190f35b6101466004803603602081101561013f57600080fd5b503561038e565b6040805160208082528351818301528351919283929083019185019080838360005b83811015610180578181015183820152602001610168565b50505050905090810190601f1680156101ad5780820380516001836020036101000a031916815260200191505b509250505060405180910390f35b6101d8600480360360208110156101d157600080fd5b5035610427565b005b610117600480360360208110156101f057600080fd5b5035610559565b6101d86106d1565b61020761072c565b604080516001600160a01b039092168252519081900360200190f35b61022b61073c565b604080519115158252519081900360200190f35b6101d86004803603602081101561025557600080fd5b50356001600160a01b031661074d565b61022b6004803603602081101561027b57600080fd5b503561076a565b600061028c61073c565b61029557600080fd5b8484604051602001808383808284376040805191909301818103601f19018252808452815160209283012081850185526001600160a01b038b811683528383018b815260008381526001808752888220955186546001600160a01b03191694169390931785559051939091019290925560029092529290922091955061032494509092508891508790506107f5565b50807fba600a88fc714ebd6a38fe64f2b502e9c06a548e4a883a2b43ac0d344be0d212868660405180806020018281038252848482818152602001925080828437600083820152604051601f909101601f19169092018290039550909350505050a2949350505050565b600260208181526000928352604092839020805484516001821615610100026000190190911693909304601f810183900483028401830190945283835291929083018282801561041f5780601f106103f45761010080835404028352916020019161041f565b820191906000526020600020905b81548152906001019060200180831161040257829003601f168201915b505050505081565b61042f61073c565b61043857600080fd5b6104418161076a565b60405180606001604052806025815260200161088e6025913980826104e757604051600160e51b62461bcd0281526004018080602001828103825283818151815260200191508051906020019080838360005b838110156104ac578181015183820152602001610494565b50505050905090810190601f1680156104d95780820380516001836020036101000a031916815260200191505b509250505060405180910390fd5b5060408051808201825260008082526020808301828152878352600191829052848320935184546001600160a01b0319166001600160a01b0390911617845551920191909155905184917f241027c30341da155be2f8d6bf3ae10bdf6083fd0ffcf36e848ae540041fff1191a2505050565b6000818152600160208181526040808420805493810154825180850191909152825180820385018152908301928390528051919486946060946001600160a01b039092169382918401908083835b602083106105c65780518252601f1990920191602091820191016105a7565b6001836020036101000a038019825116818451168082178552505050505050905001915050600060405180830381855afa9150503d8060008114610626576040519150601f19603f3d011682016040523d82523d6000602084013e61062b565b606091505b509092509050816106b157604080518082018252601a81527f45787465726e616c2070726963652063616c6c206661696c656400000000000060208083019182529251600160e51b62461bcd02815260048101938452825160248201528251929392839260449092019190808383600083156104ac578181015183820152602001610494565b8080602001905160208110156106c657600080fd5b505195945050505050565b6106d961073c565b6106e257600080fd5b600080546040516001600160a01b03909116907f8be0079c531659141344cd1fd0a4f28419497f9722a3daafe3b4186f6b6457e0908390a3600080546001600160a01b0319169055565b6000546001600160a01b03165b90565b6000546001600160a01b0316331490565b61075561073c565b61075e57600080fd5b61076781610787565b50565b6000908152600160205260409020546001600160a01b0316151590565b6001600160a01b03811661079a57600080fd5b600080546040516001600160a01b03808516939216917f8be0079c531659141344cd1fd0a4f28419497f9722a3daafe3b4186f6b6457e091a3600080546001600160a01b0319166001600160a01b0392909216919091179055565b828054600181600116156101000203166002900490600052602060002090601f016020900481019282601f106108365782800160ff19823516178555610863565b82800160010185558215610863579182015b82811115610863578235825591602001919060010190610848565b5061086f929150610873565b5090565b61073991905b8082111561086f576000815560010161087956fe4d61726b6574206d7573742062652061637469766520746f207075736820612076616c7565a165627a7a723058209145c28e22fc0d89d44bfa7b57769984c380d05a4c0c7e518f50f07df1b89e510029",
  "source": "pragma solidity ^0.5.0;\r\n\r\nimport \"openzeppelin-solidity/contracts/ownership/Ownable.sol\";\r\nimport \"../DBC.sol\";\r\n\r\n\r\n/**\r\n * Market prices feeds coming from external sources.\r\n * External here means any contract outside the 0xfutures protocol contracts.\r\n * Examples: MakerDAO price feed, EtherDelta DEX price, etc.\r\n */\r\ncontract PriceFeedsExternal is DBC, Ownable {\r\n    event LogPriceFeedsExternalMarketAdded(bytes32 indexed bytesId, string strId);\r\n    event LogPriceFeedsExternalMarketRemoved(bytes32 indexed marketId);\r\n\r\n    string constant REASON_MUST_BE_ACTIVE_MARKET = \"Market must be active to push a value\";\r\n    string constant REASON_EXTERNAL_PRICE_CALL_FAILED = \"External price call failed\";\r\n\r\n    struct Market {\r\n        address priceContract;\r\n        bytes32 callSig;\r\n    }\r\n    mapping(bytes32 => Market) markets;\r\n    mapping(bytes32 => string) public marketNames;\r\n\r\n    function isMarketActive(bytes32 _marketId) public view returns (bool) {\r\n        return markets[_marketId].priceContract != address(0);\r\n    }\r\n\r\n    /**\r\n     * Add a new market\r\n     * @param _marketStrId String id of market. eg. \"Poloniex_BTC_ETH\"\r\n     * @param _priceContract Address of contract to fetch price from\r\n     * @param _callSig Call signature hash of the contract function to fetch\r\n     *                  the price from\r\n     * @return marketId bytes32 keccak256 of the _marketStrId\r\n     */\r\n    function addMarket(\r\n        string calldata _marketStrId,\r\n        address _priceContract,\r\n        bytes32 _callSig\r\n    )\r\n        external\r\n        onlyOwner\r\n        returns (bytes32 marketId)\r\n    {\r\n        marketId = keccak256(abi.encodePacked(_marketStrId));\r\n        markets[marketId] = Market(_priceContract, _callSig);\r\n        marketNames[marketId] = _marketStrId;\r\n        emit LogPriceFeedsExternalMarketAdded(marketId, _marketStrId);\r\n    }\r\n\r\n    function removeMarket(bytes32 _marketId)\r\n        external\r\n        onlyOwner\r\n        pre_cond(isMarketActive(_marketId), REASON_MUST_BE_ACTIVE_MARKET)\r\n    {\r\n        markets[_marketId] = Market(address(0x0), 0);\r\n        emit LogPriceFeedsExternalMarketRemoved(_marketId);\r\n    }\r\n\r\n    function read(bytes32 _marketId) public view returns (uint priceValue) {\r\n        Market storage market = markets[_marketId];\r\n\r\n        bool success;\r\n        bytes memory rspData;\r\n        (success, rspData) = market.priceContract.staticcall(\r\n            abi.encodePacked(market.callSig)\r\n        );\r\n\r\n        if (!success) {\r\n            revert(REASON_EXTERNAL_PRICE_CALL_FAILED);\r\n        }\r\n\r\n        // TODO: assuming a bytes32 return convertable to uint here\r\n        //   but shouldn't - generic unpack mechanism for other feeds workable?\r\n        priceValue = abi.decode(rspData, (uint));\r\n    }\r\n}\r\n",
  "sourcePath": "D:\\Users\\Julien\\Desktop\\Work\\0xFutures\\protocol\\contracts\\feeds\\PriceFeedsExternal.sol",
  "compiler": {
    "name": "solc",
    "version": "0.5.6+commit.b259423e.Emscripten.clang"
  },
  "schemaVersion": "3.0.8",
  "updatedAt": "2019-05-16T06:11:23.337Z",
  "devdoc": {
    "methods": {
      "addMarket(string,address,bytes32)": {
        "params": {
          "_callSig": "Call signature hash of the contract function to fetch\r                 the price from\r",
          "_marketStrId": "String id of market. eg. \"Poloniex_BTC_ETH\"\r",
          "_priceContract": "Address of contract to fetch price from\r"
        },
        "return": "marketId bytes32 keccak256 of the _marketStrId\r"
      },
      "isOwner()": {
        "return": "true if `msg.sender` is the owner of the contract."
      },
      "owner()": {
        "return": "the address of the owner."
      },
      "renounceOwnership()": {
        "details": "Allows the current owner to relinquish control of the contract."
      },
      "transferOwnership(address)": {
        "details": "Allows the current owner to transfer control of the contract to a newOwner.",
        "params": {
          "newOwner": "The address to transfer ownership to."
        }
      }
    }
  },
  "userdoc": {
    "methods": {
      "addMarket(string,address,bytes32)": {
        "notice": "Add a new market\r"
      },
      "renounceOwnership()": {
        "notice": "Renouncing to ownership will leave the contract without an owner. It will not be possible to call the functions with the `onlyOwner` modifier anymore."
      }
    },
    "notice": "Market prices feeds coming from external sources.\r External here means any contract outside the 0xfutures protocol contracts.\r Examples: MakerDAO price feed, EtherDelta DEX price, etc.\r"
  }
}