{
  "contractName": "PriceFeeds",
  "abi": [
    {
      "constant": true,
      "inputs": [],
      "name": "feedKyber",
      "outputs": [
        {
          "name": "",
          "type": "address"
        }
      ],
      "payable": false,
      "stateMutability": "view",
      "type": "function"
    },
    {
      "inputs": [
        {
          "name": "_kyber",
          "type": "address"
        }
      ],
      "payable": false,
      "stateMutability": "nonpayable",
      "type": "constructor"
    },
    {
      "constant": true,
      "inputs": [
        {
          "name": "_marketId",
          "type": "bytes32"
        }
      ],
      "name": "read",
      "outputs": [
        {
          "name": "value",
          "type": "uint256"
        }
      ],
      "payable": false,
      "stateMutability": "view",
      "type": "function"
    },
    {
      "constant": true,
      "inputs": [
        {
          "name": "_marketId",
          "type": "bytes32"
        }
      ],
      "name": "marketName",
      "outputs": [
        {
          "name": "name",
          "type": "string"
        }
      ],
      "payable": false,
      "stateMutability": "view",
      "type": "function"
    },
    {
      "constant": true,
      "inputs": [
        {
          "name": "_marketId",
          "type": "bytes32"
        }
      ],
      "name": "isMarketActive",
      "outputs": [
        {
          "name": "active",
          "type": "bool"
        }
      ],
      "payable": false,
      "stateMutability": "view",
      "type": "function"
    }
  ],
  "bytecode": "0x608060405234801561001057600080fd5b5060405160208061063d8339810180604052602081101561003057600080fd5b5051600080546001600160a01b039092166001600160a01b03199092169190911790556105db806100626000396000f3fe608060405234801561001057600080fd5b506004361061004c5760003560e01c806361da14391461005157806377d7c529146100805780639aa7d62614610112578063f4463db514610136575b600080fd5b61006e6004803603602081101561006757600080fd5b5035610167565b60408051918252519081900360200190f35b61009d6004803603602081101561009657600080fd5b503561038f565b6040805160208082528351818301528351919283929083019185019080838360005b838110156100d75781810151838201526020016100bf565b50505050905090810190601f1680156101045780820380516001836020036101000a031916815260200191505b509250505060405180910390f35b61011a6104e9565b604080516001600160a01b039092168252519081900360200190f35b6101536004803603602081101561014c57600080fd5b50356104f8565b604080519115158252519081900360200190f35b6000805460408051600160e01b63f4463db50281526004810185905290516001600160a01b039092169163f4463db591602480820192602092909190829003018186803b1580156101b757600080fd5b505afa1580156101cb573d6000803e3d6000fd5b505050506040513d60208110156101e157600080fd5b50511561026a5760005460408051600160e01b6361da14390281526004810185905290516001600160a01b03909216916361da143991602480820192602092909190829003018186803b15801561023757600080fd5b505afa15801561024b573d6000803e3d6000fd5b505050506040513d602081101561026157600080fd5b5051905061030a565b6040518060600160405280602e8152602001610582602e9139604051600160e51b62461bcd0281526004018080602001828103825283818151815260200191508051906020019080838360005b838110156102cf5781810151838201526020016102b7565b50505050905090810190601f1680156102fc5780820380516001836020036101000a031916815260200191505b509250505060405180910390fd5b8061038a57604080518082018252601481527f4d61726b6574207072696365206973207a65726f00000000000000000000000060208083019182529251600160e51b62461bcd02815260048101938452825160248201528251929392839260449092019190808383600083156102cf5781810151838201526020016102b7565b919050565b60005460408051600160e01b63f4463db50281526004810184905290516060926001600160a01b03169163f4463db5916024808301926020929190829003018186803b1580156103de57600080fd5b505afa1580156103f2573d6000803e3d6000fd5b505050506040513d602081101561040857600080fd5b50511561026a576000805460408051600160e21b63106554850281526004810186905290516001600160a01b0390921692634195521492602480840193829003018186803b15801561045957600080fd5b505afa15801561046d573d6000803e3d6000fd5b505050506040513d6000823e601f3d908101601f19168201604052602081101561049657600080fd5b8101908080516401000000008111156104ae57600080fd5b820160208101848111156104c157600080fd5b81516401000000008111828201871017156104db57600080fd5b5090945061038a9350505050565b6000546001600160a01b031681565b6000805460408051600160e01b63f4463db50281526004810185905290516001600160a01b039092169163f4463db591602480820192602092909190829003018186803b15801561054857600080fd5b505afa15801561055c573d6000803e3d6000fd5b505050506040513d602081101561057257600080fd5b50511561038a5750600191905056fe50726963652072657175657374656420666f7220696e616374697665206f7220756e6b6e6f776e206d61726b6574a165627a7a723058207bd1ea4b90c01647fcc63f26717a2ae98f8238c3af4ff915913a62fbd508419f0029",
  "source": "pragma solidity ^0.5.0;\r\n\r\nimport \"./PriceFeedsKyber.sol\";\r\n\r\n/**\r\n * Interface to market prices for the CFD contract.\r\n * Abstracts away the logic of reading from various market sources.\r\n */\r\ncontract PriceFeeds {\r\n    string constant REASON_MARKET_INACTIVE_OR_UNKNOWN = \"Price requested for inactive or unknown market\";\r\n    string constant REASON_MARKET_VALUE_ZERO = \"Market price is zero\";\r\n\r\n    PriceFeedsKyber public feedKyber;\r\n\r\n    constructor(address _kyber) public {\r\n        feedKyber = PriceFeedsKyber(_kyber);\r\n    }\r\n\r\n    function read(bytes32 _marketId)\r\n        public\r\n        view\r\n        returns (uint value)\r\n    {\r\n        if (feedKyber.isMarketActive(_marketId)) {\r\n            value = feedKyber.read(_marketId);\r\n        } else {\r\n            revert(REASON_MARKET_INACTIVE_OR_UNKNOWN);\r\n        }\r\n\r\n        if (value == 0) {\r\n            revert(REASON_MARKET_VALUE_ZERO);\r\n        }\r\n    }\r\n\r\n    function marketName(bytes32 _marketId)\r\n        public\r\n        view\r\n        returns (string memory name)\r\n    {\r\n        if (feedKyber.isMarketActive(_marketId)) {\r\n            name = feedKyber.marketNames(_marketId);\r\n        } else {\r\n            revert(REASON_MARKET_INACTIVE_OR_UNKNOWN);\r\n        }\r\n    }\r\n\r\n    function isMarketActive(bytes32 _marketId)\r\n        public\r\n        view\r\n        returns (bool active)\r\n    {\r\n        active = false;\r\n        if (feedKyber.isMarketActive(_marketId)) {\r\n            active = true;\r\n        }\r\n    }\r\n\r\n}\r\n",
  "sourcePath": "D:\\Users\\Julien\\Desktop\\Work\\0xFutures\\protocol\\contracts\\feeds\\PriceFeeds.sol",
  "compiler": {
    "name": "solc",
    "version": "0.5.6+commit.b259423e.Emscripten.clang"
  },
  "schemaVersion": "3.0.8",
  "updatedAt": "2020-01-04T15:21:55.731Z",
  "devdoc": {
    "methods": {}
  },
  "userdoc": {
    "methods": {},
    "notice": "Interface to market prices for the CFD contract.\r Abstracts away the logic of reading from various market sources.\r"
  }
}