{
  "contractName": "PriceFeeds",
  "abi": [
    {
      "inputs": [
        {
          "name": "_internal",
          "type": "address"
        },
        {
          "name": "_external",
          "type": "address"
        }
      ],
      "payable": false,
      "stateMutability": "nonpayable",
      "type": "constructor"
    },
    {
      "constant": true,
      "inputs": [
        {
          "name": "_marketId",
          "type": "bytes32"
        }
      ],
      "name": "read",
      "outputs": [
        {
          "name": "value",
          "type": "uint256"
        }
      ],
      "payable": false,
      "stateMutability": "view",
      "type": "function"
    },
    {
      "constant": true,
      "inputs": [
        {
          "name": "_marketId",
          "type": "bytes32"
        }
      ],
      "name": "marketName",
      "outputs": [
        {
          "name": "name",
          "type": "string"
        }
      ],
      "payable": false,
      "stateMutability": "view",
      "type": "function"
    },
    {
      "constant": true,
      "inputs": [
        {
          "name": "_marketId",
          "type": "bytes32"
        }
      ],
      "name": "isMarketActive",
      "outputs": [
        {
          "name": "active",
          "type": "bool"
        }
      ],
      "payable": false,
      "stateMutability": "view",
      "type": "function"
    }
  ],
  "bytecode": "0x608060405234801561001057600080fd5b506040516040806108618339810180604052604081101561003057600080fd5b508051602090910151600080546001600160a01b039384166001600160a01b031991821617909155600180549390921692169190911790556107ea806100776000396000f3fe608060405234801561001057600080fd5b50600436106100415760003560e01c806361da14391461004657806377d7c52914610075578063f4463db514610107575b600080fd5b6100636004803603602081101561005c57600080fd5b5035610138565b60408051918252519081900360200190f35b6100926004803603602081101561008b57600080fd5b5035610456565b6040805160208082528351818301528351919283929083019185019080838360005b838110156100cc5781810151838201526020016100b4565b50505050905090810190601f1680156100f95780820380516001836020036101000a031916815260200191505b509250505060405180910390f35b6101246004803603602081101561011d57600080fd5b503561067f565b604080519115158252519081900360200190f35b6000805460408051600160e01b63f4463db50281526004810185905290516001600160a01b039092169163f4463db591602480820192602092909190829003018186803b15801561018857600080fd5b505afa15801561019c573d6000803e3d6000fd5b505050506040513d60208110156101b257600080fd5b5051156102385760005460408051600160e01b6361da14390281526004810185905281516001600160a01b03909316926361da143992602480840193919291829003018186803b15801561020557600080fd5b505afa158015610219573d6000803e3d6000fd5b505050506040513d604081101561022f57600080fd5b505190506103d1565b60015460408051600160e01b63f4463db50281526004810185905290516001600160a01b039092169163f4463db591602480820192602092909190829003018186803b15801561028757600080fd5b505afa15801561029b573d6000803e3d6000fd5b505050506040513d60208110156102b157600080fd5b5051156103315760015460408051600160e01b6361da14390281526004810185905290516001600160a01b03909216916361da143991602480820192602092909190829003018186803b15801561030757600080fd5b505afa15801561031b573d6000803e3d6000fd5b505050506040513d602081101561022f57600080fd5b6040518060600160405280602e8152602001610791602e9139604051600160e51b62461bcd0281526004018080602001828103825283818151815260200191508051906020019080838360005b8381101561039657818101518382015260200161037e565b50505050905090810190601f1680156103c35780820380516001836020036101000a031916815260200191505b509250505060405180910390fd5b8061045157604080518082018252601481527f4d61726b6574207072696365206973207a65726f00000000000000000000000060208083019182529251600160e51b62461bcd028152600481019384528251602482015282519293928392604490920191908083836000831561039657818101518382015260200161037e565b919050565b60005460408051600160e01b63f4463db50281526004810184905290516060926001600160a01b03169163f4463db5916024808301926020929190829003018186803b1580156104a557600080fd5b505afa1580156104b9573d6000803e3d6000fd5b505050506040513d60208110156104cf57600080fd5b5051156105b0576000805460408051600160e21b63106554850281526004810186905290516001600160a01b0390921692634195521492602480840193829003018186803b15801561052057600080fd5b505afa158015610534573d6000803e3d6000fd5b505050506040513d6000823e601f3d908101601f19168201604052602081101561055d57600080fd5b81019080805164010000000081111561057557600080fd5b8201602081018481111561058857600080fd5b81516401000000008111828201871017156105a257600080fd5b509094506104519350505050565b60015460408051600160e01b63f4463db50281526004810185905290516001600160a01b039092169163f4463db591602480820192602092909190829003018186803b1580156105ff57600080fd5b505afa158015610613573d6000803e3d6000fd5b505050506040513d602081101561062957600080fd5b5051156103315760015460408051600160e21b63106554850281526004810185905290516001600160a01b0390921691634195521491602480820192600092909190829003018186803b15801561052057600080fd5b6000805460408051600160e01b63f4463db50281526004810185905290516001600160a01b039092169163f4463db591602480820192602092909190829003018186803b1580156106cf57600080fd5b505afa1580156106e3573d6000803e3d6000fd5b505050506040513d60208110156106f957600080fd5b50511561070857506001610451565b60015460408051600160e01b63f4463db50281526004810185905290516001600160a01b039092169163f4463db591602480820192602092909190829003018186803b15801561075757600080fd5b505afa15801561076b573d6000803e3d6000fd5b505050506040513d602081101561078157600080fd5b5051156104515750600191905056fe50726963652072657175657374656420666f7220696e616374697665206f7220756e6b6e6f776e206d61726b6574a165627a7a723058206aeb0407e589b5b401e1d38ae0711462cbd11cab504ebd71d8a9d0ec02a940a50029",
  "source": "pragma solidity ^0.5.0;\n\nimport \"./PriceFeedsInternal.sol\";\nimport \"./PriceFeedsExternal.sol\";\n\n/**\n * Interface to market prices for the CFD contract.\n * Abstracts away the logic of reading from various market sources.\n */\ncontract PriceFeeds {\n    string constant REASON_MARKET_INACTIVE_OR_UNKNOWN = \"Price requested for inactive or unknown market\";\n    string constant REASON_MARKET_VALUE_ZERO = \"Market price is zero\";\n\n    PriceFeedsInternal feedInternal;\n    PriceFeedsExternal feedExternal;\n\n    constructor(address _internal, address _external) public {\n        feedInternal = PriceFeedsInternal(_internal);\n        feedExternal = PriceFeedsExternal(_external);\n    }\n\n    function read(bytes32 _marketId)\n        public\n        view\n        returns (uint value)\n    {\n        if (feedInternal.isMarketActive(_marketId)) {\n            (value, ) = feedInternal.read(_marketId);\n        } else if (feedExternal.isMarketActive(_marketId)) {\n            value = feedExternal.read(_marketId);\n        } else {\n            revert(REASON_MARKET_INACTIVE_OR_UNKNOWN);\n        }\n\n        if (value == 0) {\n            revert(REASON_MARKET_VALUE_ZERO);\n        }\n    }\n\n    function marketName(bytes32 _marketId)\n        public\n        view\n        returns (string memory name)\n    {\n        if (feedInternal.isMarketActive(_marketId)) {\n            name = feedInternal.marketNames(_marketId);\n        } else if (feedExternal.isMarketActive(_marketId)) {\n            name = feedExternal.marketNames(_marketId);\n        } else {\n            revert(REASON_MARKET_INACTIVE_OR_UNKNOWN);\n        }\n    }\n\n    function isMarketActive(bytes32 _marketId)\n        public\n        view\n        returns (bool active)\n    {\n        active = false;\n        if (feedInternal.isMarketActive(_marketId)) {\n            active = true;\n        } else if (feedExternal.isMarketActive(_marketId)) {\n            active = true;\n        }\n    }\n\n}\n",
  "sourcePath": "/home/julien/0xFutures/protocol-master/contracts/feeds/PriceFeeds.sol",
  "compiler": {
    "name": "solc",
    "version": "0.5.6+commit.b259423e.Emscripten.clang"
  },
  "schemaVersion": "3.0.8",
  "updatedAt": "2019-06-04T07:06:18.957Z",
  "devdoc": {
    "methods": {}
  },
  "userdoc": {
    "methods": {},
    "notice": "Interface to market prices for the CFD contract. Abstracts away the logic of reading from various market sources."
  }
}