{
  "contractName": "PriceFeedsKyber",
  "abi": [
    {
      "constant": true,
      "inputs": [],
      "name": "BITMASK_EXCLUDE_PERMISSIONLESS",
      "outputs": [
        {
          "name": "",
          "type": "uint256"
        }
      ],
      "payable": false,
      "stateMutability": "view",
      "type": "function"
    },
    {
      "constant": true,
      "inputs": [
        {
          "name": "",
          "type": "bytes32"
        }
      ],
      "name": "marketNames",
      "outputs": [
        {
          "name": "",
          "type": "string"
        }
      ],
      "payable": false,
      "stateMutability": "view",
      "type": "function"
    },
    {
      "constant": false,
      "inputs": [],
      "name": "renounceOwnership",
      "outputs": [],
      "payable": false,
      "stateMutability": "nonpayable",
      "type": "function"
    },
    {
      "constant": true,
      "inputs": [
        {
          "name": "",
          "type": "bytes32"
        }
      ],
      "name": "markets",
      "outputs": [
        {
          "name": "tokenContract",
          "type": "address"
        },
        {
          "name": "tokenContractTo",
          "type": "address"
        },
        {
          "name": "encodedCall",
          "type": "bytes"
        }
      ],
      "payable": false,
      "stateMutability": "view",
      "type": "function"
    },
    {
      "constant": true,
      "inputs": [],
      "name": "registry",
      "outputs": [
        {
          "name": "",
          "type": "address"
        }
      ],
      "payable": false,
      "stateMutability": "view",
      "type": "function"
    },
    {
      "constant": true,
      "inputs": [],
      "name": "owner",
      "outputs": [
        {
          "name": "",
          "type": "address"
        }
      ],
      "payable": false,
      "stateMutability": "view",
      "type": "function"
    },
    {
      "constant": true,
      "inputs": [],
      "name": "isOwner",
      "outputs": [
        {
          "name": "",
          "type": "bool"
        }
      ],
      "payable": false,
      "stateMutability": "view",
      "type": "function"
    },
    {
      "constant": false,
      "inputs": [
        {
          "name": "newOwner",
          "type": "address"
        }
      ],
      "name": "transferOwnership",
      "outputs": [],
      "payable": false,
      "stateMutability": "nonpayable",
      "type": "function"
    },
    {
      "inputs": [
        {
          "name": "_registry",
          "type": "address"
        }
      ],
      "payable": false,
      "stateMutability": "nonpayable",
      "type": "constructor"
    },
    {
      "anonymous": false,
      "inputs": [
        {
          "indexed": true,
          "name": "bytesId",
          "type": "bytes32"
        },
        {
          "indexed": false,
          "name": "strId",
          "type": "string"
        }
      ],
      "name": "LogPriceFeedsKyberMarketAdded",
      "type": "event"
    },
    {
      "anonymous": false,
      "inputs": [
        {
          "indexed": true,
          "name": "marketId",
          "type": "bytes32"
        }
      ],
      "name": "LogPriceFeedsKyberMarketRemoved",
      "type": "event"
    },
    {
      "anonymous": false,
      "inputs": [
        {
          "indexed": true,
          "name": "previousOwner",
          "type": "address"
        },
        {
          "indexed": true,
          "name": "newOwner",
          "type": "address"
        }
      ],
      "name": "OwnershipTransferred",
      "type": "event"
    },
    {
      "constant": false,
      "inputs": [
        {
          "name": "_registry",
          "type": "address"
        }
      ],
      "name": "setRegistry",
      "outputs": [],
      "payable": false,
      "stateMutability": "nonpayable",
      "type": "function"
    },
    {
      "constant": true,
      "inputs": [
        {
          "name": "_marketId",
          "type": "bytes32"
        }
      ],
      "name": "isMarketActive",
      "outputs": [
        {
          "name": "",
          "type": "bool"
        }
      ],
      "payable": false,
      "stateMutability": "view",
      "type": "function"
    },
    {
      "constant": false,
      "inputs": [
        {
          "name": "_marketStrId",
          "type": "string"
        },
        {
          "name": "_tokenContract",
          "type": "address"
        },
        {
          "name": "_tokenContractTo",
          "type": "address"
        }
      ],
      "name": "addMarket",
      "outputs": [
        {
          "name": "marketId",
          "type": "bytes32"
        }
      ],
      "payable": false,
      "stateMutability": "nonpayable",
      "type": "function"
    },
    {
      "constant": false,
      "inputs": [
        {
          "name": "_marketId",
          "type": "bytes32"
        }
      ],
      "name": "removeMarket",
      "outputs": [],
      "payable": false,
      "stateMutability": "nonpayable",
      "type": "function"
    },
    {
      "constant": true,
      "inputs": [
        {
          "name": "_marketId",
          "type": "bytes32"
        }
      ],
      "name": "getMarket",
      "outputs": [
        {
          "name": "tokenContract",
          "type": "address"
        },
        {
          "name": "tokenContractTo",
          "type": "address"
        },
        {
          "name": "encodedCall",
          "type": "bytes"
        }
      ],
      "payable": false,
      "stateMutability": "view",
      "type": "function"
    },
    {
      "constant": true,
      "inputs": [
        {
          "name": "_marketId",
          "type": "bytes32"
        }
      ],
      "name": "read",
      "outputs": [
        {
          "name": "priceValue",
          "type": "uint256"
        }
      ],
      "payable": false,
      "stateMutability": "view",
      "type": "function"
    }
  ],
  "bytecode": "0x608060405234801561001057600080fd5b50604051602080610f798339810180604052602081101561003057600080fd5b5051600080546001600160a01b03191633178082556040516001600160a01b039190911691907f8be0079c531659141344cd1fd0a4f28419497f9722a3daafe3b4186f6b6457e0908290a361008a8161009060201b60201c565b506100da565b61009e6100c960201b60201c565b6100a757600080fd5b600380546001600160a01b0319166001600160a01b0392909216919091179055565b6000546001600160a01b0316331490565b610e90806100e96000396000f3fe608060405234801561001057600080fd5b50600436106100ea5760003560e01c80637b1039991161008c578063a91ee0dc11610066578063a91ee0dc1461036f578063c3c95c7b14610395578063f2fde38b146103b2578063f4463db5146103d8576100ea565b80637b103999146103275780638da5cb5b1461034b5780638f32d59b14610353576100ea565b80635c5212dd116100c85780635c5212dd1461021c57806361da14391461023b578063715018a6146102585780637564912b14610260576100ea565b80630c441d4f146100ef5780633d065e6314610109578063419552141461018a575b600080fd5b6100f76103f5565b60408051918252519081900360200190f35b6100f76004803603606081101561011f57600080fd5b81019060208101813564010000000081111561013a57600080fd5b82018360208201111561014c57600080fd5b8035906020019184600183028401116401000000008311171561016e57600080fd5b91935091506001600160a01b03813581169160200135166103fd565b6101a7600480360360208110156101a057600080fd5b50356105c5565b6040805160208082528351818301528351919283929083019185019080838360005b838110156101e15781810151838201526020016101c9565b50505050905090810190601f16801561020e5780820380516001836020036101000a031916815260200191505b509250505060405180910390f35b6102396004803603602081101561023257600080fd5b503561065e565b005b6100f76004803603602081101561025157600080fd5b50356107d8565b6102396109bb565b61027d6004803603602081101561027657600080fd5b5035610a16565b60405180846001600160a01b03166001600160a01b03168152602001836001600160a01b03166001600160a01b0316815260200180602001828103825283818151815260200191508051906020019080838360005b838110156102ea5781810151838201526020016102d2565b50505050905090810190601f1680156103175780820380516001836020036101000a031916815260200191505b5094505050505060405180910390f35b61032f610acf565b604080516001600160a01b039092168252519081900360200190f35b61032f610ade565b61035b610aee565b604080519115158252519081900360200190f35b6102396004803603602081101561038557600080fd5b50356001600160a01b0316610aff565b61027d600480360360208110156103ab57600080fd5b5035610b32565b610239600480360360208110156103c857600080fd5b50356001600160a01b0316610c21565b61035b600480360360208110156103ee57600080fd5b5035610c3e565b600160ff1b81565b6000610407610aee565b61041057600080fd5b84846040516020018083838082843780830192505050925050506040516020818303038152906040528051906020012090506040518060600160405280846001600160a01b03168152602001836001600160a01b031681526020016040518080610e1860289139604080519182900360280182206001600160a01b03808a1660248501528089166044850152670de0b6b3a7640000600160ff1b016064808601919091528351808603909101815260849094018352602084810180516001600160e01b03166001600160e01b031990941693909317909252929094526000868152600180865290829020865181549085166001600160a01b0319918216178255878701519282018054939095169216919091179092558401518051919361053f93506002850192910190610cf2565b505050600081815260026020526040902061055b908686610d70565b50807fa5a61bd6a6ada80224b49aa7fae9b176c38f70934cfc65e1c34495527cd91e23868660405180806020018281038252848482818152602001925080828437600083820152604051601f909101601f19169092018290039550909350505050a2949350505050565b600260208181526000928352604092839020805484516001821615610100026000190190911693909304601f81018390048302840183019094528383529192908301828280156106565780601f1061062b57610100808354040283529160200191610656565b820191906000526020600020905b81548152906001019060200180831161063957829003601f168201915b505050505081565b610666610aee565b61066f57600080fd5b61067881610c3e565b604051806060016040528060258152602001610e4060259139808261071e57604051600160e51b62461bcd0281526004018080602001828103825283818151815260200191508051906020019080838360005b838110156106e35781810151838201526020016106cb565b50505050905090810190601f1680156107105780820380516001836020036101000a031916815260200191505b509250505060405180910390fd5b50604080516060810182526000808252602080830182815284518083018490528551808203840181529086018652848601908152888452600180845295909320845181546001600160a01b03199081166001600160a01b03928316178355925196820180549093169616959095179055905180519293926107a59260028501920190610cf2565b50506040518491507fb54c2b8928a495bb6488be8bfd8a852a5815f53d28e2c454b49f5635e5d1d6a890600090a2505050565b60008181526001602090815260408083206003548251600160e41b63046756190281529251919385936060936001600160a01b0390931692634675619092600480840193919291829003018186803b15801561083357600080fd5b505afa158015610847573d6000803e3d6000fd5b505050506040513d602081101561085d57600080fd5b5051604051600280860180546001600160a01b039094169390929182918491600019610100600184161502019091160480156108d05780601f106108ae5761010080835404028352918201916108d0565b820191906000526020600020905b8154815290600101906020018083116108bc575b5050915050600060405180830381855afa9150503d8060008114610910576040519150601f19603f3d011682016040523d82523d6000602084013e610915565b606091505b5090925090508161099b57604080518082018252601781527f4b796265722070726963652063616c6c206661696c656400000000000000000060208083019182529251600160e51b62461bcd02815260048101938452825160248201528251929392839260449092019190808383600083156106e35781810151838201526020016106cb565b8080602001905160408110156109b057600080fd5b505195945050505050565b6109c3610aee565b6109cc57600080fd5b600080546040516001600160a01b03909116907f8be0079c531659141344cd1fd0a4f28419497f9722a3daafe3b4186f6b6457e0908390a3600080546001600160a01b0319169055565b6001602081815260009283526040928390208054818401546002808401805488516101009882161598909802600019011691909104601f81018690048602870186019097528686526001600160a01b039283169692909116949293909190830182828015610ac55780601f10610a9a57610100808354040283529160200191610ac5565b820191906000526020600020905b815481529060010190602001808311610aa857829003601f168201915b5050505050905083565b6003546001600160a01b031681565b6000546001600160a01b03165b90565b6000546001600160a01b0316331490565b610b07610aee565b610b1057600080fd5b600380546001600160a01b0319166001600160a01b0392909216919091179055565b6000806060610b3f610dde565b600085815260016020818152604092839020835160608101855281546001600160a01b0390811682528285015416818401526002808301805487516101009782161597909702600019011691909104601f810185900485028601850187528086529195929492860193909190830182828015610bfc5780601f10610bd157610100808354040283529160200191610bfc565b820191906000526020600020905b815481529060010190602001808311610bdf57829003601f168201915b5050509190925250508151602083015160409093015190989297509550909350505050565b610c29610aee565b610c3257600080fd5b610c3b81610c84565b50565b6000818152600160205260408120546001600160a01b031615801590610c7e5750600082815260016020819052604090912001546001600160a01b031615155b92915050565b6001600160a01b038116610c9757600080fd5b600080546040516001600160a01b03808516939216917f8be0079c531659141344cd1fd0a4f28419497f9722a3daafe3b4186f6b6457e091a3600080546001600160a01b0319166001600160a01b0392909216919091179055565b828054600181600116156101000203166002900490600052602060002090601f016020900481019282601f10610d3357805160ff1916838001178555610d60565b82800160010185558215610d60579182015b82811115610d60578251825591602001919060010190610d45565b50610d6c929150610dfd565b5090565b828054600181600116156101000203166002900490600052602060002090601f016020900481019282601f10610db15782800160ff19823516178555610d60565b82800160010185558215610d60579182015b82811115610d60578235825591602001919060010190610dc3565b6040805160608082018352600080835260208301529181019190915290565b610aeb91905b80821115610d6c5760008155600101610e0356fe67657445787065637465645261746528616464726573732c616464726573732c75696e74323536294d61726b6574206d7573742062652061637469766520746f207075736820612076616c7565a165627a7a7230582046db63651d9d0f1b9eb745b34d85ed3c71a3ea1ab270a5903f780c1d12c184240029",
  "source": "pragma solidity ^0.5.0;\n\nimport \"openzeppelin-solidity/contracts/ownership/Ownable.sol\";\nimport \"../DBC.sol\";\nimport \"../Registry.sol\";\n\n\n/**\n * Market prices from the Kyber Network:\n * https://developer.kyber.network/docs/API_ABI-KyberNetworkProxy/\n */\ncontract PriceFeedsKyber is DBC, Ownable {\n    event LogPriceFeedsKyberMarketAdded(bytes32 indexed bytesId, string strId);\n    event LogPriceFeedsKyberMarketRemoved(bytes32 indexed marketId);\n\n    string constant REASON_MUST_BE_ACTIVE_MARKET = \"Market must be active to push a value\";\n    string constant REASON_KYBER_PRICE_CALL_FAILED = \"Kyber price call failed\";\n\n    /* Adding this bit to the srcQty excludes permissionless reserves from\n       the price fetch */\n    uint public constant BITMASK_EXCLUDE_PERMISSIONLESS = 1 << 255;\n\n    bytes4 constant getExpectedRateCallSig = bytes4(\n        keccak256(\n            \"getExpectedRate(address,address,uint256)\"\n        )\n    );\n\n    struct Market  {\n        address tokenContract;\n        address tokenContractTo;\n        bytes encodedCall;\n    }\n    mapping(bytes32 => Market) public markets;\n    mapping(bytes32 => string) public marketNames;\n\n    Registry public registry;\n\n    constructor(address _registry) public {\n        setRegistry(_registry);\n    }\n\n    function setRegistry(address _registry) public onlyOwner {\n        registry = Registry(_registry);\n    }\n\n    function isMarketActive(bytes32 _marketId) public view returns (bool) {\n        return markets[_marketId].tokenContract != address(0) && markets[_marketId].tokenContractTo != address(0);\n    }\n\n    /**\n     * Add a new Kyber market\n     * @param _marketStrId String id of market. eg. \"ETH/DAI\"\n     * @param _tokenContract Address \"From\" of ERC20 Token on Kyber market.\n     * @param _tokenContractTo Address \"To\" of ERC20 Token on Kyber market.\n     * @return marketId bytes32 keccak256 of the _marketStrId\n     */\n    function addMarket(\n        string calldata _marketStrId,\n        address _tokenContract,\n        address _tokenContractTo\n    )\n        external\n        onlyOwner\n        returns (bytes32 marketId)\n    {\n        marketId = keccak256(abi.encodePacked(_marketStrId));\n\n        markets[marketId] = Market(\n            _tokenContract,\n            _tokenContractTo,\n            // store the call signature to get market price for those tokens\n            abi.encodeWithSelector(\n                getExpectedRateCallSig,\n                _tokenContract,\n                _tokenContractTo,\n                1 ether | BITMASK_EXCLUDE_PERMISSIONLESS\n            )\n        );\n        marketNames[marketId] = _marketStrId;\n\n        emit LogPriceFeedsKyberMarketAdded(marketId, _marketStrId);\n    }\n\n    function removeMarket(bytes32 _marketId)\n        external\n        onlyOwner\n        pre_cond(isMarketActive(_marketId), REASON_MUST_BE_ACTIVE_MARKET)\n    {\n        markets[_marketId] = Market(address(0x0), address(0x0), abi.encode(0x0));\n        emit LogPriceFeedsKyberMarketRemoved(_marketId);\n    }\n\n    function getMarket(bytes32 _marketId)\n        public\n        view\n        returns (address tokenContract, address tokenContractTo, bytes memory encodedCall)\n    {\n        Market memory market = markets[_marketId];\n        tokenContract = market.tokenContract;\n        tokenContractTo = market.tokenContractTo;\n        encodedCall = market.encodedCall;\n    }\n\n    function read(bytes32 _marketId) public view returns (uint priceValue) {\n        Market storage market = markets[_marketId];\n\n        bool success;\n        bytes memory rspData;\n        (success, rspData) = address(registry.getKyberNetworkProxy()).staticcall(\n            market.encodedCall\n        );\n\n        if (!success) {\n            revert(REASON_KYBER_PRICE_CALL_FAILED);\n        }\n\n        (priceValue, ) = abi.decode(rspData, (uint, uint));\n    }\n}\n",
  "sourcePath": "/home/julien/0xFutures/protocol/contracts/feeds/PriceFeedsKyber.sol",
  "compiler": {
    "name": "solc",
    "version": "0.5.6+commit.b259423e.Emscripten.clang"
  },
  "schemaVersion": "3.0.8",
  "updatedAt": "2019-08-03T21:35:28.312Z",
  "devdoc": {
    "methods": {
      "addMarket(string,address,address)": {
        "params": {
          "_marketStrId": "String id of market. eg. \"ETH/DAI\"",
          "_tokenContract": "Address \"From\" of ERC20 Token on Kyber market.",
          "_tokenContractTo": "Address \"To\" of ERC20 Token on Kyber market."
        },
        "return": "marketId bytes32 keccak256 of the _marketStrId"
      },
      "isOwner()": {
        "return": "true if `msg.sender` is the owner of the contract."
      },
      "owner()": {
        "return": "the address of the owner."
      },
      "renounceOwnership()": {
        "details": "Allows the current owner to relinquish control of the contract."
      },
      "transferOwnership(address)": {
        "details": "Allows the current owner to transfer control of the contract to a newOwner.",
        "params": {
          "newOwner": "The address to transfer ownership to."
        }
      }
    }
  },
  "userdoc": {
    "methods": {
      "addMarket(string,address,address)": {
        "notice": "Add a new Kyber market"
      },
      "renounceOwnership()": {
        "notice": "Renouncing to ownership will leave the contract without an owner. It will not be possible to call the functions with the `onlyOwner` modifier anymore."
      }
    },
    "notice": "Market prices from the Kyber Network: https://developer.kyber.network/docs/API_ABI-KyberNetworkProxy/"
  }
}