{
  "contractName": "PriceFeedsKyber",
  "abi": [
    {
      "constant": true,
      "inputs": [],
      "name": "BITMASK_EXCLUDE_PERMISSIONLESS",
      "outputs": [
        {
          "name": "",
          "type": "uint256"
        }
      ],
      "payable": false,
      "stateMutability": "view",
      "type": "function"
    },
    {
      "constant": true,
      "inputs": [
        {
          "name": "",
          "type": "bytes32"
        }
      ],
      "name": "marketNames",
      "outputs": [
        {
          "name": "",
          "type": "string"
        }
      ],
      "payable": false,
      "stateMutability": "view",
      "type": "function"
    },
    {
      "constant": false,
      "inputs": [],
      "name": "renounceOwnership",
      "outputs": [],
      "payable": false,
      "stateMutability": "nonpayable",
      "type": "function"
    },
    {
      "constant": true,
      "inputs": [
        {
          "name": "",
          "type": "bytes32"
        }
      ],
      "name": "markets",
      "outputs": [
        {
          "name": "tokenContract",
          "type": "address"
        },
        {
          "name": "tokenContractTo",
          "type": "address"
        },
        {
          "name": "encodedCall",
          "type": "bytes"
        }
      ],
      "payable": false,
      "stateMutability": "view",
      "type": "function"
    },
    {
      "constant": true,
      "inputs": [],
      "name": "registry",
      "outputs": [
        {
          "name": "",
          "type": "address"
        }
      ],
      "payable": false,
      "stateMutability": "view",
      "type": "function"
    },
    {
      "constant": true,
      "inputs": [],
      "name": "owner",
      "outputs": [
        {
          "name": "",
          "type": "address"
        }
      ],
      "payable": false,
      "stateMutability": "view",
      "type": "function"
    },
    {
      "constant": true,
      "inputs": [],
      "name": "isOwner",
      "outputs": [
        {
          "name": "",
          "type": "bool"
        }
      ],
      "payable": false,
      "stateMutability": "view",
      "type": "function"
    },
    {
      "constant": false,
      "inputs": [
        {
          "name": "newOwner",
          "type": "address"
        }
      ],
      "name": "transferOwnership",
      "outputs": [],
      "payable": false,
      "stateMutability": "nonpayable",
      "type": "function"
    },
    {
      "inputs": [
        {
          "name": "_registry",
          "type": "address"
        }
      ],
      "payable": false,
      "stateMutability": "nonpayable",
      "type": "constructor"
    },
    {
      "anonymous": false,
      "inputs": [
        {
          "indexed": true,
          "name": "bytesId",
          "type": "bytes32"
        },
        {
          "indexed": false,
          "name": "strId",
          "type": "string"
        }
      ],
      "name": "LogPriceFeedsKyberMarketAdded",
      "type": "event"
    },
    {
      "anonymous": false,
      "inputs": [
        {
          "indexed": true,
          "name": "marketId",
          "type": "bytes32"
        }
      ],
      "name": "LogPriceFeedsKyberMarketRemoved",
      "type": "event"
    },
    {
      "anonymous": false,
      "inputs": [
        {
          "indexed": true,
          "name": "previousOwner",
          "type": "address"
        },
        {
          "indexed": true,
          "name": "newOwner",
          "type": "address"
        }
      ],
      "name": "OwnershipTransferred",
      "type": "event"
    },
    {
      "constant": false,
      "inputs": [
        {
          "name": "_registry",
          "type": "address"
        }
      ],
      "name": "setRegistry",
      "outputs": [],
      "payable": false,
      "stateMutability": "nonpayable",
      "type": "function"
    },
    {
      "constant": true,
      "inputs": [
        {
          "name": "_marketId",
          "type": "bytes32"
        }
      ],
      "name": "isMarketActive",
      "outputs": [
        {
          "name": "",
          "type": "bool"
        }
      ],
      "payable": false,
      "stateMutability": "view",
      "type": "function"
    },
    {
      "constant": false,
      "inputs": [
        {
          "name": "_marketStrId",
          "type": "string"
        },
        {
          "name": "_tokenContract",
          "type": "address"
        },
        {
          "name": "_tokenContractTo",
          "type": "address"
        },
        {
          "name": "_sourceDecimals",
          "type": "uint256"
        }
      ],
      "name": "addMarket",
      "outputs": [
        {
          "name": "marketId",
          "type": "bytes32"
        }
      ],
      "payable": false,
      "stateMutability": "nonpayable",
      "type": "function"
    },
    {
      "constant": false,
      "inputs": [
        {
          "name": "_marketId",
          "type": "bytes32"
        }
      ],
      "name": "removeMarket",
      "outputs": [],
      "payable": false,
      "stateMutability": "nonpayable",
      "type": "function"
    },
    {
      "constant": true,
      "inputs": [
        {
          "name": "_marketId",
          "type": "bytes32"
        }
      ],
      "name": "getMarket",
      "outputs": [
        {
          "name": "tokenContract",
          "type": "address"
        },
        {
          "name": "tokenContractTo",
          "type": "address"
        },
        {
          "name": "encodedCall",
          "type": "bytes"
        }
      ],
      "payable": false,
      "stateMutability": "view",
      "type": "function"
    },
    {
      "constant": true,
      "inputs": [
        {
          "name": "_marketId",
          "type": "bytes32"
        }
      ],
      "name": "read",
      "outputs": [
        {
          "name": "priceValue",
          "type": "uint256"
        }
      ],
      "payable": false,
      "stateMutability": "view",
      "type": "function"
    }
  ],
  "bytecode": "0x608060405234801561001057600080fd5b50604051602080610f7e8339810180604052602081101561003057600080fd5b5051600080546001600160a01b03191633178082556040516001600160a01b039190911691907f8be0079c531659141344cd1fd0a4f28419497f9722a3daafe3b4186f6b6457e0908290a361008a8161009060201b60201c565b506100da565b61009e6100c960201b60201c565b6100a757600080fd5b600380546001600160a01b0319166001600160a01b0392909216919091179055565b6000546001600160a01b0316331490565b610e95806100e96000396000f3fe608060405234801561001057600080fd5b50600436106100ea5760003560e01c80637b1039991161008c578063a91ee0dc11610066578063a91ee0dc14610377578063c3c95c7b1461039d578063f2fde38b146103ba578063f4463db5146103e0576100ea565b80637b1039991461032f5780638da5cb5b146103535780638f32d59b1461035b576100ea565b80635c5212dd116100c85780635c5212dd1461022457806361da143914610243578063715018a6146102605780637564912b14610268576100ea565b80630c441d4f146100ef57806341955214146101095780635b7226e31461019b575b600080fd5b6100f76103fd565b60408051918252519081900360200190f35b6101266004803603602081101561011f57600080fd5b5035610405565b6040805160208082528351818301528351919283929083019185019080838360005b83811015610160578181015183820152602001610148565b50505050905090810190601f16801561018d5780820380516001836020036101000a031916815260200191505b509250505060405180910390f35b6100f7600480360360808110156101b157600080fd5b8101906020810181356401000000008111156101cc57600080fd5b8201836020820111156101de57600080fd5b8035906020019184600183028401116401000000008311171561020057600080fd5b91935091506001600160a01b0381358116916020810135909116906040013561049e565b6102416004803603602081101561023a57600080fd5b5035610663565b005b6100f76004803603602081101561025957600080fd5b50356107dd565b6102416109c0565b6102856004803603602081101561027e57600080fd5b5035610a1b565b60405180846001600160a01b03166001600160a01b03168152602001836001600160a01b03166001600160a01b0316815260200180602001828103825283818151815260200191508051906020019080838360005b838110156102f25781810151838201526020016102da565b50505050905090810190601f16801561031f5780820380516001836020036101000a031916815260200191505b5094505050505060405180910390f35b610337610ad4565b604080516001600160a01b039092168252519081900360200190f35b610337610ae3565b610363610af3565b604080519115158252519081900360200190f35b6102416004803603602081101561038d57600080fd5b50356001600160a01b0316610b04565b610285600480360360208110156103b357600080fd5b5035610b37565b610241600480360360208110156103d057600080fd5b50356001600160a01b0316610c26565b610363600480360360208110156103f657600080fd5b5035610c43565b600160ff1b81565b600260208181526000928352604092839020805484516001821615610100026000190190911693909304601f81018390048302840183019094528383529192908301828280156104965780601f1061046b57610100808354040283529160200191610496565b820191906000526020600020905b81548152906001019060200180831161047957829003601f168201915b505050505081565b60006104a8610af3565b6104b157600080fd5b85856040516020018083838082843780830192505050925050506040516020818303038152906040528051906020012090506040518060600160405280856001600160a01b03168152602001846001600160a01b031681526020016040518080610e1d60289139604080519182900360280182206001600160a01b03808b166024850152808a166044850152600a89900a600160ff1b176064808601919091528351808603909101815260849094018352602084810180516001600160e01b03166001600160e01b031990941693909317909252929094526000868152600180865290829020865181549085166001600160a01b031991821617825587870151928201805493909516921691909117909255840151805191936105dc93506002850192910190610cf7565b50505060008181526002602052604090206105f8908787610d75565b50807fa5a61bd6a6ada80224b49aa7fae9b176c38f70934cfc65e1c34495527cd91e23878760405180806020018281038252848482818152602001925080828437600083820152604051601f909101601f19169092018290039550909350505050a295945050505050565b61066b610af3565b61067457600080fd5b61067d81610c43565b604051806060016040528060258152602001610e4560259139808261072357604051600160e51b62461bcd0281526004018080602001828103825283818151815260200191508051906020019080838360005b838110156106e85781810151838201526020016106d0565b50505050905090810190601f1680156107155780820380516001836020036101000a031916815260200191505b509250505060405180910390fd5b50604080516060810182526000808252602080830182815284518083018490528551808203840181529086018652848601908152888452600180845295909320845181546001600160a01b03199081166001600160a01b03928316178355925196820180549093169616959095179055905180519293926107aa9260028501920190610cf7565b50506040518491507fb54c2b8928a495bb6488be8bfd8a852a5815f53d28e2c454b49f5635e5d1d6a890600090a2505050565b60008181526001602090815260408083206003548251600160e41b63046756190281529251919385936060936001600160a01b0390931692634675619092600480840193919291829003018186803b15801561083857600080fd5b505afa15801561084c573d6000803e3d6000fd5b505050506040513d602081101561086257600080fd5b5051604051600280860180546001600160a01b039094169390929182918491600019610100600184161502019091160480156108d55780601f106108b35761010080835404028352918201916108d5565b820191906000526020600020905b8154815290600101906020018083116108c1575b5050915050600060405180830381855afa9150503d8060008114610915576040519150601f19603f3d011682016040523d82523d6000602084013e61091a565b606091505b509092509050816109a057604080518082018252601781527f4b796265722070726963652063616c6c206661696c656400000000000000000060208083019182529251600160e51b62461bcd02815260048101938452825160248201528251929392839260449092019190808383600083156106e85781810151838201526020016106d0565b8080602001905160408110156109b557600080fd5b505195945050505050565b6109c8610af3565b6109d157600080fd5b600080546040516001600160a01b03909116907f8be0079c531659141344cd1fd0a4f28419497f9722a3daafe3b4186f6b6457e0908390a3600080546001600160a01b0319169055565b6001602081815260009283526040928390208054818401546002808401805488516101009882161598909802600019011691909104601f81018690048602870186019097528686526001600160a01b039283169692909116949293909190830182828015610aca5780601f10610a9f57610100808354040283529160200191610aca565b820191906000526020600020905b815481529060010190602001808311610aad57829003601f168201915b5050505050905083565b6003546001600160a01b031681565b6000546001600160a01b03165b90565b6000546001600160a01b0316331490565b610b0c610af3565b610b1557600080fd5b600380546001600160a01b0319166001600160a01b0392909216919091179055565b6000806060610b44610de3565b600085815260016020818152604092839020835160608101855281546001600160a01b0390811682528285015416818401526002808301805487516101009782161597909702600019011691909104601f810185900485028601850187528086529195929492860193909190830182828015610c015780601f10610bd657610100808354040283529160200191610c01565b820191906000526020600020905b815481529060010190602001808311610be457829003601f168201915b5050509190925250508151602083015160409093015190989297509550909350505050565b610c2e610af3565b610c3757600080fd5b610c4081610c89565b50565b6000818152600160205260408120546001600160a01b031615801590610c835750600082815260016020819052604090912001546001600160a01b031615155b92915050565b6001600160a01b038116610c9c57600080fd5b600080546040516001600160a01b03808516939216917f8be0079c531659141344cd1fd0a4f28419497f9722a3daafe3b4186f6b6457e091a3600080546001600160a01b0319166001600160a01b0392909216919091179055565b828054600181600116156101000203166002900490600052602060002090601f016020900481019282601f10610d3857805160ff1916838001178555610d65565b82800160010185558215610d65579182015b82811115610d65578251825591602001919060010190610d4a565b50610d71929150610e02565b5090565b828054600181600116156101000203166002900490600052602060002090601f016020900481019282601f10610db65782800160ff19823516178555610d65565b82800160010185558215610d65579182015b82811115610d65578235825591602001919060010190610dc8565b6040805160608082018352600080835260208301529181019190915290565b610af091905b80821115610d715760008155600101610e0856fe67657445787065637465645261746528616464726573732c616464726573732c75696e74323536294d61726b6574206d7573742062652061637469766520746f207075736820612076616c7565a165627a7a723058205ec1f519d9224763ad17a7bcc47b979b2fadfa6b75e73f4ff376377eebbf1bee0029",
  "source": "pragma solidity ^0.5.0;\r\n\r\nimport \"openzeppelin-solidity/contracts/ownership/Ownable.sol\";\r\nimport \"../DBC.sol\";\r\nimport \"../Registry.sol\";\r\n\r\n\r\n/**\r\n * Market prices from the Kyber Network:\r\n * https://developer.kyber.network/docs/API_ABI-KyberNetworkProxy/\r\n */\r\ncontract PriceFeedsKyber is DBC, Ownable {\r\n    event LogPriceFeedsKyberMarketAdded(bytes32 indexed bytesId, string strId);\r\n    event LogPriceFeedsKyberMarketRemoved(bytes32 indexed marketId);\r\n\r\n    string constant REASON_MUST_BE_ACTIVE_MARKET = \"Market must be active to push a value\";\r\n    string constant REASON_KYBER_PRICE_CALL_FAILED = \"Kyber price call failed\";\r\n\r\n    /* Adding this bit to the srcQty excludes permissionless reserves from the price fetch */\r\n    uint public constant BITMASK_EXCLUDE_PERMISSIONLESS = 1 << 255;\r\n\r\n    bytes4 constant getExpectedRateCallSig = bytes4(\r\n        keccak256(\r\n            \"getExpectedRate(address,address,uint256)\"\r\n        )\r\n    );\r\n\r\n    struct Market  {\r\n        address tokenContract;\r\n        address tokenContractTo;\r\n        bytes encodedCall;\r\n    }\r\n    mapping(bytes32 => Market) public markets;\r\n    mapping(bytes32 => string) public marketNames;\r\n\r\n    Registry public registry;\r\n\r\n    constructor(address _registry) public {\r\n        setRegistry(_registry);\r\n    }\r\n\r\n    function setRegistry(address _registry) public onlyOwner {\r\n        registry = Registry(_registry);\r\n    }\r\n\r\n    function isMarketActive(bytes32 _marketId) public view returns (bool) {\r\n        return markets[_marketId].tokenContract != address(0) && markets[_marketId].tokenContractTo != address(0);\r\n    }\r\n\r\n    /**\r\n     * Add a new Kyber market\r\n     * @param _marketStrId String id of market. eg. \"ETH/DAI\"\r\n     * @param _tokenContract Address \"From\" of ERC20 Token on Kyber market.\r\n     * @param _tokenContractTo Address \"To\" of ERC20 Token on Kyber market.\r\n     * @param _sourceDecimals Integer representing the decimals for the source token\r\n     * @return marketId bytes32 keccak256 of the _marketStrId\r\n     */\r\n    function addMarket(\r\n        string calldata _marketStrId,\r\n        address _tokenContract,\r\n        address _tokenContractTo,\r\n        uint _sourceDecimals\r\n    )\r\n        external\r\n        onlyOwner\r\n        returns (bytes32 marketId)\r\n    {\r\n        marketId = keccak256(abi.encodePacked(_marketStrId));\r\n\r\n        markets[marketId] = Market(\r\n            _tokenContract,\r\n            _tokenContractTo,\r\n            // store the call signature to get market price for those tokens\r\n            abi.encodeWithSelector(\r\n                getExpectedRateCallSig,\r\n                _tokenContract,\r\n                _tokenContractTo,\r\n                10 ** _sourceDecimals | BITMASK_EXCLUDE_PERMISSIONLESS\r\n            )\r\n        );\r\n        marketNames[marketId] = _marketStrId;\r\n\r\n        emit LogPriceFeedsKyberMarketAdded(marketId, _marketStrId);\r\n    }\r\n\r\n    function removeMarket(bytes32 _marketId)\r\n        external\r\n        onlyOwner\r\n        pre_cond(isMarketActive(_marketId), REASON_MUST_BE_ACTIVE_MARKET)\r\n    {\r\n        markets[_marketId] = Market(address(0x0), address(0x0), abi.encode(0x0));\r\n        emit LogPriceFeedsKyberMarketRemoved(_marketId);\r\n    }\r\n\r\n    function getMarket(bytes32 _marketId)\r\n        public\r\n        view\r\n        returns (address tokenContract, address tokenContractTo, bytes memory encodedCall)\r\n    {\r\n        Market memory market = markets[_marketId];\r\n        tokenContract = market.tokenContract;\r\n        tokenContractTo = market.tokenContractTo;\r\n        encodedCall = market.encodedCall;\r\n    }\r\n\r\n    function read(bytes32 _marketId) public view returns (uint priceValue) {\r\n        Market storage market = markets[_marketId];\r\n\r\n        bool success;\r\n        bytes memory rspData;\r\n        (success, rspData) = address(registry.getKyberNetworkProxy()).staticcall(\r\n            market.encodedCall\r\n        );\r\n\r\n        if (!success) {\r\n            revert(REASON_KYBER_PRICE_CALL_FAILED);\r\n        }\r\n\r\n        (priceValue, ) = abi.decode(rspData, (uint, uint));\r\n    }\r\n}\r\n",
  "sourcePath": "D:\\Users\\Julien\\Desktop\\Work\\0xFutures\\protocol\\contracts\\feeds\\PriceFeedsKyber.sol",
  "compiler": {
    "name": "solc",
    "version": "0.5.6+commit.b259423e.Emscripten.clang"
  },
  "schemaVersion": "3.0.8",
  "updatedAt": "2019-12-29T13:29:19.633Z",
  "devdoc": {
    "methods": {
      "addMarket(string,address,address,uint256)": {
        "params": {
          "_marketStrId": "String id of market. eg. \"ETH/DAI\"\r",
          "_sourceDecimals": "Integer representing the decimals for the source token\r",
          "_tokenContract": "Address \"From\" of ERC20 Token on Kyber market.\r",
          "_tokenContractTo": "Address \"To\" of ERC20 Token on Kyber market.\r"
        },
        "return": "marketId bytes32 keccak256 of the _marketStrId\r"
      },
      "isOwner()": {
        "return": "true if `msg.sender` is the owner of the contract."
      },
      "owner()": {
        "return": "the address of the owner."
      },
      "renounceOwnership()": {
        "details": "Allows the current owner to relinquish control of the contract."
      },
      "transferOwnership(address)": {
        "details": "Allows the current owner to transfer control of the contract to a newOwner.",
        "params": {
          "newOwner": "The address to transfer ownership to."
        }
      }
    }
  },
  "userdoc": {
    "methods": {
      "addMarket(string,address,address,uint256)": {
        "notice": "Add a new Kyber market\r"
      },
      "renounceOwnership()": {
        "notice": "Renouncing to ownership will leave the contract without an owner. It will not be possible to call the functions with the `onlyOwner` modifier anymore."
      }
    },
    "notice": "Market prices from the Kyber Network:\r https://developer.kyber.network/docs/API_ABI-KyberNetworkProxy/\r"
  }
}