{
  "contractName": "PriceFeedsKyber",
  "abi": [
    {
      "constant": true,
      "inputs": [
        {
          "name": "",
          "type": "bytes32"
        }
      ],
      "name": "marketNames",
      "outputs": [
        {
          "name": "",
          "type": "string"
        }
      ],
      "payable": false,
      "stateMutability": "view",
      "type": "function"
    },
    {
      "constant": false,
      "inputs": [],
      "name": "renounceOwnership",
      "outputs": [],
      "payable": false,
      "stateMutability": "nonpayable",
      "type": "function"
    },
    {
      "constant": true,
      "inputs": [],
      "name": "owner",
      "outputs": [
        {
          "name": "",
          "type": "address"
        }
      ],
      "payable": false,
      "stateMutability": "view",
      "type": "function"
    },
    {
      "constant": true,
      "inputs": [],
      "name": "isOwner",
      "outputs": [
        {
          "name": "",
          "type": "bool"
        }
      ],
      "payable": false,
      "stateMutability": "view",
      "type": "function"
    },
    {
      "constant": false,
      "inputs": [
        {
          "name": "newOwner",
          "type": "address"
        }
      ],
      "name": "transferOwnership",
      "outputs": [],
      "payable": false,
      "stateMutability": "nonpayable",
      "type": "function"
    },
    {
      "inputs": [
        {
          "name": "_kyberNetworkContract",
          "type": "address"
        }
      ],
      "payable": false,
      "stateMutability": "nonpayable",
      "type": "constructor"
    },
    {
      "anonymous": false,
      "inputs": [
        {
          "indexed": true,
          "name": "bytesId",
          "type": "bytes32"
        },
        {
          "indexed": false,
          "name": "strId",
          "type": "string"
        }
      ],
      "name": "LogPriceFeedsKyberMarketAdded",
      "type": "event"
    },
    {
      "anonymous": false,
      "inputs": [
        {
          "indexed": true,
          "name": "marketId",
          "type": "bytes32"
        }
      ],
      "name": "LogPriceFeedsKyberMarketRemoved",
      "type": "event"
    },
    {
      "anonymous": false,
      "inputs": [
        {
          "indexed": true,
          "name": "previousOwner",
          "type": "address"
        },
        {
          "indexed": true,
          "name": "newOwner",
          "type": "address"
        }
      ],
      "name": "OwnershipTransferred",
      "type": "event"
    },
    {
      "constant": false,
      "inputs": [
        {
          "name": "_kyberNetworkContract",
          "type": "address"
        }
      ],
      "name": "setKyberNetworkContract",
      "outputs": [],
      "payable": false,
      "stateMutability": "nonpayable",
      "type": "function"
    },
    {
      "constant": true,
      "inputs": [
        {
          "name": "_marketId",
          "type": "bytes32"
        }
      ],
      "name": "isMarketActive",
      "outputs": [
        {
          "name": "",
          "type": "bool"
        }
      ],
      "payable": false,
      "stateMutability": "view",
      "type": "function"
    },
    {
      "constant": false,
      "inputs": [
        {
          "name": "_marketStrId",
          "type": "string"
        },
        {
          "name": "_tokenContract",
          "type": "address"
        }
      ],
      "name": "addMarket",
      "outputs": [
        {
          "name": "marketId",
          "type": "bytes32"
        }
      ],
      "payable": false,
      "stateMutability": "nonpayable",
      "type": "function"
    },
    {
      "constant": false,
      "inputs": [
        {
          "name": "_marketId",
          "type": "bytes32"
        }
      ],
      "name": "removeMarket",
      "outputs": [],
      "payable": false,
      "stateMutability": "nonpayable",
      "type": "function"
    },
    {
      "constant": true,
      "inputs": [
        {
          "name": "_marketId",
          "type": "bytes32"
        }
      ],
      "name": "getMarket",
      "outputs": [
        {
          "name": "tokenContract",
          "type": "address"
        },
        {
          "name": "encodedCall",
          "type": "bytes"
        }
      ],
      "payable": false,
      "stateMutability": "view",
      "type": "function"
    },
    {
      "constant": true,
      "inputs": [
        {
          "name": "_marketId",
          "type": "bytes32"
        }
      ],
      "name": "read",
      "outputs": [
        {
          "name": "priceValue",
          "type": "uint256"
        }
      ],
      "payable": false,
      "stateMutability": "view",
      "type": "function"
    }
  ],
  "bytecode": "0x608060405234801561001057600080fd5b50604051602080610d5c8339810180604052602081101561003057600080fd5b5051600080546001600160a01b03191633178082556040516001600160a01b039190911691907f8be0079c531659141344cd1fd0a4f28419497f9722a3daafe3b4186f6b6457e0908290a361008a8161009060201b60201c565b506100da565b61009e6100c960201b60201c565b6100a757600080fd5b600380546001600160a01b0319166001600160a01b0392909216919091179055565b6000546001600160a01b0316331490565b610c73806100e96000396000f3fe608060405234801561001057600080fd5b50600436106100a95760003560e01c80638f32d59b116100715780638f32d59b146101ba5780639e485ffc146101d6578063abd188a81461024f578063c3c95c7b14610275578063f2fde38b14610323578063f4463db514610349576100a9565b806341955214146100ae5780635c5212dd1461014057806361da14391461015f578063715018a61461018e5780638da5cb5b14610196575b600080fd5b6100cb600480360360208110156100c457600080fd5b5035610366565b6040805160208082528351818301528351919283929083019185019080838360005b838110156101055781810151838201526020016100ed565b50505050905090810190601f1680156101325780820380516001836020036101000a031916815260200191505b509250505060405180910390f35b61015d6004803603602081101561015657600080fd5b50356103ff565b005b61017c6004803603602081101561017557600080fd5b5035610561565b60408051918252519081900360200190f35b61015d6106e9565b61019e610744565b604080516001600160a01b039092168252519081900360200190f35b6101c2610754565b604080519115158252519081900360200190f35b61017c600480360360408110156101ec57600080fd5b81019060208101813564010000000081111561020757600080fd5b82018360208201111561021957600080fd5b8035906020019184600183028401116401000000008311171561023b57600080fd5b9193509150356001600160a01b0316610765565b61015d6004803603602081101561026557600080fd5b50356001600160a01b0316610914565b6102926004803603602081101561028b57600080fd5b5035610947565b60405180836001600160a01b03166001600160a01b0316815260200180602001828103825283818151815260200191508051906020019080838360005b838110156102e75781810151838201526020016102cf565b50505050905090810190601f1680156103145780820380516001836020036101000a031916815260200191505b50935050505060405180910390f35b61015d6004803603602081101561033957600080fd5b50356001600160a01b0316610a26565b6101c26004803603602081101561035f57600080fd5b5035610a43565b600260208181526000928352604092839020805484516001821615610100026000190190911693909304601f81018390048302840183019094528383529192908301828280156103f75780601f106103cc576101008083540402835291602001916103f7565b820191906000526020600020905b8154815290600101906020018083116103da57829003601f168201915b505050505081565b610407610754565b61041057600080fd5b61041981610a43565b604051806060016040528060258152602001610c236025913980826104bf57604051600160e51b62461bcd0281526004018080602001828103825283818151815260200191508051906020019080838360005b8381101561048457818101518382015260200161046c565b50505050905090810190601f1680156104b15780820380516001836020036101000a031916815260200191505b509250505060405180910390fd5b506040805180820182526000808252825160208082018390528451808303820181529185018552808401918252878352600180825294909220835181546001600160a01b0319166001600160a01b03909116178155905180519394919361052e93928501929190910190610ace565b50506040518491507fb54c2b8928a495bb6488be8bfd8a852a5815f53d28e2c454b49f5635e5d1d6a890600090a2505050565b60008060016000848152602001908152602001600020905060006060600360009054906101000a90046001600160a01b03166001600160a01b03168360010160405180828054600181600116156101000203166002900480156105fb5780601f106105d95761010080835404028352918201916105fb565b820191906000526020600020905b8154815290600101906020018083116105e7575b5050915050600060405180830381855afa9150503d806000811461063b576040519150601f19603f3d011682016040523d82523d6000602084013e610640565b606091505b509092509050816106c657604080518082018252601781527f4b796265722070726963652063616c6c206661696c656400000000000000000060208083019182529251600160e51b62461bcd028152600481019384528251602482015282519293928392604490920191908083836000831561048457818101518382015260200161046c565b60008180602001905160408110156106dd57600080fd5b50519695505050505050565b6106f1610754565b6106fa57600080fd5b600080546040516001600160a01b03909116907f8be0079c531659141344cd1fd0a4f28419497f9722a3daafe3b4186f6b6457e0908390a3600080546001600160a01b0319169055565b6000546001600160a01b03165b90565b6000546001600160a01b0316331490565b600061076f610754565b61077857600080fd5b83836040516020018083838082843780830192505050925050506040516020818303038152906040528051906020012090506040518060400160405280836001600160a01b031681526020016040518080610bed603691396040805191829003603601822073eeeeeeeeeeeeeeeeeeeeeeeeeeeeeeeeeeeeeeee60248401526001600160a01b038089166044850152670de0b6b3a76400006064808601919091528351808603909101815260849094018352602084810180516001600160e01b03166001600160e01b03199094169390931790925292909452600086815260018086529190208551815493166001600160a01b0319909316929092178255848401518051929461088f945091850192910190610ace565b50505060008181526002602052604090206108ab908585610b4c565b50807fa5a61bd6a6ada80224b49aa7fae9b176c38f70934cfc65e1c34495527cd91e23858560405180806020018281038252848482818152602001925080828437600083820152604051601f909101601f19169092018290039550909350505050a29392505050565b61091c610754565b61092557600080fd5b600380546001600160a01b0319166001600160a01b0392909216919091179055565b60006060610953610bba565b6000848152600160208181526040928390208351808501855281546001600160a01b0316815281840180548651600261010097831615979097026000190190911695909504601f81018590048502860185019096528585529094919385840193909290830182828015610a075780601f106109dc57610100808354040283529160200191610a07565b820191906000526020600020905b8154815290600101906020018083116109ea57829003601f168201915b5050505050815250509050806000015192508060200151915050915091565b610a2e610754565b610a3757600080fd5b610a4081610a60565b50565b6000908152600160205260409020546001600160a01b0316151590565b6001600160a01b038116610a7357600080fd5b600080546040516001600160a01b03808516939216917f8be0079c531659141344cd1fd0a4f28419497f9722a3daafe3b4186f6b6457e091a3600080546001600160a01b0319166001600160a01b0392909216919091179055565b828054600181600116156101000203166002900490600052602060002090601f016020900481019282601f10610b0f57805160ff1916838001178555610b3c565b82800160010185558215610b3c579182015b82811115610b3c578251825591602001919060010190610b21565b50610b48929150610bd2565b5090565b828054600181600116156101000203166002900490600052602060002090601f016020900481019282601f10610b8d5782800160ff19823516178555610b3c565b82800160010185558215610b3c579182015b82811115610b3c578235825591602001919060010190610b9f565b60408051808201909152600081526060602082015290565b61075191905b80821115610b485760008155600101610bd856fe6765744578706563746564526174654f6e6c795065726d697373696f6e28616464726573732c616464726573732c75696e74323536294d61726b6574206d7573742062652061637469766520746f207075736820612076616c7565a165627a7a72305820dcdae6afa565cd2cf135ca6c87f9fbc11f062ece8ce13caae8ecd290baea69650029",
  "source": "pragma solidity ^0.5.0;\n\nimport \"openzeppelin-solidity/contracts/ownership/Ownable.sol\";\nimport \"../DBC.sol\";\n\n\n/**\n * Market prices from the KyberNetwork contract:\n * https://developer.kyber.network/docs/API_ABI-KyberNetwork/\n */\ncontract PriceFeedsKyber is DBC, Ownable {\n    event LogPriceFeedsKyberMarketAdded(bytes32 indexed bytesId, string strId);\n    event LogPriceFeedsKyberMarketRemoved(bytes32 indexed marketId);\n\n    string constant REASON_MUST_BE_ACTIVE_MARKET = \"Market must be active to push a value\";\n    string constant REASON_KYBER_PRICE_CALL_FAILED = \"Kyber price call failed\";\n\n    address constant kyberNativeEthAddr = address(0xEeeeeEeeeEeEeeEeEeEeeEEEeeeeEeeeeeeeEEeE);\n\n    bytes4 constant getExpectedRateCallSig = bytes4(\n        keccak256(\n            \"getExpectedRateOnlyPermission(address,address,uint256)\"\n        )\n    );\n\n    struct Market  {\n        address tokenContract;\n        bytes encodedCall;\n    }\n    mapping(bytes32 => Market) markets;\n    mapping(bytes32 => string) public marketNames;\n\n    address kyberNetworkContract;\n\n    constructor(address _kyberNetworkContract) public {\n        setKyberNetworkContract(_kyberNetworkContract);\n    }\n\n    function setKyberNetworkContract(address _kyberNetworkContract) public onlyOwner {\n        kyberNetworkContract = _kyberNetworkContract;\n    }\n\n    function isMarketActive(bytes32 _marketId) public view returns (bool) {\n        return markets[_marketId].tokenContract != address(0);\n    }\n\n    /**\n     * Add a new Kyber market\n     * @param _marketStrId String id of market. eg. \"Kyber_ETH_DAI\"\n     * @param _tokenContract Address of ERC20 Token on Kyber market.\n     * @return marketId bytes32 keccak256 of the _marketStrId\n     */\n    function addMarket(\n        string calldata _marketStrId,\n        address _tokenContract\n    )\n        external\n        onlyOwner\n        returns (bytes32 marketId)\n    {\n        marketId = keccak256(abi.encodePacked(_marketStrId));\n\n        markets[marketId] = Market(\n            _tokenContract,\n            // store the call signature to the get market price for\n            // 1 ETH of the token\n            abi.encodeWithSelector(\n                getExpectedRateCallSig,\n                kyberNativeEthAddr,\n                _tokenContract,\n                1 ether\n            )\n        );\n        marketNames[marketId] = _marketStrId;\n\n        emit LogPriceFeedsKyberMarketAdded(marketId, _marketStrId);\n    }\n\n    function removeMarket(bytes32 _marketId)\n        external\n        onlyOwner\n        pre_cond(isMarketActive(_marketId), REASON_MUST_BE_ACTIVE_MARKET)\n    {\n        markets[_marketId] = Market(address(0x0), abi.encode(0x0));\n        emit LogPriceFeedsKyberMarketRemoved(_marketId);\n    }\n\n    function getMarket(bytes32 _marketId)\n        public\n        view\n        returns (address tokenContract, bytes memory encodedCall)\n    {\n        Market memory market = markets[_marketId];\n        tokenContract = market.tokenContract;\n        encodedCall = market.encodedCall;\n    }\n\n    function read(bytes32 _marketId) public view returns (uint priceValue) {\n        Market storage market = markets[_marketId];\n\n        bool success;\n        bytes memory rspData;\n        (success, rspData) = kyberNetworkContract.staticcall(\n            market.encodedCall\n        );\n\n        if (!success) {\n            revert(REASON_KYBER_PRICE_CALL_FAILED);\n        }\n\n        // priceValue = 12345;\n        (uint value1, ) = abi.decode(rspData, (uint, uint));\n        return value1;\n    }\n}\n",
  "sourcePath": "/home/hatch/projects/0xfutures/protocol/contracts/feeds/PriceFeedsKyber.sol",
  "compiler": {
    "name": "solc",
    "version": "0.5.6+commit.b259423e.Emscripten.clang"
  },
  "schemaVersion": "3.0.8",
  "updatedAt": "2019-07-08T09:04:47.331Z",
  "devdoc": {
    "methods": {
      "addMarket(string,address)": {
        "params": {
          "_marketStrId": "String id of market. eg. \"Kyber_ETH_DAI\"",
          "_tokenContract": "Address of ERC20 Token on Kyber market."
        },
        "return": "marketId bytes32 keccak256 of the _marketStrId"
      },
      "isOwner()": {
        "return": "true if `msg.sender` is the owner of the contract."
      },
      "owner()": {
        "return": "the address of the owner."
      },
      "renounceOwnership()": {
        "details": "Allows the current owner to relinquish control of the contract."
      },
      "transferOwnership(address)": {
        "details": "Allows the current owner to transfer control of the contract to a newOwner.",
        "params": {
          "newOwner": "The address to transfer ownership to."
        }
      }
    }
  },
  "userdoc": {
    "methods": {
      "addMarket(string,address)": {
        "notice": "Add a new Kyber market"
      },
      "renounceOwnership()": {
        "notice": "Renouncing to ownership will leave the contract without an owner. It will not be possible to call the functions with the `onlyOwner` modifier anymore."
      }
    },
    "notice": "Market prices from the KyberNetwork contract: https://developer.kyber.network/docs/API_ABI-KyberNetwork/"
  }
}