{
  "contractName": "PriceFeedsKyber",
  "abi": [
    {
      "constant": true,
      "inputs": [],
      "name": "BITMASK_EXCLUDE_PERMISSIONLESS",
      "outputs": [
        {
          "name": "",
          "type": "uint256"
        }
      ],
      "payable": false,
      "stateMutability": "view",
      "type": "function"
    },
    {
      "constant": true,
      "inputs": [
        {
          "name": "",
          "type": "bytes32"
        }
      ],
      "name": "marketNames",
      "outputs": [
        {
          "name": "",
          "type": "string"
        }
      ],
      "payable": false,
      "stateMutability": "view",
      "type": "function"
    },
    {
      "constant": false,
      "inputs": [],
      "name": "renounceOwnership",
      "outputs": [],
      "payable": false,
      "stateMutability": "nonpayable",
      "type": "function"
    },
    {
      "constant": true,
      "inputs": [
        {
          "name": "",
          "type": "bytes32"
        }
      ],
      "name": "markets",
      "outputs": [
        {
          "name": "tokenContract",
          "type": "address"
        },
        {
          "name": "tokenContractTo",
          "type": "address"
        },
        {
          "name": "encodedCall",
          "type": "bytes"
        }
      ],
      "payable": false,
      "stateMutability": "view",
      "type": "function"
    },
    {
      "constant": true,
      "inputs": [],
      "name": "registry",
      "outputs": [
        {
          "name": "",
          "type": "address"
        }
      ],
      "payable": false,
      "stateMutability": "view",
      "type": "function"
    },
    {
      "constant": true,
      "inputs": [],
      "name": "owner",
      "outputs": [
        {
          "name": "",
          "type": "address"
        }
      ],
      "payable": false,
      "stateMutability": "view",
      "type": "function"
    },
    {
      "constant": true,
      "inputs": [],
      "name": "isOwner",
      "outputs": [
        {
          "name": "",
          "type": "bool"
        }
      ],
      "payable": false,
      "stateMutability": "view",
      "type": "function"
    },
    {
      "constant": false,
      "inputs": [
        {
          "name": "newOwner",
          "type": "address"
        }
      ],
      "name": "transferOwnership",
      "outputs": [],
      "payable": false,
      "stateMutability": "nonpayable",
      "type": "function"
    },
    {
      "inputs": [
        {
          "name": "_registry",
          "type": "address"
        }
      ],
      "payable": false,
      "stateMutability": "nonpayable",
      "type": "constructor"
    },
    {
      "anonymous": false,
      "inputs": [
        {
          "indexed": true,
          "name": "bytesId",
          "type": "bytes32"
        },
        {
          "indexed": false,
          "name": "strId",
          "type": "string"
        }
      ],
      "name": "LogPriceFeedsKyberMarketAdded",
      "type": "event"
    },
    {
      "anonymous": false,
      "inputs": [
        {
          "indexed": true,
          "name": "marketId",
          "type": "bytes32"
        }
      ],
      "name": "LogPriceFeedsKyberMarketRemoved",
      "type": "event"
    },
    {
      "anonymous": false,
      "inputs": [
        {
          "indexed": true,
          "name": "previousOwner",
          "type": "address"
        },
        {
          "indexed": true,
          "name": "newOwner",
          "type": "address"
        }
      ],
      "name": "OwnershipTransferred",
      "type": "event"
    },
    {
      "constant": false,
      "inputs": [
        {
          "name": "_registry",
          "type": "address"
        }
      ],
      "name": "setRegistry",
      "outputs": [],
      "payable": false,
      "stateMutability": "nonpayable",
      "type": "function"
    },
    {
      "constant": true,
      "inputs": [
        {
          "name": "_marketId",
          "type": "bytes32"
        }
      ],
      "name": "isMarketActive",
      "outputs": [
        {
          "name": "",
          "type": "bool"
        }
      ],
      "payable": false,
      "stateMutability": "view",
      "type": "function"
    },
    {
      "constant": false,
      "inputs": [
        {
          "name": "_marketStrId",
          "type": "string"
        },
        {
          "name": "_tokenContract",
          "type": "address"
        },
        {
          "name": "_tokenContractTo",
          "type": "address"
        },
        {
          "name": "_sourceDecimals",
          "type": "uint256"
        }
      ],
      "name": "addMarket",
      "outputs": [
        {
          "name": "marketId",
          "type": "bytes32"
        }
      ],
      "payable": false,
      "stateMutability": "nonpayable",
      "type": "function"
    },
    {
      "constant": false,
      "inputs": [
        {
          "name": "_marketId",
          "type": "bytes32"
        }
      ],
      "name": "removeMarket",
      "outputs": [],
      "payable": false,
      "stateMutability": "nonpayable",
      "type": "function"
    },
    {
      "constant": true,
      "inputs": [
        {
          "name": "_marketId",
          "type": "bytes32"
        }
      ],
      "name": "getMarket",
      "outputs": [
        {
          "name": "tokenContract",
          "type": "address"
        },
        {
          "name": "tokenContractTo",
          "type": "address"
        },
        {
          "name": "encodedCall",
          "type": "bytes"
        }
      ],
      "payable": false,
      "stateMutability": "view",
      "type": "function"
    },
    {
      "constant": true,
      "inputs": [
        {
          "name": "_marketId",
          "type": "bytes32"
        }
      ],
      "name": "read",
      "outputs": [
        {
          "name": "priceValue",
          "type": "uint256"
        }
      ],
      "payable": false,
      "stateMutability": "view",
      "type": "function"
    }
  ],
  "bytecode": "0x608060405234801561001057600080fd5b506040516020806111bb8339810180604052602081101561003057600080fd5b505161004161009e602090811b901c565b600080546001600160a01b0319166001600160a01b03928316178082556040519216917f8be0079c531659141344cd1fd0a4f28419497f9722a3daafe3b4186f6b6457e0908290a3610098816100a260201b60201c565b50610168565b3390565b6100b061013d60201b60201c565b61011b57604080517f08c379a000000000000000000000000000000000000000000000000000000000815260206004820181905260248201527f4f776e61626c653a2063616c6c6572206973206e6f7420746865206f776e6572604482015290519081900360640190fd5b600380546001600160a01b0319166001600160a01b0392909216919091179055565b600080546001600160a01b031661015961009e602090811b901c565b6001600160a01b031614905090565b611044806101776000396000f3fe608060405234801561001057600080fd5b50600436106100ea5760003560e01c80637b1039991161008c578063a91ee0dc11610066578063a91ee0dc14610377578063c3c95c7b1461039d578063f2fde38b146103ba578063f4463db5146103e0576100ea565b80637b1039991461032f5780638da5cb5b146103535780638f32d59b1461035b576100ea565b80635c5212dd116100c85780635c5212dd1461022457806361da143914610243578063715018a6146102605780637564912b14610268576100ea565b80630c441d4f146100ef57806341955214146101095780635b7226e31461019b575b600080fd5b6100f76103fd565b60408051918252519081900360200190f35b6101266004803603602081101561011f57600080fd5b5035610405565b6040805160208082528351818301528351919283929083019185019080838360005b83811015610160578181015183820152602001610148565b50505050905090810190601f16801561018d5780820380516001836020036101000a031916815260200191505b509250505060405180910390f35b6100f7600480360360808110156101b157600080fd5b8101906020810181356401000000008111156101cc57600080fd5b8201836020820111156101de57600080fd5b8035906020019184600183028401116401000000008311171561020057600080fd5b91935091506001600160a01b0381358116916020810135909116906040013561049e565b6102416004803603602081101561023a57600080fd5b503561069c565b005b6100f76004803603602081101561025957600080fd5b503561084f565b610241610a32565b6102856004803603602081101561027e57600080fd5b5035610ac6565b60405180846001600160a01b03166001600160a01b03168152602001836001600160a01b03166001600160a01b0316815260200180602001828103825283818151815260200191508051906020019080838360005b838110156102f25781810151838201526020016102da565b50505050905090810190601f16801561031f5780820380516001836020036101000a031916815260200191505b5094505050505060405180910390f35b610337610b7f565b604080516001600160a01b039092168252519081900360200190f35b610337610b8e565b610363610b9e565b604080519115158252519081900360200190f35b6102416004803603602081101561038d57600080fd5b50356001600160a01b0316610bc2565b610285600480360360208110156103b357600080fd5b5035610c2e565b610241600480360360208110156103d057600080fd5b50356001600160a01b0316610d1d565b610363600480360360208110156103f657600080fd5b5035610d73565b600160ff1b81565b600260208181526000928352604092839020805484516001821615610100026000190190911693909304601f81018390048302840183019094528383529192908301828280156104965780601f1061046b57610100808354040283529160200191610496565b820191906000526020600020905b81548152906001019060200180831161047957829003601f168201915b505050505081565b60006104a8610b9e565b6104ea5760408051600160e51b62461bcd0281526020600482018190526024820152600080516020610ff9833981519152604482015290519081900360640190fd5b85856040516020018083838082843780830192505050925050506040516020818303038152906040528051906020012090506040518060600160405280856001600160a01b03168152602001846001600160a01b031681526020016040518080610fac60289139604080519182900360280182206001600160a01b03808b166024850152808a166044850152600a89900a600160ff1b176064808601919091528351808603909101815260849094018352602084810180516001600160e01b03166001600160e01b031990941693909317909252929094526000868152600180865290829020865181549085166001600160a01b0319918216178255878701519282018054939095169216919091179092558401518051919361061593506002850192910190610e60565b5050506000818152600260205260409020610631908787610ede565b50807fa5a61bd6a6ada80224b49aa7fae9b176c38f70934cfc65e1c34495527cd91e23878760405180806020018281038252848482818152602001925080828437600083820152604051601f909101601f19169092018290039550909350505050a295945050505050565b6106a4610b9e565b6106e65760408051600160e51b62461bcd0281526020600482018190526024820152600080516020610ff9833981519152604482015290519081900360640190fd5b6106ef81610d73565b604051806060016040528060258152602001610fd460259139808261079557604051600160e51b62461bcd0281526004018080602001828103825283818151815260200191508051906020019080838360005b8381101561075a578181015183820152602001610742565b50505050905090810190601f1680156107875780820380516001836020036101000a031916815260200191505b509250505060405180910390fd5b50604080516060810182526000808252602080830182815284518083018490528551808203840181529086018652848601908152888452600180845295909320845181546001600160a01b03199081166001600160a01b039283161783559251968201805490931696169590951790559051805192939261081c9260028501920190610e60565b50506040518491507fb54c2b8928a495bb6488be8bfd8a852a5815f53d28e2c454b49f5635e5d1d6a890600090a2505050565b60008181526001602090815260408083206003548251600160e41b63046756190281529251919385936060936001600160a01b0390931692634675619092600480840193919291829003018186803b1580156108aa57600080fd5b505afa1580156108be573d6000803e3d6000fd5b505050506040513d60208110156108d457600080fd5b5051604051600280860180546001600160a01b039094169390929182918491600019610100600184161502019091160480156109475780601f10610925576101008083540402835291820191610947565b820191906000526020600020905b815481529060010190602001808311610933575b5050915050600060405180830381855afa9150503d8060008114610987576040519150601f19603f3d011682016040523d82523d6000602084013e61098c565b606091505b50909250905081610a1257604080518082018252601781527f4b796265722070726963652063616c6c206661696c656400000000000000000060208083019182529251600160e51b62461bcd028152600481019384528251602482015282519293928392604490920191908083836000831561075a578181015183820152602001610742565b808060200190516040811015610a2757600080fd5b505195945050505050565b610a3a610b9e565b610a7c5760408051600160e51b62461bcd0281526020600482018190526024820152600080516020610ff9833981519152604482015290519081900360640190fd5b600080546040516001600160a01b03909116907f8be0079c531659141344cd1fd0a4f28419497f9722a3daafe3b4186f6b6457e0908390a3600080546001600160a01b0319169055565b6001602081815260009283526040928390208054818401546002808401805488516101009882161598909802600019011691909104601f81018690048602870186019097528686526001600160a01b039283169692909116949293909190830182828015610b755780601f10610b4a57610100808354040283529160200191610b75565b820191906000526020600020905b815481529060010190602001808311610b5857829003601f168201915b5050505050905083565b6003546001600160a01b031681565b6000546001600160a01b03165b90565b600080546001600160a01b0316610bb3610db9565b6001600160a01b031614905090565b610bca610b9e565b610c0c5760408051600160e51b62461bcd0281526020600482018190526024820152600080516020610ff9833981519152604482015290519081900360640190fd5b600380546001600160a01b0319166001600160a01b0392909216919091179055565b6000806060610c3b610f4c565b600085815260016020818152604092839020835160608101855281546001600160a01b0390811682528285015416818401526002808301805487516101009782161597909702600019011691909104601f810185900485028601850187528086529195929492860193909190830182828015610cf85780601f10610ccd57610100808354040283529160200191610cf8565b820191906000526020600020905b815481529060010190602001808311610cdb57829003601f168201915b5050509190925250508151602083015160409093015190989297509550909350505050565b610d25610b9e565b610d675760408051600160e51b62461bcd0281526020600482018190526024820152600080516020610ff9833981519152604482015290519081900360640190fd5b610d7081610dbd565b50565b6000818152600160205260408120546001600160a01b031615801590610db35750600082815260016020819052604090912001546001600160a01b031615155b92915050565b3390565b6001600160a01b038116610e0557604051600160e51b62461bcd028152600401808060200182810382526026815260200180610f866026913960400191505060405180910390fd5b600080546040516001600160a01b03808516939216917f8be0079c531659141344cd1fd0a4f28419497f9722a3daafe3b4186f6b6457e091a3600080546001600160a01b0319166001600160a01b0392909216919091179055565b828054600181600116156101000203166002900490600052602060002090601f016020900481019282601f10610ea157805160ff1916838001178555610ece565b82800160010185558215610ece579182015b82811115610ece578251825591602001919060010190610eb3565b50610eda929150610f6b565b5090565b828054600181600116156101000203166002900490600052602060002090601f016020900481019282601f10610f1f5782800160ff19823516178555610ece565b82800160010185558215610ece579182015b82811115610ece578235825591602001919060010190610f31565b6040805160608082018352600080835260208301529181019190915290565b610b9b91905b80821115610eda5760008155600101610f7156fe4f776e61626c653a206e6577206f776e657220697320746865207a65726f206164647265737367657445787065637465645261746528616464726573732c616464726573732c75696e74323536294d61726b6574206d7573742062652061637469766520746f207075736820612076616c75654f776e61626c653a2063616c6c6572206973206e6f7420746865206f776e6572a165627a7a72305820c166931d1c46697540b7f1b2822ca223643b93fcba18293192c7d8b0155a3e920029",
  "source": "pragma solidity ^0.5.0;\n\nimport \"openzeppelin-solidity/contracts/ownership/Ownable.sol\";\nimport \"../DBC.sol\";\nimport \"../Registry.sol\";\n\n\n/**\n * Market prices from the Kyber Network:\n * https://developer.kyber.network/docs/API_ABI-KyberNetworkProxy/\n */\ncontract PriceFeedsKyber is DBC, Ownable {\n    event LogPriceFeedsKyberMarketAdded(bytes32 indexed bytesId, string strId);\n    event LogPriceFeedsKyberMarketRemoved(bytes32 indexed marketId);\n\n    string constant REASON_MUST_BE_ACTIVE_MARKET = \"Market must be active to push a value\";\n    string constant REASON_KYBER_PRICE_CALL_FAILED = \"Kyber price call failed\";\n\n    /* Adding this bit to the srcQty excludes permissionless reserves from the price fetch */\n    uint public constant BITMASK_EXCLUDE_PERMISSIONLESS = 1 << 255;\n\n    bytes4 constant getExpectedRateCallSig = bytes4(\n        keccak256(\n            \"getExpectedRate(address,address,uint256)\"\n        )\n    );\n\n    struct Market  {\n        address tokenContract;\n        address tokenContractTo;\n        bytes encodedCall;\n    }\n    mapping(bytes32 => Market) public markets;\n    mapping(bytes32 => string) public marketNames;\n\n    Registry public registry;\n\n    constructor(address _registry) public {\n        setRegistry(_registry);\n    }\n\n    function setRegistry(address _registry) public onlyOwner {\n        registry = Registry(_registry);\n    }\n\n    function isMarketActive(bytes32 _marketId) public view returns (bool) {\n        return markets[_marketId].tokenContract != address(0) && markets[_marketId].tokenContractTo != address(0);\n    }\n\n    /**\n     * Add a new Kyber market\n     * @param _marketStrId String id of market. eg. \"ETH/DAI\"\n     * @param _tokenContract Address \"From\" of ERC20 Token on Kyber market.\n     * @param _tokenContractTo Address \"To\" of ERC20 Token on Kyber market.\n     * @param _sourceDecimals Integer representing the decimals for the source token\n     * @return marketId bytes32 keccak256 of the _marketStrId\n     */\n    function addMarket(\n        string calldata _marketStrId,\n        address _tokenContract,\n        address _tokenContractTo,\n        uint _sourceDecimals\n    )\n        external\n        onlyOwner\n        returns (bytes32 marketId)\n    {\n        marketId = keccak256(abi.encodePacked(_marketStrId));\n\n        markets[marketId] = Market(\n            _tokenContract,\n            _tokenContractTo,\n            // store the call signature to get market price for those tokens\n            abi.encodeWithSelector(\n                getExpectedRateCallSig,\n                _tokenContract,\n                _tokenContractTo,\n                10 ** _sourceDecimals | BITMASK_EXCLUDE_PERMISSIONLESS\n            )\n        );\n        marketNames[marketId] = _marketStrId;\n\n        emit LogPriceFeedsKyberMarketAdded(marketId, _marketStrId);\n    }\n\n    function removeMarket(bytes32 _marketId)\n        external\n        onlyOwner\n        pre_cond(isMarketActive(_marketId), REASON_MUST_BE_ACTIVE_MARKET)\n    {\n        markets[_marketId] = Market(address(0x0), address(0x0), abi.encode(0x0));\n        emit LogPriceFeedsKyberMarketRemoved(_marketId);\n    }\n\n    function getMarket(bytes32 _marketId)\n        public\n        view\n        returns (address tokenContract, address tokenContractTo, bytes memory encodedCall)\n    {\n        Market memory market = markets[_marketId];\n        tokenContract = market.tokenContract;\n        tokenContractTo = market.tokenContractTo;\n        encodedCall = market.encodedCall;\n    }\n\n    function read(bytes32 _marketId) public view returns (uint priceValue) {\n        Market storage market = markets[_marketId];\n\n        bool success;\n        bytes memory rspData;\n        (success, rspData) = address(registry.getKyberNetworkProxy()).staticcall(\n            market.encodedCall\n        );\n\n        if (!success) {\n            revert(REASON_KYBER_PRICE_CALL_FAILED);\n        }\n\n        (priceValue, ) = abi.decode(rspData, (uint, uint));\n    }\n}\n",
  "sourcePath": "/Users/julien/Desktop/protocol/contracts/feeds/PriceFeedsKyber.sol",
  "compiler": {
    "name": "solc",
    "version": "0.5.6+commit.b259423e.Emscripten.clang"
  },
  "schemaVersion": "3.0.20",
  "updatedAt": "2020-01-17T20:41:14.956Z",
  "devdoc": {
    "methods": {
      "addMarket(string,address,address,uint256)": {
        "params": {
          "_marketStrId": "String id of market. eg. \"ETH/DAI\"",
          "_sourceDecimals": "Integer representing the decimals for the source token",
          "_tokenContract": "Address \"From\" of ERC20 Token on Kyber market.",
          "_tokenContractTo": "Address \"To\" of ERC20 Token on Kyber market."
        },
        "return": "marketId bytes32 keccak256 of the _marketStrId"
      },
      "isOwner()": {
        "details": "Returns true if the caller is the current owner."
      },
      "owner()": {
        "details": "Returns the address of the current owner."
      },
      "renounceOwnership()": {
        "details": "Leaves the contract without owner. It will not be possible to call `onlyOwner` functions anymore. Can only be called by the current owner.     * NOTE: Renouncing ownership will leave the contract without an owner, thereby removing any functionality that is only available to the owner."
      },
      "transferOwnership(address)": {
        "details": "Transfers ownership of the contract to a new account (`newOwner`). Can only be called by the current owner."
      }
    }
  },
  "userdoc": {
    "methods": {
      "addMarket(string,address,address,uint256)": {
        "notice": "Add a new Kyber market"
      }
    },
    "notice": "Market prices from the Kyber Network: https://developer.kyber.network/docs/API_ABI-KyberNetworkProxy/"
  }
}