{
  "contractName": "Registry",
  "abi": [
    {
      "constant": true,
      "inputs": [
        {
          "name": "",
          "type": "address"
        }
      ],
      "name": "allCFDs",
      "outputs": [
        {
          "name": "",
          "type": "address"
        }
      ],
      "payable": false,
      "stateMutability": "view",
      "type": "function"
    },
    {
      "constant": false,
      "inputs": [],
      "name": "renounceOwnership",
      "outputs": [],
      "payable": false,
      "stateMutability": "nonpayable",
      "type": "function"
    },
    {
      "constant": true,
      "inputs": [],
      "name": "owner",
      "outputs": [
        {
          "name": "",
          "type": "address"
        }
      ],
      "payable": false,
      "stateMutability": "view",
      "type": "function"
    },
    {
      "constant": false,
      "inputs": [
        {
          "name": "_newOwner",
          "type": "address"
        }
      ],
      "name": "transferOwnership",
      "outputs": [],
      "payable": false,
      "stateMutability": "nonpayable",
      "type": "function"
    },
    {
      "anonymous": false,
      "inputs": [
        {
          "indexed": true,
          "name": "previousOwner",
          "type": "address"
        }
      ],
      "name": "OwnershipRenounced",
      "type": "event"
    },
    {
      "anonymous": false,
      "inputs": [
        {
          "indexed": true,
          "name": "previousOwner",
          "type": "address"
        },
        {
          "indexed": true,
          "name": "newOwner",
          "type": "address"
        }
      ],
      "name": "OwnershipTransferred",
      "type": "event"
    },
    {
      "constant": true,
      "inputs": [],
      "name": "getCFDFactoryLatest",
      "outputs": [
        {
          "name": "",
          "type": "address"
        }
      ],
      "payable": false,
      "stateMutability": "view",
      "type": "function"
    },
    {
      "constant": false,
      "inputs": [
        {
          "name": "_addr",
          "type": "address"
        }
      ],
      "name": "setCFDFactoryLatest",
      "outputs": [],
      "payable": false,
      "stateMutability": "nonpayable",
      "type": "function"
    },
    {
      "constant": true,
      "inputs": [],
      "name": "getFees",
      "outputs": [
        {
          "name": "",
          "type": "address"
        }
      ],
      "payable": false,
      "stateMutability": "view",
      "type": "function"
    },
    {
      "constant": false,
      "inputs": [
        {
          "name": "_addr",
          "type": "address"
        }
      ],
      "name": "setFees",
      "outputs": [],
      "payable": false,
      "stateMutability": "nonpayable",
      "type": "function"
    },
    {
      "constant": true,
      "inputs": [],
      "name": "getDAI",
      "outputs": [
        {
          "name": "",
          "type": "address"
        }
      ],
      "payable": false,
      "stateMutability": "view",
      "type": "function"
    },
    {
      "constant": false,
      "inputs": [
        {
          "name": "_addr",
          "type": "address"
        }
      ],
      "name": "setDAI",
      "outputs": [],
      "payable": false,
      "stateMutability": "nonpayable",
      "type": "function"
    },
    {
      "constant": false,
      "inputs": [
        {
          "name": "_cfdAddr",
          "type": "address"
        }
      ],
      "name": "addCFD",
      "outputs": [],
      "payable": false,
      "stateMutability": "nonpayable",
      "type": "function"
    }
  ],
  "bytecode": "0x608060405260008054600160a060020a0319163317905561087e806100256000396000f3006080604052600436106100ae5763ffffffff7c01000000000000000000000000000000000000000000000000000000006000350416630c5a95f881146100b357806323ec7f2a146100f0578063715018a61461010557806376d00fd81461011c5780638da5cb5b1461013d5780638ef8556814610152578063a275b70414610167578063b4a8696214610188578063b97dbf59146101a9578063db8d55f1146101ca578063f2fde38b146101df575b600080fd5b3480156100bf57600080fd5b506100d4600160a060020a0360043516610200565b60408051600160a060020a039092168252519081900360200190f35b3480156100fc57600080fd5b506100d461021b565b34801561011157600080fd5b5061011a610260565b005b34801561012857600080fd5b5061011a600160a060020a03600435166102cc565b34801561014957600080fd5b506100d461041f565b34801561015e57600080fd5b506100d461042e565b34801561017357600080fd5b5061011a600160a060020a036004351661046e565b34801561019457600080fd5b5061011a600160a060020a03600435166104c7565b3480156101b557600080fd5b5061011a600160a060020a036004351661051d565b3480156101d657600080fd5b506100d4610573565b3480156101eb57600080fd5b5061011a600160a060020a03600435166105b3565b600260205260009081526040902054600160a060020a031681565b600061025b6040805190810160405280601081526020017f434644466163746f72794c6174657374000000000000000000000000000000008152506105d3565b905090565b600054600160a060020a0316331461027757600080fd5b60008054604051600160a060020a03909116917ff8df31144d9c2f0f6b59d69b8b98abd5459d07f2742c4df920b25aae33c6482091a26000805473ffffffffffffffffffffffffffffffffffffffff19169055565b60006102d661021b565b60408051606081018252602881527f4f6e6c79206c61746573742043464420466163746f72792063616e206164642060208201527f6e657720434644730000000000000000000000000000000000000000000000009181019190915290915033600160a060020a038316146103e3576040517f08c379a00000000000000000000000000000000000000000000000000000000081526004018080602001828103825283818151815260200191508051906020019080838360005b838110156103a8578181015183820152602001610390565b50505050905090810190601f1680156103d55780820380516001836020036101000a031916815260200191505b509250505060405180910390fd5b50600160a060020a039182166000908152600260205260409020805473ffffffffffffffffffffffffffffffffffffffff191691909216179055565b600054600160a060020a031681565b600061025b6040805190810160405280600381526020017f44414900000000000000000000000000000000000000000000000000000000008152506105d3565b600054600160a060020a0316331461048557600080fd5b6104c46040805190810160405280600481526020017f4665657300000000000000000000000000000000000000000000000000000000815250826106b9565b50565b600054600160a060020a031633146104de57600080fd5b6104c46040805190810160405280601081526020017f434644466163746f72794c617465737400000000000000000000000000000000815250826106b9565b600054600160a060020a0316331461053457600080fd5b6104c46040805190810160405280600381526020017f4441490000000000000000000000000000000000000000000000000000000000815250826106b9565b600061025b6040805190810160405280600481526020017f46656573000000000000000000000000000000000000000000000000000000008152506105d3565b600054600160a060020a031633146105ca57600080fd5b6104c4816107d5565b600060016000836040516020018082805190602001908083835b6020831061060c5780518252601f1990920191602091820191016105ed565b6001836020036101000a0380198251168184511680821785525050505050509050019150506040516020818303038152906040526040518082805190602001908083835b6020831061066f5780518252601f199092019160209182019101610650565b51815160209384036101000a6000190180199092169116179052604080519290940182900390912086528501959095529290920160002054600160a060020a031695945050505050565b600054600160a060020a031633146106d057600080fd5b8060016000846040516020018082805190602001908083835b602083106107085780518252601f1990920191602091820191016106e9565b6001836020036101000a0380198251168184511680821785525050505050509050019150506040516020818303038152906040526040518082805190602001908083835b6020831061076b5780518252601f19909201916020918201910161074c565b51815160209384036101000a60001901801990921691161790526040805192909401829003909120865285019590955292909201600020805473ffffffffffffffffffffffffffffffffffffffff1916600160a060020a0395909516949094179093555050505050565b600160a060020a03811615156107ea57600080fd5b60008054604051600160a060020a03808516939216917f8be0079c531659141344cd1fd0a4f28419497f9722a3daafe3b4186f6b6457e091a36000805473ffffffffffffffffffffffffffffffffffffffff1916600160a060020a03929092169190911790555600a165627a7a723058205985976873cd1622ad7d40450fdbdc750a1655419dedf0fa57b049c5dd5ddff00029",
  "source": "pragma solidity ^0.4.23;\npragma experimental \"v0.5.0\";\n\nimport \"openzeppelin-solidity/contracts/ownership/Ownable.sol\";\nimport \"openzeppelin-solidity/contracts/token/ERC20/ERC20.sol\";\nimport \"./DBC.sol\";\n\ncontract Registry is DBC, Ownable {\n\n    string constant REASON_MUST_BE_LATEST_FACTORY = \"Only latest CFD Factory can add new CFDs\";\n\n    mapping(bytes32 => address) contracts;\n\n    function getCFDFactoryLatest() public view returns (address) {\n        return get(\"CFDFactoryLatest\");\n    }\n\n    function setCFDFactoryLatest(address _addr) public onlyOwner {\n        set(\"CFDFactoryLatest\", _addr);\n    }\n\n    function getFees() public view returns (address) {\n        return get(\"Fees\");\n    }\n\n    function setFees(address _addr) public onlyOwner {\n        set(\"Fees\", _addr);\n    }\n\n    function getDAI() public view returns (ERC20) {\n        return ERC20(get(\"DAI\"));\n    }\n\n    function setDAI(address _addr) public onlyOwner {\n        set(\"DAI\", _addr);\n    }\n\n    function set(string _name, address _addr) private onlyOwner {\n        contracts[keccak256(abi.encodePacked(_name))] = _addr;\n    }\n\n    function get(string _name) private view returns (address addr) {\n        addr = contracts[keccak256(abi.encodePacked(_name))];\n    }\n\n\n    /*\n     * A registry of ALL CFDs created across any version set of the contracts.\n     *\n     * The mapping is from CFD address to CFDFactory that created it.\n     *\n     * The main reason to keep this is for the CFD upgrade mechansim to have a\n     * way to know a given CFD was created correctly through the 0xFutures\n     * mechansim and is not some dummy contract trying to onboard through\n     * the upgrade mechanism.\n     */\n    // cfd to cfd factory\n    mapping(address => address) public allCFDs;\n\n    function addCFD(address _cfdAddr) public {\n        address cfdFactoryCurrent = getCFDFactoryLatest();\n        // only the latest deployed factory is allowed to add new CFDs\n        require(msg.sender == cfdFactoryCurrent, REASON_MUST_BE_LATEST_FACTORY);\n        allCFDs[_cfdAddr] = cfdFactoryCurrent;\n    }\n\n\n}\n",
  "sourcePath": "/home/julien/0xFutures/protocol/contracts/Registry.sol",
  "compiler": {
    "name": "solc",
    "version": "0.4.25+commit.59dbf8f1.Emscripten.clang"
  },
  "schemaVersion": "2.0.2",
  "updatedAt": "2019-02-11T03:26:59.366Z"
}