{
  "contractName": "Registry",
  "abi": [
    {
      "constant": true,
      "inputs": [
        {
          "name": "",
          "type": "address"
        }
      ],
      "name": "allCFDs",
      "outputs": [
        {
          "name": "",
          "type": "address"
        }
      ],
      "payable": false,
      "stateMutability": "view",
      "type": "function"
    },
    {
      "constant": false,
      "inputs": [],
      "name": "renounceOwnership",
      "outputs": [],
      "payable": false,
      "stateMutability": "nonpayable",
      "type": "function"
    },
    {
      "constant": true,
      "inputs": [],
      "name": "owner",
      "outputs": [
        {
          "name": "",
          "type": "address"
        }
      ],
      "payable": false,
      "stateMutability": "view",
      "type": "function"
    },
    {
      "constant": false,
      "inputs": [
        {
          "name": "_newOwner",
          "type": "address"
        }
      ],
      "name": "transferOwnership",
      "outputs": [],
      "payable": false,
      "stateMutability": "nonpayable",
      "type": "function"
    },
    {
      "anonymous": false,
      "inputs": [
        {
          "indexed": true,
          "name": "previousOwner",
          "type": "address"
        }
      ],
      "name": "OwnershipRenounced",
      "type": "event"
    },
    {
      "anonymous": false,
      "inputs": [
        {
          "indexed": true,
          "name": "previousOwner",
          "type": "address"
        },
        {
          "indexed": true,
          "name": "newOwner",
          "type": "address"
        }
      ],
      "name": "OwnershipTransferred",
      "type": "event"
    },
    {
      "constant": true,
      "inputs": [],
      "name": "getCFDFactoryLatest",
      "outputs": [
        {
          "name": "",
          "type": "address"
        }
      ],
      "payable": false,
      "stateMutability": "view",
      "type": "function"
    },
    {
      "constant": false,
      "inputs": [
        {
          "name": "_addr",
          "type": "address"
        }
      ],
      "name": "setCFDFactoryLatest",
      "outputs": [],
      "payable": false,
      "stateMutability": "nonpayable",
      "type": "function"
    },
    {
      "constant": true,
      "inputs": [],
      "name": "getFees",
      "outputs": [
        {
          "name": "",
          "type": "address"
        }
      ],
      "payable": false,
      "stateMutability": "view",
      "type": "function"
    },
    {
      "constant": false,
      "inputs": [
        {
          "name": "_addr",
          "type": "address"
        }
      ],
      "name": "setFees",
      "outputs": [],
      "payable": false,
      "stateMutability": "nonpayable",
      "type": "function"
    },
    {
      "constant": false,
      "inputs": [
        {
          "name": "_cfdAddr",
          "type": "address"
        }
      ],
      "name": "addCFD",
      "outputs": [],
      "payable": false,
      "stateMutability": "nonpayable",
      "type": "function"
    }
  ],
  "bytecode": "0x608060405260008054600160a060020a0319163317905561079c806100256000396000f3006080604052600436106100985763ffffffff7c01000000000000000000000000000000000000000000000000000000006000350416630c5a95f8811461009d57806323ec7f2a146100da578063715018a6146100ef57806376d00fd8146101065780638da5cb5b14610127578063a275b7041461013c578063b4a869621461015d578063db8d55f11461017e578063f2fde38b14610193575b600080fd5b3480156100a957600080fd5b506100be600160a060020a03600435166101b4565b60408051600160a060020a039092168252519081900360200190f35b3480156100e657600080fd5b506100be6101cf565b3480156100fb57600080fd5b50610104610214565b005b34801561011257600080fd5b50610104600160a060020a0360043516610280565b34801561013357600080fd5b506100be6103d3565b34801561014857600080fd5b50610104600160a060020a03600435166103e2565b34801561016957600080fd5b50610104600160a060020a036004351661043b565b34801561018a57600080fd5b506100be610491565b34801561019f57600080fd5b50610104600160a060020a03600435166104d1565b600260205260009081526040902054600160a060020a031681565b600061020f6040805190810160405280601081526020017f434644466163746f72794c6174657374000000000000000000000000000000008152506104f1565b905090565b600054600160a060020a0316331461022b57600080fd5b60008054604051600160a060020a03909116917ff8df31144d9c2f0f6b59d69b8b98abd5459d07f2742c4df920b25aae33c6482091a26000805473ffffffffffffffffffffffffffffffffffffffff19169055565b600061028a6101cf565b60408051606081018252602881527f4f6e6c79206c61746573742043464420466163746f72792063616e206164642060208201527f6e657720434644730000000000000000000000000000000000000000000000009181019190915290915033600160a060020a03831614610397576040517f08c379a00000000000000000000000000000000000000000000000000000000081526004018080602001828103825283818151815260200191508051906020019080838360005b8381101561035c578181015183820152602001610344565b50505050905090810190601f1680156103895780820380516001836020036101000a031916815260200191505b509250505060405180910390fd5b50600160a060020a039182166000908152600260205260409020805473ffffffffffffffffffffffffffffffffffffffff191691909216179055565b600054600160a060020a031681565b600054600160a060020a031633146103f957600080fd5b6104386040805190810160405280600481526020017f4665657300000000000000000000000000000000000000000000000000000000815250826105d7565b50565b600054600160a060020a0316331461045257600080fd5b6104386040805190810160405280601081526020017f434644466163746f72794c617465737400000000000000000000000000000000815250826105d7565b600061020f6040805190810160405280600481526020017f46656573000000000000000000000000000000000000000000000000000000008152506104f1565b600054600160a060020a031633146104e857600080fd5b610438816106f3565b600060016000836040516020018082805190602001908083835b6020831061052a5780518252601f19909201916020918201910161050b565b6001836020036101000a0380198251168184511680821785525050505050509050019150506040516020818303038152906040526040518082805190602001908083835b6020831061058d5780518252601f19909201916020918201910161056e565b51815160209384036101000a6000190180199092169116179052604080519290940182900390912086528501959095529290920160002054600160a060020a031695945050505050565b600054600160a060020a031633146105ee57600080fd5b8060016000846040516020018082805190602001908083835b602083106106265780518252601f199092019160209182019101610607565b6001836020036101000a0380198251168184511680821785525050505050509050019150506040516020818303038152906040526040518082805190602001908083835b602083106106895780518252601f19909201916020918201910161066a565b51815160209384036101000a60001901801990921691161790526040805192909401829003909120865285019590955292909201600020805473ffffffffffffffffffffffffffffffffffffffff1916600160a060020a0395909516949094179093555050505050565b600160a060020a038116151561070857600080fd5b60008054604051600160a060020a03808516939216917f8be0079c531659141344cd1fd0a4f28419497f9722a3daafe3b4186f6b6457e091a36000805473ffffffffffffffffffffffffffffffffffffffff1916600160a060020a03929092169190911790555600a165627a7a72305820176a7027954d7466d5d1aa993b2d5fce7aa9e9363c1d1d8e38156097156f8eae0029",
  "source": "pragma solidity ^0.4.23;\npragma experimental \"v0.5.0\";\n\nimport \"openzeppelin-solidity/contracts/ownership/Ownable.sol\";\nimport \"./DBC.sol\";\n\ncontract Registry is DBC, Ownable {\n\n    string constant REASON_MUST_BE_LATEST_FACTORY = \"Only latest CFD Factory can add new CFDs\";\n\n    mapping(bytes32 => address) contracts;\n\n    function getCFDFactoryLatest() public view returns (address) {\n        return get(\"CFDFactoryLatest\");\n    }\n\n    function setCFDFactoryLatest(address _addr) public onlyOwner {\n        set(\"CFDFactoryLatest\", _addr);\n    }\n\n    function getFees() public view returns (address) {\n        return get(\"Fees\");\n    }\n\n    function setFees(address _addr) public onlyOwner {\n        set(\"Fees\", _addr);\n    }\n\n    function set(string _name, address _addr) private onlyOwner {\n        contracts[keccak256(abi.encodePacked(_name))] = _addr;\n    }\n\n    function get(string _name) private view returns (address addr) {\n        addr = contracts[keccak256(abi.encodePacked(_name))];\n    }\n\n\n    /*\n     * A registry of ALL CFDs created across any version set of the contracts.\n     *\n     * The mapping is from CFD address to CFDFactory that created it.\n     *\n     * The main reason to keep this is for the CFD upgrade mechansim to have a\n     * way to know a given CFD was created correctly through the 0xFutures\n     * mechansim and is not some dummy contract trying to onboard through\n     * the upgrade mechanism.\n     */\n    // cfd to cfd factory\n    mapping(address => address) public allCFDs;\n\n    function addCFD(address _cfdAddr) public {\n        address cfdFactoryCurrent = getCFDFactoryLatest();\n        // only the latest deployed factory is allowed to add new CFDs\n        require(msg.sender == cfdFactoryCurrent, REASON_MUST_BE_LATEST_FACTORY);\n        allCFDs[_cfdAddr] = cfdFactoryCurrent;\n    }\n\n\n}\n",
  "sourcePath": "/home/julien/0xFutures/protocol/contracts/Registry.sol",
  "compiler": {
    "name": "solc",
    "version": "0.4.24+commit.e67f0147.Emscripten.clang"
  },
  "schemaVersion": "2.0.1",
  "updatedAt": "2019-01-22T17:02:07.065Z"
}