{
  "contractName": "Registry",
  "abi": [
    {
      "constant": true,
      "inputs": [
        {
          "name": "",
          "type": "address"
        }
      ],
      "name": "allCFDs",
      "outputs": [
        {
          "name": "",
          "type": "address"
        }
      ],
      "payable": false,
      "stateMutability": "view",
      "type": "function"
    },
    {
      "constant": false,
      "inputs": [],
      "name": "renounceOwnership",
      "outputs": [],
      "payable": false,
      "stateMutability": "nonpayable",
      "type": "function"
    },
    {
      "constant": true,
      "inputs": [],
      "name": "owner",
      "outputs": [
        {
          "name": "",
          "type": "address"
        }
      ],
      "payable": false,
      "stateMutability": "view",
      "type": "function"
    },
    {
      "constant": true,
      "inputs": [],
      "name": "isOwner",
      "outputs": [
        {
          "name": "",
          "type": "bool"
        }
      ],
      "payable": false,
      "stateMutability": "view",
      "type": "function"
    },
    {
      "constant": false,
      "inputs": [
        {
          "name": "newOwner",
          "type": "address"
        }
      ],
      "name": "transferOwnership",
      "outputs": [],
      "payable": false,
      "stateMutability": "nonpayable",
      "type": "function"
    },
    {
      "anonymous": false,
      "inputs": [
        {
          "indexed": true,
          "name": "previousOwner",
          "type": "address"
        },
        {
          "indexed": true,
          "name": "newOwner",
          "type": "address"
        }
      ],
      "name": "OwnershipTransferred",
      "type": "event"
    },
    {
      "constant": true,
      "inputs": [],
      "name": "getCFDFactoryLatest",
      "outputs": [
        {
          "name": "",
          "type": "address"
        }
      ],
      "payable": false,
      "stateMutability": "view",
      "type": "function"
    },
    {
      "constant": false,
      "inputs": [
        {
          "name": "_addr",
          "type": "address"
        }
      ],
      "name": "setCFDFactoryLatest",
      "outputs": [],
      "payable": false,
      "stateMutability": "nonpayable",
      "type": "function"
    },
    {
      "constant": true,
      "inputs": [],
      "name": "getDAI",
      "outputs": [
        {
          "name": "",
          "type": "address"
        }
      ],
      "payable": false,
      "stateMutability": "view",
      "type": "function"
    },
    {
      "constant": false,
      "inputs": [
        {
          "name": "_addr",
          "type": "address"
        }
      ],
      "name": "setDAI",
      "outputs": [],
      "payable": false,
      "stateMutability": "nonpayable",
      "type": "function"
    },
    {
      "constant": true,
      "inputs": [],
      "name": "getProxyCodeHash",
      "outputs": [
        {
          "name": "",
          "type": "bytes32"
        }
      ],
      "payable": false,
      "stateMutability": "view",
      "type": "function"
    },
    {
      "constant": false,
      "inputs": [
        {
          "name": "_hash",
          "type": "bytes32"
        }
      ],
      "name": "setProxyCodeHash",
      "outputs": [],
      "payable": false,
      "stateMutability": "nonpayable",
      "type": "function"
    },
    {
      "constant": false,
      "inputs": [
        {
          "name": "_cfdAddr",
          "type": "address"
        }
      ],
      "name": "addCFD",
      "outputs": [],
      "payable": false,
      "stateMutability": "nonpayable",
      "type": "function"
    }
  ],
  "bytecode": "0x60806040819052600080546001600160a01b03191633178082556001600160a01b0316917f8be0079c531659141344cd1fd0a4f28419497f9722a3daafe3b4186f6b6457e0908290a36106bc806100576000396000f3fe608060405234801561001057600080fd5b50600436106100b45760003560e01c80638f32d59b116100715780638f32d59b14610143578063a6ab325c1461015f578063b4a869621461017c578063b97dbf59146101a2578063e37af2d1146101c8578063f2fde38b146101e2576100b4565b80630c5a95f8146100b957806323ec7f2a146100fb578063715018a61461010357806376d00fd81461010d5780638da5cb5b146101335780638ef855681461013b575b600080fd5b6100df600480360360208110156100cf57600080fd5b50356001600160a01b0316610208565b604080516001600160a01b039092168252519081900360200190f35b6100df610223565b61010b61025e565b005b61010b6004803603602081101561012357600080fd5b50356001600160a01b03166102b9565b6100df6103ae565b6100df6103bd565b61014b6103e6565b604080519115158252519081900360200190f35b61010b6004803603602081101561017557600080fd5b50356103f7565b61010b6004803603602081101561019257600080fd5b50356001600160a01b031661040d565b61010b600480360360208110156101b857600080fd5b50356001600160a01b0316610456565b6101d061048f565b60408051918252519081900360200190f35b61010b600480360360208110156101f857600080fd5b50356001600160a01b0316610495565b6003602052600090815260409020546001600160a01b031681565b6000610259604051806040016040528060108152602001600160821b6f10d191119858dd1bdc9e53185d195cdd028152506104af565b905090565b6102666103e6565b61026f57600080fd5b600080546040516001600160a01b03909116907f8be0079c531659141344cd1fd0a4f28419497f9722a3daafe3b4186f6b6457e0908390a3600080546001600160a01b0319169055565b60006102c3610223565b9050806001600160a01b0316336001600160a01b031614604051806060016040528060288152602001610669602891399061037f57604051600160e51b62461bcd0281526004018080602001828103825283818151815260200191508051906020019080838360005b8381101561034457818101518382015260200161032c565b50505050905090810190601f1680156103715780820380516001836020036101000a031916815260200191505b509250505060405180910390fd5b506001600160a01b03918216600090815260036020526040902080546001600160a01b03191691909216179055565b6000546001600160a01b031690565b6000610259604051806040016040528060038152602001600160e81b62444149028152506104af565b6000546001600160a01b0316331490565b6103ff6103e6565b61040857600080fd5b600255565b6104156103e6565b61041e57600080fd5b610453604051806040016040528060108152602001600160821b6f10d191119858dd1bdc9e53185d195cdd0281525082610540565b50565b61045e6103e6565b61046757600080fd5b610453604051806040016040528060038152602001600160e81b624441490281525082610540565b60025490565b61049d6103e6565b6104a657600080fd5b610453816105fa565b600060016000836040516020018082805190602001908083835b602083106104e85780518252601f1990920191602091820191016104c9565b51815160209384036101000a60001901801990921691161790526040805192909401828103601f190183528452815191810191909120865285019590955292909201600020546001600160a01b031695945050505050565b6105486103e6565b61055157600080fd5b8060016000846040516020018082805190602001908083835b602083106105895780518252601f19909201916020918201910161056a565b6001836020036101000a03801982511681845116808217855250505050505090500191505060405160208183030381529060405280519060200120815260200190815260200160002060006101000a8154816001600160a01b0302191690836001600160a01b031602179055505050565b6001600160a01b03811661060d57600080fd5b600080546040516001600160a01b03808516939216917f8be0079c531659141344cd1fd0a4f28419497f9722a3daafe3b4186f6b6457e091a3600080546001600160a01b0319166001600160a01b039290921691909117905556fe4f6e6c79206c61746573742043464420466163746f72792063616e20616464206e65772043464473a165627a7a72305820ffabfe937ca8b737d7a16cea6b423c9aa118633801d1b35f78bb90ccde4ad8920029",
  "source": "pragma solidity ^0.5.0;\n\nimport \"openzeppelin-solidity/contracts/ownership/Ownable.sol\";\nimport \"openzeppelin-solidity/contracts/token/ERC20/ERC20.sol\";\nimport \"./DBC.sol\";\n\ncontract Registry is DBC, Ownable {\n\n    string constant REASON_MUST_BE_LATEST_FACTORY = \"Only latest CFD Factory can add new CFDs\";\n\n    mapping(bytes32 => address) contracts;\n\n    bytes32 proxyCodeHash;\n\n    function getCFDFactoryLatest() public view returns (address) {\n        return get(\"CFDFactoryLatest\");\n    }\n\n    function setCFDFactoryLatest(address _addr) public onlyOwner {\n        set(\"CFDFactoryLatest\", _addr);\n    }\n\n    function getDAI() public view returns (ERC20) {\n        return ERC20(get(\"DAI\"));\n    }\n\n    function setDAI(address _addr) public onlyOwner {\n        set(\"DAI\", _addr);\n    }\n\n    function getProxyCodeHash() public view returns (bytes32) {\n        return proxyCodeHash;\n    }\n\n    function setProxyCodeHash(bytes32 _hash) public onlyOwner {\n        proxyCodeHash = _hash;\n    }\n\n    function set(string memory _name, address _addr) private onlyOwner {\n        contracts[keccak256(abi.encodePacked(_name))] = _addr;\n    }\n\n    function get(string memory _name) private view returns (address addr) {\n        addr = contracts[keccak256(abi.encodePacked(_name))];\n    }\n\n\n    /*\n     * A registry of ALL CFDs created across any version set of the contracts.\n     *\n     * The mapping is from CFD address to CFDFactory that created it.\n     *\n     * The main reason to keep this is for the CFD upgrade mechansim to have a\n     * way to know a given CFD was created correctly through the 0xFutures\n     * mechansim and is not some dummy contract trying to onboard through\n     * the upgrade mechanism.\n     */\n    // cfd to cfd factory\n    mapping(address => address) public allCFDs;\n\n    function addCFD(address _cfdAddr) public {\n        address cfdFactoryCurrent = getCFDFactoryLatest();\n        // only the latest deployed factory is allowed to add new CFDs\n        require(msg.sender == cfdFactoryCurrent, REASON_MUST_BE_LATEST_FACTORY);\n        allCFDs[_cfdAddr] = cfdFactoryCurrent;\n    }\n\n\n}\n",
  "sourcePath": "/home/hatch/projects/0xfutures/protocol/contracts/Registry.sol",
  "compiler": {
    "name": "solc",
    "version": "0.5.6+commit.b259423e.Emscripten.clang"
  },
  "schemaVersion": "3.0.8",
  "updatedAt": "2019-07-10T00:43:14.914Z",
  "devdoc": {
    "methods": {
      "isOwner()": {
        "return": "true if `msg.sender` is the owner of the contract."
      },
      "owner()": {
        "return": "the address of the owner."
      },
      "renounceOwnership()": {
        "details": "Allows the current owner to relinquish control of the contract."
      },
      "transferOwnership(address)": {
        "details": "Allows the current owner to transfer control of the contract to a newOwner.",
        "params": {
          "newOwner": "The address to transfer ownership to."
        }
      }
    }
  },
  "userdoc": {
    "methods": {
      "renounceOwnership()": {
        "notice": "Renouncing to ownership will leave the contract without an owner. It will not be possible to call the functions with the `onlyOwner` modifier anymore."
      }
    }
  }
}