{
  "contractName": "Registry",
  "abi": [
    {
      "constant": true,
      "inputs": [
        {
          "name": "",
          "type": "address"
        }
      ],
      "name": "allCFDs",
      "outputs": [
        {
          "name": "",
          "type": "address"
        }
      ],
      "payable": false,
      "stateMutability": "view",
      "type": "function"
    },
    {
      "constant": false,
      "inputs": [],
      "name": "renounceOwnership",
      "outputs": [],
      "payable": false,
      "stateMutability": "nonpayable",
      "type": "function"
    },
    {
      "constant": true,
      "inputs": [],
      "name": "owner",
      "outputs": [
        {
          "name": "",
          "type": "address"
        }
      ],
      "payable": false,
      "stateMutability": "view",
      "type": "function"
    },
    {
      "constant": true,
      "inputs": [],
      "name": "isOwner",
      "outputs": [
        {
          "name": "",
          "type": "bool"
        }
      ],
      "payable": false,
      "stateMutability": "view",
      "type": "function"
    },
    {
      "constant": false,
      "inputs": [
        {
          "name": "newOwner",
          "type": "address"
        }
      ],
      "name": "transferOwnership",
      "outputs": [],
      "payable": false,
      "stateMutability": "nonpayable",
      "type": "function"
    },
    {
      "anonymous": false,
      "inputs": [
        {
          "indexed": true,
          "name": "previousOwner",
          "type": "address"
        },
        {
          "indexed": true,
          "name": "newOwner",
          "type": "address"
        }
      ],
      "name": "OwnershipTransferred",
      "type": "event"
    },
    {
      "constant": true,
      "inputs": [],
      "name": "getCFDFactoryLatest",
      "outputs": [
        {
          "name": "",
          "type": "address"
        }
      ],
      "payable": false,
      "stateMutability": "view",
      "type": "function"
    },
    {
      "constant": false,
      "inputs": [
        {
          "name": "_addr",
          "type": "address"
        }
      ],
      "name": "setCFDFactoryLatest",
      "outputs": [],
      "payable": false,
      "stateMutability": "nonpayable",
      "type": "function"
    },
    {
      "constant": true,
      "inputs": [],
      "name": "getDAI",
      "outputs": [
        {
          "name": "",
          "type": "address"
        }
      ],
      "payable": false,
      "stateMutability": "view",
      "type": "function"
    },
    {
      "constant": false,
      "inputs": [
        {
          "name": "_addr",
          "type": "address"
        }
      ],
      "name": "setDAI",
      "outputs": [],
      "payable": false,
      "stateMutability": "nonpayable",
      "type": "function"
    },
    {
      "constant": true,
      "inputs": [],
      "name": "getKyberNetworkProxy",
      "outputs": [
        {
          "name": "",
          "type": "address"
        }
      ],
      "payable": false,
      "stateMutability": "view",
      "type": "function"
    },
    {
      "constant": false,
      "inputs": [
        {
          "name": "_addr",
          "type": "address"
        }
      ],
      "name": "setKyberNetworkProxy",
      "outputs": [],
      "payable": false,
      "stateMutability": "nonpayable",
      "type": "function"
    },
    {
      "constant": true,
      "inputs": [],
      "name": "getProxyCodeHash",
      "outputs": [
        {
          "name": "",
          "type": "bytes32"
        }
      ],
      "payable": false,
      "stateMutability": "view",
      "type": "function"
    },
    {
      "constant": false,
      "inputs": [
        {
          "name": "_hash",
          "type": "bytes32"
        }
      ],
      "name": "setProxyCodeHash",
      "outputs": [],
      "payable": false,
      "stateMutability": "nonpayable",
      "type": "function"
    },
    {
      "constant": false,
      "inputs": [
        {
          "name": "_cfdAddr",
          "type": "address"
        }
      ],
      "name": "addCFD",
      "outputs": [],
      "payable": false,
      "stateMutability": "nonpayable",
      "type": "function"
    }
  ],
  "bytecode": "0x608060405261001261005f60201b60201c565b600080546001600160a01b0319166001600160a01b03928316178082556040519216917f8be0079c531659141344cd1fd0a4f28419497f9722a3daafe3b4186f6b6457e0908290a3610063565b3390565b6109bf806100726000396000f3fe608060405234801561001057600080fd5b50600436106100ea5760003560e01c80638ef855681161008c578063b4a8696211610066578063b4a86962146101e0578063b97dbf5914610206578063e37af2d11461022c578063f2fde38b14610246576100ea565b80638ef855681461019f5780638f32d59b146101a7578063a6ab325c146101c3576100ea565b806346756190116100c85780634675619014610161578063715018a61461016957806376d00fd8146101715780638da5cb5b14610197576100ea565b80630c5a95f8146100ef57806323ec7f2a14610131578063277206dd14610139575b600080fd5b6101156004803603602081101561010557600080fd5b50356001600160a01b031661026c565b604080516001600160a01b039092168252519081900360200190f35b610115610287565b61015f6004803603602081101561014f57600080fd5b50356001600160a01b03166102c2565b005b610115610345565b61015f61037c565b61015f6004803603602081101561018757600080fd5b50356001600160a01b0316610410565b610115610505565b610115610514565b6101af61053d565b604080519115158252519081900360200190f35b61015f600480360360208110156101d957600080fd5b5035610561565b61015f600480360360208110156101f657600080fd5b50356001600160a01b03166105b0565b61015f6004803603602081101561021c57600080fd5b50356001600160a01b031661062f565b6102346106a1565b60408051918252519081900360200190f35b61015f6004803603602081101561025c57600080fd5b50356001600160a01b03166106a7565b6003602052600090815260409020546001600160a01b031681565b60006102bd604051806040016040528060108152602001600160821b6f10d191119858dd1bdc9e53185d195cdd028152506106fa565b905090565b6102ca61053d565b61030c5760408051600160e51b62461bcd0281526020600482018190526024820152600080516020610974833981519152604482015290519081900360640190fd5b610342604051806040016040528060118152602001600160781b704b796265724e6574776f726b50726f7879028152508261078b565b50565b60006102bd604051806040016040528060118152602001600160781b704b796265724e6574776f726b50726f7879028152506106fa565b61038461053d565b6103c65760408051600160e51b62461bcd0281526020600482018190526024820152600080516020610974833981519152604482015290519081900360640190fd5b600080546040516001600160a01b03909116907f8be0079c531659141344cd1fd0a4f28419497f9722a3daafe3b4186f6b6457e0908390a3600080546001600160a01b0319169055565b600061041a610287565b9050806001600160a01b0316336001600160a01b03161460405180606001604052806028815260200161094c60289139906104d657604051600160e51b62461bcd0281526004018080602001828103825283818151815260200191508051906020019080838360005b8381101561049b578181015183820152602001610483565b50505050905090810190601f1680156104c85780820380516001836020036101000a031916815260200191505b509250505060405180910390fd5b506001600160a01b03918216600090815260036020526040902080546001600160a01b03191691909216179055565b6000546001600160a01b031690565b60006102bd604051806040016040528060038152602001600160e81b62444149028152506106fa565b600080546001600160a01b031661055261087e565b6001600160a01b031614905090565b61056961053d565b6105ab5760408051600160e51b62461bcd0281526020600482018190526024820152600080516020610974833981519152604482015290519081900360640190fd5b600255565b6105b861053d565b6105fa5760408051600160e51b62461bcd0281526020600482018190526024820152600080516020610974833981519152604482015290519081900360640190fd5b610342604051806040016040528060108152602001600160821b6f10d191119858dd1bdc9e53185d195cdd028152508261078b565b61063761053d565b6106795760408051600160e51b62461bcd0281526020600482018190526024820152600080516020610974833981519152604482015290519081900360640190fd5b610342604051806040016040528060038152602001600160e81b62444149028152508261078b565b60025490565b6106af61053d565b6106f15760408051600160e51b62461bcd0281526020600482018190526024820152600080516020610974833981519152604482015290519081900360640190fd5b61034281610882565b600060016000836040516020018082805190602001908083835b602083106107335780518252601f199092019160209182019101610714565b51815160209384036101000a60001901801990921691161790526040805192909401828103601f190183528452815191810191909120865285019590955292909201600020546001600160a01b031695945050505050565b61079361053d565b6107d55760408051600160e51b62461bcd0281526020600482018190526024820152600080516020610974833981519152604482015290519081900360640190fd5b8060016000846040516020018082805190602001908083835b6020831061080d5780518252601f1990920191602091820191016107ee565b6001836020036101000a03801982511681845116808217855250505050505090500191505060405160208183030381529060405280519060200120815260200190815260200160002060006101000a8154816001600160a01b0302191690836001600160a01b031602179055505050565b3390565b6001600160a01b0381166108ca57604051600160e51b62461bcd0281526004018080602001828103825260268152602001806109266026913960400191505060405180910390fd5b600080546040516001600160a01b03808516939216917f8be0079c531659141344cd1fd0a4f28419497f9722a3daafe3b4186f6b6457e091a3600080546001600160a01b0319166001600160a01b039290921691909117905556fe4f776e61626c653a206e6577206f776e657220697320746865207a65726f20616464726573734f6e6c79206c61746573742043464420466163746f72792063616e20616464206e657720434644734f776e61626c653a2063616c6c6572206973206e6f7420746865206f776e6572a165627a7a72305820e2ab4fd8646d5c412580b89d7675ec138e4282ab789b9e9eaa514a2cfbf45dd70029",
  "source": "pragma solidity ^0.5.0;\n\nimport \"openzeppelin-solidity/contracts/ownership/Ownable.sol\";\nimport \"openzeppelin-solidity/contracts/token/ERC20/ERC20.sol\";\nimport \"./DBC.sol\";\nimport \"./kyber/KyberNetworkProxyInterface.sol\";\n\ncontract Registry is DBC, Ownable {\n\n    string constant REASON_MUST_BE_LATEST_FACTORY = \"Only latest CFD Factory can add new CFDs\";\n\n    string constant KEY_CFD_FACTORY_LATEST = \"CFDFactoryLatest\";\n    string constant KEY_DAI = \"DAI\";\n    string constant KEY_KYBER_NETWORK_PROXY = \"KyberNetworkProxy\";\n\n    mapping(bytes32 => address) contracts;\n\n    bytes32 proxyCodeHash;\n\n    function getCFDFactoryLatest() public view returns (address) {\n        return get(KEY_CFD_FACTORY_LATEST);\n    }\n\n    function setCFDFactoryLatest(address _addr) public onlyOwner {\n        set(KEY_CFD_FACTORY_LATEST, _addr);\n    }\n\n    function getDAI() public view returns (ERC20) {\n        return ERC20(get(KEY_DAI));\n    }\n\n    function setDAI(address _addr) public onlyOwner {\n        set(KEY_DAI, _addr);\n    }\n\n    function getKyberNetworkProxy() public view returns (KyberNetworkProxyInterface) {\n        return KyberNetworkProxyInterface(get(KEY_KYBER_NETWORK_PROXY));\n    }\n\n    function setKyberNetworkProxy(address _addr) public onlyOwner {\n        set(KEY_KYBER_NETWORK_PROXY, _addr);\n    }\n\n    function getProxyCodeHash() public view returns (bytes32) {\n        return proxyCodeHash;\n    }\n\n    function setProxyCodeHash(bytes32 _hash) public onlyOwner {\n        proxyCodeHash = _hash;\n    }\n\n    function set(string memory _name, address _addr) private onlyOwner {\n        contracts[keccak256(abi.encodePacked(_name))] = _addr;\n    }\n\n    function get(string memory _name) private view returns (address addr) {\n        addr = contracts[keccak256(abi.encodePacked(_name))];\n    }\n\n\n    /*\n     * A registry of ALL CFDs created across any version set of the contracts.\n     *\n     * The mapping is from CFD address to CFDFactory that created it.\n     *\n     * The main reason to keep this is for the CFD upgrade mechansim to have a\n     * way to know a given CFD was created correctly through the 0xFutures\n     * mechansim and is not some dummy contract trying to onboard through\n     * the upgrade mechanism.\n     */\n    // cfd to cfd factory\n    mapping(address => address) public allCFDs;\n\n    function addCFD(address _cfdAddr) public {\n        address cfdFactoryCurrent = getCFDFactoryLatest();\n        // only the latest deployed factory is allowed to add new CFDs\n        require(msg.sender == cfdFactoryCurrent, REASON_MUST_BE_LATEST_FACTORY);\n        allCFDs[_cfdAddr] = cfdFactoryCurrent;\n    }\n\n\n}\n",
  "sourcePath": "/Users/julien/Desktop/protocol/contracts/Registry.sol",
  "compiler": {
    "name": "solc",
    "version": "0.5.6+commit.b259423e.Emscripten.clang"
  },
  "schemaVersion": "3.0.20",
  "updatedAt": "2020-01-22T11:14:22.823Z",
  "devdoc": {
    "methods": {
      "isOwner()": {
        "details": "Returns true if the caller is the current owner."
      },
      "owner()": {
        "details": "Returns the address of the current owner."
      },
      "renounceOwnership()": {
        "details": "Leaves the contract without owner. It will not be possible to call `onlyOwner` functions anymore. Can only be called by the current owner.     * NOTE: Renouncing ownership will leave the contract without an owner, thereby removing any functionality that is only available to the owner."
      },
      "transferOwnership(address)": {
        "details": "Transfers ownership of the contract to a new account (`newOwner`). Can only be called by the current owner."
      }
    }
  },
  "userdoc": {
    "methods": {}
  }
}