{
  "contractName": "Registry",
  "abi": [
    {
      "constant": true,
      "inputs": [
        {
          "name": "",
          "type": "address"
        }
      ],
      "name": "allCFDs",
      "outputs": [
        {
          "name": "",
          "type": "address"
        }
      ],
      "payable": false,
      "stateMutability": "view",
      "type": "function"
    },
    {
      "constant": false,
      "inputs": [],
      "name": "renounceOwnership",
      "outputs": [],
      "payable": false,
      "stateMutability": "nonpayable",
      "type": "function"
    },
    {
      "constant": true,
      "inputs": [],
      "name": "owner",
      "outputs": [
        {
          "name": "",
          "type": "address"
        }
      ],
      "payable": false,
      "stateMutability": "view",
      "type": "function"
    },
    {
      "constant": true,
      "inputs": [],
      "name": "isOwner",
      "outputs": [
        {
          "name": "",
          "type": "bool"
        }
      ],
      "payable": false,
      "stateMutability": "view",
      "type": "function"
    },
    {
      "constant": false,
      "inputs": [
        {
          "name": "newOwner",
          "type": "address"
        }
      ],
      "name": "transferOwnership",
      "outputs": [],
      "payable": false,
      "stateMutability": "nonpayable",
      "type": "function"
    },
    {
      "anonymous": false,
      "inputs": [
        {
          "indexed": true,
          "name": "previousOwner",
          "type": "address"
        },
        {
          "indexed": true,
          "name": "newOwner",
          "type": "address"
        }
      ],
      "name": "OwnershipTransferred",
      "type": "event"
    },
    {
      "constant": true,
      "inputs": [],
      "name": "getCFDFactoryLatest",
      "outputs": [
        {
          "name": "",
          "type": "address"
        }
      ],
      "payable": false,
      "stateMutability": "view",
      "type": "function"
    },
    {
      "constant": false,
      "inputs": [
        {
          "name": "_addr",
          "type": "address"
        }
      ],
      "name": "setCFDFactoryLatest",
      "outputs": [],
      "payable": false,
      "stateMutability": "nonpayable",
      "type": "function"
    },
    {
      "constant": true,
      "inputs": [],
      "name": "getFees",
      "outputs": [
        {
          "name": "",
          "type": "address"
        }
      ],
      "payable": false,
      "stateMutability": "view",
      "type": "function"
    },
    {
      "constant": false,
      "inputs": [
        {
          "name": "_addr",
          "type": "address"
        }
      ],
      "name": "setFees",
      "outputs": [],
      "payable": false,
      "stateMutability": "nonpayable",
      "type": "function"
    },
    {
      "constant": true,
      "inputs": [],
      "name": "getDAI",
      "outputs": [
        {
          "name": "",
          "type": "address"
        }
      ],
      "payable": false,
      "stateMutability": "view",
      "type": "function"
    },
    {
      "constant": false,
      "inputs": [
        {
          "name": "_addr",
          "type": "address"
        }
      ],
      "name": "setDAI",
      "outputs": [],
      "payable": false,
      "stateMutability": "nonpayable",
      "type": "function"
    },
    {
      "constant": false,
      "inputs": [
        {
          "name": "_cfdAddr",
          "type": "address"
        }
      ],
      "name": "addCFD",
      "outputs": [],
      "payable": false,
      "stateMutability": "nonpayable",
      "type": "function"
    }
  ],
  "bytecode": "0x6080604081905260008054600160a060020a0319163317808255600160a060020a0316917f8be0079c531659141344cd1fd0a4f28419497f9722a3daafe3b4186f6b6457e0908290a3610868806100576000396000f3fe6080604052600436106100b95763ffffffff7c01000000000000000000000000000000000000000000000000000000006000350416630c5a95f881146100be57806323ec7f2a1461010d578063715018a61461012257806376d00fd8146101395780638da5cb5b1461016c5780638ef85568146101815780638f32d59b14610196578063a275b704146101bf578063b4a86962146101f2578063b97dbf5914610225578063db8d55f114610258578063f2fde38b1461026d575b600080fd5b3480156100ca57600080fd5b506100f1600480360360208110156100e157600080fd5b5035600160a060020a03166102a0565b60408051600160a060020a039092168252519081900360200190f35b34801561011957600080fd5b506100f16102bb565b34801561012e57600080fd5b50610137610300565b005b34801561014557600080fd5b506101376004803603602081101561015c57600080fd5b5035600160a060020a031661036a565b34801561017857600080fd5b506100f16104bd565b34801561018d57600080fd5b506100f16104cc565b3480156101a257600080fd5b506101ab61050c565b604080519115158252519081900360200190f35b3480156101cb57600080fd5b50610137600480360360208110156101e257600080fd5b5035600160a060020a031661051d565b3480156101fe57600080fd5b506101376004803603602081101561021557600080fd5b5035600160a060020a0316610572565b34801561023157600080fd5b506101376004803603602081101561024857600080fd5b5035600160a060020a03166105c4565b34801561026457600080fd5b506100f1610616565b34801561027957600080fd5b506101376004803603602081101561029057600080fd5b5035600160a060020a0316610656565b600260205260009081526040902054600160a060020a031681565b60006102fb6040805190810160405280601081526020017f434644466163746f72794c617465737400000000000000000000000000000000815250610672565b905090565b61030861050c565b151561031357600080fd5b60008054604051600160a060020a03909116907f8be0079c531659141344cd1fd0a4f28419497f9722a3daafe3b4186f6b6457e0908390a36000805473ffffffffffffffffffffffffffffffffffffffff19169055565b60006103746102bb565b60408051606081018252602881527f4f6e6c79206c61746573742043464420466163746f72792063616e206164642060208201527f6e657720434644730000000000000000000000000000000000000000000000009181019190915290915033600160a060020a03831614610481576040517f08c379a00000000000000000000000000000000000000000000000000000000081526004018080602001828103825283818151815260200191508051906020019080838360005b8381101561044657818101518382015260200161042e565b50505050905090810190601f1680156104735780820380516001836020036101000a031916815260200191505b509250505060405180910390fd5b50600160a060020a039182166000908152600260205260409020805473ffffffffffffffffffffffffffffffffffffffff191691909216179055565b600054600160a060020a031690565b60006102fb6040805190810160405280600381526020017f4441490000000000000000000000000000000000000000000000000000000000815250610672565b600054600160a060020a0316331490565b61052561050c565b151561053057600080fd5b61056f6040805190810160405280600481526020017f466565730000000000000000000000000000000000000000000000000000000081525082610703565b50565b61057a61050c565b151561058557600080fd5b61056f6040805190810160405280601081526020017f434644466163746f72794c61746573740000000000000000000000000000000081525082610703565b6105cc61050c565b15156105d757600080fd5b61056f6040805190810160405280600381526020017f444149000000000000000000000000000000000000000000000000000000000081525082610703565b60006102fb6040805190810160405280600481526020017f4665657300000000000000000000000000000000000000000000000000000000815250610672565b61065e61050c565b151561066957600080fd5b61056f816107bf565b600060016000836040516020018082805190602001908083835b602083106106ab5780518252601f19909201916020918201910161068c565b51815160209384036101000a60001901801990921691161790526040805192909401828103601f19018352845281519181019190912086528501959095529290920160002054600160a060020a031695945050505050565b61070b61050c565b151561071657600080fd5b8060016000846040516020018082805190602001908083835b6020831061074e5780518252601f19909201916020918201910161072f565b6001836020036101000a03801982511681845116808217855250505050505090500191505060405160208183030381529060405280519060200120815260200190815260200160002060006101000a815481600160a060020a030219169083600160a060020a031602179055505050565b600160a060020a03811615156107d457600080fd5b60008054604051600160a060020a03808516939216917f8be0079c531659141344cd1fd0a4f28419497f9722a3daafe3b4186f6b6457e091a36000805473ffffffffffffffffffffffffffffffffffffffff1916600160a060020a039290921691909117905556fea165627a7a72305820dd57606943402cf7dfc6fd964362ad04681600af7e03b0c77095194d2bb2103d0029",
  "source": "pragma solidity ^0.5.0;\n\nimport \"openzeppelin-solidity/contracts/ownership/Ownable.sol\";\nimport \"openzeppelin-solidity/contracts/token/ERC20/ERC20.sol\";\nimport \"./DBC.sol\";\n\ncontract Registry is DBC, Ownable {\n\n    string constant REASON_MUST_BE_LATEST_FACTORY = \"Only latest CFD Factory can add new CFDs\";\n\n    mapping(bytes32 => address) contracts;\n\n    function getCFDFactoryLatest() public view returns (address) {\n        return get(\"CFDFactoryLatest\");\n    }\n\n    function setCFDFactoryLatest(address _addr) public onlyOwner {\n        set(\"CFDFactoryLatest\", _addr);\n    }\n\n    function getFees() public view returns (address) {\n        return get(\"Fees\");\n    }\n\n    function setFees(address _addr) public onlyOwner {\n        set(\"Fees\", _addr);\n    }\n\n    function getDAI() public view returns (ERC20) {\n        return ERC20(get(\"DAI\"));\n    }\n\n    function setDAI(address _addr) public onlyOwner {\n        set(\"DAI\", _addr);\n    }\n\n    function set(string memory _name, address _addr) private onlyOwner {\n        contracts[keccak256(abi.encodePacked(_name))] = _addr;\n    }\n\n    function get(string memory _name) private view returns (address addr) {\n        addr = contracts[keccak256(abi.encodePacked(_name))];\n    }\n\n\n    /*\n     * A registry of ALL CFDs created across any version set of the contracts.\n     *\n     * The mapping is from CFD address to CFDFactory that created it.\n     *\n     * The main reason to keep this is for the CFD upgrade mechansim to have a\n     * way to know a given CFD was created correctly through the 0xFutures\n     * mechansim and is not some dummy contract trying to onboard through\n     * the upgrade mechanism.\n     */\n    // cfd to cfd factory\n    mapping(address => address) public allCFDs;\n\n    function addCFD(address _cfdAddr) public {\n        address cfdFactoryCurrent = getCFDFactoryLatest();\n        // only the latest deployed factory is allowed to add new CFDs\n        require(msg.sender == cfdFactoryCurrent, REASON_MUST_BE_LATEST_FACTORY);\n        allCFDs[_cfdAddr] = cfdFactoryCurrent;\n    }\n\n\n}\n",
  "sourcePath": "/home/julien/0xFutures/protocol-infura/contracts/Registry.sol",
  "compiler": {
    "name": "solc",
    "version": "0.5.0+commit.1d4f565a.Emscripten.clang"
  },
  "schemaVersion": "3.0.2",
  "updatedAt": "2019-03-03T13:38:48.210Z",
  "devdoc": {
    "methods": {
      "isOwner()": {
        "return": "true if `msg.sender` is the owner of the contract."
      },
      "owner()": {
        "return": "the address of the owner."
      },
      "renounceOwnership()": {
        "details": "Allows the current owner to relinquish control of the contract."
      },
      "transferOwnership(address)": {
        "details": "Allows the current owner to transfer control of the contract to a newOwner.",
        "params": {
          "newOwner": "The address to transfer ownership to."
        }
      }
    }
  },
  "userdoc": {
    "methods": {
      "renounceOwnership()": {
        "notice": "Renouncing to ownership will leave the contract without an owner. It will not be possible to call the functions with the `onlyOwner` modifier anymore."
      }
    }
  }
}