{
  "contractName": "Registry",
  "abi": [
    {
      "constant": true,
      "inputs": [
        {
          "name": "",
          "type": "address"
        }
      ],
      "name": "allCFDs",
      "outputs": [
        {
          "name": "",
          "type": "address"
        }
      ],
      "payable": false,
      "stateMutability": "view",
      "type": "function"
    },
    {
      "constant": false,
      "inputs": [],
      "name": "renounceOwnership",
      "outputs": [],
      "payable": false,
      "stateMutability": "nonpayable",
      "type": "function"
    },
    {
      "constant": true,
      "inputs": [],
      "name": "owner",
      "outputs": [
        {
          "name": "",
          "type": "address"
        }
      ],
      "payable": false,
      "stateMutability": "view",
      "type": "function"
    },
    {
      "constant": true,
      "inputs": [],
      "name": "isOwner",
      "outputs": [
        {
          "name": "",
          "type": "bool"
        }
      ],
      "payable": false,
      "stateMutability": "view",
      "type": "function"
    },
    {
      "constant": false,
      "inputs": [
        {
          "name": "newOwner",
          "type": "address"
        }
      ],
      "name": "transferOwnership",
      "outputs": [],
      "payable": false,
      "stateMutability": "nonpayable",
      "type": "function"
    },
    {
      "anonymous": false,
      "inputs": [
        {
          "indexed": true,
          "name": "previousOwner",
          "type": "address"
        },
        {
          "indexed": true,
          "name": "newOwner",
          "type": "address"
        }
      ],
      "name": "OwnershipTransferred",
      "type": "event"
    },
    {
      "constant": true,
      "inputs": [],
      "name": "getCFDFactoryLatest",
      "outputs": [
        {
          "name": "",
          "type": "address"
        }
      ],
      "payable": false,
      "stateMutability": "view",
      "type": "function"
    },
    {
      "constant": false,
      "inputs": [
        {
          "name": "_addr",
          "type": "address"
        }
      ],
      "name": "setCFDFactoryLatest",
      "outputs": [],
      "payable": false,
      "stateMutability": "nonpayable",
      "type": "function"
    },
    {
      "constant": true,
      "inputs": [],
      "name": "getFees",
      "outputs": [
        {
          "name": "",
          "type": "address"
        }
      ],
      "payable": false,
      "stateMutability": "view",
      "type": "function"
    },
    {
      "constant": false,
      "inputs": [
        {
          "name": "_addr",
          "type": "address"
        }
      ],
      "name": "setFees",
      "outputs": [],
      "payable": false,
      "stateMutability": "nonpayable",
      "type": "function"
    },
    {
      "constant": true,
      "inputs": [],
      "name": "getDAI",
      "outputs": [
        {
          "name": "",
          "type": "address"
        }
      ],
      "payable": false,
      "stateMutability": "view",
      "type": "function"
    },
    {
      "constant": false,
      "inputs": [
        {
          "name": "_addr",
          "type": "address"
        }
      ],
      "name": "setDAI",
      "outputs": [],
      "payable": false,
      "stateMutability": "nonpayable",
      "type": "function"
    },
    {
      "constant": true,
      "inputs": [],
      "name": "getProxyCodeHash",
      "outputs": [
        {
          "name": "",
          "type": "bytes32"
        }
      ],
      "payable": false,
      "stateMutability": "view",
      "type": "function"
    },
    {
      "constant": false,
      "inputs": [
        {
          "name": "_hash",
          "type": "bytes32"
        }
      ],
      "name": "setProxyCodeHash",
      "outputs": [],
      "payable": false,
      "stateMutability": "nonpayable",
      "type": "function"
    },
    {
      "constant": false,
      "inputs": [
        {
          "name": "_cfdAddr",
          "type": "address"
        }
      ],
      "name": "addCFD",
      "outputs": [],
      "payable": false,
      "stateMutability": "nonpayable",
      "type": "function"
    }
  ],
  "bytecode": "0x60806040819052600080546001600160a01b03191633178082556001600160a01b0316917f8be0079c531659141344cd1fd0a4f28419497f9722a3daafe3b4186f6b6457e0908290a3610784806100576000396000f3fe608060405234801561001057600080fd5b50600436106100ea5760003560e01c8063a275b7041161008c578063b97dbf5911610066578063b97dbf59146101fe578063db8d55f114610224578063e37af2d11461022c578063f2fde38b14610246576100ea565b8063a275b70414610195578063a6ab325c146101bb578063b4a86962146101d8576100ea565b806376d00fd8116100c857806376d00fd8146101435780638da5cb5b146101695780638ef85568146101715780638f32d59b14610179576100ea565b80630c5a95f8146100ef57806323ec7f2a14610131578063715018a614610139575b600080fd5b6101156004803603602081101561010557600080fd5b50356001600160a01b031661026c565b604080516001600160a01b039092168252519081900360200190f35b610115610287565b6101416102c2565b005b6101416004803603602081101561015957600080fd5b50356001600160a01b031661031d565b610115610412565b610115610421565b61018161044a565b604080519115158252519081900360200190f35b610141600480360360208110156101ab57600080fd5b50356001600160a01b031661045b565b610141600480360360208110156101d157600080fd5b5035610498565b610141600480360360208110156101ee57600080fd5b50356001600160a01b03166104ae565b6101416004803603602081101561021457600080fd5b50356001600160a01b03166104f4565b61011561052d565b610234610557565b60408051918252519081900360200190f35b6101416004803603602081101561025c57600080fd5b50356001600160a01b031661055d565b6003602052600090815260409020546001600160a01b031681565b60006102bd604051806040016040528060108152602001600160821b6f10d191119858dd1bdc9e53185d195cdd02815250610577565b905090565b6102ca61044a565b6102d357600080fd5b600080546040516001600160a01b03909116907f8be0079c531659141344cd1fd0a4f28419497f9722a3daafe3b4186f6b6457e0908390a3600080546001600160a01b0319169055565b6000610327610287565b9050806001600160a01b0316336001600160a01b03161460405180606001604052806028815260200161073160289139906103e357604051600160e51b62461bcd0281526004018080602001828103825283818151815260200191508051906020019080838360005b838110156103a8578181015183820152602001610390565b50505050905090810190601f1680156103d55780820380516001836020036101000a031916815260200191505b509250505060405180910390fd5b506001600160a01b03918216600090815260036020526040902080546001600160a01b03191691909216179055565b6000546001600160a01b031690565b60006102bd604051806040016040528060038152602001600160e81b6244414902815250610577565b6000546001600160a01b0316331490565b61046361044a565b61046c57600080fd5b610495604051806040016040528060048152602001600160e01b63466565730281525082610608565b50565b6104a061044a565b6104a957600080fd5b600255565b6104b661044a565b6104bf57600080fd5b610495604051806040016040528060108152602001600160821b6f10d191119858dd1bdc9e53185d195cdd0281525082610608565b6104fc61044a565b61050557600080fd5b610495604051806040016040528060038152602001600160e81b624441490281525082610608565b60006102bd604051806040016040528060048152602001600160e01b634665657302815250610577565b60025490565b61056561044a565b61056e57600080fd5b610495816106c2565b600060016000836040516020018082805190602001908083835b602083106105b05780518252601f199092019160209182019101610591565b51815160209384036101000a60001901801990921691161790526040805192909401828103601f190183528452815191810191909120865285019590955292909201600020546001600160a01b031695945050505050565b61061061044a565b61061957600080fd5b8060016000846040516020018082805190602001908083835b602083106106515780518252601f199092019160209182019101610632565b6001836020036101000a03801982511681845116808217855250505050505090500191505060405160208183030381529060405280519060200120815260200190815260200160002060006101000a8154816001600160a01b0302191690836001600160a01b031602179055505050565b6001600160a01b0381166106d557600080fd5b600080546040516001600160a01b03808516939216917f8be0079c531659141344cd1fd0a4f28419497f9722a3daafe3b4186f6b6457e091a3600080546001600160a01b0319166001600160a01b039290921691909117905556fe4f6e6c79206c61746573742043464420466163746f72792063616e20616464206e65772043464473a165627a7a72305820ac31d36b987773de75ffc2cc3fdaae47a8d44ae79c229cb44acd2cac371a75910029",
  "source": "pragma solidity ^0.5.0;\r\n\r\nimport \"openzeppelin-solidity/contracts/ownership/Ownable.sol\";\r\nimport \"openzeppelin-solidity/contracts/token/ERC20/ERC20.sol\";\r\nimport \"./DBC.sol\";\r\n\r\ncontract Registry is DBC, Ownable {\r\n\r\n    string constant REASON_MUST_BE_LATEST_FACTORY = \"Only latest CFD Factory can add new CFDs\";\r\n\r\n    mapping(bytes32 => address) contracts;\r\n\r\n    bytes32 proxyCodeHash;\r\n\r\n    function getCFDFactoryLatest() public view returns (address) {\r\n        return get(\"CFDFactoryLatest\");\r\n    }\r\n\r\n    function setCFDFactoryLatest(address _addr) public onlyOwner {\r\n        set(\"CFDFactoryLatest\", _addr);\r\n    }\r\n\r\n    function getFees() public view returns (address) {\r\n        return get(\"Fees\");\r\n    }\r\n\r\n    function setFees(address _addr) public onlyOwner {\r\n        set(\"Fees\", _addr);\r\n    }\r\n\r\n    function getDAI() public view returns (ERC20) {\r\n        return ERC20(get(\"DAI\"));\r\n    }\r\n\r\n    function setDAI(address _addr) public onlyOwner {\r\n        set(\"DAI\", _addr);\r\n    }\r\n\r\n    function getProxyCodeHash() public view returns (bytes32) {\r\n        return proxyCodeHash;\r\n    }\r\n\r\n    function setProxyCodeHash(bytes32 _hash) public onlyOwner {\r\n        proxyCodeHash = _hash;\r\n    }\r\n\r\n    function set(string memory _name, address _addr) private onlyOwner {\r\n        contracts[keccak256(abi.encodePacked(_name))] = _addr;\r\n    }\r\n\r\n    function get(string memory _name) private view returns (address addr) {\r\n        addr = contracts[keccak256(abi.encodePacked(_name))];\r\n    }\r\n\r\n\r\n    /*\r\n     * A registry of ALL CFDs created across any version set of the contracts.\r\n     *\r\n     * The mapping is from CFD address to CFDFactory that created it.\r\n     *\r\n     * The main reason to keep this is for the CFD upgrade mechansim to have a\r\n     * way to know a given CFD was created correctly through the 0xFutures\r\n     * mechansim and is not some dummy contract trying to onboard through\r\n     * the upgrade mechanism.\r\n     */\r\n    // cfd to cfd factory\r\n    mapping(address => address) public allCFDs;\r\n\r\n    function addCFD(address _cfdAddr) public {\r\n        address cfdFactoryCurrent = getCFDFactoryLatest();\r\n        // only the latest deployed factory is allowed to add new CFDs\r\n        require(msg.sender == cfdFactoryCurrent, REASON_MUST_BE_LATEST_FACTORY);\r\n        allCFDs[_cfdAddr] = cfdFactoryCurrent;\r\n    }\r\n\r\n\r\n}\r\n",
  "sourcePath": "D:\\Users\\Julien\\Desktop\\Work\\0xFutures\\protocol\\contracts\\Registry.sol",
  "compiler": {
    "name": "solc",
    "version": "0.5.6+commit.b259423e.Emscripten.clang"
  },
  "schemaVersion": "3.0.8",
  "updatedAt": "2019-05-16T06:11:23.261Z",
  "devdoc": {
    "methods": {
      "isOwner()": {
        "return": "true if `msg.sender` is the owner of the contract."
      },
      "owner()": {
        "return": "the address of the owner."
      },
      "renounceOwnership()": {
        "details": "Allows the current owner to relinquish control of the contract."
      },
      "transferOwnership(address)": {
        "details": "Allows the current owner to transfer control of the contract to a newOwner.",
        "params": {
          "newOwner": "The address to transfer ownership to."
        }
      }
    }
  },
  "userdoc": {
    "methods": {
      "renounceOwnership()": {
        "notice": "Renouncing to ownership will leave the contract without an owner. It will not be possible to call the functions with the `onlyOwner` modifier anymore."
      }
    }
  }
}