{
  "contractName": "Registry",
  "abi": [
    {
      "constant": true,
      "inputs": [
        {
          "name": "",
          "type": "address"
        }
      ],
      "name": "allCFDs",
      "outputs": [
        {
          "name": "",
          "type": "address"
        }
      ],
      "payable": false,
      "stateMutability": "view",
      "type": "function"
    },
    {
      "constant": false,
      "inputs": [],
      "name": "renounceOwnership",
      "outputs": [],
      "payable": false,
      "stateMutability": "nonpayable",
      "type": "function"
    },
    {
      "constant": true,
      "inputs": [],
      "name": "owner",
      "outputs": [
        {
          "name": "",
          "type": "address"
        }
      ],
      "payable": false,
      "stateMutability": "view",
      "type": "function"
    },
    {
      "constant": true,
      "inputs": [],
      "name": "isOwner",
      "outputs": [
        {
          "name": "",
          "type": "bool"
        }
      ],
      "payable": false,
      "stateMutability": "view",
      "type": "function"
    },
    {
      "constant": false,
      "inputs": [
        {
          "name": "newOwner",
          "type": "address"
        }
      ],
      "name": "transferOwnership",
      "outputs": [],
      "payable": false,
      "stateMutability": "nonpayable",
      "type": "function"
    },
    {
      "anonymous": false,
      "inputs": [
        {
          "indexed": true,
          "name": "previousOwner",
          "type": "address"
        },
        {
          "indexed": true,
          "name": "newOwner",
          "type": "address"
        }
      ],
      "name": "OwnershipTransferred",
      "type": "event"
    },
    {
      "constant": true,
      "inputs": [],
      "name": "getCFDFactoryLatest",
      "outputs": [
        {
          "name": "",
          "type": "address"
        }
      ],
      "payable": false,
      "stateMutability": "view",
      "type": "function"
    },
    {
      "constant": false,
      "inputs": [
        {
          "name": "_addr",
          "type": "address"
        }
      ],
      "name": "setCFDFactoryLatest",
      "outputs": [],
      "payable": false,
      "stateMutability": "nonpayable",
      "type": "function"
    },
    {
      "constant": true,
      "inputs": [],
      "name": "getDAI",
      "outputs": [
        {
          "name": "",
          "type": "address"
        }
      ],
      "payable": false,
      "stateMutability": "view",
      "type": "function"
    },
    {
      "constant": false,
      "inputs": [
        {
          "name": "_addr",
          "type": "address"
        }
      ],
      "name": "setDAI",
      "outputs": [],
      "payable": false,
      "stateMutability": "nonpayable",
      "type": "function"
    },
    {
      "constant": true,
      "inputs": [],
      "name": "getKyberNetworkProxy",
      "outputs": [
        {
          "name": "",
          "type": "address"
        }
      ],
      "payable": false,
      "stateMutability": "view",
      "type": "function"
    },
    {
      "constant": false,
      "inputs": [
        {
          "name": "_addr",
          "type": "address"
        }
      ],
      "name": "setKyberNetworkProxy",
      "outputs": [],
      "payable": false,
      "stateMutability": "nonpayable",
      "type": "function"
    },
    {
      "constant": true,
      "inputs": [],
      "name": "getProxyCodeHash",
      "outputs": [
        {
          "name": "",
          "type": "bytes32"
        }
      ],
      "payable": false,
      "stateMutability": "view",
      "type": "function"
    },
    {
      "constant": false,
      "inputs": [
        {
          "name": "_hash",
          "type": "bytes32"
        }
      ],
      "name": "setProxyCodeHash",
      "outputs": [],
      "payable": false,
      "stateMutability": "nonpayable",
      "type": "function"
    },
    {
      "constant": false,
      "inputs": [
        {
          "name": "_cfdAddr",
          "type": "address"
        }
      ],
      "name": "addCFD",
      "outputs": [],
      "payable": false,
      "stateMutability": "nonpayable",
      "type": "function"
    }
  ],
  "bytecode": "0x60806040819052600080546001600160a01b03191633178082556001600160a01b0316917f8be0079c531659141344cd1fd0a4f28419497f9722a3daafe3b4186f6b6457e0908290a361079e806100576000396000f3fe608060405234801561001057600080fd5b50600436106100ea5760003560e01c80638ef855681161008c578063b4a8696211610066578063b4a86962146101e0578063b97dbf5914610206578063e37af2d11461022c578063f2fde38b14610246576100ea565b80638ef855681461019f5780638f32d59b146101a7578063a6ab325c146101c3576100ea565b806346756190116100c85780634675619014610161578063715018a61461016957806376d00fd8146101715780638da5cb5b14610197576100ea565b80630c5a95f8146100ef57806323ec7f2a14610131578063277206dd14610139575b600080fd5b6101156004803603602081101561010557600080fd5b50356001600160a01b031661026c565b604080516001600160a01b039092168252519081900360200190f35b610115610287565b61015f6004803603602081101561014f57600080fd5b50356001600160a01b03166102c2565b005b61011561030c565b61015f610343565b61015f6004803603602081101561018757600080fd5b50356001600160a01b031661039e565b610115610493565b6101156104a2565b6101af6104cb565b604080519115158252519081900360200190f35b61015f600480360360208110156101d957600080fd5b50356104dc565b61015f600480360360208110156101f657600080fd5b50356001600160a01b03166104f2565b61015f6004803603602081101561021c57600080fd5b50356001600160a01b0316610538565b610234610571565b60408051918252519081900360200190f35b61015f6004803603602081101561025c57600080fd5b50356001600160a01b0316610577565b6003602052600090815260409020546001600160a01b031681565b60006102bd604051806040016040528060108152602001600160821b6f10d191119858dd1bdc9e53185d195cdd02815250610591565b905090565b6102ca6104cb565b6102d357600080fd5b610309604051806040016040528060118152602001600160781b704b796265724e6574776f726b50726f78790281525082610622565b50565b60006102bd604051806040016040528060118152602001600160781b704b796265724e6574776f726b50726f787902815250610591565b61034b6104cb565b61035457600080fd5b600080546040516001600160a01b03909116907f8be0079c531659141344cd1fd0a4f28419497f9722a3daafe3b4186f6b6457e0908390a3600080546001600160a01b0319169055565b60006103a8610287565b9050806001600160a01b0316336001600160a01b03161460405180606001604052806028815260200161074b602891399061046457604051600160e51b62461bcd0281526004018080602001828103825283818151815260200191508051906020019080838360005b83811015610429578181015183820152602001610411565b50505050905090810190601f1680156104565780820380516001836020036101000a031916815260200191505b509250505060405180910390fd5b506001600160a01b03918216600090815260036020526040902080546001600160a01b03191691909216179055565b6000546001600160a01b031690565b60006102bd604051806040016040528060038152602001600160e81b6244414902815250610591565b6000546001600160a01b0316331490565b6104e46104cb565b6104ed57600080fd5b600255565b6104fa6104cb565b61050357600080fd5b610309604051806040016040528060108152602001600160821b6f10d191119858dd1bdc9e53185d195cdd0281525082610622565b6105406104cb565b61054957600080fd5b610309604051806040016040528060038152602001600160e81b624441490281525082610622565b60025490565b61057f6104cb565b61058857600080fd5b610309816106dc565b600060016000836040516020018082805190602001908083835b602083106105ca5780518252601f1990920191602091820191016105ab565b51815160209384036101000a60001901801990921691161790526040805192909401828103601f190183528452815191810191909120865285019590955292909201600020546001600160a01b031695945050505050565b61062a6104cb565b61063357600080fd5b8060016000846040516020018082805190602001908083835b6020831061066b5780518252601f19909201916020918201910161064c565b6001836020036101000a03801982511681845116808217855250505050505090500191505060405160208183030381529060405280519060200120815260200190815260200160002060006101000a8154816001600160a01b0302191690836001600160a01b031602179055505050565b6001600160a01b0381166106ef57600080fd5b600080546040516001600160a01b03808516939216917f8be0079c531659141344cd1fd0a4f28419497f9722a3daafe3b4186f6b6457e091a3600080546001600160a01b0319166001600160a01b039290921691909117905556fe4f6e6c79206c61746573742043464420466163746f72792063616e20616464206e65772043464473a165627a7a723058203020eb846827318e740265a0b1a8bcd88f71c37853ab005b4978be3c0e10b4140029",
  "source": "pragma solidity ^0.5.0;\r\n\r\nimport \"openzeppelin-solidity/contracts/ownership/Ownable.sol\";\r\nimport \"openzeppelin-solidity/contracts/token/ERC20/ERC20.sol\";\r\nimport \"./DBC.sol\";\r\nimport \"./kyber/KyberNetworkProxyInterface.sol\";\r\n\r\ncontract Registry is DBC, Ownable {\r\n\r\n    string constant REASON_MUST_BE_LATEST_FACTORY = \"Only latest CFD Factory can add new CFDs\";\r\n\r\n    string constant KEY_CFD_FACTORY_LATEST = \"CFDFactoryLatest\";\r\n    string constant KEY_DAI = \"DAI\";\r\n    string constant KEY_KYBER_NETWORK_PROXY = \"KyberNetworkProxy\";\r\n\r\n    mapping(bytes32 => address) contracts;\r\n\r\n    bytes32 proxyCodeHash;\r\n\r\n    function getCFDFactoryLatest() public view returns (address) {\r\n        return get(KEY_CFD_FACTORY_LATEST);\r\n    }\r\n\r\n    function setCFDFactoryLatest(address _addr) public onlyOwner {\r\n        set(KEY_CFD_FACTORY_LATEST, _addr);\r\n    }\r\n\r\n    function getDAI() public view returns (ERC20) {\r\n        return ERC20(get(KEY_DAI));\r\n    }\r\n\r\n    function setDAI(address _addr) public onlyOwner {\r\n        set(KEY_DAI, _addr);\r\n    }\r\n\r\n    function getKyberNetworkProxy() public view returns (KyberNetworkProxyInterface) {\r\n        return KyberNetworkProxyInterface(get(KEY_KYBER_NETWORK_PROXY));\r\n    }\r\n\r\n    function setKyberNetworkProxy(address _addr) public onlyOwner {\r\n        set(KEY_KYBER_NETWORK_PROXY, _addr);\r\n    }\r\n\r\n    function getProxyCodeHash() public view returns (bytes32) {\r\n        return proxyCodeHash;\r\n    }\r\n\r\n    function setProxyCodeHash(bytes32 _hash) public onlyOwner {\r\n        proxyCodeHash = _hash;\r\n    }\r\n\r\n    function set(string memory _name, address _addr) private onlyOwner {\r\n        contracts[keccak256(abi.encodePacked(_name))] = _addr;\r\n    }\r\n\r\n    function get(string memory _name) private view returns (address addr) {\r\n        addr = contracts[keccak256(abi.encodePacked(_name))];\r\n    }\r\n\r\n\r\n    /*\r\n     * A registry of ALL CFDs created across any version set of the contracts.\r\n     *\r\n     * The mapping is from CFD address to CFDFactory that created it.\r\n     *\r\n     * The main reason to keep this is for the CFD upgrade mechansim to have a\r\n     * way to know a given CFD was created correctly through the 0xFutures\r\n     * mechansim and is not some dummy contract trying to onboard through\r\n     * the upgrade mechanism.\r\n     */\r\n    // cfd to cfd factory\r\n    mapping(address => address) public allCFDs;\r\n\r\n    function addCFD(address _cfdAddr) public {\r\n        address cfdFactoryCurrent = getCFDFactoryLatest();\r\n        // only the latest deployed factory is allowed to add new CFDs\r\n        require(msg.sender == cfdFactoryCurrent, REASON_MUST_BE_LATEST_FACTORY);\r\n        allCFDs[_cfdAddr] = cfdFactoryCurrent;\r\n    }\r\n\r\n\r\n}\r\n",
  "sourcePath": "D:\\Users\\Julien\\Desktop\\Work\\0xFutures\\protocol\\contracts\\Registry.sol",
  "compiler": {
    "name": "solc",
    "version": "0.5.6+commit.b259423e.Emscripten.clang"
  },
  "schemaVersion": "3.0.8",
  "updatedAt": "2019-12-29T13:29:19.588Z",
  "devdoc": {
    "methods": {
      "isOwner()": {
        "return": "true if `msg.sender` is the owner of the contract."
      },
      "owner()": {
        "return": "the address of the owner."
      },
      "renounceOwnership()": {
        "details": "Allows the current owner to relinquish control of the contract."
      },
      "transferOwnership(address)": {
        "details": "Allows the current owner to transfer control of the contract to a newOwner.",
        "params": {
          "newOwner": "The address to transfer ownership to."
        }
      }
    }
  },
  "userdoc": {
    "methods": {
      "renounceOwnership()": {
        "notice": "Renouncing to ownership will leave the contract without an owner. It will not be possible to call the functions with the `onlyOwner` modifier anymore."
      }
    }
  }
}